:020000040800F2
:1000000000C000201956000861560008615600081B
:1000100061560008615600086156000800000000A3
:100020000000000000000000000000006156000811
:10003000615600080000000061560008B11D00086C
:1000400061560008615600086156000861560008B4
:1000500061560008615600086156000861560008A4
:10006000615600086156000861560008011E00082C
:100070006156000861560008615600086156000884
:100080006156000861560008615600086156000874
:100090006156000861560008615600086156000864
:1000A0006156000861560008615600086156000854
:1000B000CD1D000861560008615600086156000811
:1000C0006156000861560008615600086156000834
:1000D000615600086156000861560008153B00088B
:1000E0006156000861560008615600086156000814
:1000F0006156000861560008615600086156000804
:1001000061560008615600086156000861560008F3
:1001100061560008615600086156000861560008E3
:1001200061560008615600086156000861560008D3
:1001300080B500AF00F02AF80F4805F09FFD00F0F1
:100140007FFB0E4805F09AFD06E000F081FA0A20D8
:1001500001F018FC05F0A6F9094B1B79002BF4D02F
:10016000022000F02FFD074B01221A70064805F00F
:1001700085FD00F05DF8FCE74CAE000890AE00088D
:10018000DC010020EE010020B0AE000880B500AF19
:100190004FF4E13001F074FF01F004FB01F046FB85
:1001A00001F06AFB00F004FD03F0F2FC03F008FD2F
:1001B00001F08EFB01F0A6FB01F0BCFB00F054FE49
:1001C00000F020F80A4805F059FD0A4805F056FDF0
:1001D000094805F053FD4FF47A51084808F0B8FA81
:1001E000034805F04BFD064B00221A7000BF80BD8E
:1001F000D4AE0008F8AE00081CAF00082CAF000811
:10020000EE01002080B400AF034B00221A7000BF43
:10021000BD4680BC704700BFED01002080B400AF38
:10022000024B1B781846BD4680BC7047ED0100208C
:1002300080B582B000AF01F0BFFB786001F0B4FF81
:1002400000F010FD394B1B687A68D31A042B69D96A
:10025000364A7B68136000F077F800F035F900F05B
:10026000F7F901F0C7F80346314A936000237B8019
:1002700000233B802E4BB3F900002D4BB3F9021045
:100280003B46BA1C01F0DEF8294B1B79012B14D137
:10029000284B1B78002B10D1B7F90230184600F01C
:1002A00013FEB7F90030184600F02EFE012000F0D2
:1002B0004BFE214B02221A7005E0002000F044FEA4
:1002C0001D4B01221A70B7F90230002BB8BF5B42F8
:1002D0009BB2322B07D8B7F90030002BB8BF5B4276
:1002E0009BB2322B03D9154B00221A6004E0134B4A
:1002F0001B680133114A136000F01EFA104B1A6894
:10030000531C0F490B600F4BA3FB02139B09C82121
:1003100001FB03F3D31A002B01D100F03BFB05F0E6
:10032000C1F800E000BF0837BD4680BDF0010020E5
:10033000DC010020EC010020EE010020E80100209B
:10034000F40100201F85EB5180B582B000AF00237F
:10035000FB71FFF763FF0346002B3FD04A4B9B68BE
:100360004FF07E5118460AF003FD0346002B19D0CA
:10037000454B9B68184609F01FFF02460B46434851
:1003800008F0E6F9FB7943F00103FB713E4B9B68F3
:100390003F4918460AF0ECFC0346002B1ED000F043
:1003A000AFFA1BE0384B9B684FF0804118460AF0CB
:1003B000DFFC0346002B11D0364B1A68531C35491D
:1003C0000B60354BA3FB02135B09642101FB03F3B4
:1003D000D31A002B02D1032000F0F4FB01F014F833
:1003E00038602E4938680AF0E1FC0346002B0BD038
:1003F000386809F0E1FE02460B46294808F0A8F9E2
:10040000FB7943F00203FB71264B1B780A2B09D9B9
:10041000254805F033FCFB7943F00803FB71234BBF
:1004200003221A70224B1B68224A934204D92248A5
:1004300005F024FC00F064FA204B1B78012B06D158
:100440001F4805F01BFCFB7943F01003FB71FB799F
:10045000002B0FD01B4B1B78FA799A4206D1114B17
:100460001B780133DAB20F4B1A7006E00D4B0122F4
:100470001A7002E00B4B00221A70124AFB791370BB
:1004800000BF0837BD4680BDDC01002044AF000836
:10049000000080BFF80100201F85EB510000A04143
:1004A0006CAF0008FC01002090AF0008EE010020B6
:1004B000E8010020C0D40100A4AF0008EC01002036
:1004C000C8AF0008FD01002090B583B000AF01F077
:1004D000ABFC01F035FD0346FB8001F039FD03461E
:1004E000BB8001F03DFD0346FB70524BB3F9003079
:1004F00018460AF04BFA03464F4918460AF09AFA92
:1005000003461C46B7F9063018460AF03FFA034680
:100510004A4918460AF08EFA0346194620460AF060
:1005200081F9034618460AF04BFC03461AB2414BC8
:100530001A80434BB3F9003018460AF027FA0346F5
:100540003D4918460AF076FA03461C46B7F90430CE
:1005500018460AF01BFA0346384918460AF06AFAA8
:100560000346194620460AF05DF9034618460AF08C
:1005700027FC03461AB2324B1A802E4BB3F90030D7
:10058000002BB8BF5B429BB2132B02D8294B002231
:100590001A802B4BB3F90030002BB8BF5B429BB2E3
:1005A000132B02D8264B00221A80224BB3F90030BD
:1005B00013F57A7F09DB1F4BB3F90030B3F57A7F6F
:1005C000A8BF4FF47A731BB200E01E4B1E4A138083
:1005D0001B4BB3F9003013F57A7F09DB184BB3F9E5
:1005E0000030B3F57A7FA8BF4FF47A731BB200E0F6
:1005F000144B154A5380FB78012B02D1124B012278
:100600001A7101F0C1FC0346002B0CBF012300232B
:10061000DBB21A460D4B1A700C4B1B78012B05D11F
:10062000094B00221A80084B00225A8000BF0C3769
:10063000BD4690BDFE010020CDCC4C3FCDCC4C3E04
:100640000002002018FCFFFFDC010020EC0100206C
:1006500080B582B000AF4FF400512F4803F09DFBEE
:100660000346002B14BF01230023DBB2FB71FB798F
:10067000012B1BD1294B1B78002B07D101F09CF9D2
:100680000346274A1360254B01221A7001F094F9A2
:100690000246234B1B68D31A40F6B832934237D92F
:1006A000204805F0EBFA00F02BF931E01B4B1B78EA
:1006B000012B2DD101F080F90246194B1B68D31A8A
:1006C0003B603B68B3F57A7F1FD2174B1B79002B39
:1006D0000CBF01230023DBB21A46134B1A71124BD5
:1006E0001B79002B01D0114B00E0114B194611482A
:1006F00008F02EF80C4B1B79002B03D0022000F0E1
:1007000061FA02E0012000F05DFA044B00221A7049
:1007100000BF0837BD4680BD001001400202002026
:1007200004020020DCAF0008DC010020F0AF00086C
:10073000F4AF0008F8AF000880B500AF3B4B1B7862
:10074000032B6BD801A252F823F000BF5D0700080D
:1007500089070008B7070008C1070008344B1A686A
:10076000344BA3FB02135B09642101FB03F3D31A8F
:10077000312B04D80421304803F0F1FA4EE0042173
:100780002D4803F0FBFA49E0294B1A682B4BA3FBD9
:1007900002135B094FF4FA7101FB03F3D31AF92B2F
:1007A00004D80421244803F0DAFA37E0042122486F
:1007B00003F0E4FA32E004211F4803F0D0FA2DE000
:1007C0001B4B1A681B4BA3FB02139B09C82101FB9F
:1007D00003F3D31A312B17D9154B1A68154BA3FB0A
:1007E00002139B09C82101FB03F3D31A632B10D911
:1007F0000F4B1A680F4BA3FB02139B09C82101FB87
:1008000003F3D31A952B04D804210B4803F0A7FA5D
:1008100003E00421084803F0B1FA00BF044B1B6851
:100820000133034A136000BF80BD00BFEE0100200A
:10083000080200201F85EB51000C0140D34D6210CF
:1008400080B582B000AF012000F07EFB0023FB7179
:1008500044E0FB7901339BB21A46920013441A46D6
:1008600091001A460B4613449B009BB27B80FB7998
:1008700001339BB21A46920013441A4691001A465D
:100880000B4613445B00BB80BB88B3F5FA7F02D9EB
:100890004FF4FA73BB80B7F90230184600F014FB2E
:1008A000B7F90230184600F02FFB1021134803F06F
:1008B00056FABB88184601F065F810210F4803F07E
:1008C0005DFABB88B3F57A7F05D2BB88C3F57A732E
:1008D000184601F057F8FB790133FB71FB79092BBE
:1008E000B7D9002000F0F0FA002000F00DFB002046
:1008F00000F02AFB00BF0837BD4680BD000801405C
:1009000080B582B000AF1D4805F0B8F9002000F0B6
:100910001BFB042000F056F94FF0804003F03DFE31
:10092000174803F03AFE174803F037FE164804F064
:1009300017FA00237B6010E00421144803F00FFA3B
:10094000642001F01FF80421104803F017FA642016
:1009500001F018F87B6801337B607B68042BEBDDCA
:100960000B4805F08BF903F041F9642001F00AF817
:100970004FF47A7001F006F8FAE700BF0CB00008F7
:1009800000080040000C004000240140000C014021
:100990002CB000082DE9F04792B008AF2E4B1B7821
:1009A0003B722E4B9B68FB6000F02EFD03463B61C3
:1009B00000F034FD03467B61294B9B783B7600F0C9
:1009C00037FD0346FB61274B9B7887F82030234B8C
:1009D000B3F900307B84214BB3F90230BB84224B46
:1009E0001B68214A12681946204807F0B1FE3B7A7D
:1009F0009A46FB68184609F0DFFB804689463B694A
:100A0000184609F0D9FB04460D467B6918460AF0E2
:100A1000D7F906463B7E7B60FB6918460AF0D0F9A1
:100A2000034697F82020B7F92210B7F92400079061
:100A30000691059204937B6803930296CDE90045E5
:100A400042464B4651460A4807F082FE00BF28370F
:100A5000BD46BDE8F08700BFEE010020DC010020AC
:100A60001C02002028020020100000203CB00008DA
:100A70005CB0000880B582B000AF0346FB71FB7923
:100A8000012B04D11021064803F069F903E010217D
:100A9000034803F073F900BF0837BD4680BD00BFAF
:100AA0000008014080B500AF0020FFF7E3FF0A4BCC
:100AB00000221A60084B00221A71074B00225A715B
:100AC000054B00229A71044B00229A60024B0022CF
:100AD0001A7300BF80BD00BF0C02002080B582B039
:100AE00000AF78600A4A7B681360094B00221A71D4
:100AF000074B00229A71064B01221A7300F05CFF2B
:100B00000346184600F006F800BF0837BD4680BD12
:100B10000C02002080B584B000AF7860194B1A68D1
:100B2000184B1B7919460B465B000B445B001344C2
:100B3000FB60FB681B88002B0AD1FB685B88002BDD
:100B400006D1FB681B79002B02D1FFF7ABFF16E043
:100B5000FB681B79002B02D0FB681B7900E00123A6
:100B6000084A5371074B01229A710120FFF782FF57
:100B7000FB681B881A467B681344024A936010374F
:100B8000BD4680BD0C02002080B582B000AF786009
:100B9000064B1B790133DAB2044B1A717868FFF700
:100BA000B9FF00BF0837BD4680BD00BF0C02002062
:100BB00080B500AF0020FFF75DFFFFF773FF00BFB8
:100BC00080BD000080B582B000AF0346FB71FB79A9
:100BD000013B092B3ED801A252F823F0050C000876
:100BE0000D0C0008150C00081D0C0008250C000851
:100BF0002D0C0008350C00083D0C0008450C0008C1
:100C00004D0C0008012000F0A7F827E0022000F0BA
:100C1000A3F823E0052000F09FF81FE0062000F075
:100C20009BF81BE0072000F097F817E0082000F081
:100C300093F813E0092000F08FF80FE00A2000F08D
:100C40008BF80BE00B2000F087F807E00C2000F099
:100C500083F803E0002000F07FF800BF00BF0837F2
:100C6000BD4680BD80B582B000AF3A4B1B7B012BE7
:100C700069D1384B1B68002B65D000F09DFE786071
:100C8000344B9B687A68D31A002B5EDB314B1A68B1
:100C9000304B1B7919460B465B000B445B00134439
:100CA0003B602C4B9B79012B2DD10020FFF7E2FEFE
:100CB0003B685B88002B1BD1264B5B79012B13D93A
:100CC000244B5B79013BDAB2224B5A71214B012252
:100CD0009A710120FFF7CEFE3B681B881A467B689D
:100CE00013441C4A936031E07868FFF74DFF2DE014
:100CF000184B02229A713B685B881A467B68134442
:100D0000144A936022E0134B9B79022B1ED1114BA6
:100D10005B79012B13D90F4B5B79013BDAB20D4B99
:100D20005A710C4B01229A710120FFF7A3FE3B6818
:100D30001B881A467B681344064A936006E078686D
:100D4000FFF722FF02E000BF00E000BF0837BD460A
:100D500080BD00BF0C02002080B582B000AF03460A
:100D6000FB71FB790E2B5CD801A252F823F000BF77
:100D7000AD0D0008B30D0008BB0D0008C30D000841
:100D8000CB0D0008D30D0008DB0D0008E30D0008B3
:100D9000EB0D0008F30D0008FB0D0008030E000822
:100DA0000B0E0008130E00081B0E0008FFF77AFE5A
:100DB0003AE01F48FFF792FE36E01E48FFF78EFE2E
:100DC00032E01D48FFF78AFE2EE01C48FFF786FE42
:100DD0002AE01B48FFF782FE26E01A48FFF77EFE56
:100DE00022E01948FFF77AFE1EE01848FFF776FE6A
:100DF0001AE01748FFF772FE16E01648FFF76EFE7E
:100E000012E01548FFF76AFE0EE01448FFF766FE91
:100E10000AE01348FFF762FE06E01248FFF75EFEA5
:100E200002E0FFF73FFE00BF00BF0837BD4680BDB0
:100E300044B1000850B100085CB1000868B1000876
:100E400074B1000880B10008ECB0000804B10008DB
:100E5000A4B00008C8B0000818B1000824B1000808
:100E600030B100088CB1000880B500AF134B0022F0
:100E70001A80124B00229A70104B0022DA700F4B2E
:100E80004FF000025A600D4B4FF000029A600C4B7D
:100E900000221A800A4B00229A70094B0022DA7055
:100EA000074B4FF000025A60054B4FF000029A606A
:100EB000044804F0E3FE00BF80BD00BF1C02002018
:100EC00028020020BCB1000880B483B000AF034604
:100ED000FB80B7F9063013F57A7F08DBB7F90630E7
:100EE000B3F57A7FA8BF4FF47A731BB200E0044BCE
:100EF000044A138000BF0C37BD4680BC704700BF5A
:100F000018FCFFFF1C02002080B483B000AF034632
:100F1000FB80B7F9063013F57A7F08DBB7F90630A6
:100F2000B3F57A7FA8BF4FF47A731BB200E0044B8D
:100F3000044A138000BF0C37BD4680BC704700BF19
:100F400018FCFFFF2802002080B582B000AF0346E6
:100F5000FB710D4AFB791370FB79002B05D10B4B0C
:100F600000221A800A4B00221A80FB79002B01D044
:100F7000084B00E0084B1946084807F0E9FB00BFA2
:100F80000837BD4680BD00BF400200201C02002083
:100F900028020020D8B10008DCB10008E0B1000848
:100FA00080B483B000AF78600B467B807B68002BF9
:100FB00027D0B7F9023013F57A7F08DBB7F9023092
:100FC000B3F57A7FA8BF4FF47A731BB200E00F4BE2
:100FD0007B807B681B784C2B03D07B681B786C2B49
:100FE00003D10B4A7B8813800CE07B681B78522B63
:100FF00003D07B681B78722B04D1064A7B88138050
:1010000000E000BF0C37BD4680BC704718FCFFFFF6
:10101000420200204402002080B588B000AF764B29
:101020001B78012B40F08081744BB3F90030002B0A
:1010300000F0AA80714BB3F90030184609F0A6FC05
:1010400003466F49184609F0F5FC03461A466D4BF6
:101050001B681946104609F0E5FB03461A46694B22
:101060001A6009E0674B1B686749184609F0D8FB0E
:1010700003461A46634B1A60624B1B686249184666
:1010800009F08AFE0346002BECD109E05D4B1B689A
:101090005D49184609F0C6FB03461A46594B1A60CB
:1010A000584B1B684FF00001184609F061FE0346DB
:1010B000002BEBD1534B1B68184609F0A7FE0346E3
:1010C000FB774E4BB3F90030184609F05FFC03463E
:1010D0004E49184609F062FD0346BB61FA7F4C4950
:1010E00013465B0013445B000B44B3F90030184611
:1010F00009F04CFC0346B969184609F09BFC03460D
:10110000184609F05DFE0346FB82FA7F404913460C
:101110005B0013445B000B440233B3F90030184604
:1011200009F034FC0346B969184609F083FC03460C
:10113000184609F045FE0346BB82FA7F3449134640
:101140005B0013445B000B440433B3F900301846D2
:1011500009F01CFC0346B969184609F06BFC03460C
:10116000184609F02DFE03467B82B7F91220B7F925
:101170001410B7F91630184600F0F0F81F4BB3F909
:101180000020244B1A8004E000220021002000F0FF
:10119000E5F8214BB3F90030002B00F0BF801E4B67
:1011A000B3F90030184609F0F1FB0346144918461C
:1011B00009F040FC03461A46184B1B6819461046B6
:1011C00009F030FB03461A46144B1A6009E0134B32
:1011D0001B680D49184609F023FB03461A460F4BBE
:1011E0001A600E4B1B680849184609F0D5FD0346E6
:1011F000002BECD11EE000BF400200204202002084
:101200006F12033A480200200000C04000007A44F8
:1012100098B100081C020020440200204C0200206B
:10122000484B1B684849184609F0FCFA03461A4621
:10123000444B1A60434B1B684FF00001184609F0FD
:1012400097FD0346002BEBD13E4B1B68184609F077
:10125000DDFD03467B743D4BB3F90030184609F0C1
:1012600095FB03463A49184609F098FC0346FB6093
:101270007A7C384913465B0013445B000B44B3F996
:101280000030184609F082FB0346F968184609F059
:10129000D1FB0346184609F093FD03467B817A7C17
:1012A0002C4913465B0013445B000B440233B3F933
:1012B0000030184609F06AFB0346F968184609F041
:1012C000B9FB0346184609F07BFD03463B817A7C57
:1012D000204913465B0013445B000B440433B3F90D
:1012E0000030184609F052FB0346F968184609F029
:1012F000A1FB0346184609F063FD0346FB80B7F9DE
:101300000620B7F90810B7F90A30184600F04CF873
:101310000E4BB3F90020104B1A800FE00022002181
:10132000002000F041F809E000220021002000F038
:1013300015F800220021002000F036F800BF203709
:10134000BD4680BD4C0200200000C0404402002089
:1013500000007A4498B100082802002080B582B0CD
:1013600000AF0346FB800B46BB8013467B80B7F97A
:1013700006301A4601214FF0804000F077F9B7F9A6
:1013800004301A4602214FF0804000F06FF9B7F99F
:1013900002301A4603214FF0804000F067F900BF89
:1013A0000837BD4680BD000080B582B000AF03465F
:1013B000FB800B46BB8013467B80B7F906301A468C
:1013C00003210A4800F052F9B7F904301A46012106
:1013D000074800F04BF9B7F902301A4603210448D8
:1013E00000F044F900BF0837BD4680BD000800404A
:1013F000000C004080B400AF024B1B681846BD468D
:1014000080BC70470000002080B400AF024B1B6816
:101410001846BD4680BC70473C02002080B400AF37
:10142000024B5B681846BD4680BC70471C0200201A
:1014300080B400AF024B5B681846BD4680BC704765
:101440002802002090B587B000AFBA607B600346E9
:10145000FB810B46BB81B7F90C30184609F096FAB0
:1014600003465E49184609F099FB03467B61FB89F8
:101470007B82B7F91230184609F088FA04464FF01B
:101480007E51786909F0CEF903461946204609F0E5
:10149000D1FA03465249184609F06AFC0346002B6C
:1014A00001D0504B30E0B7F91230184609F06EFA0F
:1014B00004464FF07E51786909F0B4F903461946A5
:1014C000204609F0B7FA03464449184609F06EFC75
:1014D0000346002B02D04FF47A7315E0B7F91230AF
:1014E000184609F053FA04464FF07E51786909F026
:1014F00099F903461946204609F09CFA0346184616
:1015000009F05EFC03461BB2BA681380B7F91230CB
:10151000184609F03BFA044679694FF07E5009F00D
:101520007FF903461946204609F084FA03462C4900
:10153000184609F01DFC0346002B01D0294B30E072
:10154000B7F91230184609F021FA044679694FF0CC
:101550007E5009F065F903461946204609F06AFAFB
:1015600003461E49184609F021FC0346002B02D011
:101570004FF47A7315E0B7F91230184609F006FAFD
:10158000044679694FF07E5009F04AF9034619463E
:10159000204609F04FFA0346184609F011FC0346AD
:1015A0001BB27A681380B7F90E30002BB8BF5B42CC
:1015B0009BB2312B0DD8B7F90C30002BB8BF5B4272
:1015C0009BB2312B05D8BB6800221A807B680022B1
:1015D0001A8000BF1C37BD4690BD00BF00007A4492
:1015E00000007AC418FCFFFF80B586B000AFF86039
:1015F0007A601A460B467B8113463B817B891946EC
:10160000F86802F0CAFB0346002B0CBF012300233D
:10161000DBB2FB753B891946786802F0BEFB0346D6
:10162000002B0CBF01230023DBB2BB75BB8C19461A
:10163000386A02F0B2FB0346002B0CBF01230023E3
:10164000DBB27B7597F916305B005AB297F9173009
:1016500013435AB297F915309B005BB213435BB248
:10166000DBB218461837BD4680BD000080B485B097
:1016700000AF78600B46FB7013463B80B7F9003033
:1016800040F6CA0202FB03F31F4A82FB0312D21187
:10169000DB17D31A9BB203F265439BB2FB81B7F908
:1016A0000E30092B08DDB7F90E30B3F50C6FA8BF6B
:1016B0004FF40C631BB200E00A23FB81FB78032B81
:1016C00014D0032B19DC012B02D0022B07D014E01D
:1016D0007B6838331A46B7F90E3013600EE07B682A
:1016E0003C331A46B7F90E30136007E07B6840338D
:1016F0001A46B7F90E30136000E000BF00BF143780
:10170000BD4680BC704700BFD34D621080B483B02B
:1017100000AF03463960FB7197F90730002B0BDAF5
:101720003B68DAB20C49FB7903F00F03043B12016A
:10173000D2B20B441A7609E03B68DAB2074997F94E
:1017400007301201D2B20B4483F8002300BF0C37DC
:10175000BD4680BC704700BF00ED00E000E100E046
:1017600080B582B000AF78607B68013BB3F1807FC9
:1017700001D301230FE00A4A7B68013B53600F212C
:101780004FF0FF30FFF7C2FF054B00229A60044B79
:1017900007221A60002318460837BD4680BD00BFE7
:1017A00010E000E080B500AF002002F089FD00BF2E
:1017B000002002F0D1FC0346002BF9D0002002F0FB
:1017C000FFFB4FF4806002F013FC002002F028FCC5
:1017D0001249002002F03CFC182002F071FD00BF0D
:1017E000182002F0B9FC0346002BF9D0022003F0C8
:1017F000B9FE022002F0C0FB00BF02F0D5FB034699
:10180000082BFAD1064B074A1A60054B1B6819468C
:10181000054806F09DFF00BF80BD00BF0000040822
:101820001000002000A24A04F4B1000880B500AF07
:101830000D4B1B680D4AA2FB03239B091846FFF7BB
:101840008FFF0346002B04D0094804F017FA00BFAD
:10185000FDE700214FF0FF30FFF758FF054804F087
:101860000DFA00BF80BD00BF10000020D34D6210F4
:1018700018B2000830B2000880B500AF40F2026034
:1018800002F012FB40F2036002F00EFB40F2046033
:1018900002F00AFB4FF4C06002F006FB0121094888
:1018A00002F090FA084804F0E9F900F08FF800F02F
:1018B000C1F800F0D5F800F0FDF8044804F0DEF9B6
:1018C00000BF80BD0002300048B200085CB20008D2
:1018D00080B500AF4FF4E06002F0E6FA40F202702B
:1018E00002F0E2FA40F2037002F0DEFA00F0FCF8D7
:1018F00000F07AF9024804F0C1F900BF80BD00BFD2
:1019000070B2000880B500AF40F2096002F0CCFA76
:101910004FF4A06002F0C8FA022002F0B9FB00F018
:10192000EBF900F00BFA024804F0A8F900BF80BD03
:1019300088B2000880B500AF40F61D1002F0E0FB51
:101940000346002B04D002F0F9FB0B4804F096F993
:10195000022140F6FF7003F0B1FD0346012B04D0D5
:10196000064804F08BF900BFFDE703F08FFD044843
:1019700004F084F900BF80BD9CB20008B4B2000836
:10198000CCB2000880B485B000AF7860094B1B680A
:10199000FB6001E000BF00BF064B1A68FB68D31A6A
:1019A0007A689A42F6D800BF00BF1437BD4680BCA3
:1019B000704700BF5002002080B400AF024B1B688C
:1019C0001846BD4680BC70475002002080B500AF6D
:1019D0004FF4E07303221821134802F01DF983230A
:1019E00003221821114802F017F94FF480730322E3
:1019F00018210E4802F010F94FF400530322182169
:101A00000B4802F009F94FF4C0630322182107487C
:101A100002F002F94FF4404303221821044802F077
:101A2000FBF800BF80BD00BF00100140000801406E
:101A3000000C014080B500AFE023032204210648DA
:101A400002F0EAF84FF4E05303220421034802F0C5
:101A5000E3F800BF80BD00BF000C01400010014052
:101A600080B500AF4FF40053032210210E4802F05E
:101A7000D3F84FF400510C4802F080F910230322F0
:101A800010210A4802F0C8F81021084802F076F93F
:101A9000042303221021064802F0BEF80421044862
:101AA00002F05DF900BF80BD001001400008014058
:101AB000000C014080B500AF042303220021084838
:101AC00002F0AAF8022303220021064802F0A4F83B
:101AD0000C2303220021034802F09EF800BF80BDC2
:101AE000001001400008014080B58CB000AF4FF0FD
:101AF000804002F007FC00233B8460237B840023AA
:101B0000BB8440F6CA03BB620023BB85002387F871
:101B10002E3007F1200319464FF0804002F08AFC76
:101B20000123BB800423FB8000233B8108237B81AE
:101B30000023BB814FF40073FB813B1D1A4601213A
:101B40004FF0804002F060FD3B1D1A4602214FF02D
:101B5000804002F059FD3B1D1A4603214FF08040A2
:101B600002F052FD702201214FF0804002F03AFF56
:101B7000702202214FF0804002F034FF70220321D6
:101B80004FF0804002F02EFF4FF400633B820023B1
:101B90007B823223BB820023FB824FF480433B8352
:101BA00000237B830023BB8307F1100319464FF00A
:101BB000804002F001FD4FF0804002F0DFFC012187
:101BC0004FF0804002F0D4FF01214FF0804002F03E
:101BD0009FFF044B4FF080521A6000BF3037BD4664
:101BE00080BD00BF00E100E080B500AF00F004F868
:101BF00000F03CF800BF80BD80B588B000AF1A4847
:101C000002F080FB00233B8260237B820023BB82A7
:101C100040F6CA03BB610023BB830023BB7707F1F7
:101C200010031946104802F005FC0123BB80042371
:101C3000FB8000233B8108237B810023BB814FF481
:101C40000073FB813B1D1A460321074802F0DCFCB0
:101C500070220321044802F0C5FE034802F08EFC06
:101C600000BF2037BD4680BD0008004080B588B069
:101C700000AF204802F046FB00233B8260237B82BA
:101C80000023BB8240F6CA03BB610023BB83002351
:101C9000BB7707F110031946164802F0CBFB01236E
:101CA000BB800423FB8000233B8108237B8100232E
:101CB000BB814FF40073FB813B1D1A4601210D4887
:101CC00002F0A2FC3B1D1A4603210A4802F09CFCCC
:101CD00070220121074802F085FE70220321054889
:101CE00002F080FE034802F049FC00BF2037BD46E9
:101CF00080BD00BF000C004080B500AF0E4802F070
:101D000047FF002002F080FF00210B4802F0F2FFA5
:101D100001224FF48071084802F08EFF0022012159
:101D2000054803F069F8044803F002F8024803F09C
:101D300028F800BF80BD00BF0024014080B588B0F6
:101D400000AF0021164803F0C1F80023BB77154B04
:101D5000FB6001237B774FF480633B6103237B614E
:101D6000114B7B6000233B774FF48073BB604FF4D3
:101D70000053BB613B1D1A460021094803F00DF9D1
:101D80000021074803F005FA0021054803F02CFA6A
:101D9000064803F020F800BF2037BD4680BD00BFD5
:101DA00000000240340200204C2401400024014085
:101DB00080B500AF044B1B680133034A136003F086
:101DC00071FB00BF80BD00BF5002002080B500AF96
:101DD00001214FF0804002F0AEFE0346002B0AD0F6
:101DE00001214FF0804002F0C3FEFFF715F90121F9
:101DF000024803F046F800BF80BD00BF0024014048
:101E000080B500AF02220021064803F018FA03460D
:101E1000002B04D002220021024803F07DFA00BF0B
:101E200080BD00BF0000024080B584B000AFFFF766
:101E3000C3FDB8602D4B1B68BA68D31A092B51D962
:101E40002A4ABB6813602A4B1B78032B4BD1294BC2
:101E50001B88FB80274B5B88BB80B7F90630184690
:101E600000F0DEF803461A46234B1A80B7F9043017
:101E7000184600F0D5F803461A461F4B9A801E4BB1
:101E800000225A801C4B0022DA801B4B4FF47A72DE
:101E90001A81194B00225A81174B00229A81164B46
:101EA0000022DA81154ABB681360144B1B68BA68BC
:101EB000D31AB3F57A7F11D9114B00221A7000237F
:101EC000FB6007E00C4AFB68002122F81310FB6856
:101ED0000133FB60FB68072BF4DD04E0084B0122B3
:101EE0001A7000E000BF1037BD4680BD6C020020B4
:101EF0006902002034020020540200206402002005
:101F00006802002080B483B000AF0346FB71FB7908
:101F1000072B01D9002309E0074B1B78002B01D1C7
:101F2000002303E0FB79054A32F9133018460C37D9
:101F3000BD4680BC704700BF6802002054020020EC
:101F400080B500AF0220FFF7DDFF0346184680BDD5
:101F500080B500AF0020FFF7D5FF0346184680BDCF
:101F600080B582B000AF0420FFF7CCFF0346FB80B2
:101F7000B7F90630B3F5FA7FCCBF01230023DBB2FB
:101F800018460837BD4680BD80B400AF024B1B78B1
:101F90001846BD4680BC70476802002090B482B0ED
:101FA00000AF0446084611461A462346FB80034606
:101FB000BB800B467B8013463B80B7F90620B7F900
:101FC00000309A4215DAB7F90620B7F90430D31A6F
:101FD0004FF47A7203FB02F2B7F90010B7F904303C
:101FE000CB1A92FBF3F39BB2A3F57A739BB21BB2AD
:101FF00010E0B7F90620B7F90030D31A4FF47A721F
:1020000003FB02F2B7F90210B7F90030CB1A92FBCA
:10201000F3F31BB218460837BD4690BC704700006A
:1020200080B582B000AF0346FB80094BB3F90210C4
:10203000074BB3F90420064BB3F90630B7F9060095
:10204000FFF7ACFF034618460837BD4680BD00BF0A
:102050000400002080B400AFBFF34F8F00BF064BD9
:10206000DB6803F4E0620449044B1343CB60BFF325
:102070004F8F00BF00BFFDE700ED00E00400FA0550
:1020800080B483B000AF7860144B1B68134A43F0F0
:1020900008031360124B1B68114A43F4802313603A
:1020A000104B00221A60104B1B6823F47F0323F4AB
:1020B0007F430D4A43F4964313600C4B4FF49C72DC
:1020C0001A60084B42F22C021A60094B80225A60B7
:1020D00000BF0C37BD4680BC704700BF18100240DF
:1020E0001C1002400C480040040C0140084800400D
:1020F00000E100E080B584B000AF78607B68002B21
:102100001ED0786803F020FBB8600023FB6012E06B
:102110007A68FB6813441B7819460B4803F02EF9C4
:1021200000BF0721084803F04AF90346002BF8D006
:10213000FB680133FB60FA68BB689A42E8D300E0B1
:1021400000BF1037BD4680BD0048004080B584B058
:1021500000AF78600B467B807B68002B1DD07B88AE
:10216000002B1AD00023FB8112E0FB897A6813440C
:102170001B7819460B4803F001F900BF07210948F5
:1021800003F01DF90346002BF8D0FB890133FB81D6
:10219000FA897B889A42E8D300E000BF1037BD4639
:1021A00080BD00BF0048004080B500AF0A4B1B78DF
:1021B000002B0FD0094B1B881A46094B002199545C
:1021C000074800F01FFC054B00221A80024B00223A
:1021D0001A7000E000BF80BD720300207003002071
:1021E000700200200FB480B5A2B000AF07F19403D5
:1021F0007B6007F108007B68D7F89020802103F00E
:1022000031FA07F108031846FFF774FF00BF88375B
:10221000BD46BDE8804004B07047000080B584B082
:1022200000AF0346FB71FB790D2B02D0FB790A2B23
:1022300024D12D4B1B88002B1CD02B4B1B881A46FE
:102240002A4B002199542A4B01221A70294B1B68F2
:10225000294AA2FB03239A09284B9B68D31AFB60E7
:10226000F9682748FFF7BEFF2048FFF743FF2548DE
:10227000FFF740FF1C4B00221A8030E0FB79082B4F
:1022800002D0FB797F2B0DD1174B1B88002B26D05A
:10229000154B1B88013B9AB2134B1A801A48FFF763
:1022A00029FF1CE0104B1B88FE2B18D80E4B1B88F7
:1022B0005A1C91B20C4A118019460C4AFB795354AE
:1022C000FB799BB21946114803F058F800BF07216B
:1022D0000E4803F074F80346002BF8D0FFE700BF68
:1022E0001037BD4680BD00BF700300207002002083
:1022F0007203002010000020D34D621010E000E0B7
:1023000030B3000844B300084CB300080048004054
:1023100080B584B000AF7860786805F005FC0346AE
:10232000FB81B7F90E3013F57A7F08DBB7F90E3071
:10233000B3F57A7FA8BF4FF47A731BB200E0024B6B
:1023400018461037BD4680BD18FCFFFF80B588B029
:1023500000AFF860B9607A60FB68002B01D1002300
:1023600098E0FB68FB6102E0FB690133FB61FB69FC
:102370001B78202BF8D00023FB7600237B61FB69C0
:102380001B78502B03D0FB691B78702B11D1FB6994
:1023900001331B78402B0CD9FB6901331B787A2B56
:1023A00007D8FB6901331B78FB76FB6902337B613D
:1023B00010E0FB691B78402B0AD9FB691B787A2B4C
:1023C00006D8FB691B78FB76FB6901337B6101E072
:1023D00000235FE0FB7E602B05D9FB7E7A2B02D8C1
:1023E000FB7E203BFB76FB7E402B02D9FB7E472BFE
:1023F00001D900234EE0786905F096FB38613B690E
:10240000002B02DB3B690F2B01DD002342E0FB7E4A
:10241000413B042B34D801A252F823F031240008A8
:102420004124000851240008612400087124000898
:10243000BB681A4A1A6040F2026001F035FD21E0E3
:10244000BB68174A1A6040F2036001F02DFD19E0E5
:10245000BB68144A1A6040F2046001F025FD11E0E7
:10246000BB68114A1A6040F2056001F01DFD09E0E9
:10247000BB680E4A1A6040F2066001F015FD01E0EB
:10248000002307E001223B6902FA03F39AB27B685A
:102490001A80012318462037BD4680BD0008014040
:1024A000000C0140001001400014014000180140E0
:1024B00080B586B000AF786007F10E0207F1100317
:1024C00019467868FFF742FF0346002B03D10A48FC
:1024D000FFF710FE0DE03B69FA891146184601F03E
:1024E0005CFC0346FB75FA7DFB8979680348FFF7BE
:1024F00079FE1837BD4680BD50B3000874B300089C
:1025000080B586B000AF7860396007F10E0207F140
:10251000100319467868FFF719FF0346002B03D113
:102520001548FFF7E7FD24E0386805F0FDFA78610B
:102530003869FB890322102101F06EFB7B69002BB7
:1025400006D03B69FA891146184601F008FC05E0FF
:102550003B69FA891146184601F010FC7B69002B93
:1025600014BF01230023DBB21A4679680348FFF742
:1025700039FE1837BD4680BD98B30008C0B30008C7
:1025800080B489B000AFF860B9607A60FB68002B56
:1025900005DDBB68002B02D07B68002B01D1002336
:1025A0002BE0184BFB61FB68FA69B2FBF3F3BB61EC
:1025B000BB69002B01D100231FE0BB69013B1B0C51
:1025C0007B617B69B3F5803F01D3002315E07B6914
:1025D0000133BA69B2FBF3F33B613B69002B03D0D3
:1025E0003B69B3F5803F01D3002306E0BB687A69FD
:1025F0001A607B683A691A60012318462437BD4681
:1026000080BC704700A24A0480B592B002AF7860E7
:102610003960786805F088FAB8633B68002B04D00D
:10262000386805F081FA034600E032237B63BB6B18
:10263000002B05DD7B6B002B02DB7B6B642B03DD4A
:102640008848FFF757FD0AE107F1280207F12C033C
:102650001946B86BFFF794FF0346002B04D1B96B02
:102660008148FFF7BFFDFAE0BB6A01337A6B02FBDA
:1026700003F37E4AA2FB03235B09FB63BB6AFA6B8D
:102680009A4201D9BB6AFB634FF4806001F02EFCD3
:102690004FF4806001F04CFC4FF4E06001F004FC6A
:1026A00040F2026001F000FC4FF4C06001F0FCFB5E
:1026B0006F4B3B633B6B1B6823F440723B6B1A60B0
:1026C0004FF0804001F01EFEFB6A9BB23B8360230B
:1026D0007B830023BB83BB6A9BB23B620023BB842A
:1026E000002387F8263007F1180319464FF0804081
:1026F00001F0A0FE0123BB810423FB8100233B8268
:1027000008237B820023BB824FF40073FB8207F116
:102710000C031A4601214FF0804001F075FF07F1CC
:102720000C031A4602214FF0804001F06DFF07F1C3
:102730000C031A4603214FF0804001F065FF702220
:1027400001214FF0804002F04DF9702202214FF03C
:10275000804002F047F9702203214FF0804002F0E0
:1027600041F9FB6B9BB21A4601214FF0804002F009
:102770009BF9FB6B9BB21A4602214FF0804002F09E
:1027800093F9FB6B9BB21A4603214FF0804002F095
:102790008BF94FF0804001F0F1FE364801F0B2FDB8
:1027A000BB6A9BB23B6207F118031946314801F03E
:1027B00041FE07F10C031A4603212E4801F024FFC5
:1027C000702203212B4802F00DF9FB6B9BB21A46D5
:1027D0000321284802F068F9264801F0CFFE264878
:1027E00001F090FDBB6A9BB23B6207F118031946EA
:1027F000214801F01FFE07F10C031A4601211E4873
:1028000001F002FF07F10C031A4603211A4801F0F8
:10281000FBFE70220121184802F0E4F87022032127
:10282000154802F0DFF8FB6B9BB21A4601211248F3
:1028300002F03AF9FB6B9BB21A4603210E4802F0F4
:1028400033F90D4801F09AFEF96ABB6AFA6B0192FE
:1028500000930B467A6BB96B0848FFF7C3FC40370F
:10286000BD4680BDD4B3000804B400081F85EB51F9
:102870000400014000080040000C004030B4000893
:1028800080B594B002AFF860B9607A6007F11A02BF
:1028900007F11C031946F868FFF758FD0346002BA3
:1028A00004D1F9684948FFF79DFC8BE0FB69484A71
:1028B000934202D17B8B082B03D04648FFF792FC52
:1028C00080E007F1100207F114031946B868FFF71A
:1028D00057FE0346002B04D1B9683F48FFF782FC3E
:1028E00070E03B6901337A6802FB03F33B4AA2FBC9
:1028F00003235B097B644FF4806001F0F7FA4FF427
:10290000806001F015FB4FF4E06001F0CDFA40F279
:10291000026001F0C9FA4FF4C06001F0C5FA304B13
:102920003B643B6C1B6823F440723B6C1A600823C9
:1029300003221821264801F06FF94FF08043FB6312
:10294000284BBB63284B7B63284B3B63284BFB62C4
:10295000284BBB62284B7B62284B3B62FB6A002200
:102960001A607A69BB6A1A603A697B6A1A603B6AC4
:102970007A6C1A603B6B1B6823F0FF0343F068021C
:102980003B6B1A607B6B1B6823F400527B6B1A60F5
:102990007B6B1B6843F480527B6B1A60BB6B01221C
:1029A0001A60FB6B1B6843F00102FB6B1A607969CC
:1029B0003B697A6C019200930B467A68B9681048BB
:1029C000FFF710FC4837BD4680BD00BF70B400085B
:1029D0000008014088B4000804B400081F85EB51CA
:1029E0000400014014000040200000401C00004092
:1029F00024000040280000402C000040400000401F
:102A0000B0B4000880B5ADF5027D02AF07F50073E4
:102A1000A3F5FE73186007F50073A3F5FE731B683A
:102A2000002B01F0638007F50073A3F5FE731B68AC
:102A30001B78002B01F05A8007F50073A3F5FE7395
:102A400007F17800FF22196805F03AFA07F50073DC
:102A5000A3F5C473002283F8FF200023C7F8FC31DC
:102A60002BE007F50073A3F5C472D7F8FC311344CB
:102A70001B78402B1CD907F50073A3F5C472D7F857
:102A8000FC3113441B785A2B12D807F50073A3F5B9
:102A9000C472D7F8FC3113441B782033D9B207F540
:102AA0000073A3F5C472D7F8FC3113440A461A70B8
:102AB000D7F8FC310133C7F8FC3107F50073A3F5F3
:102AC000C472D7F8FC3113441B78002BC9D107F12D
:102AD0007803C749184605F001FD0346002B08D0CE
:102AE00007F17803C349184605F0F8FC0346002BAC
:102AF00049D1C148FFF7FEFAC048FFF7FBFAC048CA
:102B0000FFF7F8FABF48FFF7F5FABF48FFF7F2FA08
:102B1000BE48FFF7EFFABE48FFF7ECFABD48FFF7F3
:102B2000E9FABD48FFF7E6FABC48FFF7E3FABC480C
:102B3000FFF7E0FABB48FFF7DDFABB48FFF7DAFA28
:102B4000BA48FFF7D7FABA48FFF7D4FAB948FFF7FF
:102B5000D1FAB948FFF7CEFAB848FFF7CBFAB84830
:102B6000FFF7C8FAB748FFF7C5FAB748FFF7C2FA48
:102B7000B648FFF7BFFAB648FFF7BCFAB548FFF70B
:102B8000B9FA00F0B4BF07F178030622B24918463B
:102B900005F0D6FB0346002B40F0978007F5007345
:102BA000A3F5FE731B680633C7F880310622AB49D4
:102BB000D7F8800105F0C4FB0346002B0AD10120A1
:102BC000FEF7C2F9A64B01221A71A648FFF792FA46
:102BD00000F08DBF0722A449D7F8800105F0B0FBB3
:102BE0000346002B0AD10020FEF7AEF99C4B0022D1
:102BF0001A719E48FFF77EFA00F079BF05229C49C2
:102C0000D7F8800105F09CFB0346002B15D1D7F8BF
:102C1000803105331846FFF77BFB0346A7F87A316E
:102C2000B7F97A311846FEF74FF9B7F97A311946F4
:102C30009048FFF7D7FA00F05ABF06228E49D7F81E
:102C4000800105F07DFB0346002B15D1D7F88031BC
:102C500006331846FFF75CFB0346A7F87C31B7F94B
:102C60007C311846FEF750F9B7F97C311946834894
:102C7000FFF7B8FA00F03BBF05228149D7F8800181
:102C800005F05EFB0346002B1AD1D7F880310533DF
:102C90001846FFF73DFB0346A7F87E31B7F97E31B2
:102CA0001846FEF711F9B7F97E311846FEF72CF9F0
:102CB000B7F97E3119467348FFF794FA00F017BF51
:102CC0007148FFF717FA00F012BF07F178030222EC
:102CD0006E49184605F034FB0346002B40F0FA809D
:102CE00007F50073A3F5C4739B78202B07D007F575
:102CF0000073A3F5C4739B78002B40F0EB8007F5BD
:102D00000073A3F5FE731B680233C7F8F83104E0C3
:102D1000D7F8F8310133C7F8F831D7F8F8311B7814
:102D2000202BF5D05A4BC7F8F4310023C7F8F03107
:102D3000D7F8F8311B78002B04D15648FFF7DAF9A1
:102D400000F0D5BED7F8F8311B782B2B0ED0D7F872
:102D5000F8311B782D2B09D0D7F8F8311B782F2BA1
:102D600009D9D7F8F8311B78392B04D8D7F8F831BE
:102D7000C7F8F03196E004224549D7F8F80103F08E
:102D800097F80346002B08D1414BC7F8F431D7F828
:102D9000F8310433C7F8F8311BE005223E49D7F873
:102DA000F80103F085F80346002B08D13A4BC7F829
:102DB000F431D7F8F8310533C7F8F83109E0354870
:102DC000FFF798F900F093BED7F8F8310133C7F850
:102DD000F831D7F8F8311B78202BF5D0D7F8F83137
:102DE0001B78002B5AD12B48FFF784F900F07FBEE7
:102DF00004B500080CB5000810B5000838B5000887
:102E00004CB500087CB50008ACB50008ECB500086E
:102E100030B6000874B60008BCB60008F8B6000862
:102E200034B7000848B700087CB70008ACB7000802
:102E3000E4B7000818B800084CB8000884B80008C7
:102E400098B80008CCB8000800B900080CB9000810
:102E50003CB900086CB9000890B9000898B900089E
:102E6000DC010020A0B90008B4B90008BCB9000812
:102E7000D0B90008D8B90008F0B90008F8B90008BE
:102E800010BA000818BA000830BA000860BA000882
:102E900064BA00086CBA000890BA0008D7F8F83194
:102EA000C7F8F031D7F8F001FFF732FA0346A7F878
:102EB0009E31B7F99E311946D7F8F401FEF770F844
:102EC000B7F99E311A46D7F8F411B448FFF78AF9DA
:102ED00000F00DBE07F178030522B149184605F050
:102EE0002FFA0346002B40F08F8007F50073A3F5FF
:102EF000FE731B680533C7F8EC3104E0D7F8EC31FA
:102F00000133C7F8EC31D7F8EC311B78202BF5D022
:102F10000522A449D7F8EC0102F0CAFF0346002BB2
:102F200015D1D7F8EC310533C7F8E83104E0D7F80C
:102F3000E8310133C7F8E831D7F8E8311B78202BA6
:102F4000F5D0D7F8E801FFF7B3FA00F0D0BD0622BC
:102F50009549D7F8EC0102F0ABFF0346002B4ED1A8
:102F6000D7F8EC310633C7F8E43104E0D7F8E431A0
:102F70000133C7F8E431D7F8E4311B78202BF5D0C2
:102F80000023C7F8E0310FE0D7F8E421531CC7F85D
:102F9000E431D7F8E031591CC7F8E011117807F592
:102FA0000072A2F5CC72D154D7F8E4311B78002B13
:102FB00008D0D7F8E4311B78202B03D0D7F8E031C4
:102FC0000E2BE1DD07F50073A3F5CC72D7F8E031E5
:102FD000134400221A7004E0D7F8E4310133C7F833
:102FE000E431D7F8E4311B78202BF5D007F16803E2
:102FF000D7F8E4111846FFF783FA00F078BD6B4864
:10300000FFF778F800F073BD07F50073A3F5C473FC
:103010001B78722B54D107F50073A3F5C4735B784A
:10302000202B4DD107F50073A3F5FE731B68023307
:10303000C7F8DC3104E0D7F8DC310133C7F8DC3104
:10304000D7F8DC311B78202BF5D00023C7F8D83116
:103050000FE0D7F8DC21531CC7F8DC31D7F8D831A2
:10306000591CC7F8D811117807F50072A2F5D4726F
:10307000D154D7F8DC311B78002B08D0D7F8DC31DD
:103080001B78202B03D0D7F8D8310E2BE1DD07F5C4
:103090000073A3F5D472D7F8D831134400221A7004
:1030A000D7F8D831002B04D14148FFF723F800F0BE
:1030B0001EBD07F158031846FFF7FAF900F017BDD7
:1030C00007F50073A3F5C4731B78772B74D107F54C
:1030D0000073A3F5C4735B78202B6DD107F50073E3
:1030E000A3F5FE731B680233C7F8D43104E0D7F8A8
:1030F000D4310133C7F8D431D7F8D4311B78202B21
:10310000F5D00023C7F8D0310FE0D7F8D421531CF5
:10311000C7F8D431D7F8D031591CC7F8D01111787D
:1031200007F50072A2F5DC72D154D7F8D4311B78C0
:10313000002B08D0D7F8D4311B78202B03D0D7F838
:10314000D0310E2BE1DD07F50073A3F5DC72D7F863
:10315000D031134400221A7004E0D7F8D43101337F
:10316000C7F8D431D7F8D4311B78202BF5D0D7F855
:10317000D031002B04D0D7F8D4311B78002B04D1E8
:103180000C48FEF7B7FF00F0B2BC07F14803D7F8D0
:10319000D4111846FFF7B4F900F0A9BC98BA00089A
:1031A000B8BA0008C0BA0008C8BA0008D0BA000807
:1031B00008BB000824BB000807F17803B149184692
:1031C00005F08CF90346002B54D1AF48FEF792FF6F
:1031D000AE4B1B781946AE48FFF704F8AD4B9B6821
:1031E000184606F0E9FF02460B46AB48FEF7FAFF29
:1031F000FEF70AF90346184606F0DEFF02460B46C4
:10320000A648FEF7EFFFFEF709F90346184606F059
:10321000D3FF02460B46A24989780091A148FEF7E8
:10322000E1FFFEF705F90346184606F0C5FF024622
:103230000B469D49897800919C48FEF7D3FF954B3A
:10324000B3F900301946934BB3F902301A46984847
:10325000FEF7C8FF8F4B1B79002B01D0954B00E088
:10326000954B19469548FEF7BDFF9548FEF742FF7E
:1032700000F03DBC07F178039249184605F02EF99D
:103280000346002B19D19048FEF734FF8F4B1B8863
:1032900019468F48FEF7A6FF8C4B5B8819468D4870
:1032A000FEF7A0FF894B9B8819468B48FEF79AFFD3
:1032B0008A48FEF71FFF00F01ABC07F1780388491F
:1032C000184605F00BF90346002B29D1714B9B687A
:1032D000184606F071FF02460B468248FEF782FF51
:1032E0006C4B9B684FF07E51184607F041FD03463A
:1032F000002B03D07C48FEF7FDFEF8E3654B9B688E
:103300004FF08041184607F033FD0346002B03D0F1
:103310007648FEF7EFFEEAE37548FEF7EBFEE6E3DC
:1033200007F178037349184605F0D8F80346002BD7
:1033300019D1FEF769F8C7F88401D7F8840106F0BF
:103340003BFF02460B466C48FEF74CFF6B49D7F833
:10335000840107F02BFD0346002B00F0C88368486A
:10336000FEF7C8FEC3E307F178036649184605F087
:10337000B5F80346002B16D1FEF750F80346184661
:1033800006F01AFF02460B465F48FEF72BFFFEF7DA
:103390004FF80346184606F00FFF02460B465B48FF
:1033A000FEF720FFA3E307F17803042258491846EB
:1033B00004F0C6FF0346002B40F0898107F5007337
:1033C000A3F5FE731B680433C7F8CC3104E0D7F8CB
:1033D000CC310133C7F8CC31D7F8CC311B78202B56
:1033E000F5D004224B49D7F8CC0102F061FD034629
:1033F000002B40F0AF80D7F8CC310433C7F8C83188
:1034000004E0D7F8C8310133C7F8C831D7F8C8315C
:103410001B78202BF5D007F50073A3F5E4731A464B
:103420000023136053609360D3600023C7F8C43156
:103430000FE0D7F8C821531CC7F8C831D7F8C431FA
:10344000591CC7F8C411117807F50072A2F5E4728F
:10345000D154D7F8C8311B78002B08D0D7F8C83121
:103460001B78202B03D0D7F8C4310E2BE1DD07F5F4
:103470000073A3F5E472D7F8C431134400221A7024
:103480004FE000BF38BB000840BB0008EE01002041
:103490005CBB0008DC0100208CBB0008A0BB00085E
:1034A0001C020020B4BB000828020020D8BB000882
:1034B000FCBB00081CBC000820BC000824BC0008A1
:1034C0003CBC000854BC000858BC00083402002072
:1034D00070BC00088CBC0008A8BC0008C0BC000878
:1034E000D8BC0008E0BC0008FCBC000820BD0008F7
:1034F00038BD000854BD00085CBD00080000A041B4
:1035000074BD000898BD0008A0BD0008C0BD00083B
:10351000E0BD0008E8BD0008D7F8C8310133C7F89E
:10352000C831D7F8C8311B78202BF5D00023C7F855
:10353000C031D7F8C8311B78002B03D0D7F8C83179
:10354000C7F8C03107F13803D7F8C0111846FFF7A4
:103550005BF8CCE207F50073A3F5EC731A46002381
:10356000136053609360D3600023C7F8BC31D7F871
:10357000CC31C7F8B8310FE0D7F8B821531CC7F8E1
:10358000B831D7F8BC31591CC7F8BC11117807F510
:103590000072A2F5EC72D154D7F8B8311B78002B29
:1035A00008D0D7F8B8311B78202B03D0D7F8BC311E
:1035B0000E2BE1DD07F50073A3F5EC72D7F8BC31F3
:1035C000134400221A7004E0D7F8B8310133C7F869
:1035D000B831D7F8B8311B78202BF5D00123C7F8C4
:1035E000B4313223C7F8B031D7F8B8311B78002B8B
:1035F00058D007F50073A3F5FC73184620231A462C
:10360000002102F07FFC0023C7F8AC310FE0D7F8AF
:10361000B821531CC7F8B831D7F8AC31591CC7F8DA
:10362000AC11117807F50072A2F5FC72D154D7F8ED
:10363000B8311B78002B08D0D7F8B8311B78202B75
:1036400003D0D7F8AC311E2BE1DD07F50073A3F5ED
:10365000FC72D7F8AC31134400221A7007F50073DE
:10366000A3F5FC731B78002B0CD007F10803184658
:1036700004F05AFAC7F8B40104E0D7F8B8310133BE
:10368000C7F8B831D7F8B8311B78202BF5D0D7F868
:10369000B8311B78002B05D0D7F8B80104F044FAF4
:1036A000C7F8B00107F50073A3F5EC731B78002B86
:1036B00009D007F12803D7F8B021D7F8B41118467C
:1036C000FFF7DEF813E2BE48FEF714FD0FE207F144
:1036D0007803BC49184604F001FF0346002B40F074
:1036E000248180230193B84B00934023B64A2021C4
:1036F000B548FDF779FF034687F893314FF48053BF
:103700000193B24B00934FF40063B04A4FF48061D1
:10371000AE48FDF769FF034687F8923197F8933179
:1037200003F00103002B0CBF01230023DBB287F859
:10373000913197F8933103F00203002B0CBF012362
:103740000023DBB287F8903197F8933103F004033C
:10375000002B0CBF01230023DBB287F88F3197F9D0
:1037600090315B005AB297F9913113435AB297F9ED
:103770008F319B005BB213435BB287F88E3197F8B1
:10378000923103F00103002B0CBF01230023DBB2B5
:1037900087F88D3197F8923103F00203002B0CBFAC
:1037A00001230023DBB287F88C3197F8923103F0C4
:1037B0000403002B0CBF01230023DBB287F88B31FD
:1037C00097F98C315B005AB297F98D3113435AB295
:1037D00097F98B319B005BB213435BB287F88A3158
:1037E0007B48FEF787FC7B48FEF784FC97F8933113
:1037F00003F0010397F8912119467748FEF7F2FC90
:1038000097F893315B08DBB203F0010397F890213E
:1038100019467248FEF7E6FC97F893319B08DBB235
:1038200003F0010397F88F2119466D48FEF7DAFC83
:1038300097F8933197F8932119466A48FEF7D2FC1E
:1038400097F88E3197F88E2119466748FEF7CAFC23
:103850006648FEF74FFC97F88E31002B03D097F89F
:103860008E31072B02D16248FEF744FC614BDB78B6
:1038700019466148FEF7B6FC6048FEF73BFC97F836
:10388000923103F0010397F88D2119465C48FEF749
:10389000A9FC97F892315B08DBB203F0010397F8BB
:1038A0008C2119465748FEF79DFC97F892319B08EA
:1038B000DBB203F0010397F88B2119465248FEF75B
:1038C00091FC97F8923197F8922119464F48FEF7EC
:1038D00089FC97F88A3197F88A2119464C48FEF7F7
:1038E00081FC4C48FEF706FC97F88A31002B03D088
:1038F00097F88A31072B02D13D48FEF7FBFB464B78
:10390000DB7819464548FEF76DFC4548FEF7F2FBAB
:10391000384B9B7819464348FEF764FC3E4B9B7836
:1039200019464148FEF75EFCE1E007F17803042206
:103930003E49184604F004FD0346002B7CD107F5F0
:103940000073A3F5FE731B680433C7F8A83104E0C5
:10395000D7F8A8310133C7F8A831D7F8A8311B78B8
:10396000202BF5D0D7F8A80104F0DEF8C7F89401B1
:10397000D7F89431002B1EDDD7F894310A2B1ADCCE
:103980000023C7F8A4310AE00120FDF71BF96420E9
:10399000FDF7F8FFD7F8A4310133C7F8A431D7F801
:1039A000A421D7F894319A42EEDBD7F8941120483D
:1039B000FEF718FC9BE01F48FEF79CFB97E000BF5A
:1039C000F0BD000840BE0008000C0140001001409E
:1039D00048BE000868BE000888BE0008BCBE0008DB
:1039E000F0BE000824BF000850BF000878BF0008E0
:1039F00094BF00081C020020E8BF000804C00008B3
:103A000028C000085CC0000890C00008C4C00008BE
:103A1000F0C0000818C100082802002038C10008C2
:103A200054C1000888C10008A8C10008CCC1000822
:103A3000D4C10008E0C1000807F1780306222E492E
:103A4000184604F07DFC0346002B30D107F50073C7
:103A5000A3F5FE731B680633C7F8A03104E0D7F85E
:103A6000A0310133C7F8A031D7F8A0311B78202B43
:103A7000F5D0D7F8A00104F057F8C7F89801D7F8A7
:103A80009831002B0FDDD7F898310A2B0BDCD7F8D3
:103A90009831DBB21846FDF795F8D7F8981117481A
:103AA000FEF7A0FB23E01648FEF724FB1FE007F11A
:103AB00078031449184604F011FD0346002B09D180
:103AC0001148FEF717FB4FF47A70FDF75BFFFEF726
:103AD000C1FA0CE007F50073A3F5FE7319680B48F3
:103AE000FEF780FB0A48FEF705FB00E000BF07F584
:103AF0000077BD4680BD00BFF4C10008FCC10008CE
:103B000014C200082CC2000834C2000854C20008C5
:103B10006CC2000880B582B000AF1149114801F0B5
:103B20006AFC0346002B0CD00E4801F038FC03461B
:103B3000FB71FB791846FEF771FB0949094801F052
:103B40008EFC0949074801F056FC0346002B03D0C0
:103B50000549044801F083FC00BF0837BD4680BD1D
:103B600005030500004800400603060080B584B048
:103B700000AFF860B9607A607B689BB21946B8689C
:103B8000FEF7E4FA7B6818461037BD4680BD00009A
:103B900080B500AF4FF4006303221021064800F007
:103BA0003BF84FF40061044800F0E8F8034B0022B2
:103BB0001A7000BF80BD00BF0008014073030020E1
:103BC00080B500AF4FF40061054800F0C8F8054B20
:103BD00001221A70044802F051F800BF80BD00BFF6
:103BE000000801407303002094C2000880B500AFB4
:103BF0004FF40061054800F0C1F8054B00221A702F
:103C0000044802F03BF800BF80BD00BF000801403F
:103C100073030020B8C2000880B489B000AFF86018
:103C2000B9607A603B600023BB6100237B61BB68A5
:103C300003F00F03BB61BB6803F01003002B03D03C
:103C4000BA697B681343BB610023FB8339E0FB8BBC
:103C500001229A403B681340002B2FD0FB681B6861
:103C60007B61FB8B9B000F2202FA03F3DB437A6933
:103C700013407B61FB8B9B00BA6902FA03F37A69FC
:103C800013437B61BB68282B09D1FB8B01229A402F
:103C9000FB68143319463B6813400B600BE0BB68AC
:103CA000482B08D1FB8B01229A40FB681033194640
:103CB0003B6813400B60FB687A691A60FB8B013329
:103CC000FB83FB8B072BC2D90823FB833EE0FB8BD6
:103CD00001229A403B681340002B34D0FB68043328
:103CE0001B687B61FB8B083B9B000F2202FA03F3EE
:103CF000DB437A6913407B61FB8B083B9B00BA690D
:103D000002FA03F37A6913437B61BB68282B09D15C
:103D1000FB8B01229A40FB68143319463B68134021
:103D20000B600BE0BB68482B08D1FB8B01229A404B
:103D3000FB68103319463B6813400B60FB68043383
:103D40001A467B691360FB8B0133FB83FB8B0F2BC4
:103D5000BDD900BF00BF2437BD4680BC704780B4CA
:103D600083B000AF786039607B6810331A463B68D7
:103D7000136000BF0C37BD4680BC704780B483B071
:103D800000AF786039607B6814331A463B68136073
:103D900000BF0C37BD4680BC704780B483B000AF15
:103DA000786039607B6808331A683B681340002BE1
:103DB00001D0012300E0002318460C37BD4680BC2B
:103DC0007047000080B487B000AF78600B46FB708E
:103DD00000233B610023FB6000237B610023BB6069
:103DE0007B68002B03DA2E4B1B687B6102E02D4BB6
:103DF0001B687B617B681B0C03F00F03BB607B6857
:103E00009BB23B617B6803F44013B3F5401F0AD1BA
:103E10007B6923F070637B61224B1B68214A23F08E
:103E20007063136021E07B6803F48013002B0ED0D5
:103E30000322BB6802FA03F3FB60FB68DB437A6989
:103E400013407B617B6943F070637B610DE07B68AD
:103E50005B0D1B013A6902FA03F3DB437A691340F5
:103E60007B617B6943F070637B61FB78002B08D03A
:103E70007B685B0D1B013A6902FA03F37A6913430D
:103E80007B617B68002B03DA054A7B69136002E0E3
:103E9000044A7B69136000BF1C37BD4680BC704775
:103EA0001C0001400400014080B483B000AF034611
:103EB000FB80FB889B099BB203F1804303F504332D
:103EC0001968FB8803F01F0301229A40FB889B09B5
:103ED0009BB203F1804303F50433184641EA020321
:103EE000036000BF0C37BD4680BC704780B483B010
:103EF00000AF0346FB80FB889B099BB203F1804324
:103F000003F504331968FB8803F01F0301229A406C
:103F1000FB889B099BB203F1804303F504331846E9
:103F200041EA0203036000BF0C37BD4680BC704706
:103F300080B483B000AF0346FB80FB889B099BB233
:103F400003F1804303F504331968FB8803F01F0372
:103F5000012202FA03F3DA43FB889B099BB203F1C7
:103F6000804303F50433184601EA0203036000BFEF
:103F70000C37BD4680BC704780B485B000AF786018
:103F8000084B1B68FB60FB6823F00303FB600549DB
:103F9000FA687B6813430B6000BF1437BD4680BCD2
:103FA000704700BF0410024080B400AF034B1B6891
:103FB00003F00C031846BD4680BC70470410024055
:103FC00080B485B000AF7860084B1B68FB60FB686D
:103FD00023F0F003FB600549FA687B6813430B602C
:103FE00000BF1437BD4680BC704700BF04100240BC
:103FF00080B485B000AF7860084B1B68FB60FB683D
:1040000023F4E063FB600549FA687B6813430B60A7
:1040100000BF1437BD4680BC704700BF041002408B
:1040200080B485B000AF7860084B1B68FB60FB680C
:1040300023F46053FB600549FA687B6813430B6007
:1040400000BF1437BD4680BC704700BF041002405B
:1040500080B485B000AF786039600023FB600B4B03
:104060001B68FB60FB6823F0036323F45023FB60B1
:104070007A683B681343FA681343FB60034AFB68A2
:10408000136000BF1437BD4680BC70470410024067
:1040900080B485B000AF7860184B1B68FB60FB688C
:1040A00023F0805323F44043FB607B68072B0FD041
:1040B0007B68072B18D87B68032B03D97B68052BFB
:1040C00006D011E07B689B03FA681343FB600CE0A9
:1040D0007B6823F004037B607B689A03FB681343CF
:1040E00043F08053FB6000E000BF044AFB681360AC
:1040F00000BF1437BD4680BC704700BF04100240AB
:1041000080B483B000AF0346FB80FB889B099BB261
:1041100003F1804303F504331A68FB8803F01F039F
:1041200022FA03F303F00103002B01D0012300E086
:10413000002318460C37BD4680BC704780B400AFE2
:10414000044B1B68034A43F08073136000BFBD46F5
:1041500080BC70472410024080B584B000AF034695
:10416000FB800023FB600023FB720023BB72FB88F3
:10417000B3F5106F69D0B3F5106F00F38F80B3F50E
:10418000006F2FD0B3F5006F00F38880182B75D027
:10419000182B00F38380002B3ED0102B7ED107E03C
:1041A0001120FFF7ADFF0346BB72FB680133FB60D4
:1041B000BB7A002B04D1FB684FF6FF729342EFD11C
:1041C0001120FFF79DFF0346002B69D00123FB72EE
:1041D00066E040F60100FFF793FF0346BB72FB6801
:1041E0000133FB60BB7A002B04D1FB686FF07C428B
:1041F0009342EED140F60100FFF782FF0346002B09
:1042000050D00123FB724DE00120FFF779FF0346F8
:10421000BB72FB680133FB60BB7A002B03D1FB68E8
:10422000B3F5A06FF0D10120FFF76AFF0346002B22
:104230003AD00123FB7237E040F60110FFF760FF30
:104240000346BB72FB680133FB60BB7A002B03D1D2
:10425000FB681A4A9342EFD140F60110FFF750FF76
:104260000346002B22D00123FB721FE01920FFF729
:1042700047FF0346BB72FB680133FB60BB7A002B30
:1042800003D1FB680D4A9342F0D11920FFF738FFA4
:104290000346002B0CD00123FB7209E000BF08E0AD
:1042A00000BF06E000BF04E000BF02E000BF00E086
:1042B00000BFFB7A18461037BD4680BDFFFF0F00D8
:1042C00080B483B000AF0346FB80FB889B099BB2A0
:1042D00003F1804303F504331968FB8803F01F03DF
:1042E00001229A40FB889B099BB203F1804303F5AE
:1042F0000433184641EA0203036000BF0C37BD4691
:1043000080BC704780B582B000AF78607B68424A5D
:10431000934273D07B68404A934278D87B683F4A87
:1043200093422CD07B683D4A934270D87B683C4ACC
:1043300093425AD07B683A4A934268D87B68394A9C
:10434000934249D07B68374A934260D87B68364AAB
:10435000934238D07B68344A934258D87B68334ABA
:10436000934227D07B68314A934250D87B68B3F19F
:10437000804F0DD07B682E4A934212D047E040F226
:104380000B30FFF7B3FD40F20B30FFF7D1FD3FE0FC
:104390004FF48060FFF7AAFD4FF48060FFF7C8FD7F
:1043A00036E040F20140FFF7A1FD40F20140FFF787
:1043B000BFFD2DE040F20240FFF798FD40F20240C1
:1043C000FFF7B6FD24E040F20340FFF78FFD40F217
:1043D0000340FFF7ADFD1BE040F20440FFF786FD10
:1043E00040F20440FFF7A4FD12E040F20540FFF761
:1043F0007DFD40F20540FFF79BFD09E040F20D30E6
:10440000FFF774FD40F20D30FFF792FD00E000BFB2
:1044100000BF0837BD4680BD00340140002C01407C
:104420000014004000100040000C00400008004054
:104430000004004080B483B000AF786039603B680E
:104440001A887B6828331A607B683F4A93422BD0D6
:104450007B68B3F1804F27D07B683C4A934223D0DE
:104460007B683B4A93421FD07B683A4A93421BD0F9
:104470007B68394A934217D07B68384A934213D0FD
:104480007B68374A93420FD07B68364A93420BD001
:104490007B68354A934207D07B68344A934203D005
:1044A0007B68334A934217D17B681A687B6822F095
:1044B00070021A607B6819683B685B8803F06002D1
:1044C0007B680A431A607B6819683B689B8803F025
:1044D00010027B680A431A607B682C331A463B68DB
:1044E0009B6813607B68234A934212D07B68224A00
:1044F00093420ED07B681A687B6822F440721A607F
:104500007B6819683B689B8903F440727B680A43A7
:104510001A607B680C4A934203D07B680E4A934230
:1045200004D13B689A7B7B6830331A607B68143314
:104530001B687A68143243F00103136000BF0C3724
:10454000BD4680BC704700BF002C01400004004005
:1045500000080040000C004000340140004C0140C5
:10456000005001400054014000180040001C004071
:1045700000200040001000400014004080B483B0D0
:1045800000AF78607B681A687B6842F001021A60AD
:1045900000BF0C37BD4680BC704780B483B000AF0D
:1045A00078607B681A687B6822F001021A6000BF9D
:1045B0000C37BD4680BC704780B483B000AF7860D4
:1045C00039603B681A883B685B8813439AB23B6842
:1045D0009B8813439AB23B68DB8813439AB23B68CB
:1045E0001B8913439AB23B685B8913439AB23B68B9
:1045F0009B8913439AB27B6844331A6000BF0C371F
:10460000BD4680BC7047000080B485B000AFF86044
:104610000B467A607B817B89032B00F2D08101A25B
:1046200052F823F0354600083147000835480008A5
:1046300031490008FB6820331B68FA68203223F0F8
:1046400001031360FB6818331B68FA68183223F003
:1046500003031360FB6820331B687A6812881146D5
:10466000FA6820320B431360FB6820331B68FA683A
:10467000203223F002031360FB6820331B687A6842
:1046800092881146FA6820320B431360FB68674A30
:10469000934204D0FB68664A934240F09281FB68E3
:1046A00020331B68FA68203223F004031360FB6890
:1046B00020331B687A6852881146FA6820320B430F
:1046C0001360FB6820331B68FA68203223F008036C
:1046D0001360FB6820331B687A68D2881146FA6839
:1046E00020320B431360FB6804331B68FA68043202
:1046F00023F480731360FB6804331B687A681289A3
:104700001146FA6804320B431360FB6804331B68DC
:10471000FA68043223F400731360FB6804331B68E7
:104720007A6852891146FA6804320B43136048E1F3
:10473000FB6820331B68FA68203223F010031360F3
:10474000FB6818331B68FA68183223F4407313604F
:10475000FB6820331A687B681B881B01F9682031CD
:1047600013430B60FB6820331B68FA68203223F088
:1047700020031360FB6820331A687B689B881B0149
:10478000F968203113430B60FB68284A934204D038
:10479000FB68274A934240F01681FB6820331B6870
:1047A000FA68203223F040031360FB6820331A6854
:1047B0007B685B881B01F968203113430B60FB6841
:1047C00020331B68FA68203223F080031360FB68F3
:1047D00020331A687B68DB881B01F968203113439A
:1047E0000B60FB6804331B68FA68043223F48063AF
:1047F0001360FB6804331A687B681B899B00F968A7
:10480000043113430B60FB6804331B68FA680432FD
:1048100023F400631360FB6804331A687B685B89C8
:104820009B00F968043113430B60CCE0002C01407D
:1048300000340140FB6820331B68FA68203223F4FF
:1048400080731360FB681C331B68FA681C3223F00A
:1048500003031360FB6820331A687B681B881B0204
:10486000F968203113430B60FB6820331B68FA683A
:10487000203223F400731360FB6820331A687B68CE
:104880009B881B02F968203113430B60FB68534A75
:10489000934204D0FB68524A934240F09680FB68F2
:1048A00020331B68FA68203223F480631360FB68AE
:1048B00020331A687B685B881B02F9682031134338
:1048C0000B60FB6820331B68FA68203223F4006316
:1048D0001360FB6820331A687B68DB881B02F96869
:1048E000203113430B60FB6804331B68FA68043201
:1048F00023F480531360FB6804331A687B681B89B8
:104900001B01F968043113430B60FB6804331B6817
:10491000FA68043223F400531360FB6804331A6806
:104920007B685B891B01F968043113430B604CE021
:10493000FB6820331B68FA68203223F4805313602D
:10494000FB681C331B68FA681C3223F44073136045
:10495000FB6820331A687B681B881B03F9682031C9
:1049600013430B60FB6820331B68FA68203223F482
:1049700000531360FB6820331A687B689B881B0315
:10498000F968203113430B60FB68144A934203D04B
:10499000FB68134A93421AD1FB6804331B68FA6818
:1049A000043223F480431360FB6804331A687B6885
:1049B0001B899B01F968043113430B6007E000BFBA
:1049C00006E000BF04E000BF02E000BF00E000BF5F
:1049D00000BF1437BD4680BC704700BF002C0140AB
:1049E0000034014080B483B000AF78600B467B8018
:1049F00013463B807B88032B50D801A252F823F04A
:104A0000114A0008334A0008574A0008794A00084A
:104A10007B6818331B687A68183223F070031360C0
:104A20007B6818331A683B887968183113430B6028
:104A300035E07B6818331B687A68183223F4E0434A
:104A400013607B6818331A683B881B027968183139
:104A500013430B6023E07B681C331B687A681C32AD
:104A600023F0700313607B681C331A683B887968F5
:104A70001C3113430B6012E07B681C331B687A689F
:104A80001C3223F4E04313607B681C331A683B88B4
:104A90001B0279681C3113430B6000E000BF00BFAC
:104AA0000C37BD4680BC704780B483B000AF7860DF
:104AB0000B467B8013463B807B88032B22D801A2C8
:104AC00052F823F0D54A0008E14A0008ED4A0008F0
:104AD000F94A00087B6834331A463B88136012E0B9
:104AE0007B6838331A463B8813600CE07B683C33A4
:104AF0001A463B88136006E07B6840331A463B88C1
:104B0000136000E000BF00BF0C37BD4680BC70479B
:104B100080B483B000AF786039607B680C331A686A
:104B20007B680C3319463B6813430B6000BF0C379E
:104B3000BD4680BC704780B485B000AF78603960F6
:104B40007B680C331B683A681340FB607B6810334A
:104B50001A683B681340002B04D0FB68002B01D07F
:104B6000012300E0002318461437BD4680BC70477F
:104B700080B483B000AF786039607B6810331A4628
:104B80003B68DB43136000BF0C37BD4680BC7047F9
:104B900080B582B000AF78607B68184A93421ED01F
:104BA0007B68164A934223D87B68154A934204D007
:104BB0007B68144A934209D01AE040F20930FFF7AB
:104BC00095F940F20930FFF7B3F912E040F20A30EC
:104BD000FFF78CF940F20A30FFF7AAF909E040F23A
:104BE0000F30FFF783F940F20F30FFF7A1F900E033
:104BF00000BF00BF0837BD4680BD00BF003C01407C
:104C0000002401400028014080B483B000AF7860E8
:104C1000084B1B68074A23F470231360054B1A687E
:104C200004497B6813430B6000BF0C37BD4680BC52
:104C3000704700BF0424014080B485B000AFF86025
:104C4000B9601346FB71FB79002B27D0BB6803F4D6
:104C50008073002B07D0FB6804331B68FA680432AA
:104C600043F480731360BB6803F48063002B07D0A8
:104C7000FB6804331B68FA68043243F480631360F2
:104C8000BB6803F00203002B2FD0FB6808331B68BE
:104C9000FA68083243F00203136026E0BB6803F4AD
:104CA0008073002B07D0FB6804331B68FA6804325A
:104CB00023F480731360BB6803F48063002B07D078
:104CC000FB6804331B68FA68043223F480631360C2
:104CD000BB6803F00203002B07D0FB6808331B6896
:104CE000FA68083223F00203136000BF1437BD4690
:104CF00080BC704780B483B000AF786039603B6897
:104D0000002B08D07B6808331B687A68083243F4AC
:104D10000063136007E07B6808331B687A68083219
:104D200023F40063136000BF0C37BD4680BC70479E
:104D300080B483B000AF78607B6808331B6803F0F1
:104D40000103002B07D17B6808331B687A6808329F
:104D500043F00103136000BF0C37BD4680BC7047B1
:104D600080B483B000AF78607B6808331B687A68D2
:104D7000083223F00103136000BF0C37BD4680BC2E
:104D8000704780B483B000AF78607B6808331B68DD
:104D90007A68083243F00803136000BF7B68083369
:104DA0001B6803F00803002BF8D17B6808331B68ED
:104DB0007A68083243F00403136000BF7B6808334D
:104DC0001B6803F00403002BF8D100BF00BF0C37B1
:104DD000BD4680BC704780B483B000AF78607B680C
:104DE00008331B687A68083243F48073136000BF8D
:104DF0000C37BD4680BC704780B483B000AF78608C
:104E00000B46FB701346BB70BB78002B1AD0FB78A7
:104E100003F00103002B07D07B6808331B687A6816
:104E2000083243F480131360FB7803F00203002B75
:104E300022D07B6808331B687A68083243F4004349
:104E4000136019E0FB7803F00103002B07D07B68A7
:104E500008331B687A68083223F480131360FB78E8
:104E600003F00203002B07D07B6808331B687A68C5
:104E7000083223F40043136000BF0C37BD4680BCEA
:104E8000704780B483B000AF78600B46FB70FB784E
:104E900003F00103002B07D07B6808331B687A6896
:104EA000083243F480031360FB7803F00203002B05
:104EB00007D07B6808331B687A68083243F4001314
:104EC000136000BF0C37BD4680BC704780B582B010
:104ED00000AF78600B46FB70FB781946786800F0ED
:104EE00033FA0346002B01D100BFFDE7FA781346E1
:104EF0009B0013449B001A467B68134408331968CF
:104F0000FA7813469B0013449B001A467B681344AF
:104F100008331A4621F001031360FA7813469B0008
:104F200013449B001A467B68134408331A46002337
:104F30001360FA7813469B0013449B001A467B6863
:104F400013440C331A4600231360FA7813469B006F
:104F500013449B001A467B68134410331A460023FF
:104F60001360FA7813469B0013449B001A467B6833
:104F7000134414331A46002313607B6804331A6801
:104F8000FB789B000F2101FA03F379680431134386
:104F90000B6000BF0837BD4680BD80B586B000AF4E
:104FA000F8600B467A60FB72FB7A1946F86800F0ED
:104FB000CBF90346002B01D100BFFDE7FA7A134677
:104FC0009B0013449B001A46FB68134410331A4697
:104FD0007B681B681360FA7A13469B0013449B009E
:104FE0001A46FB68134414331A467B689B681360A7
:104FF0007B681969FA7A13469B0013449B001A4692
:10500000FB6813440C331A468BB21360FA7A1346CA
:105010009B0013449B001A46FB68134408331B682B
:105020007B617B6923F47C537B617B685A687B6876
:10503000DB681A437B685B6913437A6913437B61BE
:10504000FA7A13469B0013449B001A46FB681344EC
:1050500008331A467B6913607B681B7E012B17D1CE
:10506000FA7A13469B0013449B001A46FB681344CC
:1050700008331968FA7A13469B0013449B001A46BA
:10508000FB68134408331A4641F04003136016E0EE
:10509000FA7A13469B0013449B001A46FB6813449C
:1050A00008331968FA7A13469B0013449B001A468A
:1050B000FB68134408331A4621F0400313607B68F1
:1050C0005B7E012B17D1FA7A13469B0013449B0099
:1050D0001A46FB68134408331968FA7A13469B0092
:1050E00013449B001A46FB68134408331A4641F0E8
:1050F0008003136016E0FA7A13469B0013449B006A
:105100001A46FB68134408331968FA7A13469B0061
:1051100013449B001A46FB68134408331A4621F0D7
:10512000800313607B689B7E002B17D1FA7A1346AD
:105130009B0013449B001A46FB681344083319680C
:10514000FA7A13469B0013449B001A46FB681344EB
:1051500008331A4621F01003136016E0FA7A13465A
:105160009B0013449B001A46FB68134408331968DC
:10517000FA7A13469B0013449B001A46FB681344BB
:1051800008331A4641F01003136000BF1837BD46BC
:1051900080BD80B582B000AF78600B46FB70FB78B5
:1051A0001946786800F0D0F80346002B01D100BF03
:1051B000FDE7FA7813469B0013449B001A467B6870
:1051C000134408331968FA7813469B0013449B0074
:1051D0001A467B68134408331A4641F020031360D3
:1051E00000BF0837BD4680BD80B582B000AF786093
:1051F0000B46FB70FB781946786800F0A5F803466B
:10520000002B01D100BFFDE7FA7813469B00134441
:105210009B001A467B68134408331968FA781346D2
:105220009B0013449B001A467B68134408331A46BC
:1052300041F00103136000BF0837BD4680BD80B454
:1052400087B000AFF8600B467A60FB7200237B6189
:1052500000233B617B68082B37D07B68082B4CD838
:105260007B68022B03D07B68042B17D045E0FB68DA
:105270001A68FB7A9B00796801FA03F313403B61DB
:10528000FA7A13469B0013449B001A46FB681344AA
:1052900008331B6803F002037B612FE0FB681A6888
:1052A000FB7A9B00796801FA03F313403B61FA7AB9
:1052B00013469B0013449B001A46FB6813440833B3
:1052C0001B6803F004037B6118E0FB681A68FB7A33
:1052D0009B00796801FA03F313403B61FA7A1346A5
:1052E0009B0013449B001A46FB68134408331B6859
:1052F00003F008037B6101E0FFE7FDE73B69002B5A
:1053000004D07B69002B01D0012300E00023184664
:105310001C37BD4680BC704780B485B000AFF860D4
:105320000B467A60FB72FB6804331A68FB7A9B00B9
:10533000796801FA03F3F968043113430B6000BF85
:105340001437BD4680BC704780B485B000AF78602C
:105350000B46FB700123FB737B68074A934204D121
:10536000FB78042B01D90023FB73FB7B1846143711
:10537000BD4680BC704700BF0004024080B483B0CB
:1053800000AF78600B467B807B887A680432C3F379
:105390000803136000BF0C37BD4680BC704780B463
:1053A00083B000AF78607B6804331B689BB2C3F3A3
:1053B00008039BB218460C37BD4680BC704780B4CA
:1053C00083B000AF78600B46FB70FB789A097B686E
:1053D00013441A68FB7803F01F0322FA03F303F067
:1053E0000103002B01D0012300E0002318460C37F5
:1053F000BD4680BC704780B485B000AF786039602E
:105400000023FB600023BB603B689B09C3F30902D8
:105410007B6813441A683B6803F01F03012101FAFB
:1054200003F31340FB603B689A0D7B6813441A68D2
:105430003B681B0C03F01F03012101FA03F3134027
:10544000BB60BB68002B04D0FB68002B01D001239C
:1054500000E0002318461437BD4680BC704780B476
:1054600083B000AF786039603B681B0C03F01F030A
:10547000012202FA03F33A68910D7A680A44DB4389
:10548000136000BF0C37BD4680BC704780B400AFCE
:10549000034B4CF6CC421A6000BFBD4680BC70473F
:1054A0000030004080B400AF034B4AF6AA221A60D5
:1054B00000BFBD4680BC70470030004080B485B05E
:1054C00000AF03460A46FB8013467B71204BFB600E
:1054D0000023BB601F4B45F255521A601E4B1B68E0
:1054E00003F00103BB60FB68013BFB60FB68002B22
:1054F00002D0BB68002BF1D1BB68002B01D0002388
:1055000021E0164A7B791360114BFB60124B1B683C
:1055100003F00203BB60FB68013BFB60FB68002BF0
:1055200002D0BB68002BF1D1BB68002B01D0002357
:1055300009E0FB880A4AC3F30B031360054B4AF6E4
:10554000AA221A60012318461437BD4680BC704752
:10555000FFFF0F00003000400C30004004300040DE
:105560000830004080B485B000AF7860084B1B68FD
:10557000FB60FB6823F00703FB600549FA687B6862
:1055800013430B6000BF1437BD4680BC704700BF9B
:105590000020024080B500AF0020FEF791FE00BF62
:1055A0000020FEF7D9FD0346002BF9D00020FEF7BE
:1055B00007FD4FF48060FEF71BFD0020FEF730FD75
:1055C0000F490020FEF744FD1820FEF779FE00BFCA
:1055D0001820FEF7C1FD0346002BF9D00220FFF78B
:1055E000C1FF0220FEF7C8FC00BFFEF7DDFC03464A
:1055F000082BFAD1034B044A1A6000BF80BD00BFDC
:10560000000004081000002000A24A0480B500AF8A
:10561000FFF7C0FF00BF80BD002103E00B4B5B58CC
:10562000435004310A480B4B42189A42F6D30A4AB7
:1056300002E0002313600432084B9A42F9D3FFF7CB
:10564000E5FF00F0AFFAFAF773FD704760C6000897
:1056500000000020DC010020DC010020C00400204C
:10566000FEE7000030B51B4C002924689BB02BDB03
:105670004FF00005009004904FF402701995ADF8BA
:105680000C004FF6FF7511D00139029105912046AB
:105690006946ADF80E5000F06DF9421C01DA8B231B
:1056A00023600022009B1A701BB030BD029105914F
:1056B00020466946ADF80E5000F05CF9431C01DA53
:1056C0008B2323601BB030BD8B234FF0FF30236052
:1056D000F8E700BF1400002030B51446002C054642
:1056E0009BB02CDB1A4600914FF4027304914FF0EB
:1056F00000014FF6FF7C1991ADF80C3011D0013C40
:1057000069461E9B02940594ADF80EC000F032F974
:10571000421C01DA8B232B600022009B1A701BB005
:1057200030BD1E9B694602940594ADF80EC000F092
:1057300021F9431C01DA8B232B601BB030BD8B2376
:105740004FF0FF302B60F8E720F0030110F003006A
:10575000C0F1000051F8043B00F1040C4FEACC0CFE
:105760006FF000021CBF22FA0CF213434FF0010C41
:105770004CEA0C2C4CEA0C4CA3EB0C0222EA030280
:1057800012EACC1204BF51F8043B0430F4D0C2F149
:10579000000102EA0102B2FA82F2C2F11F0200EB3A
:1057A000D20070472DE9F0471D468F680C46AF4286
:1057B00016460B6836D8B1F90CC01CF4906F0ED1A8
:1057C0003D46184631462A4602F030F90020A368CB
:1057D000DF1B2368A7602B442360BDE8F0874A697C
:1057E000096902EB42025F1A02EBD2726B1C521083
:1057F0003B44934292BF914699461A461CF4806FEF
:10580000804611D0114601F039F8824600B33A467D
:10581000216902F0CFFAA38923F4906343F0800357
:10582000A38105E02F46CCE702F080FB824658B109
:105830000AEB0703A9EB0707A760C4F810A02F46DF
:10584000C4F814902360BCE74046216902F090F848
:105850000C22A3894FF0FF3043F04003C8F800202A
:10586000A381BAE72DE9F04F936883B09246176899
:105870000190002B76D04FF0000B0C465D468B68F4
:105880000A6848E0B4F90CC01CF4906F2FD0D4E93A
:105890000403A2EB000803EB430202EBD27208F10F
:1058A000010152102944914292BF914689460A460D
:1058B0001CF4806F39D01146019800F0DFFF0646D6
:1058C00000283DD04246216902F074FAA28922F4F0
:1058D000906242F08002A28106EB0800A9EB080268
:1058E0002661A8462E46A2602060C4F81490324675
:1058F000594602F09BF8DAF80810A3682268A3EB77
:1059000008033244491BA3602260CAF8081049B357
:10591000D7E900B5083798461046002DF8D09D42CB
:105920001E46AFD2A8462E46E1E70146019802F096
:10593000FDFA06460028CFD10198216902F018F837
:105940000C21A389019D43F0400329600022A3811B
:105950004FF0FF300023CAF80820CAF8043003B023
:10596000BDE8F08F00200023CAF8043003B0BDE882
:10597000F08F00BF2DE9F04F1C468B8989461D062C
:10598000824693469DB003D50B69002B00F0EE8054
:10599000002343F2200209939BF8003001277C4E3C
:1059A0000394ADF82920002B71D05D4603E015F873
:1059B000013F002B73D0252BF9D1B5EB0B0471D12E
:1059C0002A78002A63D000234FF0FF320135CDE959
:1059D0000523049307938DF853301A9306E0254668
:1059E000049B801B07FA00F0034304932C46052216
:1059F00014F8011B304602F04FFEA3460028EED1FA
:105A0000049BD90644BF20228DF853201A0748BFB3
:105A10002B22297848BF8DF853202A294FD1039A89
:105A200011680432002903927BDB079169782E29E3
:105A30005BD0584C0322204602F02EFE38B14022A3
:105A4000049B001B824013430BF1010B04931BF8D2
:105A5000011B062250488DF8281002F01DFE002878
:105A600065D04E4B002B55D003A900914A465046B5
:105A70004B4B04A900F03AFC8046B8F1FF3F06D03A
:105A8000099B434409939BF80030002B8DD1B9F852
:105A90000C305B0679D409981DB0BDE8F08FB5EBEA
:105AA0000B04F4D023465A4649465046FFF77AFE87
:105AB0000130ECD0099B2A782344099381E7A1F1B6
:105AC0003002092A88BFAB46B1D8079B00E00134F9
:105AD000217803EB830302EB4303A1F13002092A8F
