:020000040800F2
:1000000000C00020A94D0008F14D0008F14D000886
:10001000F14D0008F14D0008F14D0008000000000E
:10002000000000000000000000000000F14D00088A
:10003000F14D000800000000F14D000815180008FF
:10004000F14D0008F14D0008F14D0008F14D000898
:10005000F14D0008F14D0008F14D0008F14D000888
:10006000F14D0008F14D0008F14D0008311800086D
:10007000F14D0008F14D0008F14D0008F14D000868
:10008000F14D0008F14D0008F14D0008F14D000858
:10009000F14D0008F14D0008F14D0008F14D000848
:1000A000F14D0008F14D0008F14D0008F14D000838
:1000B000F14D0008F14D0008F14D0008F14D000828
:1000C000F14D0008F14D0008F14D0008F14D000818
:1000D000F14D0008F14D0008F14D000865320008AF
:1000E000F14D0008F14D0008F14D0008F14D0008F8
:1000F000F14D0008F14D0008F14D0008F14D0008E8
:10010000F14D0008F14D0008F14D0008F14D0008D7
:10011000F14D0008F14D0008F14D0008F14D0008C7
:10012000F14D0008F14D0008F14D0008F14D0008B7
:1001300080B500AF00F02AF80F4805F067F900F02D
:100140007DFB0E4805F062F906E000F07FFA0A2018
:1001500001F05AF904F06EFD094B1B79002BF4D025
:10016000022000F02DFD074B01221A70064805F011
:100170004DF900F05DF8FCE79CA50008E0A500083B
:10018000DC010020EE01002000A6000880B500AFD1
:100190004FF4E13001F08CFC01F046F801F088F8F2
:1001A00001F0ACF800F002FD03F09AF803F0B0F8AB
:1001B00001F0D0F801F0E8F801F0FEF800F052FE8E
:1001C00000F020F80A4805F021F90A4805F01EF968
:1001D000094805F01BF94FF47A51084807F080FEF2
:1001E000034805F013F9064B00221A7000BF80BDCA
:1001F00024A6000848A600086CA600087CA60008F3
:10020000EE01002080B400AF034B00221A7000BF43
:10021000BD4680BC704700BFED01002080B400AF38
:10022000024B1B781846BD4680BC7047ED0100208C
:1002300080B582B000AF01F001F9786000F010FDE8
:10024000394B1B687A68D31A042B69D9364A7B6804
:10025000136000F077F800F035F900F0F7F900F0DE
:100260009DFE0346314A936000237B8000233B8040
:100270002E4BB3F900002D4BB3F902103B46BA1CCC
:1002800000F0B4FE294B1B79012B14D1284B1B78AD
:10029000002B10D1B7F90230184600F013FEB7F961
:1002A0000030184600F02EFE012000F04BFE214BDE
:1002B00002221A7005E0002000F044FE1D4B0122CE
:1002C0001A70B7F90230002BB8BF5B429BB2322BD9
:1002D00007D8B7F90030002BB8BF5B429BB2322B76
:1002E00003D9154B00221A6004E0134B1B6801333D
:1002F000114A136000F01EFA104B1A68531C0F4984
:100300000B600F4BA3FB02139B09C82101FB03F3F6
:10031000D31A002B01D100F03BFB04F08BFC00E072
:1003200000BF0837BD4680BDF0010020DC01002081
:10033000EC010020EE010020E8010020F401002083
:100340001F85EB5180B582B000AF0023FB71FFF732
:1003500065FF0346002B3FD04A4B9B684FF07E5110
:1003600018460AF0CDF80346002B19D0454B9B6880
:10037000184609F0E9FA02460B46434807F0B0FD7B
:10038000FB7943F00103FB713E4B9B683F491846E4
:100390000AF0B6F80346002B1ED000F0AFFA1BE0BF
:1003A000384B9B684FF0804118460AF0A9F8034685
:1003B000002B11D0364B1A68531C35490B60354B56
:1003C000A3FB02135B09642101FB03F3D31A002B87
:1003D00002D1032000F0F4FB00F0EAFD38602E4962
:1003E00038680AF0ABF80346002B0BD0386809F0E8
:1003F000ABFA02460B46294807F072FDFB7943F041
:100400000203FB71264B1B780A2B09D9254804F0FF
:10041000FDFFFB7943F00803FB71234B03221A70A5
:10042000224B1B68224A934204D9224804F0EEFF73
:1004300000F064FA204B1B78012B06D11F4804F012
:10044000E5FFFB7943F01003FB71FB79002B0FD024
:100450001B4B1B78FA799A4206D1114B1B7801335A
:10046000DAB20F4B1A7006E00D4B01221A7002E04F
:100470000B4B00221A70124AFB79137000BF083729
:10048000BD4680BDDC01002094A60008000080BFAE
:10049000F80100201F85EB510000A041BCA6000818
:1004A000FC010020E0A60008EE010020E801002089
:1004B000C0D40100F4A60008EC01002018A7000831
:1004C000FD01002090B583B000AF01F0C5F901F047
:1004D0004FFA0346FB8001F053FA0346BB8001F05C
:1004E00057FA0346FB70524BB3F90030184609F037
:1004F00015FE03464F49184609F064FE03461C46A4
:10050000B7F90630184609F009FE03464A4918466D
:1005100009F058FE03461946204609F04BFD0346F4
:1005200018460AF015F803461AB2414B1A80434B9D
:10053000B3F90030184609F0F1FD03463D4918466D
:1005400009F040FE03461C46B7F90430184609F08E
:10055000E5FD03463849184609F034FE03461946BE
:10056000204609F027FD0346184609F0F1FF03462F
:100570001AB2324B1A802E4BB3F90030002BB8BFA1
:100580005B429BB2132B02D8294B00221A802B4BC3
:10059000B3F90030002BB8BF5B429BB2132B02D8DB
:1005A000264B00221A80224BB3F9003013F57A7FD4
:1005B00009DB1F4BB3F90030B3F57A7FA8BF4FF4C6
:1005C0007A731BB200E01E4B1E4A13801B4BB3F91B
:1005D000003013F57A7F09DB184BB3F90030B3F51F
:1005E0007A7FA8BF4FF47A731BB200E0144B154A10
:1005F0005380FB78012B02D1124B01221A7101F0BA
:10060000DBF90346002B0CBF01230023DBB21A46A3
:100610000D4B1A700C4B1B78012B05D1094B002296
:100620001A80084B00225A8000BF0C37BD4690BD8F
:10063000FE010020CDCC4C3FCDCC4C3E0002002032
:1006400018FCFFFFDC010020EC01002080B582B027
:1006500000AF4FF400512F4802F047FF0346002B34
:1006600014BF01230023DBB2FB71FB79012B1BD1EB
:10067000294B1B78002B07D100F0E0FE0346274AE8
:100680001360254B01221A7000F0D8FE0246234B5E
:100690001B68D31A40F6B832934237D9204804F089
:1006A000B5FE00F02BF931E01B4B1B78012B2DD14F
:1006B00000F0C4FE0246194B1B68D31A3B603B682E
:1006C000B3F57A7F1FD2174B1B79002B0CBF012388
:1006D0000023DBB21A46134B1A71124B1B79002B05
:1006E00001D0114B00E0114B1946114807F0F8FBFF
:1006F0000C4B1B79002B03D0022000F061FA02E0C2
:10070000012000F05DFA044B00221A7000BF083788
:10071000BD4680BD001001400202002004020020FE
:100720002CA70008DC01002040A7000844A700080F
:1007300048A7000880B500AF3B4B1B78032B6BD854
:1007400001A252F823F000BF5907000885070008EE
:10075000B3070008BD070008344B1A68344BA3FBED
:1007600002135B09642101FB03F3D31A312B04D874
:100770000421304802F09BFE4EE004212D4802F097
:10078000A5FE49E0294B1A682B4BA3FB02135B091A
:100790004FF4FA7101FB03F3D31AF92B04D80421A7
:1007A000244802F084FE37E00421224802F08EFE45
:1007B00032E004211F4802F07AFE2DE01B4B1A683C
:1007C0001B4BA3FB02139B09C82101FB03F3D31AA4
:1007D000312B17D9154B1A68154BA3FB02139B0934
:1007E000C82101FB03F3D31A632B10D90F4B1A68EE
:1007F0000F4BA3FB02139B09C82101FB03F3D31A80
:10080000952B04D804210B4802F051FE03E004218B
:10081000084802F05BFE00BF044B1B680133034A2B
:10082000136000BF80BD00BFEE0100200802002061
:100830001F85EB51000C0140D34D621080B582B092
:1008400000AF012000F07EFB0023FB7144E0FB7948
:1008500001339BB21A46920013441A4691001A467D
:100860000B4613449B009BB27B80FB7901339BB208
:100870001A46920013441A4691001A460B46134436
:100880005B00BB80BB88B3F5FA7F02D94FF4FA73E3
:10089000BB80B7F90230184600F014FBB7F90230FC
:1008A000184600F02FFB1021134802F000FEBB8811
:1008B000184600F0A9FD10210F4802F007FEBB8882
:1008C000B3F57A7F05D2BB88C3F57A73184600F07A
:1008D0009BFDFB790133FB71FB79092BB7D9002014
:1008E00000F0F0FA002000F00DFB002000F02AFBE1
:1008F00000BF0837BD4680BD0008014080B582B00A
:1009000000AF1D4804F082FD002000F01BFB042016
:1009100000F056F94FF0804003F0E7F9174803F074
:10092000E4F9174803F0E1F9164803F005FE002347
:100930007B6010E00421144802F0B9FD642000F04F
:1009400063FD0421104802F0C1FD642000F05CFD4D
:100950007B6801337B607B68042BEBDD0B4804F084
:1009600055FD02F0EBFC642000F04EFD4FF47A7070
:1009700000F04AFDFAE700BF5CA70008000800404D
:10098000000C004000240140000C01407CA700083E
:100990002DE9F04792B008AF2E4B1B783B722E4BDF
:1009A0009B68FB6000F004FB03463B6100F00AFB20
:1009B00003467B61294B9B783B7600F00DFB034699
:1009C000FB61274B9B7887F82030234BB3F900302D
:1009D0007B84214BB3F90230BB84224B1B68214A34
:1009E00012681946204807F07BFA3B7A9A46FB6862
:1009F000184608F0A9FF804689463B69184608F06A
:100A0000A3FF04460D467B69184609F0A1FD064682
:100A10003B7E7B60FB69184609F09AFD034697F818
:100A20002020B7F92210B7F924000790069105920B
:100A300004937B6803930296CDE9004542464B46FA
:100A400051460A4807F04CFA00BF2837BD46BDE8BA
:100A5000F08700BFEE010020DC0100201C02002016
:100A600028020020100000208CA70008ACA7000876
:100A700080B582B000AF0346FB71FB79012B04D136
:100A80001021064802F013FD03E01021034802F094
:100A90001DFD00BF0837BD4680BD00BF00080140F6
:100AA00080B500AF0020FFF7E3FF0A4B00221A6079
:100AB000084B00221A71074B00225A71054B002285
:100AC0009A71044B00229A60024B00221A7300BFF5
:100AD00080BD00BF0C02002080B582B000AF7860FE
:100AE0000A4A7B681360094B00221A71074B0022E7
:100AF0009A71064B01221A7300F0A0FC03461846B7
:100B000000F006F800BF0837BD4680BD0C0200208B
:100B100080B584B000AF7860194B1A68184B1B7908
:100B200019460B465B000B445B001344FB60FB68FB
:100B30001B88002B0AD1FB685B88002B06D1FB6861
:100B40001B79002B02D1FFF7ABFF16E0FB681B7986
:100B5000002B02D0FB681B7900E00123084A537187
:100B6000074B01229A710120FFF782FFFB681B8867
:100B70001A467B681344024A93601037BD4680BD15
:100B80000C02002080B582B000AF7860064B1B7964
:100B90000133DAB2044B1A717868FFF7B9FF00BF6E
:100BA0000837BD4680BD00BF0C02002080B500AFF5
:100BB0000020FFF75DFFFFF773FF00BF80BD00005F
:100BC00080B582B000AF0346FB71FB79013B092B76
:100BD0003ED801A252F823F0010C0008090C0008CD
:100BE000110C0008190C0008210C0008290C000841
:100BF000310C0008390C0008410C0008490C0008B1
:100C0000012000F0A7F827E0022000F0A3F823E07D
:100C1000052000F09FF81FE0062000F09BF81BE085
:100C2000072000F097F817E0082000F093F813E091
:100C3000092000F08FF80FE00A2000F08BF80BE09D
:100C40000B2000F087F807E00C2000F083F803E0A9
:100C5000002000F07FF800BF00BF0837BD4680BD10
:100C600080B582B000AF3A4B1B7B012B69D1384B6A
:100C70001B68002B65D000F0E1FB7860344B9B686B
:100C80007A68D31A002B5EDB314B1A68304B1B7924
:100C900019460B465B000B445B0013443B602C4B36
:100CA0009B79012B2DD10020FFF7E2FE3B685B888A
:100CB000002B1BD1264B5B79012B13D9244B5B797D
:100CC000013BDAB2224B5A71214B01229A71012069
:100CD000FFF7CEFE3B681B881A467B6813441C4A0C
:100CE000936031E07868FFF74DFF2DE0184B02224A
:100CF0009A713B685B881A467B681344144A936078
:100D000022E0134B9B79022B1ED1114B5B79012BF7
:100D100013D90F4B5B79013BDAB20D4B5A710C4B77
:100D200001229A710120FFF7A3FE3B681B881A4637
:100D30007B681344064A936006E07868FFF722FF59
:100D400002E000BF00E000BF0837BD4680BD00BF25
:100D50000C02002080B582B000AF0346FB71FB7926
:100D60000E2B5CD801A252F823F000BFA90D000899
:100D7000AF0D0008B70D0008BF0D0008C70D000833
:100D8000CF0D0008D70D0008DF0D0008E70D0008A3
:100D9000EF0D0008F70D0008FF0D0008070E000812
:100DA0000F0E0008170E0008FFF77AFE3AE01F4802
:100DB000FFF792FE36E01E48FFF78EFE32E01D4838
:100DC000FFF78AFE2EE01C48FFF786FE2AE01B484C
:100DD000FFF782FE26E01A48FFF77EFE22E0194860
:100DE000FFF77AFE1EE01848FFF776FE1AE0174874
:100DF000FFF772FE16E01648FFF76EFE12E0154888
:100E0000FFF76AFE0EE01448FFF766FE0AE013489B
:100E1000FFF762FE06E01248FFF75EFE02E0FFF712
:100E20003FFE00BF00BF0837BD4680BD94A8000844
:100E3000A0A80008ACA80008B8A80008C4A800082A
:100E4000D0A800083CA8000854A80008F4A700088F
:100E500018A8000868A8000874A8000880A800085E
:100E6000DCA8000880B500AF134B00221A80124B9B
:100E700000229A70104B0022DA700F4B4FF00002E4
:100E80005A600D4B4FF000029A600C4B00221A8002
:100E90000A4B00229A70094B0022DA70074B4FF080
:100EA00000025A60054B4FF000029A60044804F0BB
:100EB000ADFA00BF80BD00BF1C0200202802002048
:100EC000E8A8000880B483B000AF0346FB80B7F900
:100ED000063013F57A7F08DBB7F90630B3F57A7F71
:100EE000A8BF4FF47A731BB200E0044B044A13808E
:100EF00000BF0C37BD4680BC704700BF18FCFFFF29
:100F00001C02002080B483B000AF0346FB80B7F919
:100F1000063013F57A7F08DBB7F90630B3F57A7F30
:100F2000A8BF4FF47A731BB200E0044B044A13804D
:100F300000BF0C37BD4680BC704700BF18FCFFFFE8
:100F40002802002080B582B000AF0346FB710D4A35
:100F5000FB791370FB79002B05D10B4B00221A8013
:100F60000A4B00221A80FB79002B01D0084B00E0CD
:100F7000084B1946084806F0B3FF00BF0837BD46C6
:100F800080BD00BF400200201C020020280200207B
:100F900004A9000808A900080CA9000880B400AF43
:100FA000024B1B681846BD4680BC704700000020FD
:100FB00080B400AF024B1B681846BD4680BC70472A
:100FC0003C02002080B400AF024B5B681846BD466F
:100FD00080BC70471C02002080B400AF024B5B68ED
:100FE0001846BD4680BC70472802002090B587B0E7
:100FF00000AFBA607B600346FB810B46BB81B7F94B
:101000000C30184609F08AF803465E49184609F084
:101010008DF903467B61FB897B82B7F91230184654
:1010200009F07CF804464FF07E51786908F0C2FF61
:1010300003461946204609F0C5F8034652491846AA
:1010400009F05EFA0346002B01D0504B30E0B7F9AF
:101050001230184609F062F804464FF07E51786964
:1010600008F0A8FF03461946204609F0ABF80346EE
:101070004449184609F062FA0346002B02D04FF4A7
:101080007A7315E0B7F91230184609F047F80446AC
:101090004FF07E51786908F08DFF034619462046CF
:1010A00009F090F80346184609F052FA03461BB2BD
:1010B000BA681380B7F91230184609F02FF80446C1
:1010C00079694FF07E5008F073FF034619462046B9
:1010D00009F078F803462C49184609F011FA03463E
:1010E000002B01D0294B30E0B7F91230184609F037
:1010F00015F8044679694FF07E5008F059FF034611
:101100001946204609F05EF803461E49184609F0C4
:1011100015FA0346002B02D04FF47A7315E0B7F9A5
:101120001230184608F0FAFF044679694FF07E50F5
:1011300008F03EFF03461946204609F043F80346EF
:10114000184609F005FA03461BB27A681380B7F90E
:101150000E30002BB8BF5B429BB2312B0DD8B7F9D4
:101160000C30002BB8BF5B429BB2312B05D8BB685B
:1011700000221A807B6800221A8000BF1C37BD46FF
:1011800090BD00BF00007A4400007AC418FCFFFF45
:1011900080B483B000AF03463960FB7197F9073024
:1011A000002B0BDA3B68DAB20C49FB7903F00F0332
:1011B000043B1201D2B20B441A7609E03B68DAB262
:1011C000074997F907301201D2B20B4483F8002384
:1011D00000BF0C37BD4680BC704700BF00ED00E08B
:1011E00000E100E080B582B000AF78607B68013B31
:1011F000B3F1807F01D301230FE00A4A7B68013BF2
:1012000053600F214FF0FF30FFF7C2FF054B002264
:101210009A60044B07221A60002318460837BD461F
:1012200080BD00BF10E000E080B500AF002002F0FC
:10123000EFFB00BF002002F037FB0346002BF9D084
:10124000002002F065FA4FF4806002F079FA002085
:1012500002F08EFA1249002002F0A2FA182002F0E1
:10126000D7FB00BF182002F01FFB0346002BF9D06C
:10127000022003F03FFD022002F026FA00BF02F038
:101280003BFA0346082BFAD1064B074A1A60054B76
:101290001B681946054806F023FE00BF80BD00BF4D
:1012A000000004081000002000A24A0420A9000841
:1012B00080B500AF0D4B1B680D4AA2FB03239B09B1
:1012C0001846FFF78FFF0346002B04D0094804F0AF
:1012D0009DF800BFFDE700214FF0FF30FFF758FFFA
:1012E000054804F093F800BF80BD00BF1000002047
:1012F000D34D621044A900085CA9000880B500AF76
:1013000040F2026002F078F940F2036002F074F9F2
:1013100040F2046002F070F94FF4C06002F06CF922
:101320000121094802F0F6F8084804F06FF800F0CF
:101330008FF800F0C1F800F0D5F800F0FDF804488F
:1013400004F064F800BF80BD0002300074A90008FA
:1013500088A9000880B500AF4FF4E06002F04CF9B6
:1013600040F2027002F048F940F2037002F044F9D2
:1013700000F0FCF800F069F9024804F047F800BFFB
:1013800080BD00BF9CA9000880B500AF40F2096095
:1013900002F032F94FF4A06002F02EF9022002F0C0
:1013A0001FFA00F0DBF900F0FBF9024804F02EF818
:1013B00000BF80BDB4A9000880B500AF40F61D1085
:1013C00002F046FA0346002B04D002F05FFA0B4805
:1013D00004F01CF8022140F6FF7003F037FC0346CE
:1013E000012B04D0064804F011F800BFFDE703F01C
:1013F00015FC044804F00AF800BF80BDC8A9000825
:10140000E0A90008F8A9000880B485B000AF7860B2
:10141000094B1B68FB6001E000BF00BF064B1A6868
:10142000FB68D31A7A689A42F6D800BF00BF143717
:10143000BD4680BC704700BF4402002080B400AFAE
:10144000024B1B681846BD4680BC70474402002012
:1014500080B500AF4FF4E07303221821134801F068
:1014600083FF832303221821114801F07DFF4FF4ED
:101470008073032218210E4801F076FF4FF40053C9
:10148000032218210B4801F06FFF4FF4C0630322C1
:101490001821074801F068FF4FF440430322182148
:1014A000044801F061FF00BF80BD00BF0010014093
:1014B00000080140000C014080B500AFE02303228A
:1014C0000421064801F050FF4FF4E05303220421A9
:1014D000034801F049FF00BF80BD00BF000C014080
:1014E0000010014080B500AF4FF4005303221021DB
:1014F0000E4801F039FF4FF400510C4801F0E6FFAF
:101500001023032210210A4801F02EFF1021084861
:1015100001F0DCFF042303221021064801F024FF20
:101520000421044801F0C3FF00BF80BD001001404A
:1015300000080140000C014080B500AF04230322E5
:101540000021084801F010FF022303220021064871
:1015500001F00AFF0C2303220021034801F004FFDD
:1015600000BF80BD001001400008014080B58CB074
:1015700000AF4FF0804002F06DFA00233B846023FF
:101580007B840023BB8440F6CA03BB620023BB8577
:10159000002387F82E3007F1200319464FF08040D2
:1015A00002F0F0FA0123BB800423FB8000233B817F
:1015B00008237B810023BB814FF40073FB813B1D1B
:1015C0001A4601214FF0804002F0E8FB3B1D1A460D
:1015D00002214FF0804002F0E1FB3B1D1A4603213F
:1015E0004FF0804002F0DAFB702201214FF0804082
:1015F00002F0C2FD702202214FF0804002F0BCFDDB
:10160000702203214FF0804002F0B6FD4FF40063DA
:101610003B8200237B823223BB820023FB824FF478
:1016200080433B8300237B830023BB8307F11003AC
:1016300019464FF0804002F089FB4FF0804002F0E5
:1016400045FB00BF3037BD4680BD80B500AF00F020
:1016500005F800F03DF800BF80BD000080B588B0FF
:1016600000AF1A4802F0F6F900233B8260237B8228
:101670000023BB8240F6CA03BB610023BB83002367
:10168000BB7707F110031946104802F07BFA0123DB
:10169000BB800423FB8000233B8108237B81002344
:1016A000BB814FF40073FB813B1D1A4603210748A1
:1016B00002F074FB70220321044802F05DFD034830
:1016C00002F004FB00BF2037BD4680BD000800408B
:1016D00080B588B000AF204802F0BCF900233B82FF
:1016E00060237B820023BB8240F6CA03BB610023D8
:1016F000BB830023BB7707F110031946164802F09D
:1017000041FA0123BB800423FB8000233B81082393
:101710007B810023BB814FF40073FB813B1D1A4684
:1017200001210D4802F03AFB3B1D1A4603210A48ED
:1017300002F034FB70220121074802F01DFD7022E7
:101740000321054802F018FD034802F0BFFA00BF6C
:101750002037BD4680BD00BF000C004080B500AF03
:101760000E4802F001FE002002F03AFE00210B4874
:1017700002F0ACFE01224FF48071084802F048FEEE
:1017800000220121054802F023FF044802F0BCFEBC
:10179000024802F0E2FE00BF80BD00BF002401400D
:1017A00080B588B000AF0021164802F056FF002334
:1017B000BB77154BFB6001237B774FF480633B6164
:1017C00003237B61114B7B6000233B774FF48073D5
:1017D000BB604FF40053BB613B1D1A460021094812
:1017E00002F0A2FF0021074803F09AF80021054803
:1017F00003F0C1F8064802F0DAFE00BF2037BD460C
:1018000080BD00BF00000240340200204C24014093
:101810000024014080B500AF044B1B680133034A2C
:10182000136003F007FA00BF80BD00BF4402002030
:1018300080B500AF02220021064803F0C7F8034636
:10184000002B04D002220021024803F02CF900BF33
:1018500080BD00BF0000024080B584B000AFFFF73C
:10186000EDFDB8602D4B1B68BA68D31A092B51D90E
:101870002A4ABB6813602A4B1B78032B4BD1294B98
:101880001B88FB80274B5B88BB80B7F90630184666
:1018900000F0DEF803461A46234B1A80B7F90430ED
:1018A000184600F0D5F803461A461F4B9A801E4B87
:1018B00000225A801C4B0022DA801B4B4FF47A72B4
:1018C0001A81194B00225A81174B00229A81164B1C
:1018D0000022DA81154ABB681360144B1B68BA6892
:1018E000D31AB3F57A7F11D9114B00221A70002355
:1018F000FB6007E00C4AFB68002122F81310FB682C
:101900000133FB60FB68072BF4DD04E0084B012288
:101910001A7000E000BF1037BD4680BD6002002095
:101920005D020020340200204802002058020020FE
:101930005C02002080B483B000AF0346FB71FB79EA
:10194000072B01D9002309E0074B1B78002B01D19D
:10195000002303E0FB79054A32F9133018460C37AF
:10196000BD4680BC704700BF5C02002048020020DA
:1019700080B500AF0220FFF7DDFF0346184680BDAB
:1019800080B500AF0020FFF7D5FF0346184680BDA5
:1019900080B582B000AF0420FFF7CCFF0346FB8088
:1019A000B7F90630B3F5FA7FCCBF01230023DBB2D1
:1019B00018460837BD4680BD80B400AF024B1B7887
:1019C0001846BD4680BC70475C02002090B482B0CF
:1019D00000AF0446084611461A462346FB800346DC
:1019E000BB800B467B8013463B80B7F90620B7F9D6
:1019F00000309A4215DAB7F90620B7F90430D31A45
:101A00004FF47A7203FB02F2B7F90010B7F9043011
:101A1000CB1A92FBF3F39BB2A3F57A739BB21BB282
:101A200010E0B7F90620B7F90030D31A4FF47A72F4
:101A300003FB02F2B7F90210B7F90030CB1A92FBA0
:101A4000F3F31BB218460837BD4690BC7047000040
:101A500080B582B000AF0346FB80094BB3F902109A
:101A6000074BB3F90420064BB3F90630B7F906006B
:101A7000FFF7ACFF034618460837BD4680BD00BFE0
:101A80000400002080B400AFBFF34F8F00BF064BAF
:101A9000DB6803F4E0620449044B1343CB60BFF3FB
:101AA0004F8F00BF00BFFDE700ED00E00400FA0526
:101AB00080B483B000AF7860144B1B68134A43F0C6
:101AC00008031360124B1B68114A43F48023136010
:101AD000104B00221A60104B1B6823F47F0323F481
:101AE0007F430D4A43F4964313600C4B4FF49C72B2
:101AF0001A60084B42F22C021A60094B80225A608D
:101B000000BF0C37BD4680BC704700BF18100240B4
:101B10001C1002400C480040040C014008480040E2
:101B200000E100E080B584B000AF78607B68002BF6
:101B30001ED0786803F0D0F9B8600023FB6012E093
:101B40007A68FB6813441B7819460B4802F0DEFFE5
:101B500000BF0721084802F0FAFF0346002BF8D027
:101B6000FB680133FB60FA68BB689A42E8D300E087
:101B700000BF1037BD4680BD0048004080B584B02E
:101B800000AF78600B467B807B68002B1DD07B8884
:101B9000002B1AD00023FB8112E0FB897A681344E2
:101BA0001B7819460B4802F0B1FF00BF0721094816
:101BB00002F0CDFF0346002BF8D0FB890133FB81F7
:101BC000FA897B889A42E8D300E000BF1037BD460F
:101BD00080BD00BF004800400FB480B5A2B000AF88
:101BE00007F194037B6007F108007B68D7F8902029
:101BF000802103F0FFF807F108031846FFF792FF72
:101C000000BF8837BD46BDE8804004B07047000083
:101C100080B584B000AF0346FB71FB790D2B02D079
:101C2000FB790A2B27D12E4B1B88002B1FD02C4B66
:101C30001B881A462B4B002199542B4B01221A70FA
:101C40002A4B1B682A4AA2FB03239A09294B9B684B
:101C5000D31AFB60F9682848FFF7BEFF2148FFF759
:101C600061FF2648FFF75EFF1E4800F0D5FB1C4BC6
:101C700000221A8030E0FB79082B02D0FB797F2B01
:101C80000DD1174B1B88002B26D0154B1B88013B11
:101C90009AB2134B1A801A48FFF744FF1CE0104B0E
:101CA0001B88FE2B18D80E4B1B885A1C91B20C4A6D
:101CB000118019460B4AFB795354FB799BB21946A4
:101CC000104802F023FF00BF07210E4802F03FFF3B
:101CD0000346002BF8D0FFE700BF1037BD4680BD9C
:101CE000640300206402002066030020100000202E
:101CF000D34D621010E000E05CAA000870AA000852
:101D000078AA00080048004080B584B000AF786031
:101D1000786805F0D1FA0346FB81B7F90E3013F568
:101D20007A7F08DBB7F90E30B3F57A7FA8BF4FF49E
:101D30007A731BB200E0024B18461037BD4680BDD7
:101D400018FCFFFF80B582B000AF78600B467B8047
:101D50007B881946786801F0C8FB0346012B0CBF4D
:101D600001230023DBB218460837BD4680BD0000C2
:101D700080B582B000AF78600B467B8013467B70E5
:101D80007A887B7879680348FFF726FF00BF083719
:101D9000BD4680BD7CAA000880B588B000AFF86061
:101DA000B9607A60FB68002B01D1002398E0FB68E2
:101DB000FB6102E0FB690133FB61FB691B78202BAF
:101DC000F8D00023FB7600237B61FB691B78502B46
:101DD00003D0FB691B78702B11D1FB6901331B7891
:101DE000402B0CD9FB6901331B787A2B07D8FB6990
:101DF00001331B78FB76FB6902337B6110E0FB69E2
:101E00001B78402B0AD9FB691B787A2B06D8FB6913
:101E10001B78FB76FB6901337B6101E000235FE007
:101E2000FB7E602B05D9FB7E7A2B02D8FB7E203B04
:101E3000FB76FB7E402B02D9FB7E472B01D900238A
:101E40004EE0786905F038FA38613B69002B02DB17
:101E50003B690F2B01DD002342E0FB7E413B042B5D
:101E600034D801A252F823F07D1E00088D1E000810
:101E70009D1E0008AD1E0008BD1E0008BB681A4A62
:101E80001A6040F2026001F0B7FB21E0BB68174A1C
:101E90001A6040F2036001F0AFFB19E0BB68144A1E
:101EA0001A6040F2046001F0A7FB11E0BB68114A20
:101EB0001A6040F2056001F09FFB09E0BB680E4A22
:101EC0001A6040F2066001F097FB01E0002307E092
:101ED00001223B6902FA03F39AB27B681A8001235C
:101EE00018462037BD4680BD00080140000C014067
:101EF00000100140001401400018014080B586B078
:101F000000AF786007F10E0207F1100319467868F8
:101F1000FFF742FF0346002B03D10A48FFF702FEFA
:101F20000DE03B69FA891146184601F0DEFA0346D6
:101F3000FB75FA7DFB8979680348FFF74DFE18377A
:101F4000BD4680BD9CAA0008C0AA000880B586B026
:101F500000AF7860396007F10E0207F110031946EF
:101F60007868FFF719FF0346002B03D11548FFF7E8
:101F7000D9FD24E0386805F09FF978613869FB895C
:101F80000322102101F0F0F97B69002B06D03B6998
:101F9000FA891146184601F08AFA05E03B69FA8988
:101FA0001146184601F092FA7B69002B14BF0123F9
:101FB0000023DBB21A4679680348FFF70DFE183795
:101FC000BD4680BDE4AA00080CAB000880B489B00F
:101FD00000AFF860B9607A60FB68002B05DDBB6874
:101FE000002B02D07B68002B01D100232BE0184B83
:101FF000FB61FB68FA69B2FBF3F3BB61BB69002BC1
:1020000001D100231FE0BB69013B1B0C7B617B6995
:10201000B3F5803F01D3002315E07B690133BA6932
:10202000B2FBF3F33B613B69002B03D03B69B3F593
:10203000803F01D3002306E0BB687A691A607B68A1
:102040003A691A60012318462437BD4680BC7047A0
:1020500000A24A0480B592B002AF78603960786817
:1020600005F02AF9B8633B68002B04D0386805F006
:1020700023F9034600E032237B63BB6B002B05DDB5
:102080007B6B002B02DB7B6B642B03DD8848FFF747
:1020900049FD0AE107F1280207F12C031946B86B44
:1020A000FFF794FF0346002B04D1B96B8148FFF77B
:1020B00093FDFAE0BB6A01337A6B02FB03F37E4ABD
:1020C000A2FB03235B09FB63BB6AFA6B9A4201D94B
:1020D000BB6AFB634FF4806001F0B0FA4FF480609C
:1020E00001F0CEFA4FF4E06001F086FA40F20260AF
:1020F00001F082FA4FF4C06001F07EFA6F4B3B634F
:102100003B6B1B6823F440723B6B1A604FF08040BE
:1021100001F0A0FCFB6A9BB23B8360237B8300231E
:10212000BB83BB6A9BB23B620023BB84002387F85E
:10213000263007F1180319464FF0804001F022FDC8
:102140000123BB810423FB8100233B8208237B8284
:102150000023BB824FF40073FB8207F10C031A4685
:1021600001214FF0804001F019FE07F10C031A46DF
:1021700002214FF0804001F011FE07F10C031A46D6
:1021800003214FF0804001F009FE702201214FF041
:10219000804001F0F1FF702202214FF0804001F0F9
:1021A000EBFF702203214FF0804001F0E5FFFB6B55
:1021B0009BB21A4601214FF0804002F03FF8FB6BC2
:1021C0009BB21A4602214FF0804002F037F8FB6BB9
:1021D0009BB21A4603214FF0804002F02FF84FF0D7
:1021E000804001F073FD364801F034FCBB6A9BB2BD
:1021F0003B6207F118031946314801F0C3FC07F1AF
:102200000C031A4603212E4801F0C8FD7022032159
:102210002B4801F0B1FFFB6B9BB21A460321284803
:1022200002F00CF8264801F051FD264801F012FC9E
:10223000BB6A9BB23B6207F118031946214801F0C3
:10224000A1FC07F10C031A4601211E4801F0A6FD6E
:1022500007F10C031A4603211A4801F09FFD702272
:102260000121184801F088FF70220321154801F070
:1022700083FFFB6B9BB21A460121124801F0DEFF7F
:10228000FB6B9BB21A4603210E4801F0D7FF0D48A5
:1022900001F01CFDF96ABB6AFA6B019200930B46D0
:1022A0007A6BB96B0848FFF797FC4037BD4680BD95
:1022B00020AB000850AB00081F85EB510400014023
:1022C00000080040000C00407CAB000880B590B0D6
:1022D00000AFF860B9607A6007F1360207F13803A1
:1022E0001946F868FFF758FD0346002B04D1F9683A
:1022F0004348FFF771FC80E0BB6B424A934202D136
:10230000FB8E082B03D04048FFF766FC75E007F111
:102310002C0207F130031946B868FFF757FE034651
:10232000002B04D1B9683948FFF756FC65E0FB6A19
:1023300001337A6802FB03F3354AA2FB03235B09EE
:10234000FB6340F2026001F057F94FF4E06001F0E6
:1023500053F90823032218212A4801F005F84FF009
:10236000804001F077FB3B6B9BB2BB830023FB8378
:1023700000233B84FB6A9BB27B6200233B850023E6
:1023800087F82A3007F11C0319464FF0804001F00E
:10239000F9FB01233B820023BB8200233B8307F12F
:1023A00010031A4603214FF0804001F0F7FC702221
:1023B00003214FF0804001F0DFFEFB6B9BB21A4619
:1023C00003214FF0804001F039FF082203214FF034
:1023D000804001F067FF01214FF0804001F0A3FC35
:1023E0004FF0804001F090FC4FF0804001F06EFC17
:1023F0007A68B9680748FFF7EFFB4037BD4680BDF4
:10240000BCAB000800080140D4AB000850AB00088A
:102410001F85EB51FCAB000880B5FEB002AF07F59D
:10242000F873A3F5F673186007F5F873A3F5F67360
:102430001B68002B00F0D88607F5F873A3F5F67338
:102440001B681B78002B00F0CF8607F5F873A3F507
:10245000F67307F17C00FF22196805F0F9F807F51B
:10246000F873A3F5BA73002283F8FF200023C7F89E
:10247000EC312BE007F5F873A3F5BA72D7F8EC311D
:1024800013441B78402B1CD907F5F873A3F5BA72D7
:10249000D7F8EC3113441B785A2B12D807F5F87390
:1024A000A3F5BA72D7F8EC3113441B782033D9B2B4
:1024B00007F5F873A3F5BA72D7F8EC3113440A465E
:1024C0001A70D7F8EC310133C7F8EC3107F5F8731F
:1024D000A3F5BA72D7F8EC3113441B78002BC9D19D
:1024E00007F17C03C649184605F0C0FB0346002BE4
:1024F00008D007F17C03C349184605F0B7FB034633
:10250000002B40D1C048FFF70DFBC048FFF70AFB86
:10251000BF48FFF707FBBF48FFF704FBBE48FFF7C4
:1025200001FBBE48FFF7FEFABD48FFF7FBFABD48C6
:10253000FFF7F8FABC48FFF7F5FABC48FFF7F2FAE4
:10254000BB48FFF7EFFABB48FFF7ECFABA48FFF7D2
:10255000E9FABA48FFF7E6FAB948FFF7E3FAB948EB
:10256000FFF7E0FAB848FFF7DDFAB848FFF7DAFA04
:10257000B748FFF7D7FAB748FFF7D4FAB648FFF7DE
:10258000D1FA00F032BE07F17C030622B3491846A7
:1025900005F09EFA0346002B40F0978007F5F8738C
:1025A000A3F5F6731B680633C7F884310622AC49DD
:1025B000D7F8840105F08CFA0346002B0AD10120DC
:1025C000FEF7C0FCA74B01221A71A748FFF7AAFA31
:1025D00000F00BBE0722A549D7F8840105F078FA70
:1025E0000346002B0AD10020FEF7ACFC9D4B0022D5
:1025F0001A719F48FFF796FA00F0F7BD05229D4932
:10260000D7F8840105F064FA0346002B15D1D7F8FA
:10261000843105331846FFF777FB0346A7F87E3170
:10262000B7F97E311846FEF74DFCB7F97E311946F1
:102630009148FFF7D1FA00F0D8BD06228F49D7F8AC
:10264000840105F045FA0346002B15D1D7F88431F3
:1026500006331846FFF758FB0346A7F88031B7F951
:1026600080311846FEF74EFCB7F980311946844890
:10267000FFF7B2FA00F0B9BD05228249D7F884010C
:1026800005F026FA0346002B1AD1D7F8843105331A
:102690001846FFF739FB0346A7F88231B7F98231B4
:1026A0001846FEF70FFCB7F982311846FEF72AFCF0
:1026B000B7F9823119467448FFF78EFA00F095BDDC
:1026C0007248FFF72FFA00F090BD07F17C03052256
:1026D0006F49184605F0FCF90346002B40F0E080F6
:1026E00007F5F873A3F5F6731B680533C7F8E831EF
:1026F00004E0D7F8E8310133C7F8E831D7F8E8311A
:102700001B78202BF5D005226249D7F8E80102F0AA
:1027100097FF0346002B15D1D7F8E8310533C7F8EA
:10272000E43104E0D7F8E4310133C7F8E431D7F8F5
:10273000E4311B78202BF5D0D7F8E401FFF7DEFB5E
:1027400000F053BD06225449D7F8E80102F078FFA3
:102750000346002B4ED1D7F8E8310633C7F8E031F5
:1027600004E0D7F8E0310133C7F8E031D7F8E031C1
:102770001B78202BF5D00023C7F8DC310FE0D7F809
:10278000E021531CC7F8E031D7F8DC31591CC7F8F9
:10279000DC11117807F5F872A2F5C272D154D7F89E
:1027A000E0311B78002B08D0D7F8E0311B78202BC4
:1027B00003D0D7F8DC310E2BE1DD07F5F873A3F574
:1027C000C272D7F8DC31134400221A7004E0D7F843
:1027D000E0310133C7F8E031D7F8E0311B78202B26
:1027E000F5D007F16C03D7F8E0111846FFF7AEFB00
:1027F00000F0FBBC2948FFF795F900F0F6BC00BFDC
:102800002CAC000834AC000838AC000860AC000800
:1028100074AC0008A4AC0008D4AC000814AD0008E7
:1028200058AD00089CAD0008B0AD0008E4AD00084C
:1028300014AE00084CAE000880AE0008B4AE00082C
:10284000ECAE000800AF000834AF000868AF000825
:1028500074AF0008A4AF0008D4AF0008F8AF0008B8
:1028600000B00008DC01002008B000081CB000081F
:1028700024B0000838B0000840B0000858B0000884
:1028800060B0000878B0000880B0000898B0000878
:10289000C8B00008D0B00008D8B00008E0B0000808
:1028A00007F5F873A3F5BA731B78722B54D107F5AB
:1028B000F873A3F5BA735B78202B4DD107F5F87345
:1028C000A3F5F6731B680233C7F8D83104E0D7F8D4
:1028D000D8310133C7F8D831D7F8D8311B78202B3D
:1028E000F5D00023C7F8D4310FE0D7F8D821531C16
:1028F000C7F8D831D7F8D431591CC7F8D41111789A
:1029000007F5F872A2F5CA72D154D7F8D8311B78FE
:10291000002B08D0D7F8D8311B78202B03D0D7F85C
:10292000D4310E2BE1DD07F5F873A3F5CA72D7F8A1
:10293000D431134400221A70D7F8D431002B04D1BB
:10294000B648FFF7EFF800F050BC07F15C031846FB
:10295000FFF7D4FA00F049BC07F5F873A3F5BA7392
:102960001B78772B64D107F5F873A3F5BA735B78FE
:10297000202B5DD107F5F873A3F5F6731B680233BE
:10298000C7F8D03104E0D7F8D0310133C7F8D031DF
:10299000D7F8D0311B78202BF5D00023C7F8CC31E5
:1029A0000FE0D7F8D021531CC7F8D031D7F8CC317D
:1029B000591CC7F8CC11117807F5F872A2F5D2723C
:1029C000D154D7F8D0311B78002B08D0D7F8D031AC
:1029D0001B78202B03D0D7F8CC310E2BE1DD07F587
:1029E000F873A3F5D272D7F8CC31134400221A70D1
:1029F00004E0D7F8D0310133C7F8D031D7F8D0315F
:102A00001B78202BF5D0D7F8CC31002B04D0D7F889
:102A1000D0311B78002B03D18148FFF783F8E4E322
:102A200007F14C03D7F8D0111846FFF78FFADCE313
:102A300007F17C037B49184605F018F90346002B83
:102A400053D17948FFF76EF8784B1B7819467848D0
:102A5000FFF7C2F8774B9B68184606F075FF0246F1
:102A60000B467548FFF7B8F8FEF7A2FA034618467A
:102A700006F06AFF02460B467048FFF7ADF8FEF716
:102A8000A1FA0346184606F05FFF02460B466C4962
:102A9000897800916B48FFF79FF8FEF79DFA03468F
:102AA000184606F051FF02460B46674989780091A7
:102AB0006648FFF791F85F4BB3F9003019465D4B5C
:102AC000B3F902301A466248FFF786F8594B1B7972
:102AD000002B01D05F4B00E05F4B19465F48FFF7CA
:102AE0007BF85F48FFF71EF87FE307F17C035D4941
:102AF000184605F0BBF80346002B18D15A48FFF7DB
:102B000011F85A4B1B8819465948FFF765F8574B7F
:102B10005B8819465748FFF75FF8544B9B88194666
:102B20005548FFF759F85548FEF7FCFF5DE307F1FC
:102B30007C035349184605F099F80346002B29D128
:102B40003C4B9B68184606F0FFFE02460B464D487C
:102B5000FFF742F8374B9B684FF07E51184607F05D
:102B6000CFFC0346002B03D04748FEF7DBFF3CE3D6
:102B7000304B9B684FF08041184607F0C1FC03467C
:102B8000002B03D04148FEF7CDFF2EE34048FEF76F
:102B9000C9FF2AE307F17C033E49184605F066F8B1
:102BA0000346002B19D1FEF703FAC7F88801D7F8BE
:102BB000880106F0C9FE02460B463748FFF70CF8BD
:102BC0003649D7F8880107F0B9FC0346002B00F01E
:102BD0000C833348FEF7A6FF07E307F17C03314976
:102BE000184605F043F80346002B61D1FEF7EAF9D9
:102BF0000346184606F0A8FE02460B462A48FEF792
:102C0000EBFFFEF7E9F90346184606F09DFE024683
:102C10000B462648FEF7E0FFE7E200BF18B10008C8
:102C200034B1000848B1000850B10008EE0100209E
:102C30006CB10008DC0100209CB10008B0B10008B4
:102C40001C020020C4B1000828020020E8B10008DE
:102C50000CB200082CB2000830B2000834B20008F0
:102C60004CB2000864B2000868B2000834020020C8
:102C700080B200089CB20008B8B20008D0B20008C8
:102C8000E8B20008F0B200080CB3000830B3000846
:102C900048B3000864B300086CB300080000A0410A
:102CA00084B30008A8B30008B0B30008D0B300088C
:102CB00007F17C030422A249184604F009FF0346E9
:102CC000002B40F0438107F5F873A3F5F6731B68FA
:102CD0000433C7F8C83104E0D7F8C8310133C7F866
:102CE000C831D7F8C8311B78202BF5D0042295497C
:102CF000D7F8C80102F0A4FC0346002B63D1D7F833
:102D0000C8310433C7F8C43104E0D7F8C431013303
:102D1000C7F8C431D7F8C4311B78202BF5D007F59C
:102D2000F873A3F5DA731A460023136053609360B7
:102D3000D3600023C7F8C0310FE0D7F8C421531C7B
:102D4000C7F8C431D7F8C031591CC7F8C011117881
:102D500007F5F872A2F5DA72D154D7F8C4311B78AE
:102D6000002B08D0D7F8C4311B78202B03D0D7F81C
:102D7000C0310E2BE1DD07F5F873A3F5DA72D7F851
:102D8000C031134400221A7004E0D7F8C431013373
:102D9000C7F8C431D7F8C4311B78202BF5D00023F5
:102DA000C7F8BC31D7F8C4311B78002B03D0D7F853
:102DB000C431C7F8BC3107F13C03D7F8BC11184641
:102DC000FFF748F911E207F5F873A3F5E2731A4625
:102DD0000023136053609360D3600023C7F8B831B9
:102DE000D7F8C831C7F8B4310FE0D7F8B421531C75
:102DF000C7F8B431D7F8B831591CC7F8B8111178F1
:102E000007F5F872A2F5E272D154D7F8B4311B7805
:102E1000002B08D0D7F8B4311B78202B03D0D7F87B
:102E2000B8310E2BE1DD07F5F873A3F5E272D7F8A0
:102E3000B831134400221A7004E0D7F8B4310133DA
:102E4000C7F8B431D7F8B4311B78202BF5D0012363
:102E5000C7F8B0313223C7F8AC31D7F8B4311B789A
:102E6000002B58D007F5F873A3F5F273184620230A
:102E70001A46002102F00EFC0023C7F8A8310FE02B
:102E8000D7F8B421531CC7F8B431D7F8A831591C6E
:102E9000C7F8A811117807F5F872A2F5F272D154AB
:102EA000D7F8B4311B78002B08D0D7F8B4311B7891
:102EB000202B03D0D7F8A8311E2BE1DD07F5F873DE
:102EC000A3F5F272D7F8A831134400221A7007F55F
:102ED000F873A3F5F2731B78002B0CD007F10C03E9
:102EE000184604F0E9F9C7F8B00104E0D7F8B431A6
:102EF0000133C7F8B431D7F8B4311B78202BF5D0A3
:102F0000D7F8B4311B78002B05D0D7F8B40104F002
:102F1000D3F9C7F8AC0107F5F873A3F5E2731B7892
:102F2000002B09D007F12C03D7F8AC21D7F8B0114A
:102F30001846FFF7CBF958E10348FEF7F3FD54E1DB
:102F4000F0B30008F8B3000800B4000807F17C03F0
:102F5000A849184604F08AFE0346002B40F0A080E2
:102F60002021A548FEF7EEFE034687F89331402165
:102F7000A148FEF7E7FE034687F8923180219E487C
:102F8000FEF7E0FE034687F8913197F992315B0036
:102F90005AB297F9933113435AB297F991319B0082
:102FA0005BB213435BB287F890314FF48061934872
:102FB000FEF7C8FE034687F88F314FF400618F4853
:102FC000FEF7C0FE034687F88E314FF480518B48E0
:102FD000FEF7B8FE034687F88D3197F98E315B0016
:102FE0005AB297F98F3113435AB297F98D319B003A
:102FF0005BB213435BB287F88C318148FEF792FDD8
:103000008048FEF78FFD97F893311A4620217E48BD
:10301000FEF7AEFE97F892311A4640217B48FEF744
:10302000A7FE97F891311A4680217948FEF7A0FE55
:1030300097F8903197F8902119467648FEF7CCFD25
:10304000754BDB7819467548FEF7C6FD7448FEF7E8
:1030500069FD97F88F311A464FF480617148FEF789
:1030600087FE97F88E311A464FF400616E48FEF7DE
:103070007FFE97F88D311A464FF480516B48FEF76A
:1030800077FE97F88C3197F88C2119466848FEF73F
:10309000A3FD684BDB7819466748FEF79DFDA4E069
:1030A00007F17C0304226549184604F011FD03462C
:1030B000002B3FD107F5F873A3F5F6731B680433B3
:1030C000C7F8A43104E0D7F8A4310133C7F8A4311C
:1030D000D7F8A4311B78202BF5D0D7F8A40104F041
:1030E000EBF8C7F89401D7F89431002B1EDDD7F820
:1030F00094310A2B1ADC0023C7F8A0310AE0012022
:10310000FDF75EFD6420FEF77FF9D7F8A0310133AB
:10311000C7F8A031D7F8A021D7F894319A42EEDB56
:10312000D7F894114648FEF757FD5EE04548FEF794
:10313000F9FC5AE007F17C0306224349184604F0E3
:10314000C7FC0346002B30D107F5F873A3F5F673DF
:103150001B680633C7F89C3104E0D7F89C31013373
:10316000C7F89C31D7F89C311B78202BF5D0D7F8C5
:103170009C0104F0A1F8C7F89801D7F89831002B0A
:103180000FDDD7F898310A2B0BDCD7F89831DBB27A
:103190001846FDF715FDD7F898112C48FEF71CFDD1
:1031A00023E02B48FEF7BEFC1FE007F17C03294912
:1031B000184604F05BFD0346002B09D12648FEF7B4
:1031C000B1FC4FF47A70FEF71FF9FEF75BFC0CE0E0
:1031D00007F5F873A3F5F67319682048FEF7FCFCB1
:1031E0001F48FEF79FFC00E000BF07F5F877BD46DB
:1031F00080BD00BF50B40008000C01400010014029
:1032000058B4000878B400088CB4000898B40008DA
:10321000A4B40008B0B400081C020020D0B4000818
:10322000ECB4000804B5000814B5000824B5000883
:1032300034B500082802002054B5000870B5000815
:1032400078B5000884B5000898B50008A0B5000856
:10325000B8B50008D0B50008D8B50008F8B5000822
:1032600010B6000880B582B000AF1149114801F0D6
:103270008AFC0346002B0CD00E4801F058FC034694
:10328000FB71FB791846FEF7C3FC0949094801F0B8
:10329000AEFC0949074801F076FC0346002B03D039
:1032A0000549044801F0A3FC00BF0837BD4680BDB6
:1032B00005030500004800400603060080B584B001
:1032C00000AFF860B9607A607B689BB21946B86855
:1032D000FEF754FC7B6818461037BD4680BD0000E1
:1032E00080B500AF4FF4006303221021064800F0C0
:1032F0003BF84FF40061044800F0E8F8034B00226B
:103300001A7000BF80BD00BF0008014067030020A5
:1033100080B500AF4FF40061054800F0C8F8054BD8
:1033200001221A70044802F071F800BF80BD00BF8E
:10333000000801406703002038B6000880B500AFE0
:103340004FF40061054800F0C1F8054B00221A70E7
:10335000044802F05BF800BF80BD00BF00080140D8
:10336000670300205CB6000880B489B000AFF86045
:10337000B9607A603B600023BB6100237B61BB685E
:1033800003F00F03BB61BB6803F01003002B03D0F5
:10339000BA697B681343BB610023FB8339E0FB8B75
:1033A00001229A403B681340002B2FD0FB681B681A
:1033B0007B61FB8B9B000F2202FA03F3DB437A69EC
:1033C00013407B61FB8B9B00BA6902FA03F37A69B5
:1033D00013437B61BB68282B09D1FB8B01229A40E8
:1033E000FB68143319463B6813400B600BE0BB6865
:1033F000482B08D1FB8B01229A40FB6810331946F9
:103400003B6813400B60FB687A691A60FB8B0133E1
:10341000FB83FB8B072BC2D90823FB833EE0FB8B8E
:1034200001229A403B681340002B34D0FB680433E0
:103430001B687B61FB8B083B9B000F2202FA03F3A6
:10344000DB437A6913407B61FB8B083B9B00BA69C5
:1034500002FA03F37A6913437B61BB68282B09D115
:10346000FB8B01229A40FB68143319463B681340DA
:103470000B600BE0BB68482B08D1FB8B01229A4004
:10348000FB68103319463B6813400B60FB6804333C
:103490001A467B691360FB8B0133FB83FB8B0F2B7D
:1034A000BDD900BF00BF2437BD4680BC704780B483
:1034B00083B000AF786039607B6810331A463B6890
:1034C000136000BF0C37BD4680BC704780B483B02A
:1034D00000AF786039607B6814331A463B6813602C
:1034E00000BF0C37BD4680BC704780B483B000AFCE
:1034F000786039607B6808331A683B681340002B9A
:1035000001D0012300E0002318460C37BD4680BCE3
:103510007047000080B487B000AF78600B46FB7046
:1035200000233B610023FB6000237B610023BB6021
:103530007B68002B03DA2E4B1B687B6102E02D4B6E
:103540001B687B617B681B0C03F00F03BB607B680F
:103550009BB23B617B6803F44013B3F5401F0AD173
:103560007B6923F070637B61224B1B68214A23F047
:103570007063136021E07B6803F48013002B0ED08E
:103580000322BB6802FA03F3FB60FB68DB437A6942
:1035900013407B617B6943F070637B610DE07B6866
:1035A0005B0D1B013A6902FA03F3DB437A691340AE
:1035B0007B617B6943F070637B61FB78002B08D0F3
:1035C0007B685B0D1B013A6902FA03F37A691343C6
:1035D0007B617B68002B03DA054A7B69136002E09C
:1035E000044A7B69136000BF1C37BD4680BC70472E
:1035F0001C0001400400014080B483B000AF0346CA
:10360000FB80FB889B099BB203F1804303F50433E5
:103610001968FB8803F01F0301229A40FB889B096D
:103620009BB203F1804303F50433184641EA0203D9
:10363000036000BF0C37BD4680BC704780B483B0C8
:1036400000AF0346FB80FB889B099BB203F18043DC
:1036500003F504331968FB8803F01F0301229A4025
:10366000FB889B099BB203F1804303F504331846A2
:1036700041EA0203036000BF0C37BD4680BC7047BF
:1036800080B483B000AF0346FB80FB889B099BB2EC
:1036900003F1804303F504331968FB8803F01F032B
:1036A000012202FA03F3DA43FB889B099BB203F180
:1036B000804303F50433184601EA0203036000BFA8
:1036C0000C37BD4680BC704780B485B000AF7860D1
:1036D000084B1B68FB60FB6823F00303FB60054994
:1036E000FA687B6813430B6000BF1437BD4680BC8B
:1036F000704700BF0410024080B400AF034B1B684A
:1037000003F00C031846BD4680BC7047041002400D
:1037100080B485B000AF7860084B1B68FB60FB6825
:1037200023F0F003FB600549FA687B6813430B60E4
:1037300000BF1437BD4680BC704700BF0410024074
:1037400080B485B000AF7860084B1B68FB60FB68F5
:1037500023F4E063FB600549FA687B6813430B6060
:1037600000BF1437BD4680BC704700BF0410024044
:1037700080B485B000AF7860084B1B68FB60FB68C5
:1037800023F46053FB600549FA687B6813430B60C0
:1037900000BF1437BD4680BC704700BF0410024014
:1037A00080B485B000AF786039600023FB600B4BBC
:1037B0001B68FB60FB6823F0036323F45023FB606A
:1037C0007A683B681343FA681343FB60034AFB685B
:1037D000136000BF1437BD4680BC70470410024020
:1037E00080B485B000AF7860184B1B68FB60FB6845
:1037F00023F0805323F44043FB607B68072B0FD0FA
:103800007B68072B18D87B68032B03D97B68052BB3
:1038100006D011E07B689B03FA681343FB600CE061
:103820007B6823F004037B607B689A03FB68134387
:1038300043F08053FB6000E000BF044AFB68136064
:1038400000BF1437BD4680BC704700BF0410024063
:1038500080B483B000AF0346FB80FB889B099BB21A
:1038600003F1804303F504331A68FB8803F01F0358
:1038700022FA03F303F00103002B01D0012300E03F
:10388000002318460C37BD4680BC704780B400AF9B
:10389000044B1B68034A43F08073136000BFBD46AE
:1038A00080BC70472410024080B584B000AF03464E
:1038B000FB800023FB600023FB720023BB72FB88AC
:1038C000B3F5106F69D0B3F5106F00F38F80B3F5C7
:1038D000006F2FD0B3F5006F00F38880182B75D0E0
:1038E000182B00F38380002B3ED0102B7ED107E0F5
:1038F0001120FFF7ADFF0346BB72FB680133FB608D
:10390000BB7A002B04D1FB684FF6FF729342EFD1D4
:103910001120FFF79DFF0346002B69D00123FB72A6
:1039200066E040F60100FFF793FF0346BB72FB68B9
:103930000133FB60BB7A002B04D1FB686FF07C4243
:103940009342EED140F60100FFF782FF0346002BC1
:1039500050D00123FB724DE00120FFF779FF0346B1
:10396000BB72FB680133FB60BB7A002B03D1FB68A1
:10397000B3F5A06FF0D10120FFF76AFF0346002BDB
:103980003AD00123FB7237E040F60110FFF760FFE9
:103990000346BB72FB680133FB60BB7A002B03D18B
:1039A000FB681A4A9342EFD140F60110FFF750FF2F
:1039B0000346002B22D00123FB721FE01920FFF7E2
:1039C00047FF0346BB72FB680133FB60BB7A002BE9
:1039D00003D1FB680D4A9342F0D11920FFF738FF5D
:1039E0000346002B0CD00123FB7209E000BF08E066
:1039F00000BF06E000BF04E000BF02E000BF00E03F
:103A000000BFFB7A18461037BD4680BDFFFF0F0090
:103A100080B483B000AF0346FB80FB889B099BB258
:103A200003F1804303F504331968FB8803F01F0397
:103A300001229A40FB889B099BB203F1804303F566
:103A40000433184641EA0203036000BF0C37BD4649
:103A500080BC704780B582B000AF78607B68424A16
:103A6000934273D07B68404A934278D87B683F4A40
:103A700093422CD07B683D4A934270D87B683C4A85
:103A800093425AD07B683A4A934268D87B68394A55
:103A9000934249D07B68374A934260D87B68364A64
:103AA000934238D07B68344A934258D87B68334A73
:103AB000934227D07B68314A934250D87B68B3F158
:103AC000804F0DD07B682E4A934212D047E040F2DF
:103AD0000B30FFF7B3FD40F20B30FFF7D1FD3FE0B5
:103AE0004FF48060FFF7AAFD4FF48060FFF7C8FD38
:103AF00036E040F20140FFF7A1FD40F20140FFF740
:103B0000BFFD2DE040F20240FFF798FD40F2024079
:103B1000FFF7B6FD24E040F20340FFF78FFD40F2CF
:103B20000340FFF7ADFD1BE040F20440FFF786FDC8
:103B300040F20440FFF7A4FD12E040F20540FFF719
:103B40007DFD40F20540FFF79BFD09E040F20D309E
:103B5000FFF774FD40F20D30FFF792FD00E000BF6B
:103B600000BF0837BD4680BD00340140002C014035
:103B70000014004000100040000C0040000800400D
:103B80000004004080B483B000AF786039603B68C7
:103B90001A887B6828331A607B683F4A93422BD08F
:103BA0007B68B3F1804F27D07B683C4A934223D097
:103BB0007B683B4A93421FD07B683A4A93421BD0B2
:103BC0007B68394A934217D07B68384A934213D0B6
:103BD0007B68374A93420FD07B68364A93420BD0BA
:103BE0007B68354A934207D07B68344A934203D0BE
:103BF0007B68334A934217D17B681A687B6822F04E
:103C000070021A607B6819683B685B8803F0600289
:103C10007B680A431A607B6819683B689B8803F0DD
:103C200010027B680A431A607B682C331A463B6893
:103C30009B6813607B68234A934212D07B68224AB8
:103C400093420ED07B681A687B6822F440721A6037
:103C50007B6819683B689B8903F440727B680A4360
:103C60001A607B680C4A934203D07B680E4A9342E9
:103C700004D13B689A7B7B6830331A607B681433CD
:103C80001B687A68143243F00103136000BF0C37DD
:103C9000BD4680BC704700BF002C014000040040BE
:103CA00000080040000C004000340140004C01407E
:103CB000005001400054014000180040001C00402A
:103CC00000200040001000400014004080B483B089
:103CD00000AF78607B681A687B6842F001021A6066
:103CE00000BF0C37BD4680BC704780B483B000AFC6
:103CF00078607B681A687B6822F001021A6000BF56
:103D00000C37BD4680BC704780B483B000AF78608C
:103D10007B681A687B6842F080021A6000BF0C372B
:103D2000BD4680BC704780B483B000AF78600B465E
:103D30007B807B6814331A687B887968143113435D
:103D40000B6000BF0C37BD4680BC704780B483B0A9
:103D500000AF786039603B681A883B685B88134322
:103D60009AB23B689B8813439AB23B68DB88134343
:103D70009AB23B681B8913439AB23B685B89134331
:103D80009AB23B689B8913439AB27B6844331A60AA
:103D900000BF0C37BD4680BC7047000080B485B0C2
:103DA00000AFF8600B467A607B817B89032B00F2C1
:103DB000D08101A252F823F0C93D0008C53E000899
:103DC000C93F0008C5400008FB6820331B68FA683B
:103DD000203223F001031360FB6818331B68FA6874
:103DE000183223F003031360FB6820331B687A68E2
:103DF00012881146FA6820320B431360FB682033A7
:103E00001B68FA68203223F002031360FB6820333A
:103E10001B687A6892881146FA6820320B43136057
:103E2000FB68674A934204D0FB68664A934240F0BD
:103E30009281FB6820331B68FA68203223F0040368
:103E40001360FB6820331B687A6852881146FA6851
:103E500020320B431360FB6820331B68FA68203262
:103E600023F008031360FB6820331B687A68D2884C
:103E70001146FA6820320B431360FB6804331B6859
:103E8000FA68043223F480731360FB6804331B6800
:103E90007A6812891146FA6804320B431360FB6892
:103EA00004331B68FA68043223F400731360FB6860
:103EB00004331B687A6852891146FA6804320B434E
:103EC000136048E1FB6820331B68FA68203223F056
:103ED00010031360FB6818331B68FA68183223F468
:103EE00040731360FB6820331A687B681B881B01D2
:103EF000F968203113430B60FB6820331B68FA68B4
:103F0000203223F020031360FB6820331A687B689B
:103F10009B881B01F968203113430B60FB68284A1A
:103F2000934204D0FB68274A934240F01681FB6815
:103F300020331B68FA68203223F040031360FB68CB
:103F400020331A687B685B881B01F96820311343B2
:103F50000B60FB6820331B68FA68203223F0800373
:103F60001360FB6820331A687B68DB881B01F968E3
:103F7000203113430B60FB6804331B68FA6804327A
:103F800023F480631360FB6804331A687B681B8921
:103F90009B00F968043113430B60FB6804331B6812
:103FA000FA68043223F400631360FB6804331A6870
:103FB0007B685B899B00F968043113430B60CCE09C
:103FC000002C014000340140FB6820331B68FA6874
:103FD000203223F480731360FB681C331B68FA687B
:103FE0001C3223F003031360FB6820331A687B68DC
:103FF0001B881B02F968203113430B60FB682033D8
:104000001B68FA68203223F400731360FB682033C6
:104010001A687B689B881B02F968203113430B6088
:10402000FB68534A934204D0FB68524A934240F0E3
:104030009680FB6820331B68FA68203223F4806383
:104040001360FB6820331A687B685B881B02F96881
:10405000203113430B60FB6820331B68FA68203261
:1040600023F400631360FB6820331A687B68DB88E5
:104070001B02F968203113430B60FB6804331B6893
:10408000FA68043223F480531360FB6804331A681F
:104090007B681B891B01F968043113430B60FB68C3
:1040A00004331B68FA68043223F400531360FB687E
:1040B00004331A687B685B891B01F9680431134378
:1040C0000B604CE0FB6820331B68FA68203223F455
:1040D00080531360FB681C331B68FA681C3223F49E
:1040E00040731360FB6820331A687B681B881B03CE
:1040F000F968203113430B60FB6820331B68FA68B2
:10410000203223F400531360FB6820331A687B6865
:104110009B881B03F968203113430B60FB68144A2A
:10412000934203D0FB68134A93421AD1FB680433CD
:104130001B68FA68043223F480431360FB6804337D
:104140001A687B681B899B01F968043113430B6073
:1041500007E000BF06E000BF04E000BF02E000BFD0
:1041600000E000BF00BF1437BD4680BC704700BFF1
:10417000002C01400034014080B483B000AF78606F
:104180000B467B8013463B807B88032B50D801A2D3
:1041900052F823F0A5410008C7410008EB41000890
:1041A0000D4200087B6818331B687A68183223F0C8
:1041B000700313607B6818331A683B88796818317C
:1041C00013430B6035E07B6818331B687A6818323C
:1041D00023F4E04313607B6818331A683B881B02A2
:1041E0007968183113430B6023E07B681C331B682C
:1041F0007A681C3223F0700313607B681C331A68E2
:104200003B8879681C3113430B6012E07B681C33D8
:104210001B687A681C3223F4E04313607B681C330C
:104220001A683B881B0279681C3113430B6000E05D
:1042300000BF00BF0C37BD4680BC704780B483B060
:1042400000AF78600B467B8013463B807B88032B56
:1042500022D801A252F823F06942000875420008F2
:10426000814200088D4200087B6834331A463B883F
:10427000136012E07B6838331A463B8813600CE009
:104280007B683C331A463B88136006E07B6840330A
:104290001A463B88136000E000BF00BF0C37BD46E4
:1042A00080BC704780B483B000AF78600B467B80E1
:1042B00013463B807B88032B50D801A252F823F091
:1042C000D1420008F34200081743000839430008B0
:1042D0007B6818331B687A68183223F00803136070
:1042E0007B6818331A683B887968183113430B6070
:1042F00035E07B6818331B687A68183223F4006352
:1043000013607B6818331A683B881B027968183180
:1043100013430B6023E07B681C331B687A681C32F4
:1043200023F0080313607B681C331A683B887968A4
:104330001C3113430B6012E07B681C331B687A68E6
:104340001C3223F4006313607B681C331A683B88BB
:104350001B0279681C3113430B6000E000BF00BFF3
:104360000C37BD4680BC704780B582B000AF786026
:104370007B68184A93421ED07B68164A934223D822
:104380007B68154A934204D07B68144A934209D053
:104390001AE040F20930FFF751F940F20930FFF717
:1043A0006FF912E040F20A30FFF748F940F20A30A4
:1043B000FFF766F909E040F20F30FFF73FF940F2EE
:1043C0000F30FFF75DF900E000BF00BF0837BD46C2
:1043D00080BD00BF003C0140002401400028014096
:1043E00080B483B000AF7860084B1B68074A23F4A1
:1043F00070231360054B1A6804497B6813430B60F4
:1044000000BF0C37BD4680BC704700BF042401408C
:1044100080B485B000AFF860B9601346FB71FB79DA
:10442000002B27D0BB6803F48073002B07D0FB68F8
:1044300004331B68FA68043243F480731360BB686A
:1044400003F48063002B07D0FB6804331B68FA6811
:10445000043243F480631360BB6803F00203002B53
:104460002FD0FB6808331B68FA68083243F0020358
:10447000136026E0BB6803F48073002B07D0FB6851
:1044800004331B68FA68043223F480731360BB683A
:1044900003F48063002B07D0FB6804331B68FA68C1
:1044A000043223F480631360BB6803F00203002B23
:1044B00007D0FB6808331B68FA68083223F0020350
:1044C000136000BF1437BD4680BC704780B483B012
:1044D00000AF786039603B68002B08D07B680833F8
:1044E0001B687A68083243F40063136007E07B6856
:1044F00008331B687A68083223F40063136000BF36
:104500000C37BD4680BC704780B483B000AF786084
:104510007B6808331B6803F00103002B07D17B681D
:1045200008331B687A68083243F00103136000BF48
:104530000C37BD4680BC704780B483B000AF786054
:104540007B6808331B687A68083223F00103136024
:1045500000BF0C37BD4680BC704780B483B000AF4D
:1045600078607B6808331B687A68083243F0080378
:10457000136000BF7B6808331B6803F00803002B3F
:10458000F8D17B6808331B687A68083243F004036B
:10459000136000BF7B6808331B6803F00403002B23
:1045A000F8D100BF00BF0C37BD4680BC704780B457
:1045B00083B000AF78607B6808331B687A68083284
:1045C00043F48073136000BF0C37BD4680BC704756
:1045D00080B483B000AF78600B46FB701346BB70AD
:1045E000BB78002B1AD0FB7803F00103002B07D017
:1045F0007B6808331B687A68083243F480131360C1
:10460000FB7803F00203002B22D07B6808331B6881
:104610007A68083243F40043136019E0FB7803F032
:104620000103002B07D07B6808331B687A680832C7
:1046300023F480131360FB7803F00203002B07D0F0
:104640007B6808331B687A68083223F400431360E0
:1046500000BF0C37BD4680BC704780B582B000AF4C
:1046600078600B46FB70FB781946786800F034FAE6
:104670000346002B01D100BFFDE7FA7813469B00EB
:1046800013449B001A467B68134408331968FA7870
:1046900013469B0013449B001A467B68134408335F
:1046A0001A4621F001031360FA7813469B00134465
:1046B0009B001A467B68134408331A460023136094
:1046C000FA7813469B0013449B001A467B681344F8
:1046D0000C331A4600231360FA7813469B001344E8
:1046E0009B001A467B68134410331A46002313605C
:1046F000FA7813469B0013449B001A467B681344C8
:1047000014331A46002313607B6804331A68FB785D
:104710009B000F2101FA03F37968043113430B6006
:1047200000BF0837BD4680BD80B586B000AFF860D9
:104730000B467A60FB72FB7A1946F86800F0CCF9F8
:104740000346002B01D100BFFDE7FA7A13469B0018
:1047500013449B001A46FB68134410331A467B68C7
:104760001B681360FA7A13469B0013449B001A4699
:10477000FB68134414331A467B689B6813607B689C
:104780001969FA7A13469B0013449B001A46FB688A
:1047900013440C331A468BB21360FA7A13469B000B
:1047A00013449B001A46FB68134408331B687B6163
:1047B0007B6923F47C537B617B685A687B68DB6888
:1047C0001A437B685B6913437A6913437B61FA7A06
:1047D00013469B0013449B001A46FB68134408339E
:1047E0001A467B6913607B681B7E012B17D1FA7A0E
:1047F00013469B0013449B001A46FB68134408337E
:104800001968FA7A13469B0013449B001A46FB680A
:10481000134408331A4641F04003136016E0FA7A55
:1048200013469B0013449B001A46FB68134408334D
:104830001968FA7A13469B0013449B001A46FB68DA
:10484000134408331A4621F0400313607B685B7EF3
:10485000012B17D1FA7A13469B0013449B001A468A
:10486000FB68134408331968FA7A13469B00134413
:104870009B001A46FB68134408331A4641F0800334
:10488000136016E0FA7A13469B0013449B001A4605
:10489000FB68134408331968FA7A13469B001344E3
:1048A0009B001A46FB68134408331A4621F0800324
:1048B00013607B689B7E002B17D1FA7A13469B000E
:1048C00013449B001A46FB68134408331968FA7AAC
:1048D00013469B0013449B001A46FB68134408339D
:1048E0001A4621F01003136016E0FA7A13469B0073
:1048F00013449B001A46FB68134408331968FA7A7C
:1049000013469B0013449B001A46FB68134408336C
:104910001A4641F01003136000BF1837BD4680BD32
:1049200080B582B000AF78600B46FB70FB7819460B
:10493000786800F0D1F80346002B01D100BFFDE7F5
:10494000FA7813469B0013449B001A467B68134475
:1049500008331968FA7813469B0013449B001A46E3
:104960007B68134408331A4641F02003136000BFEC
:104970000837BD4680BD80B582B000AF78600B4679
:10498000FB70FB781946786800F0A6F80346002B08
:1049900001D100BFFDE7FA7813469B0013449B004A
:1049A0001A467B68134408331968FA7813469B004B
:1049B00013449B001A467B68134408331A4641F09F
:1049C0000103136000BF0837BD4680BD80B487B0C7
:1049D00000AFF8600B467A60FB7200237B61002316
:1049E0003B617B68082B37D07B68082B4CD87B68F1
:1049F000022B03D07B68042B17D045E0FB681A68B4
:104A0000FB7A9B00796801FA03F313403B61FA7A61
:104A100013469B0013449B001A46FB68134408335B
:104A20001B6803F002037B612FE0FB681A68FB7AC6
:104A30009B00796801FA03F313403B61FA7A13464D
:104A40009B0013449B001A46FB68134408331B6801
:104A500003F004037B6118E0FB681A68FB7A9B0093
:104A6000796801FA03F313403B61FA7A13469B001D
:104A700013449B001A46FB68134408331B6803F079
:104A800008037B6101E0FFE7FDE73B69002B04D0F1
:104A90007B69002B01D0012300E0002318461C375E
:104AA000BD4680BC704780B485B000AFF8600B464F
:104AB0007A60FB72FB6804331A68FB7A9B007968A2
:104AC00001FA03F3F968043113430B6000BF143794
:104AD000BD4680BC7047000080B485B000AF7860F0
:104AE0000B46FB700123FB737B68074A934204D19A
:104AF000FB78042B01D90023FB73FB7B184614378A
:104B0000BD4680BC704700BF0004024080B483B043
:104B100000AF78600B467B807B887A680432C3F3F1
:104B20000803136000BF0C37BD4680BC704780B4DB
:104B300083B000AF78607B6804331B689BB2C3F31B
:104B400008039BB218460C37BD4680BC704780B442
:104B500083B000AF78600B46FB70FB789A097B68E6
:104B600013441A68FB7803F01F0322FA03F303F0DF
:104B70000103002B01D0012300E0002318460C376D
:104B8000BD4680BC704780B485B000AF78603960A6
:104B90000023FB600023BB603B689B09C3F3090251
:104BA0007B6813441A683B6803F01F03012101FA74
:104BB00003F31340FB603B689A0D7B6813441A684B
:104BC0003B681B0C03F01F03012101FA03F31340A0
:104BD000BB60BB68002B04D0FB68002B01D0012315
:104BE00000E0002318461437BD4680BC704780B4EF
:104BF00083B000AF786039603B681B0C03F01F0383
:104C0000012202FA03F33A68910D7A680A44DB4301
:104C1000136000BF0C37BD4680BC704780B400AF46
:104C2000034B4CF6CC421A6000BFBD4680BC7047B7
:104C30000030004080B400AF034B4AF6AA221A604D
:104C400000BFBD4680BC70470030004080B485B0D6
:104C500000AF03460A46FB8013467B71204BFB6086
:104C60000023BB601F4B45F255521A601E4B1B6858
:104C700003F00103BB60FB68013BFB60FB68002B9A
:104C800002D0BB68002BF1D1BB68002B01D0002300
:104C900021E0164A7B791360114BFB60124B1B68B5
:104CA00003F00203BB60FB68013BFB60FB68002B69
:104CB00002D0BB68002BF1D1BB68002B01D00023D0
:104CC00009E0FB880A4AC3F30B031360054B4AF65D
:104CD000AA221A60012318461437BD4680BC7047CB
:104CE000FFFF0F00003000400C3000400430004057
:104CF0000830004080B485B000AF7860084B1B6876
:104D0000FB60FB6823F00703FB600549FA687B68DA
:104D100013430B6000BF1437BD4680BC704700BF13
:104D20000020024080B500AF0020FEF771FE00BFFA
:104D30000020FEF7B9FD0346002BF9D00020FEF756
:104D4000E7FC4FF48060FEF7FBFC0020FEF710FD4F
:104D50000F490020FEF724FD1820FEF759FE00BF82
:104D60001820FEF7A1FD0346002BF9D00220FFF723
:104D7000C1FF0220FEF7A8FC00BFFEF7BDFC034602
:104D8000082BFAD1034B044A1A6000BF80BD00BF54
:104D9000000004081000002000A24A0480B500AF03
:104DA000FFF7C0FF00BF80BD002103E00B4B5B5845
:104DB000435004310A480B4B42189A42F6D30A4A30
:104DC00002E0002313600432084B9A42F9D3FFF744
:104DD000E5FF00F0AFFAFBF7ABF9704700BA000847
:104DE00000000020DC010020DC010020B4040020D1
:104DF000FEE7000030B51B4C002924689BB02BDB7C
:104E00004FF00005009004904FF402701995ADF832
:104E10000C004FF6FF7511D0013902910591204623
:104E20006946ADF80E5000F06DF9421C01DA8B2393
:104E300023600022009B1A701BB030BD02910591C7
:104E400020466946ADF80E5000F05CF9431C01DACB
:104E50008B2323601BB030BD8B234FF0FF302360CA
:104E6000F8E700BF1400002030B51446002C0546BA
:104E70009BB02CDB1A4600914FF4027304914FF063
:104E800000014FF6FF7C1991ADF80C3011D0013CB8
:104E900069461E9B02940594ADF80EC000F032F9ED
:104EA000421C01DA8B232B600022009B1A701BB07E
:104EB00030BD1E9B694602940594ADF80EC000F00B
:104EC00021F9431C01DA8B232B601BB030BD8B23EF
:104ED0004FF0FF302B60F8E720F0030110F00300E3
:104EE000C0F1000051F8043B00F1040C4FEACC0C77
:104EF0006FF000021CBF22FA0CF213434FF0010CBA
:104F00004CEA0C2C4CEA0C4CA3EB0C0222EA0302F8
:104F100012EACC1204BF51F8043B0430F4D0C2F1C1
:104F2000000102EA0102B2FA82F2C2F11F0200EBB2
:104F3000D20070472DE9F0471D468F680C46AF42FE
:104F400016460B6836D8B1F90CC01CF4906F0ED120
:104F50003D46184631462A4602F030F90020A36843
:104F6000DF1B2368A7602B442360BDE8F0874A69F4
:104F7000096902EB42025F1A02EBD2726B1C5210FB
:104F80003B44934292BF914699461A461CF4806F67
:104F9000804611D0114601F039F8824600B33A46F6
:104FA000216902F0CFFAA38923F4906343F08003D0
:104FB000A38105E02F46CCE702F080FB824658B182
:104FC0000AEB0703A9EB0707A760C4F810A02F4658
:104FD000C4F814902360BCE74046216902F090F8C1
:104FE0000C22A3894FF0FF3043F04003C8F80020A3
:104FF000A381BAE72DE9F04F936883B09246176812
:105000000190002B76D04FF0000B0C465D468B686C
:105010000A6848E0B4F90CC01CF4906F2FD0D4E9B2
:105020000403A2EB000803EB430202EBD27208F187
:10503000010152102944914292BF914689460A4685
:105040001CF4806F39D01146019800F0DFFF06464E
:1050500000283DD04246216902F074FAA28922F468
:10506000906242F08002A28106EB0800A9EB0802E0
:105070002661A8462E46A2602060C4F814903246ED
:10508000594602F09BF8DAF80810A3682268A3EBEF
:1050900008033244491BA3602260CAF8081049B3D0
:1050A000D7E900B5083798461046002DF8D09D4244
:1050B0001E46AFD2A8462E46E1E70146019802F00F
:1050C000FDFA06460028CFD10198216902F018F8B0
:1050D0000C21A389019D43F0400329600022A38194
:1050E0004FF0FF300023CAF80820CAF8043003B09C
:1050F000BDE8F08F00200023CAF8043003B0BDE8FB
:10510000F08F00BF2DE9F04F1C468B8989461D06A4
:10511000824693469DB003D50B69002B00F0EE80CC
:10512000002343F2200209939BF8003001277C4EB4
:105130000394ADF82920002B71D05D4603E015F8EB
:10514000013F002B73D0252BF9D1B5EB0B0471D1A6
:105150002A78002A63D000234FF0FF320135CDE9D1
:105160000523049307938DF853301A9306E02546E0
:10517000049B801B07FA00F0034304932C4605228E
:1051800014F8011B304602F04FFEA3460028EED172
:10519000049BD90644BF20228DF853201A0748BF2C
:1051A0002B22297848BF8DF853202A294FD1039A02
:1051B00011680432002903927BDB079169782E295C
:1051C0005BD0584C0322204602F02EFE38B140221C
:1051D000049B001B824013430BF1010B04931BF84B
:1051E000011B062250488DF8281002F01DFE0028F1
:1051F00065D04E4B002B55D003A900914A4650462E
:105200004B4B04A900F03AFC8046B8F1FF3F06D0B2
:10521000099B434409939BF80030002B8DD1B9F8CA
:105220000C305B0679D409981DB0BDE8F08FB5EB62
:105230000B04F4D023465A4649465046FFF77AFEFF
:105240000130ECD0099B2A782344099381E7A1F12E
:105250003002092A88BFAB46B1D8079B00E0013471
:10526000217803EB830302EB4303A1F13002092A07
:10527000F5D92E29A3460793A3D19BF801102A291B
:1052800027D1039B0BF102001A680433002A039311
:10529000B8BF4FF0FF339BF8021005928346B8BFAA
:1052A00005938EE7039B073323F00703083303932B
:1052B000AEE7494243F00203079104937EE703A956
:1052C00000914A4650461A4B04A902F0BBFA8046A8
:1052D0009BE70023A1F13002092A0BF1010B059392
:1052E0003FF66FAF1BF8011F03EB830302EB430391
:1052F000A1F13002092AF5D9059362E7402100F0B7
:1053000085FEC9F80000C9F8100018B14023C9F89B
:10531000143005E70C23CAF800304FF0FF3083E764
:105320007CB6000884B6000888B600087D5A0008DC
:10533000354F000870B50F4B0F4DAB42A3EB050680
:1053400007D00024B61055F8043B01349847A64214
:10535000F9D806F045FB094D094B5E1BAB424FEAFD
:10536000A60606D0002455F8043B01349847A6420F
:10537000F9D870BD0000000000000000000000002F
:1053800000000000036A70B506460D468468002BD5
:1053900038D0A3891B0714D5236993B1013DA368B5
:1053A00015F8011F013BA360D9B1002B04DAA269F3
:1053B0009A420FDC0A290DD023685A1C226019700A
:1053C000EDE72146304602F05BF80028E6D04FF0CA
:1053D000FF3070BD2246304602F01EFF0130DED1A4
:1053E000F5E7002B08DA22460A21304602F014FFC6
:1053F0000130ECD00A2070BD0A222368591C2160BC
:105400001A70F7E700F0F4F8C3E700BF024B01465B
:105410001868FFF7B7BF00BF1400002000207047D6
:10542000024A0349034802F009B800BF64000020A3
:1054300049580008180000200C4B416810B59942EB
:10544000044601D000F000FAA168094B994202D04D
:10545000204600F0F9F9E168064B994204D0204655
:10546000BDE8104000F0F0B910BD00BF6803002097
:10547000D003002038040020002070472DE9F843B5
:1054800000250423294C2A490822C4F8381104F1C4
:105490005C002946DFF89C90DFF89C80274F284E5F
:1054A000C4E90335C4E90055C4E90555A56065663E
:1054B00000F0F0F8234B0822294604F1C40063678A
:1054C000C4E90849C4E90A87C4E91A55C4E91E5564
:1054D00026632567C4F8CC50C4F8805000F0DAF891
:1054E000194B2946C4F8DC30082204F1680304F59E
:1054F0009670C4F88830C4E92398C4E92576C4E9D5
:105500003455C4E93855C4F8D850C4F83451C4F8F7
:10551000E85000F0BFF804F1D003C4E93D98C4E9B5
:105520003F76C4F8F030BDE8F88300BF6803002080
:1055300021540008F58D00081D8E00085D8E0008BE
:10554000818E00080900010012000200F8B5254B09
:105550000646D3F83831002B3CD0234FD7E901342D
:10556000013B04D51DE05A1C04F1680419D0B4F9BC
:105570000C50013B002DF6D11C4B08222946C4E9F2
:105580000155C4E90455E36065662560A56104F131
:105590005C0000F07FF8C4E90D55C4E912552046BF
:1055A000F8BD3D680DB12F46D8E74FF4D6713046AF
:1055B00000F02CFD044680B10423056029462546F1
:1055C0000C304FF4D072A060636000F063F83C6070
:1055D0002F46C3E7FFF752FFBFE70C233860336065
:1055E000DDE700BF68030020640000200100FFFF2A
:1055F000036A03B17047044B044AD3F8383102629E
:10560000002BF7D13AE700BF6803002039540008A7
:10561000704700BF704700BF0020024A024901F0F6
:105620000DBF00BF640000201D5400080020024A86
:10563000024901F003BF00BF640000207954000854
:1056400022B310B502448646114C04E01B1A1BD14C
:10565000B8B1964516D01EF8013B11F8010B14F8AD
:1056600003C00CF0030CBCF1010F14F800C008BF1C
:1056700020330CF0030CBCF1010FE7D12030181AD5
:10568000E7D010BD002010BD184610BD1046704771
:10569000B5B7000870B5860747D0541E002A3ED023
:1056A0000346CAB201E0013C39D303F8012B9D0740
:1056B000F9D1032C2CD9CDB205EB05250F2C1A46B8
:1056C00005EB054534D9A4F1100C2CF00F0603F1BD
:1056D000100EB6444FEA1C1CC2E90055C2E902553F
:1056E00010327245F8D10CF1010214F00C0F03EBEB
:1056F000021204F00F0C13D0ACF1040323F00303E7
:105700000433134442F8045B9342FBD10CF00304CE
:105710002CB1C9B21C4403F8011BA342FBD170BDDC
:1057200064461346002CF4D1F9E703461446C0E75B
:10573000A446E1E7F8B5B1F90C300C461E07074660
:1057400039D44A68002A53DDE56A002D31D00022A1
:105750003E683A6013F48052216A55D101233846DD
:10576000A847451C024663D0B4F90C30E56A216AAB
:10577000580705D56368D21A636B0BB1236CD21A34
:1057800000233846A847421C40D0002223696260AB
:105790002360A389DB0400D56065616B3E6041B185
:1057A00004F14403994202D0384601F0A9FC0023D9
:1057B00063630020F8BD0E69002EFAD09B0718BF66
:1057C00000230D6808BF4B690E60AD1B8B600CE0B9
:1057D0002B463246D4F828C03846216AE047B0F15B
:1057E000000CA5EB0C05664406DD002DF0DCE0E7BF
:1057F0000A6C002AA8DCDCE7B4F90C3043F0400363
:105800004FF0FF30A381F8BD626DB1E73968B4F99C
:105810000C301D29F2D80B4ACA40D507EED500221C
:10582000626022692260DA04B7D50029B4D0B4E7F7
:105830003B68002B98D01D2B01D0162BDCD13E608D
:10584000B7E700BF010040200B69B3B110B50446B3
:1058500082B008B1036A5BB1B1F90C3013B9002012
:1058600002B010BD204602B0BDE81040FFF762BF95
:105870000191FFF7BDFE0199EEE70020704700BFE0
:10588000B8B138B50D4A0369044615682BB10DB19E
:105890002B6A53B1B4F90C300BB9002038BD214646
:1058A0002846BDE83840FFF745BF2846FFF7A0FE71
:1058B000F0E7034A0349044801F0C0BD140000208A
:1058C0006400002049580008180000202DE9F04D20
:1058D000002B88B014461D46109E1299DDF85080AA
:1058E00041DB0022B8F1650F0A7039D040DCB8F115
:1058F000450F35D0B8F1460F5FD103230093139BBA
:105900002246CDE9016307AB049306AB03932B4614
:1059100000F09CFC074628F02003462B07EB060806
:1059200005D13B78302B3CD0139B1E68B0442046F9
:1059300029460022002304F0C7FA00283BD1079B28
:10594000984506D930215A1C07921970079B434588
:10595000F9D33846159ADB1B136008B0BDE8F08D0B
:1059600002230136CAE703F1004B2D225D46B9E759
:10597000B8F1660FC1D0139B2246CDE90163022323
:10598000009307AB049306AB03932B4600F05EFC39
:10599000B8F1670F0746BED1119BDB0721D4079BE7
:1059A000D7E7002200232046294604F08DFAD8B11B
:1059B000139B1B6898444346CBE7139B2246CDE9D3
:1059C00001630223009307AB049306AB03932B46BA
:1059D00000F03CFCB8F1470F07469CD1119BDB0758
:1059E000DDD507EB0608A2E7139BC6F101061E6092
:1059F0009CE700BF0029B4BF2D232B2330B5B8BFCF
:105A00004942092983B0027043702CDD0DF107046F
:105A10002346194D8C461A46A5FB01E3DB0803EB30
:105A2000830EA1EB4E0101F1300EBCF1630F19465C
:105A300002F801EC02F1FF33ECDC303103F8011C19
:105A4000931EA34200F102050AD2411C13F801CBB8
:105A5000A34201F801CFF9D10DF109039B1A1D44AE
:105A6000281A03B030BD3023051D1944C17083705E
:105A7000281A03B030BD00BFCDCCCCCC2DE9F04FFF
:105A800091B00C46DDF8688016461F46054603F0C7
:105A900005FA036818460A93FFF71EFA00230E93CF
:105AA000D8F800300B90073323F0070303F1080206
:105AB000D4F800A094F818B0C8F80020D3E9008901
:105AC00029F000430993CDF820804FF0FF32DDE943
:105AD0000801C4E91289A04B04F028FA40B9DDE9B5
