:020000040800F2
:1000000000C0002031400008794000087940000815
:10001000794000087940000879400008000000009D
:10002000000000000000000000000000794000080F
:100030007940000800000000794000081518000809
:1000400079400008794000087940000879400008AC
:10005000794000087940000879400008794000089C
:1000600079400008794000087940000831180008FC
:10007000794000087940000879400008794000087C
:10008000794000087940000879400008794000086C
:10009000794000087940000879400008794000085C
:1000A000794000087940000879400008794000084C
:1000B000794000087940000879400008794000083C
:1000C000794000087940000879400008794000082C
:1000D0007940000879400008794000085D26000852
:1000E000794000087940000879400008794000080C
:1000F00079400008794000087940000879400008FC
:1001000079400008794000087940000879400008EB
:1001100079400008794000087940000879400008DB
:1001200079400008794000087940000879400008CB
:1001300080B500AF00F02AF80F4804F0ABFA00F0E9
:100140007DFB0E4804F0A6FA06E000F07FFA0A20D4
:1001500001F05AF903F0B2FE094B1B79002BF4D0E1
:10016000022000F02DFD074B01221A70064804F012
:1001700091FA00F05DF8FCE7CC97000810980008B1
:10018000DC010020EE0100203098000880B500AFAF
:100190004FF4E13001F08CFC01F046F801F088F8F2
:1001A00001F0ACF800F002FD02F096FA02F0ACFAB1
:1001B00001F0D0F801F0E8F801F0FEF800F052FE8E
:1001C00000F020F80A4804F065FA0A4804F062FAE0
:1001D000094804F05FFA4FF47A51084806F098FF96
:1001E000034804F057FA064B00221A7000BF80BD86
:1001F00054980008789800089C980008AC9800086B
:10020000EE01002080B400AF034B00221A7000BF43
:10021000BD4680BC704700BFED01002080B400AF38
:10022000024B1B781846BD4680BC7047ED0100208C
:1002300080B582B000AF01F001F9786000F010FDE8
:10024000394B1B687A68D31A042B69D9364A7B6804
:10025000136000F077F800F035F900F0F7F900F0DE
:100260009DFE0346314A936000237B8000233B8040
:100270002E4BB3F900002D4BB3F902103B46BA1CCC
:1002800000F0B4FE294B1B79012B14D1284B1B78AD
:10029000002B10D1B7F90230184600F013FEB7F961
:1002A0000030184600F02EFE012000F04BFE214BDE
:1002B00002221A7005E0002000F044FE1D4B0122CE
:1002C0001A70B7F90230002BB8BF5B429BB2322BD9
:1002D00007D8B7F90030002BB8BF5B429BB2322B76
:1002E00003D9154B00221A6004E0134B1B6801333D
:1002F000114A136000F01EFA104B1A68531C0F4984
:100300000B600F4BA3FB02139B09C82101FB03F3F6
:10031000D31A002B01D100F03BFB03F0CFFD00E02E
:1003200000BF0837BD4680BDF0010020DC01002081
:10033000EC010020EE010020E8010020F401002083
:100340001F85EB5180B582B000AF0023FB71FFF732
:1003500065FF0346002B3FD04A4B9B684FF07E5110
:10036000184609F0E5F90346002B19D0454B9B6868
:10037000184608F001FC02460B46434806F0C8FE4A
:10038000FB7943F00103FB713E4B9B683F491846E4
:1003900009F0CEF90346002B1ED000F0AFFA1BE0A7
:1003A000384B9B684FF08041184609F0C1F903466D
:1003B000002B11D0364B1A68531C35490B60354B56
:1003C000A3FB02135B09642101FB03F3D31A002B87
:1003D00002D1032000F0F4FB00F0EAFD38602E4962
:1003E000386809F0C3F90346002B0BD0386808F0D1
:1003F000C3FB02460B46294806F08AFEFB7943F010
:100400000203FB71264B1B780A2B09D9254804F0FF
:1004100041F9FB7943F00803FB71234B03221A7067
:10042000224B1B68224A934204D9224804F032F935
:1004300000F064FA204B1B78012B06D11F4804F012
:1004400029F9FB7943F01003FB71FB79002B0FD0E6
:100450001B4B1B78FA799A4206D1114B1B7801335A
:10046000DAB20F4B1A7006E00D4B01221A7002E04F
:100470000B4B00221A70124AFB79137000BF083729
:10048000BD4680BDDC010020C4980008000080BF8C
:10049000F80100201F85EB510000A041EC980008F6
:1004A000FC01002010990008EE010020E801002066
:1004B000C0D4010024990008EC01002048990008EC
:1004C000FD01002090B583B000AF01F0C5F901F047
:1004D0004FFA0346FB8001F053FA0346BB8001F05C
:1004E00057FA0346FB70524BB3F90030184608F038
:1004F0002DFF03464F49184608F07CFF03461C4673
:10050000B7F90630184608F021FF03464A49184655
:1005100008F070FF03461946204608F063FE0346C4
:10052000184609F02DF903461AB2414B1A80434B85
:10053000B3F90030184608F009FF03463D49184654
:1005400008F058FF03461C46B7F90430184608F077
:10055000FDFE03463849184608F04CFF034619468D
:10056000204608F03FFE0346184609F009F9034605
:100570001AB2324B1A802E4BB3F90030002BB8BFA1
:100580005B429BB2132B02D8294B00221A802B4BC3
:10059000B3F90030002BB8BF5B429BB2132B02D8DB
:1005A000264B00221A80224BB3F9003013F57A7FD4
:1005B00009DB1F4BB3F90030B3F57A7FA8BF4FF4C6
:1005C0007A731BB200E01E4B1E4A13801B4BB3F91B
:1005D000003013F57A7F09DB184BB3F90030B3F51F
:1005E0007A7FA8BF4FF47A731BB200E0144B154A10
:1005F0005380FB78012B02D1124B01221A7101F0BA
:10060000DBF90346002B0CBF01230023DBB21A46A3
:100610000D4B1A700C4B1B78012B05D1094B002296
:100620001A80084B00225A8000BF0C37BD4690BD8F
:10063000FE010020CDCC4C3FCDCC4C3E0002002032
:1006400018FCFFFFDC010020EC01002080B582B027
:1006500000AF4FF400512F4802F043F90346002B3E
:1006600014BF01230023DBB2FB71FB79012B1BD1EB
:10067000294B1B78002B07D100F0E0FE0346274AE8
:100680001360254B01221A7000F0D8FE0246234B5E
:100690001B68D31A40F6B832934237D9204803F08A
:1006A000F9FF00F02BF931E01B4B1B78012B2DD10A
:1006B00000F0C4FE0246194B1B68D31A3B603B682E
:1006C000B3F57A7F1FD2174B1B79002B0CBF012388
:1006D0000023DBB21A46134B1A71124B1B79002B05
:1006E00001D0114B00E0114B1946114806F010FDE6
:1006F0000C4B1B79002B03D0022000F061FA02E0C2
:10070000012000F05DFA044B00221A7000BF083788
:10071000BD4680BD001001400202002004020020FE
:100720005C990008DC0100207099000874990008A9
:100730007899000880B500AF3B4B1B78032B6BD832
:1007400001A252F823F000BF5907000885070008EE
:10075000B3070008BD070008344B1A68344BA3FBED
:1007600002135B09642101FB03F3D31A312B04D874
:100770000421304802F097F84EE004212D4802F0A1
:10078000A1F849E0294B1A682B4BA3FB02135B0924
:100790004FF4FA7101FB03F3D31AF92B04D80421A7
:1007A000244802F080F837E00421224802F08AF859
:1007B00032E004211F4802F076F82DE01B4B1A6846
:1007C0001B4BA3FB02139B09C82101FB03F3D31AA4
:1007D000312B17D9154B1A68154BA3FB02139B0934
:1007E000C82101FB03F3D31A632B10D90F4B1A68EE
:1007F0000F4BA3FB02139B09C82101FB03F3D31A80
:10080000952B04D804210B4802F04DF803E0042195
:10081000084802F057F800BF044B1B680133034A35
:10082000136000BF80BD00BFEE0100200802002061
:100830001F85EB51000C0140D34D621080B582B092
:1008400000AF012000F07EFB0023FB7144E0FB7948
:1008500001339BB21A46920013441A4691001A467D
:100860000B4613449B009BB27B80FB7901339BB208
:100870001A46920013441A4691001A460B46134436
:100880005B00BB80BB88B3F5FA7F02D94FF4FA73E3
:10089000BB80B7F90230184600F014FBB7F90230FC
:1008A000184600F02FFB1021134801F0FCFFBB8815
:1008B000184600F0A9FD10210F4802F003F8BB888C
:1008C000B3F57A7F05D2BB88C3F57A73184600F07A
:1008D0009BFDFB790133FB71FB79092BB7D9002014
:1008E00000F0F0FA002000F00DFB002000F02AFBE1
:1008F00000BF0837BD4680BD0008014080B582B00A
:1009000000AF1D4803F0C6FE002000F01BFB0420D2
:1009100000F056F94FF0804002F0E3FB174802F078
:10092000E0FB174802F0DDFB164802F049FF002308
:100930007B6010E00421144801F0B5FF642000F052
:1009400063FD0421104801F0BDFF642000F05CFD50
:100950007B6801337B607B68042BEBDD0B4803F085
:1009600099FE01F0E7FE642000F04EFD4FF47A702E
:1009700000F04AFDFAE700BF8C990008000800402B
:10098000000C004000240140000C0140AC9900081C
:100990002DE9F04792B008AF2E4B1B783B722E4BDF
:1009A0009B68FB6000F004FB03463B6100F00AFB20
:1009B00003467B61294B9B783B7600F00DFB034699
:1009C000FB61274B9B7887F82030234BB3F900302D
:1009D0007B84214BB3F90230BB84224B1B68214A34
:1009E00012681946204806F093FB3B7A9A46FB684A
:1009F000184608F0C1F8804689463B69184608F059
:100A0000BBF804460D467B69184608F0B9FE064659
:100A10003B7E7B60FB69184608F0B2FE034697F800
:100A20002020B7F92210B7F924000790069105920B
:100A300004937B6803930296CDE9004542464B46FA
:100A400051460A4806F064FB00BF2837BD46BDE8A2
:100A5000F08700BFEE010020DC0100201C02002016
:100A60002802002010000020BC990008DC99000832
:100A700080B582B000AF0346FB71FB79012B04D136
:100A80001021064801F00FFF03E01021034801F098
:100A900019FF00BF0837BD4680BD00BF00080140F8
:100AA00080B500AF0020FFF7E3FF0A4B00221A6079
:100AB000084B00221A71074B00225A71054B002285
:100AC0009A71044B00229A60024B00221A7300BFF5
:100AD00080BD00BF0C02002080B582B000AF7860FE
:100AE0000A4A7B681360094B00221A71074B0022E7
:100AF0009A71064B01221A7300F0A0FC03461846B7
:100B000000F006F800BF0837BD4680BD0C0200208B
:100B100080B584B000AF7860194B1A68184B1B7908
:100B200019460B465B000B445B001344FB60FB68FB
:100B30001B88002B0AD1FB685B88002B06D1FB6861
:100B40001B79002B02D1FFF7ABFF16E0FB681B7986
:100B5000002B02D0FB681B7900E00123084A537187
:100B6000074B01229A710120FFF782FFFB681B8867
:100B70001A467B681344024A93601037BD4680BD15
:100B80000C02002080B582B000AF7860064B1B7964
:100B90000133DAB2044B1A717868FFF7B9FF00BF6E
:100BA0000837BD4680BD00BF0C02002080B500AFF5
:100BB0000020FFF75DFFFFF773FF00BF80BD00005F
:100BC00080B582B000AF0346FB71FB79013B092B76
:100BD0003ED801A252F823F0010C0008090C0008CD
:100BE000110C0008190C0008210C0008290C000841
:100BF000310C0008390C0008410C0008490C0008B1
:100C0000012000F0A7F827E0022000F0A3F823E07D
:100C1000052000F09FF81FE0062000F09BF81BE085
:100C2000072000F097F817E0082000F093F813E091
:100C3000092000F08FF80FE00A2000F08BF80BE09D
:100C40000B2000F087F807E00C2000F083F803E0A9
:100C5000002000F07FF800BF00BF0837BD4680BD10
:100C600080B582B000AF3A4B1B7B012B69D1384B6A
:100C70001B68002B65D000F0E1FB7860344B9B686B
:100C80007A68D31A002B5EDB314B1A68304B1B7924
:100C900019460B465B000B445B0013443B602C4B36
:100CA0009B79012B2DD10020FFF7E2FE3B685B888A
:100CB000002B1BD1264B5B79012B13D9244B5B797D
:100CC000013BDAB2224B5A71214B01229A71012069
:100CD000FFF7CEFE3B681B881A467B6813441C4A0C
:100CE000936031E07868FFF74DFF2DE0184B02224A
:100CF0009A713B685B881A467B681344144A936078
:100D000022E0134B9B79022B1ED1114B5B79012BF7
:100D100013D90F4B5B79013BDAB20D4B5A710C4B77
:100D200001229A710120FFF7A3FE3B681B881A4637
:100D30007B681344064A936006E07868FFF722FF59
:100D400002E000BF00E000BF0837BD4680BD00BF25
:100D50000C02002080B582B000AF0346FB71FB7926
:100D60000E2B5CD801A252F823F000BFA90D000899
:100D7000AF0D0008B70D0008BF0D0008C70D000833
:100D8000CF0D0008D70D0008DF0D0008E70D0008A3
:100D9000EF0D0008F70D0008FF0D0008070E000812
:100DA0000F0E0008170E0008FFF77AFE3AE01F4802
:100DB000FFF792FE36E01E48FFF78EFE32E01D4838
:100DC000FFF78AFE2EE01C48FFF786FE2AE01B484C
:100DD000FFF782FE26E01A48FFF77EFE22E0194860
:100DE000FFF77AFE1EE01848FFF776FE1AE0174874
:100DF000FFF772FE16E01648FFF76EFE12E0154888
:100E0000FFF76AFE0EE01448FFF766FE0AE013489B
:100E1000FFF762FE06E01248FFF75EFE02E0FFF712
:100E20003FFE00BF00BF0837BD4680BDC49A000822
:100E3000D09A0008DC9A0008E89A0008F49A0008A2
:100E4000009B00086C9A0008849A0008249A000805
:100E5000489A0008989A0008A49A0008B09A0008D6
:100E60000C9B000880B500AF134B00221A80124B78
:100E700000229A70104B0022DA700F4B4FF00002E4
:100E80005A600D4B4FF000029A600C4B00221A8002
:100E90000A4B00229A70094B0022DA70074B4FF080
:100EA00000025A60054B4FF000029A60044803F0BC
:100EB000F1FB00BF80BD00BF1C0200202802002003
:100EC000189B000880B483B000AF0346FB80B7F9DD
:100ED000063013F57A7F08DBB7F90630B3F57A7F71
:100EE000A8BF4FF47A731BB200E0044B044A13808E
:100EF00000BF0C37BD4680BC704700BF18FCFFFF29
:100F00001C02002080B483B000AF0346FB80B7F919
:100F1000063013F57A7F08DBB7F90630B3F57A7F30
:100F2000A8BF4FF47A731BB200E0044B044A13804D
:100F300000BF0C37BD4680BC704700BF18FCFFFFE8
:100F40002802002080B582B000AF0346FB710D4A35
:100F5000FB791370FB79002B05D10B4B00221A8013
:100F60000A4B00221A80FB79002B01D0084B00E0CD
:100F7000084B1946084806F0CBF800BF0837BD46B5
:100F800080BD00BF400200201C020020280200207B
:100F9000349B0008389B00083C9B000880B400AFDD
:100FA000024B1B681846BD4680BC704700000020FD
:100FB00080B400AF024B1B681846BD4680BC70472A
:100FC0003C02002080B400AF024B5B681846BD466F
:100FD00080BC70471C02002080B400AF024B5B68ED
:100FE0001846BD4680BC70472802002090B587B0E7
:100FF00000AFBA607B600346FB810B46BB81B7F94B
:101000000C30184608F0A2F903465E49184608F06D
:10101000A5FA03467B61FB897B82B7F9123018463B
:1010200008F094F904464FF07E51786908F0DAF838
:1010300003461946204608F0DDF903465249184692
:1010400008F076FB0346002B01D0504B30E0B7F997
:101050001230184608F07AF904464FF07E5178694C
:1010600008F0C0F803461946204608F0C3F90346C5
:101070004449184608F07AFB0346002B02D04FF48F
:101080007A7315E0B7F91230184608F05FF9044694
:101090004FF07E51786908F0A5F8034619462046BE
:1010A00008F0A8F90346184608F06AFB03461BB28D
:1010B000BA681380B7F91230184608F047F90446A9
:1010C00079694FF07E5008F08BF8034619462046A8
:1010D00008F090F903462C49184608F029FB03460E
:1010E000002B01D0294B30E0B7F91230184608F038
:1010F0002DF9044679694FF07E5008F071F80346E7
:101100001946204608F076F903461E49184608F0AD
:101110002DFB0346002B02D04FF47A7315E0B7F98C
:101120001230184608F012F9044679694FF07E50E3
:1011300008F056F803461946204608F05BF90346C6
:10114000184608F01DFB03461BB27A681380B7F9F6
:101150000E30002BB8BF5B429BB2312B0DD8B7F9D4
:101160000C30002BB8BF5B429BB2312B05D8BB685B
:1011700000221A807B6800221A8000BF1C37BD46FF
:1011800090BD00BF00007A4400007AC418FCFFFF45
:1011900080B483B000AF03463960FB7197F9073024
:1011A000002B0BDA3B68DAB20C49FB7903F00F0332
:1011B000043B1201D2B20B441A7609E03B68DAB262
:1011C000074997F907301201D2B20B4483F8002384
:1011D00000BF0C37BD4680BC704700BF00ED00E08B
:1011E00000E100E080B582B000AF78607B68013B31
:1011F000B3F1807F01D301230FE00A4A7B68013BF2
:1012000053600F214FF0FF30FFF7C2FF054B002264
:101210009A60044B07221A60002318460837BD461F
:1012200080BD00BF10E000E080B500AF002001F0FD
:10123000EBFD00BF002001F033FD0346002BF9D089
:10124000002001F061FC4FF4806001F075FC00208B
:1012500001F08AFC1249002001F09EFC182001F0E8
:10126000D3FD00BF182001F01BFD0346002BF9D071
:10127000022002F083FE022001F022FC00BF01F0F8
:1012800037FC0346082BFAD1064B074A1A60054B78
:101290001B681946054805F03BFF00BF80BD00BF35
:1012A000000004081000002000A24A04509B00081F
:1012B00080B500AF0D4B1B680D4AA2FB03239B09B1
:1012C0001846FFF78FFF0346002B04D0094803F0B0
:1012D000E1F900BFFDE700214FF0FF30FFF758FFB5
:1012E000054803F0D7F900BF80BD00BF1000002003
:1012F000D34D6210749B00088C9B000880B500AF32
:1013000040F2026001F074FB40F2036001F070FBF8
:1013100040F2046001F06CFB4FF4C06001F068FB28
:101320000121094801F0F2FA084803F0B3F900F08E
:101330008FF800F0C1F800F0D5F800F0FDF804488F
:1013400003F0A8F900BF80BD00023000A49B000894
:10135000B89B000880B500AF4FF4E06001F048FB97
:1013600040F2027001F044FB40F2037001F040FBD8
:1013700000F0FCF800F069F9024803F08BF900BFB7
:1013800080BD00BFCC9B000880B500AF40F2096073
:1013900001F02EFB4FF4A06001F02AFB022001F0C7
:1013A0001BFC00F0DBF900F0FBF9024803F072F9D6
:1013B00000BF80BDE49B000880B500AF40F61D1063
:1013C00001F042FC0346002B04D001F05BFC0B480B
:1013D00003F060F9022140F6FF7002F07BFD034646
:1013E000012B04D0064803F055F900BFFDE702F0D9
:1013F00059FD044803F04EF900BF80BDF89B00087A
:10140000109C0008289C000880B485B000AF78606C
:10141000094B1B68FB6001E000BF00BF064B1A6868
:10142000FB68D31A7A689A42F6D800BF00BF143717
:10143000BD4680BC704700BF4402002080B400AFAE
:10144000024B1B681846BD4680BC70474402002012
:1014500080B500AF4FF4E07303221821134801F068
:101460007FF9832303221821114801F079F94FF401
:101470008073032218210E4801F072F94FF40053D3
:10148000032218210B4801F06BF94FF4C0630322CB
:101490001821074801F064F94FF440430322182152
:1014A000044801F05DF900BF80BD00BF001001409D
:1014B00000080140000C014080B500AFE02303228A
:1014C0000421064801F04CF94FF4E05303220421B3
:1014D000034801F045F900BF80BD00BF000C01408A
:1014E0000010014080B500AF4FF4005303221021DB
:1014F0000E4801F035F94FF400510C4801F0E2F9C3
:101500001023032210210A4801F02AF9102108486B
:1015100001F0D8F9042303221021064801F020F934
:101520000421044801F0BFF900BF80BD0010014054
:1015300000080140000C014080B500AF04230322E5
:101540000021084801F00CF902230322002106487B
:1015500001F006F90C2303220021034801F000F9F1
:1015600000BF80BD001001400008014080B58CB074
:1015700000AF4FF0804001F069FC00233B84602302
:101580007B840023BB8440F6CA03BB620023BB8577
:10159000002387F82E3007F1200319464FF08040D2
:1015A00001F0ECFC0123BB800423FB8000233B8182
:1015B00008237B810023BB814FF40073FB813B1D1B
:1015C0001A4601214FF0804001F0C2FD3B1D1A4632
:1015D00002214FF0804001F0BBFD3B1D1A46032164
:1015E0004FF0804001F0B4FD702201214FF08040A7
:1015F00001F09CFF702202214FF0804001F096FF25
:10160000702203214FF0804001F090FF4FF40063FF
:101610003B8200237B823223BB820023FB824FF478
:1016200080433B8300237B830023BB8307F11003AC
:1016300019464FF0804001F063FD4FF0804001F00B
:1016400041FD00BF3037BD4680BD80B500AF00F022
:1016500005F800F03DF800BF80BD000080B588B0FF
:1016600000AF1A4801F0F2FB00233B8260237B822B
:101670000023BB8240F6CA03BB610023BB83002367
:10168000BB7707F110031946104801F077FC0123DE
:10169000BB800423FB8000233B8108237B81002344
:1016A000BB814FF40073FB813B1D1A4603210748A1
:1016B00001F04EFD70220321044801F037FF03487A
:1016C00001F000FD00BF2037BD4680BD000800408E
:1016D00080B588B000AF204801F0B8FB00233B8202
:1016E00060237B820023BB8240F6CA03BB610023D8
:1016F000BB830023BB7707F110031946164801F09E
:101700003DFC0123BB800423FB8000233B81082395
:101710007B810023BB814FF40073FB813B1D1A4684
:1017200001210D4801F014FD3B1D1A4603210A4812
:1017300001F00EFD70220121074801F0F7FE702232
:101740000321054801F0F2FE034801F0BBFC00BF95
:101750002037BD4680BD00BF000C004080B500AF03
:101760000E4801F045FF002001F07EFF00210B48EC
:1017700001F0F0FF01224FF48071084801F08CFF66
:1017800000220121054802F067F8044802F000F841
:10179000024802F026F800BF80BD00BF00240140CF
:1017A00080B588B000AF0021164802F09AF80023F7
:1017B000BB77154BFB6001237B774FF480633B6164
:1017C00003237B61114B7B6000233B774FF48073D5
:1017D000BB604FF40053BB613B1D1A460021094812
:1017E00002F0E6F80021074802F0DEF90021054882
:1017F00002F005FA064802F01EF800BF2037BD4689
:1018000080BD00BF00000240340200204C24014093
:101810000024014080B500AF044B1B680133034A2C
:10182000136002F04BFB00BF80BD00BF44020020EC
:1018300080B500AF02220021064802F00BFA0346F1
:10184000002B04D002220021024802F070FA00BFEF
:1018500080BD00BF0000024080B584B000AFFFF73C
:10186000EDFDB8602D4B1B68BA68D31A092B51D90E
:101870002A4ABB6813602A4B1B78032B4BD1294B98
:101880001B88FB80274B5B88BB80B7F90630184666
:1018900000F0DEF803461A46234B1A80B7F90430ED
:1018A000184600F0D5F803461A461F4B9A801E4B87
:1018B00000225A801C4B0022DA801B4B4FF47A72B4
:1018C0001A81194B00225A81174B00229A81164B1C
:1018D0000022DA81154ABB681360144B1B68BA6892
:1018E000D31AB3F57A7F11D9114B00221A70002355
:1018F000FB6007E00C4AFB68002122F81310FB682C
:101900000133FB60FB68072BF4DD04E0084B012288
:101910001A7000E000BF1037BD4680BD6002002095
:101920005D020020340200204802002058020020FE
:101930005C02002080B483B000AF0346FB71FB79EA
:10194000072B01D9002309E0074B1B78002B01D19D
:10195000002303E0FB79054A32F9133018460C37AF
:10196000BD4680BC704700BF5C02002048020020DA
:1019700080B500AF0220FFF7DDFF0346184680BDAB
:1019800080B500AF0020FFF7D5FF0346184680BDA5
:1019900080B582B000AF0420FFF7CCFF0346FB8088
:1019A000B7F90630B3F5FA7FCCBF01230023DBB2D1
:1019B00018460837BD4680BD80B400AF024B1B7887
:1019C0001846BD4680BC70475C02002090B482B0CF
:1019D00000AF0446084611461A462346FB800346DC
:1019E000BB800B467B8013463B80B7F90620B7F9D6
:1019F00000309A4215DAB7F90620B7F90430D31A45
:101A00004FF47A7203FB02F2B7F90010B7F9043011
:101A1000CB1A92FBF3F39BB2A3F57A739BB21BB282
:101A200010E0B7F90620B7F90030D31A4FF47A72F4
:101A300003FB02F2B7F90210B7F90030CB1A92FBA0
:101A4000F3F31BB218460837BD4690BC7047000040
:101A500080B582B000AF0346FB80094BB3F902109A
:101A6000074BB3F90420064BB3F90630B7F906006B
:101A7000FFF7ACFF034618460837BD4680BD00BFE0
:101A80000400002080B400AFBFF34F8F00BF064BAF
:101A9000DB6803F4E0620449044B1343CB60BFF3FB
:101AA0004F8F00BF00BFFDE700ED00E00400FA0526
:101AB00080B483B000AF7860144B1B68134A43F0C6
:101AC00008031360124B1B68114A43F48023136010
:101AD000104B00221A60104B1B6823F47F0323F481
:101AE0007F430D4A43F4964313600C4B4FF49C72B2
:101AF0001A60084B42F22C021A60094B80225A608D
:101B000000BF0C37BD4680BC704700BF18100240B4
:101B10001C1002400C480040040C014008480040E2
:101B200000E100E080B584B000AF78607B68002BF6
:101B30001ED0786802F014FBB8600023FB6012E04E
:101B40007A68FB6813441B7819460B4802F022F9A7
:101B500000BF0721084802F03EF90346002BF8D0E9
:101B6000FB680133FB60FA68BB689A42E8D300E087
:101B700000BF1037BD4680BD0048004080B584B02E
:101B800000AF78600B467B807B68002B1DD07B8884
:101B9000002B1AD00023FB8112E0FB897A681344E2
:101BA0001B7819460B4802F0F5F800BF07210948D9
:101BB00002F011F90346002BF8D0FB890133FB81B9
:101BC000FA897B889A42E8D300E000BF1037BD460F
:101BD00080BD00BF004800400FB480B5A2B000AF88
:101BE00007F194037B6007F108007B68D7F8902029
:101BF000802102F043FA07F108031846FFF792FF2D
:101C000000BF8837BD46BDE8804004B07047000083
:101C100080B584B000AF0346FB71FB790D2B02D079
:101C2000FB790A2B27D12E4B1B88002B1FD02C4B66
:101C30001B881A462B4B002199542B4B01221A70FA
:101C40002A4B1B682A4AA2FB03239A09294B9B684B
:101C5000D31AFB60F9682848FFF7BEFF2148FFF759
:101C600061FF2648FFF75EFF1E4800F095F81C4B09
:101C700000221A8030E0FB79082B02D0FB797F2B01
:101C80000DD1174B1B88002B26D0154B1B88013B11
:101C90009AB2134B1A801A48FFF744FF1CE0104B0E
:101CA0001B88FE2B18D80E4B1B885A1C91B20C4A6D
:101CB000118019460B4AFB795354FB799BB21946A4
:101CC000104802F067F800BF07210E4802F083F8C1
:101CD0000346002BF8D0FFE700BF1037BD4680BD9C
:101CE000640300206402002066030020100000202E
:101CF000D34D621010E000E08C9C0008A09C00080E
:101D0000A89C00080048004080B584B000AF78600F
:101D1000786804F0E9FB0346FB81B7F90E3013F550
:101D20007A7F08DBB7F90E30B3F57A7FA8BF4FF49E
:101D30007A731BB200E0024B18461037BD4680BDD7
:101D400018FCFFFF80B582B000AF78600B467B8047
:101D50007B881946786800F0C4FD0346002B0CBF51
:101D600001230023DBB218460837BD4680BD0000C2
:101D700080B582B000AF78600B467B8013467B70E5
:101D80007A887B7879680348FFF726FF00BF083719
:101D9000BD4680BDAC9C000880B5D0B002AF07F551
:101DA0009C73A3F59A73186007F59C73A3F59A7357
:101DB0001B68002B00F0418407F59C73A3F59A7310
:101DC0001B681B78002B00F0388407F59C73A3F583
:101DD0009A7307F10800FF22196804F051FD07F516
:101DE0009C73A3F59873002283F8FF200023C7F8A3
:101DF00034312BE007F59C73A3F59872D7F8343192
:101E000013441B78402B1CD907F59C73A3F59872DB
:101E1000D7F8343113441B785A2B12D807F59C732A
:101E2000A3F59872D7F8343113441B782033D9B214
:101E300007F59C73A3F59872D7F8343113440A461A
:101E40001A70D7F834310133C7F8343107F59C7371
:101E5000A3F59872D7F8343113441B78002BC9D1FD
:101E600007F10803B549184605F018F80346002B9A
:101E700008D007F10803B249184605F00FF80346E9
:101E8000002B3FD1AF48FFF74DFEAF48FFF74AFEAA
:101E9000AE48FFF747FEAE48FFF744FEAD48FFF7F8
:101EA00041FEAD48FFF73EFEAC48FFF73BFEAC48B5
:101EB000FFF738FEAB48FFF735FEAB48FFF732FEC1
:101EC000AA48FFF72FFEAA48FFF72CFEA948FFF704
:101ED00029FEA948FFF726FEA848FFF723FEA848D9
:101EE000FFF720FEA748FFF71DFEA748FFF71AFEE1
:101EF000A648FFF717FEA648FFF714FEA548FFF710
:101F000011FE9BE307F108030622A349184604F0DB
:101F1000F7FE0346002B40F0918007F59C73A3F574
:101F20009A731B680633C7F8103106229B49D7F80D
:101F3000100104F0E5FE0346002B09D10120FFF754
:101F400001F8974B01221A719648FFF7EBFD75E3F4
:101F500007229549D7F8100104F0D2FE0346002B62
:101F600009D10020FEF7EEFF8D4B00221A718F4839
:101F7000FFF7D8FD62E305228D49D7F8100104F080
:101F8000BFFE0346002B14D1D7F810310533184695
:101F9000FFF7BAFE0346A7F80A31B7F90A31184627
:101FA000FEF790FFB7F90A3119468248FFF714FE91
:101FB00044E306228049D7F8100104F0A1FE03464D
:101FC000002B14D1D7F8103106331846FFF79CFECA
:101FD0000346A7F80C31B7F90C311846FEF792FF0B
:101FE000B7F90C3119467548FFF7F6FD26E30522CF
:101FF0007349D7F8100104F083FE0346002B19D172
:10200000D7F8103105331846FFF77EFE0346A7F8D0
:102010000E31B7F90E311846FEF754FFB7F90E31FD
:102020001846FEF76FFFB7F90E3119466548FFF7FE
:10203000D3FD03E36448FFF775FDFFE207F10803F2
:102040006249184604F02AFF0346002B53D160482A
:10205000FFF768FD5F4B1B7819465F48FFF7BCFD33
:102060004F4B9B68184606F087FD02460B465B48BF
:10207000FFF7B2FDFEF79CFF0346184606F07CFD15
:1020800002460B465648FFF7A7FDFEF79BFF0346A7
:10209000184606F071FD02460B46524989780091B8
:1020A0005148FFF799FDFEF797FF0346184606F0E3
:1020B00063FD02460B464D49897800914C48FFF775
:1020C0008BFD374BB3F900301946354BB3F902306D
:1020D0001A464848FFF780FD314B1B79002B01D091
:1020E000454B00E0454B19464548FFF775FD45480F
:1020F000FFF718FDA2E207F108034349184604F070
:10210000CDFE0346002B40F08D804048FFF70AFDCE
:102110003F4B1B8819463F48FFF75EFD3C4B5B88F1
:1021200019463D48FFF758FD394B9B8819463B48F7
:10213000FFF752FD3A48FFF7F5FC7FE2CC9C000820
:10214000D49C0008D89C0008009D0008149D00083D
:10215000449D0008749D0008B49D0008F89D000887
:102160003C9E0008509E0008849E0008B49E000813
:10217000EC9E0008209F0008549F00088C9F0008D8
:10218000A09F0008D49F000808A0000814A0000821
:1021900044A0000874A0000898A00008A0A00008AF
:1021A000DC010020A8A00008BCA00008C4A0000812
:1021B000D8A00008E0A00008F8A0000800A10008CE
:1021C00018A1000820A1000838A1000868A1000893
:1021D00070A10008EE0100208CA10008BCA100083D
:1021E000D0A100081C020020E4A100082802002061
:1021F00008A200082CA200084CA2000850A2000867
:1022000054A200086CA2000884A2000888A200085A
:1022100034020020A0A20008BCA20008D8A2000836
:10222000F0A2000807F10803BD49184604F036FE85
:102230000346002B29D1BB4B9B68184606F09CFC3B
:1022400002460B46B848FFF7C7FCB64B9B684FF0F9
:102250007E51184607F06CFA0346002B03D0B348B2
:10226000FFF760FCEAE1AF4B9B684FF080411846F6
:1022700007F05EFA0346002B03D0AD48FFF752FC8F
:10228000DCE1AC48FFF74EFCD8E107F10803AA49AE
:10229000184604F003FE0346002B19D1FEF788FE12
:1022A000C7F81401D7F8140106F066FC02460B4685
:1022B000A248FFF791FCA249D7F8140107F056FA9B
:1022C0000346002B00F0BA819E48FFF72BFCB5E1D6
:1022D00007F108039C49184604F0E0FD0346002B73
:1022E00016D1FEF76FFE0346184606F045FC02467F
:1022F0000B469648FFF770FCFEF76EFE0346184645
:1023000006F03AFC02460B469148FFF765FC95E162
:1023100007F108038F49184604F0C0FD0346002B5F
:1023200040F0A08020218C48FFF70CFD034687F881
:102330001F3140218848FFF705FD034687F81E310D
:1023400080218548FFF7FEFC034687F81D3197F989
:102350001E315B005AB297F91F3113435AB297F9F5
:102360001D319B005BB213435BB287F81C314FF405
:1023700080617A48FFF7E6FC034687F81B314FF48B
:1023800000617648FFF7DEFC034687F81A314FF408
:1023900080517248FFF7D6FC034687F8193197F948
:1023A0001A315B005AB297F91B3113435AB297F9AD
:1023B00019319B005BB213435BB287F81831684850
:1023C000FFF7B0FB6748FFF7ADFB97F81F311A46E0
:1023D00020216548FFF7CCFC97F81E311A464021B2
:1023E0006248FFF7C5FC97F81D311A468021604806
:1023F000FFF7BEFC97F81C3197F81C2119465D4881
:10240000FFF7EAFB5C4BDB7819465C48FFF7E4FB1F
:102410005B48FFF787FB97F81B311A464FF4806142
:102420005848FFF7A5FC97F81A311A464FF4006197
:102430005548FFF79DFC97F819311A464FF4805123
:102440005248FFF795FC97F8183197F8182119466C
:102450004F48FFF7C1FB4F4BDB7819464E48FFF75B
:10246000BBFBEBE007F1080304224C49184604F0DB
:1024700047FC0346002B3FD107F59C73A3F59A73E5
:102480001B680433C7F8303104E0D7F8303101332A
:10249000C7F83031D7F830311B78202BF5D0D7F87A
:1024A000300104F021F8C7F82001D7F82031002BC3
:1024B0001EDDD7F820310A2B1ADC0023C7F82C3197
:1024C0000AE00120FEF77CFB6420FEF79DFFD7F8B1
:1024D0002C310133C7F82C31D7F82C21D7F8203113
:1024E0009A42EEDBD7F820112D48FFF775FBA5E0E7
:1024F0002C48FFF717FBA1E007F1080306222A4941
:10250000184604F0FDFB0346002B77D107F59C73BA
:10251000A3F59A731B680633C7F828314BE000BF58
:1025200008A30008DC01002010A300082CA3000869
:1025300050A3000868A3000884A300088CA3000827
:102540000000A041A4A30008C8A30008D0A300086D
:10255000F0A3000810A40008000C01400010014086
:1025600018A4000838A400084CA4000858A40008C7
:1025700064A4000870A400081C02002090A40008B5
:10258000ACA40008C4A40008D4A40008E4A4000873
:10259000F4A400082802002014A5000830A50008B3
:1025A00038A5000844A5000858A50008D7F8283128
:1025B0000133C7F82831D7F828311B78202BF5D004
:1025C000D7F8280103F090FFC7F82401D7F8243189
:1025D000002B0FDDD7F824310A2B0BDCD7F8243180
:1025E000DBB21846FEF7ECFAD7F824111548FFF7CE
:1025F000F3FA23E01448FFF795FA1FE007F1080308
:102600001249184604F04AFC0346002B09D1104831
:10261000FFF788FA4FF47A70FEF7F6FEFFF732FA0A
:102620000CE007F59C73A3F59A7319680948FFF746
:10263000D3FA0948FFF776FA00E000BF07F59C7768
:10264000BD4680BD60A5000878A5000890A50008DB
:1026500098A50008B8A50008D0A5000880B582B0EC
:1026600000AF1149114801F0D2FB0346002B0CD0FA
:102670000E4801F0A0FB0346FB71FB791846FFF7FB
:10268000C7FA0949094801F0F6FB0949074801F072
:10269000BEFB0346002B03D00549044801F0EBFBC9
:1026A00000BF0837BD4680BD050305000048004057
:1026B0000603060080B584B000AFF860B9607A60A8
:1026C0007B689BB21946B868FFF758FA7B681846D2
:1026D0001037BD4680BD000080B500AF4FF40063E9
:1026E00003221021064800F03BF84FF40061044833
:1026F00000F0E8F8034B00221A7000BF80BD00BF55
:10270000000801406703002080B500AF4FF400616E
:10271000054800F0C8F8054B01221A70044801F082
:10272000B9FF00BF80BD00BF000801406703002063
:10273000F8A5000880B500AF4FF40061054800F02F
:10274000C1F8054B00221A70044801F0A3FF00BF36
:1027500080BD00BF00080140670300201CA60008E0
:1027600080B489B000AFF860B9607A603B60002344
:10277000BB6100237B61BB6803F00F03BB61BB68D7
:1027800003F01003002B03D0BA697B681343BB61CD
:102790000023FB8339E0FB8B01229A403B68134006
:1027A000002B2FD0FB681B687B61FB8B9B000F22EB
:1027B00002FA03F3DB437A6913407B61FB8B9B00D6
:1027C000BA6902FA03F37A6913437B61BB68282B69
:1027D00009D1FB8B01229A40FB68143319463B68F0
:1027E00013400B600BE0BB68482B08D1FB8B012228
:1027F0009A40FB68103319463B6813400B60FB6836
:102800007A691A60FB8B0133FB83FB8B072BC2D9E0
:102810000823FB833EE0FB8B01229A403B68134078
:10282000002B34D0FB6804331B687B61FB8B083BB7
:102830009B000F2202FA03F3DB437A6913407B61AA
:10284000FB8B083B9B00BA6902FA03F37A691343D6
:102850007B61BB68282B09D1FB8B01229A40FB6866
:10286000143319463B6813400B600BE0BB68482BE0
:1028700008D1FB8B01229A40FB68103319463B6854
:1028800013400B60FB6804331A467B691360FB8BB3
:102890000133FB83FB8B0F2BBDD900BF00BF243757
:1028A000BD4680BC704780B483B000AF78603960AB
:1028B0007B6810331A463B68136000BF0C37BD4677
:1028C00080BC704780B483B000AF786039607B68AB
:1028D00014331A463B68136000BF0C37BD4680BCFA
:1028E000704780B483B000AF786039607B6808338C
:1028F0001A683B681340002B01D0012300E000233D
:1029000018460C37BD4680BC7047000080B487B0C5
:1029100000AF78600B46FB7000233B610023FB6037
:1029200000237B610023BB607B68002B03DA2E4B06
:102930001B687B6102E02D4B1B687B617B681B0C75
:1029400003F00F03BB607B689BB23B617B6803F4C1
:102950004013B3F5401F0AD17B6923F070637B619C
:10296000224B1B68214A23F07063136021E07B68CF
:1029700003F48013002B0ED00322BB6802FA03F38A
:10298000FB60FB68DB437A6913407B617B6943F042
:1029900070637B610DE07B685B0D1B013A6902FA95
:1029A00003F3DB437A6913407B617B6943F0706317
:1029B0007B61FB78002B08D07B685B0D1B013A69BB
:1029C00002FA03F37A6913437B617B68002B03DA15
:1029D000054A7B69136002E0044A7B69136000BF0B
:1029E0001C37BD4680BC70471C00014004000140FC
:1029F00080B483B000AF0346FB80FB889B099BB289
:102A000003F1804303F504331968FB8803F01F03C7
:102A100001229A40FB889B099BB203F1804303F596
:102A20000433184641EA0203036000BF0C37BD4679
:102A300080BC704780B483B000AF0346FB80FB8846
:102A40009B099BB203F1804303F504331968FB88AB
:102A500003F01F0301229A40FB889B099BB203F1FC
:102A6000804303F50433184641EA0203036000BFC4
:102A70000C37BD4680BC704780B483B000AF0346BE
:102A8000FB80FB889B099BB203F1804303F5043371
:102A90001968FB8803F01F03012202FA03F3DA43EB
:102AA000FB889B099BB203F1804303F5043318466E
:102AB00001EA0203036000BF0C37BD4680BC7047CB
:102AC00080B485B000AF7860084B1B68FB60FB6882
:102AD00023F00303FB600549FA687B6813430B602E
:102AE00000BF1437BD4680BC704700BF04100240D1
:102AF00080B400AF034B1B6803F00C031846BD46BF
:102B000080BC70470410024080B485B000AF78608C
:102B1000084B1B68FB60FB6823F0F003FB60054972
:102B2000FA687B6813430B6000BF1437BD4680BC56
:102B3000704700BF0410024080B485B000AF7860D9
:102B4000084B1B68FB60FB6823F4E063FB600549EE
:102B5000FA687B6813430B6000BF1437BD4680BC26
:102B6000704700BF0410024080B485B000AF7860A9
:102B7000084B1B68FB60FB6823F46053FB6005494E
:102B8000FA687B6813430B6000BF1437BD4680BCF6
:102B9000704700BF0410024080B485B000AF786079
:102BA00039600023FB600B4B1B68FB60FB6823F064
:102BB000036323F45023FB607A683B681343FA688D
:102BC0001343FB60034AFB68136000BF1437BD4624
:102BD00080BC70470410024080B485B000AF7860BC
:102BE000184B1B68FB60FB6823F0805323F44043C1
:102BF000FB607B68072B0FD07B68072B18D87B689E
:102C0000032B03D97B68052B06D011E07B689B035F
:102C1000FA681343FB600CE07B6823F004037B60DD
:102C20007B689A03FB68134343F08053FB6000E02A
:102C300000BF044AFB68136000BF1437BD4680BC68
:102C4000704700BF0410024080B483B000AF034659
:102C5000FB80FB889B099BB203F1804303F504339F
:102C60001A68FB8803F01F0322FA03F303F0010341
:102C7000002B01D0012300E0002318460C37BD468D
:102C800080BC704780B400AF044B1B68034A43F01C
:102C90008073136000BFBD4680BC704724100240A3
:102CA00080B584B000AF0346FB800023FB600023A7
:102CB000FB720023BB72FB88B3F5106F69D0B3F5CC
:102CC000106F00F38F80B3F5006F2FD0B3F5006F56
:102CD00000F38880182B75D0182B00F38380002B0D
:102CE0003ED0102B7ED107E01120FFF7ADFF034649
:102CF000BB72FB680133FB60BB7A002B04D1FB681D
:102D00004FF6FF729342EFD11120FFF79DFF03466C
:102D1000002B69D00123FB7266E040F60100FFF74B
:102D200093FF0346BB72FB680133FB60BB7A002B49
:102D300004D1FB686FF07C429342EED140F6010073
:102D4000FFF782FF0346002B50D00123FB724DE0BA
:102D50000120FFF779FF0346BB72FB680133FB607C
:102D6000BB7A002B03D1FB68B3F5A06FF0D1012033
:102D7000FFF76AFF0346002B3AD00123FB7237E0CE
:102D800040F60110FFF760FF0346BB72FB6801339A
:102D9000FB60BB7A002B03D1FB681A4A9342EFD148
:102DA00040F60110FFF750FF0346002B22D001230D
:102DB000FB721FE01920FFF747FF0346BB72FB6859
:102DC0000133FB60BB7A002B03D1FB680D4A9342B1
:102DD000F0D11920FFF738FF0346002B0CD0012358
:102DE000FB7209E000BF08E000BF06E000BF04E09E
:102DF00000BF02E000BF00E000BFFB7A18461037BA
:102E0000BD4680BDFFFF0F0080B483B000AF034616
:102E1000FB80FB889B099BB203F1804303F50433DD
:102E20001968FB8803F01F0301229A40FB889B0965
:102E30009BB203F1804303F50433184641EA0203D1
:102E4000036000BF0C37BD4680BC704780B582B0C0
:102E500000AF78607B68424A934273D07B68404AF7
:102E6000934278D87B683F4A93422CD07B683D4A96
:102E7000934270D87B683C4A93425AD07B683A4A66
:102E8000934268D87B68394A934249D07B68374A75
:102E9000934260D87B68364A934238D07B68344A84
:102EA000934258D87B68334A934227D07B68314A93
:102EB000934250D87B68B3F1804F0DD07B682E4A87
:102EC000934212D047E040F20B30FFF7B3FD40F2DF
:102ED0000B30FFF7D1FD3FE04FF48060FFF7AAFD14
:102EE0004FF48060FFF7C8FD36E040F20140FFF785
:102EF000A1FD40F20140FFF7BFFD2DE040F202408E
:102F0000FFF798FD40F20240FFF7B6FD24E040F2E3
:102F10000340FFF78FFD40F20340FFF7ADFD1BE0DC
:102F200040F20440FFF786FD40F20440FFF7A4FDA5
:102F300012E040F20540FFF77DFD40F20540FFF74B
:102F40009BFD09E040F20D30FFF774FD40F20D30BB
:102F5000FFF792FD00E000BF00BF0837BD4680BD0F
:102F600000340140002C01400014004000100040DB
:102F7000000C0040000800400004004080B483B012
:102F800000AF786039603B681A887B6828331A6024
:102F90007B683F4A93422BD07B68B3F1804F27D0A8
:102FA0007B683C4A934223D07B683B4A93421FD0C4
:102FB0007B683A4A93421BD07B68394A934217D0C8
:102FC0007B68384A934213D07B68374A93420FD0CC
:102FD0007B68364A93420BD07B68354A934207D0D0
:102FE0007B68344A934203D07B68334A934217D1BB
:102FF0007B681A687B6822F070021A607B68196827
:103000003B685B8803F060027B680A431A607B6858
:1030100019683B689B8803F010027B680A431A60BA
:103020007B682C331A463B689B6813607B68234A95
:10303000934212D07B68224A93420ED07B681A6872
:103040007B6822F440721A607B6819683B689B8930
:1030500003F440727B680A431A607B680C4A93420F
:1030600003D07B680E4A934204D13B689A7B7B680D
:1030700030331A607B6814331B687A68143243F06B
:103080000103136000BF0C37BD4680BC704700BF12
:10309000002C01400004004000080040000C0040EB
:1030A00000340140004C01400050014000540140F8
:1030B00000180040001C00400020004000100040AC
:1030C0000014004080B483B000AF78607B681A6859
:1030D0007B6842F001021A6000BF0C37BD4680BC1D
:1030E000704780B483B000AF78607B681A687B68F3
:1030F00022F001021A6000BF0C37BD4680BC704749
:1031000080B483B000AF786039603B681A883B6850
:103110005B8813439AB23B689B8813439AB23B681F
:10312000DB8813439AB23B681B8913439AB23B680E
:103130005B8913439AB23B689B8913439AB27B68BD
:1031400044331A6000BF0C37BD4680BC7047000096
:1031500080B485B000AFF8600B467A607B817B89D4
:10316000032B00F2D08101A252F823F07D31000838
:10317000793200087D33000879340008FB68203379
:103180001B68FA68203223F001031360FB681833D0
:103190001B68FA68183223F003031360FB682033BE
:1031A0001B687A6812881146FA6820320B43136054
:1031B000FB6820331B68FA68203223F00203136097
:1031C000FB6820331B687A6892881146FA682032BF
:1031D0000B431360FB68674A934204D0FB68664A5E
:1031E000934240F09281FB6820331B68FA682032DA
:1031F00023F004031360FB6820331B687A6852884D
:103200001146FA6820320B431360FB6820331B68B9
:10321000FA68203223F008031360FB6820331B6830
:103220007A68D2881146FA6820320B431360FB6833
:1032300004331B68FA68043223F480731360FB685C
:1032400004331B687A6812891146FA6804320B430A
:103250001360FB6804331B68FA68043223F40073BC
:103260001360FB6804331B687A6852891146FA6858
:1032700004320B43136048E1FB6820331B68FA6893
:10328000203223F010031360FB6818331B68FA68C0
:10329000183223F440731360FB6820331A687B688C
:1032A0001B881B01F968203113430B60FB68203336
:1032B0001B68FA68203223F020031360FB68203378
:1032C0001A687B689B881B01F968203113430B60E7
:1032D000FB68284A934204D0FB68274A934240F097
:1032E0001681FB6820331B68FA68203223F0400304
:1032F0001360FB6820331A687B685B881B01F968E0
:10330000203113430B60FB6820331B68FA682032BE
:1033100023F080031360FB6820331A687B68DB8826
:103320001B01F968203113430B60FB6804331B68F1
:10333000FA68043223F480631360FB6804331A686C
:103340007B681B899B00F968043113430B60FB68A1
:1033500004331B68FA68043223F400631360FB68CB
:1033600004331A687B685B899B00F9680431134356
:103370000B60CCE0002C014000340140FB6820339E
:103380001B68FA68203223F480731360FB681C33D7
:103390001B68FA681C3223F003031360FB682033B8
:1033A0001A687B681B881B02F968203113430B6085
:1033B000FB6820331B68FA68203223F40073136023
:1033C000FB6820331A687B689B881B02F9682031F0
:1033D00013430B60FB68534A934204D0FB68524A84
:1033E000934240F09680FB6820331B68FA682032D5
:1033F00023F480631360FB6820331A687B685B8862
:103400001B02F968203113430B60FB6820331B68F3
:10341000FA68203223F400631360FB6820331A68D3
:103420007B68DB881B02F968203113430B60FB6863
:1034300004331B68FA68043223F480531360FB687A
:1034400004331A687B681B891B01F9680431134334
:103450000B60FB6804331B68FA68043223F40053E2
:103460001360FB6804331A687B685B891B01F96889
:10347000043113430B604CE0FB6820331B68FA688F
:10348000203223F480531360FB681C331B68FA68F6
:103490001C3223F440731360FB6820331A687B6886
:1034A0001B881B03F968203113430B60FB68203332
:1034B0001B68FA68203223F400531360FB68203342
:1034C0001A687B689B881B03F968203113430B60E3
:1034D000FB68144A934203D0FB68134A93421AD103
:1034E000FB6804331B68FA68043223F480431360DA
:1034F000FB6804331A687B681B899B01F9680431F7
:1035000013430B6007E000BF06E000BF04E000BF0C
:1035100002E000BF00E000BF00BF1437BD4680BC22
:10352000704700BF002C01400034014080B483B0DC
:1035300000AF78600B467B8013463B807B88032B73
:1035400050D801A252F823F0593500087B35000805
:103550009F350008C13500087B6818331B687A68FE
:10356000183223F0700313607B6818331A683B88A5
:103570007968183113430B6035E07B6818331B689A
:103580007A68183223F4E04313607B6818331A68B2
:103590003B881B027968183113430B6023E07B687A
:1035A0001C331B687A681C3223F0700313607B683D
:1035B0001C331A683B8879681C3113430B6012E096
:1035C0007B681C331B687A681C3223F4E043136069
:1035D0007B681C331A683B881B0279681C311343D3
:1035E0000B6000E000BF00BF0C37BD4680BC7047D9
:1035F00080B582B000AF78607B68184A93421ED0D5
:103600007B68164A934223D87B68154A934204D0BC
:103610007B68144A934209D01AE040F20930FFF760
:1036200009FA40F20930FFF727FA12E040F20A30B7
:10363000FFF700FA40F20A30FFF71EFA09E040F205
:103640000F30FFF7F7F940F20F30FFF715FA00E0FF
:1036500000BF00BF0837BD4680BD00BF003C014031
:10366000002401400028014080B483B000AF78609E
:10367000084B1B68074A23F470231360054B1A6834
:1036800004497B6813430B6000BF0C37BD4680BC08
:10369000704700BF0424014080B485B000AFF860DB
:1036A000B9601346FB71FB79002B27D0BB6803F48C
:1036B0008073002B07D0FB6804331B68FA68043260
:1036C00043F480731360BB6803F48063002B07D05E
:1036D000FB6804331B68FA68043243F480631360A8
:1036E000BB6803F00203002B2FD0FB6808331B6874
:1036F000FA68083243F00203136026E0BB6803F463
:103700008073002B07D0FB6804331B68FA6804320F
:1037100023F480731360BB6803F48063002B07D02D
:10372000FB6804331B68FA68043223F48063136077
:10373000BB6803F00203002B07D0FB6808331B684B
:10374000FA68083223F00203136000BF1437BD4645
:1037500080BC704780B483B000AF786039603B684C
:10376000002B08D07B6808331B687A68083243F462
:103770000063136007E07B6808331B687A680832CF
:1037800023F40063136000BF0C37BD4680BC704754
:1037900080B483B000AF78607B6808331B6803F0A7
:1037A0000103002B07D17B6808331B687A68083255
:1037B00043F00103136000BF0C37BD4680BC704767
:1037C00080B483B000AF78607B6808331B687A6888
:1037D000083223F00103136000BF0C37BD4680BCE4
:1037E000704780B483B000AF78607B6808331B6893
:1037F0007A68083243F00803136000BF7B6808331F
:103800001B6803F00803002BF8D17B6808331B68A2
:103810007A68083243F00403136000BF7B68083302
:103820001B6803F00403002BF8D100BF00BF0C3766
:10383000BD4680BC704780B483B000AF78607B68C1
:1038400008331B687A68083243F48073136000BF42
:103850000C37BD4680BC704780B483B000AF786041
:103860000B46FB701346BB70BB78002B1AD0FB785D
:1038700003F00103002B07D07B6808331B687A68CC
:10388000083243F480131360FB7803F00203002B2B
:1038900022D07B6808331B687A68083243F40043FF
:1038A000136019E0FB7803F00103002B07D07B685D
:1038B00008331B687A68083223F480131360FB789E
:1038C00003F00203002B07D07B6808331B687A687B
:1038D000083223F40043136000BF0C37BD4680BCA0
:1038E000704780B582B000AF78600B46FB70FB7804
:1038F0001946786800F034FA0346002B01D100BF66
:10390000FDE7FA7813469B0013449B001A467B6838
:10391000134408331968FA7813469B0013449B003C
:103920001A467B68134408331A4621F001031360DA
:10393000FA7813469B0013449B001A467B68134495
:1039400008331A4600231360FA7813469B00134489
:103950009B001A467B6813440C331A4600231360FD
:10396000FA7813469B0013449B001A467B68134465
:1039700010331A4600231360FA7813469B00134451
:103980009B001A467B68134414331A4600231360C5
:103990007B6804331A68FB789B000F2101FA03F35C
:1039A0007968043113430B6000BF0837BD4680BD02
:1039B00080B586B000AFF8600B467A60FB72FB7A88
:1039C0001946F86800F0CCF90346002B01D100BF7E
:1039D000FDE7FA7A13469B0013449B001A46FB68E6
:1039E000134410331A467B681B681360FA7A134637
:1039F0009B0013449B001A46FB68134414331A4679
:103A00007B689B6813607B681969FA7A13469B0090
:103A100013449B001A46FB6813440C331A468BB2BE
:103A20001360FA7A13469B0013449B001A46FB6806
:103A3000134408331B687B617B6923F47C537B61EF
:103A40007B685A687B68DB681A437B685B69134351
:103A50007A6913437B61FA7A13469B0013449B00F7
:103A60001A46FB68134408331A467B6913607B6867
:103A70001B7E012B17D1FA7A13469B0013449B003F
:103A80001A46FB68134408331968FA7A13469B00F8
:103A900013449B001A46FB68134408331A4641F04E
:103AA0004003136016E0FA7A13469B0013449B0010
:103AB0001A46FB68134408331968FA7A13469B00C8
:103AC00013449B001A46FB68134408331A4621F03E
:103AD000400313607B685B7E012B17D1FA7A134693
:103AE0009B0013449B001A46FB6813440833196873
:103AF000FA7A13469B0013449B001A46FB68134452
:103B000008331A4641F08003136016E0FA7A134630
:103B10009B0013449B001A46FB6813440833196842
:103B2000FA7A13469B0013449B001A46FB68134421
:103B300008331A4621F0800313607B689B7E002BBC
:103B400017D1FA7A13469B0013449B001A46FB6870
:103B5000134408331968FA7A13469B0013449B00F8
:103B60001A46FB68134408331A4621F01003136009
:103B700016E0FA7A13469B0013449B001A46FB6832
:103B8000134408331968FA7A13469B0013449B00C8
:103B90001A46FB68134408331A4641F010031360B9
:103BA00000BF1837BD4680BD80B582B000AF7860D9
:103BB0000B46FB70FB781946786800F0D1F8034695
:103BC000002B01D100BFFDE7FA7813469B00134498
:103BD0009B001A467B68134408331968FA78134629
:103BE0009B0013449B001A467B68134408331A4613
:103BF00041F02003136000BF0837BD4680BD80B58B
:103C000082B000AF78600B46FB70FB78194678688D
:103C100000F0A6F80346002B01D100BFFDE7FA78BB
:103C200013469B0013449B001A467B6813440833D9
:103C30001968FA7813469B0013449B001A467B6868
:103C4000134408331A4641F00103136000BF0837DC
:103C5000BD4680BD80B487B000AFF8600B467A6087
:103C6000FB7200237B6100233B617B68082B37D00C
:103C70007B68082B4CD87B68022B03D07B68042B15
:103C800017D045E0FB681A68FB7A9B00796801FA57
:103C900003F313403B61FA7A13469B0013449B00E5
:103CA0001A46FB68134408331B6803F002037B6168
:103CB0002FE0FB681A68FB7A9B00796801FA03F32E
:103CC00013403B61FA7A13469B0013449B001A464B
:103CD000FB68134408331B6803F004037B6118E09E
:103CE000FB681A68FB7A9B00796801FA03F31340BA
:103CF0003B61FA7A13469B0013449B001A46FB680B
:103D0000134408331B6803F008037B6101E0FFE7FD
:103D1000FDE73B69002B04D07B69002B01D0012318
:103D200000E0002318461C37BD4680BC704780B4B5
:103D300085B000AFF8600B467A60FB72FB68043315
:103D40001A68FB7A9B00796801FA03F3F968043179
:103D500013430B6000BF1437BD4680BC70470000A2
:103D600080B485B000AF78600B46FB700123FB7315
:103D70007B68074A934204D1FB78042B01D90023C6
:103D8000FB73FB7B18461437BD4680BC704700BFF1
:103D90000004024080B483B000AF78600B467B80A3
:103DA0007B887A680432C3F30803136000BF0C37C2
:103DB000BD4680BC704780B483B000AF78607B683C
:103DC00004331B689BB2C3F308039BB218460C373D
:103DD000BD4680BC704780B483B000AF78600B46AE
:103DE000FB70FB789A097B6813441A68FB7803F030
:103DF0001F0322FA03F303F00103002B01D0012378
:103E000000E0002318460C37BD4680BC704780B4E4
:103E100085B000AF786039600023FB600023BB6091
:103E20003B689B09C3F309027B6813441A683B682B
:103E300003F01F03012101FA03F31340FB603B6809
:103E40009A0D7B6813441A683B681B0C03F01F0330
:103E5000012101FA03F31340BB60BB68002B04D0BF
:103E6000FB68002B01D0012300E000231846143723
:103E7000BD4680BC704780B483B000AF78603960C5
:103E80003B681B0C03F01F03012202FA03F33A689C
:103E9000910D7A680A44DB43136000BF0C37BD46BE
:103EA00080BC704780B400AF034B4CF6CC421A6024
:103EB00000BFBD4680BC70470030004080B400AFFA
:103EC000034B4AF6AA221A6000BFBD4680BC704769
:103ED0000030004080B485B000AF03460A46FB8046
:103EE00013467B71204BFB600023BB601F4B45F2E8
:103EF00055521A601E4B1B6803F00103BB60FB6840
:103F0000013BFB60FB68002B02D0BB68002BF1D1AA
:103F1000BB68002B01D0002321E0164A7B79136097
:103F2000114BFB60124B1B6803F00203BB60FB6884
:103F3000013BFB60FB68002B02D0BB68002BF1D17A
:103F4000BB68002B01D0002309E0FB880A4AC3F3B9
:103F50000B031360054B4AF6AA221A600123184688
:103F60001437BD4680BC7047FFFF0F000030004093
:103F70000C300040043000400830004080B485B070
:103F800000AF7860084B1B68FB60FB6823F00703F9
:103F9000FB600549FA687B6813430B6000BF143768
:103FA000BD4680BC704700BF0020024080B500AF16
:103FB0000020FEF729FF00BF0020FEF771FE034638
:103FC000002BF9D00020FEF79FFD4FF48060FEF734
:103FD000B3FD0020FEF7C8FD0F490020FEF7DCFD11
:103FE0001820FEF711FF00BF1820FEF759FE034608
:103FF000002BF9D00220FFF7C1FF0220FEF760FD81
:1040000000BFFEF775FD0346082BFAD1034B044AA7
:104010001A6000BF80BD00BF00000408100000202F
:1040200000A24A0480B500AFFFF7C0FF00BF80BD0B
:10403000002103E00B4B5B58435004310A480B4B03
:1040400042189A42F6D30A4A02E00023136004326F
:10405000084B9A42F9D3FFF7E5FF00F0AFFAFCF7FF
:1040600067F87047C0A9000800000020DC010020AC
:10407000DC010020B4040020FEE7000030B51B4C3A
:10408000002924689BB02BDB4FF0000500900490C2
:104090004FF402701995ADF80C004FF6FF7511D072
:1040A00001390291059120466946ADF80E5000F0A5
:1040B0006DF9421C01DA8B2323600022009B1A70E9
:1040C0001BB030BD0291059120466946ADF80E50F7
:1040D00000F05CF9431C01DA8B2323601BB030BD78
:1040E0008B234FF0FF302360F8E700BF140000205F
:1040F00030B51446002C05469BB02CDB1A460091C7
:104100004FF4027304914FF000014FF6FF7C1991B8
:10411000ADF80C3011D0013C69461E9B0294059409
:10412000ADF80EC000F032F9421C01DA8B232B608F
:104130000022009B1A701BB030BD1E9B6946029482
:104140000594ADF80EC000F021F9431C01DA8B2371
:104150002B601BB030BD8B234FF0FF302B60F8E796
:1041600020F0030110F00300C0F1000051F8043BFF
:1041700000F1040C4FEACC0C6FF000021CBF22FAD5
:104180000CF213434FF0010C4CEA0C2C4CEA0C4C93
:10419000A3EB0C0222EA030212EACC1204BF51F88C
:1041A000043B0430F4D0C2F1000102EA0102B2FA89
:1041B00082F2C2F11F0200EBD20070472DE9F047F6
:1041C0001D468F680C46AF4216460B6836D8B1F9CB
:1041D0000CC01CF4906F0ED13D46184631462A465D
:1041E00002F004F90020A368DF1B2368A7602B44BA
:1041F0002360BDE8F0874A69096902EB42025F1A51
:1042000002EBD2726B1C52103B44934292BF914618
:1042100099461A461CF4806F804611D0114601F071
:104220000FF8824600B33A46216902F0A3FAA38947
:1042300023F4906343F08003A38105E02F46CCE78D
:1042400002F054FB824658B10AEB0703A9EB0707BB
:10425000A760C4F810A02F46C4F814902360BCE7F0
:104260004046216902F064F80C22A3894FF0FF3028
:1042700043F04003C8F80020A381BAE72DE9F04FCE
:10428000936883B0924617680190002B76D04FF068
:10429000000B0C465D468B680A6848E0B4F90CC018
:1042A0001CF4906F2FD0D4E90403A2EB000803EBB9
:1042B000430202EBD27208F10101521029449142EB
:1042C00092BF914689460A461CF4806F39D0114648
:1042D000019800F0B5FF064600283DD0424621690E
:1042E00002F048FAA28922F4906242F08002A28190
:1042F00006EB0800A9EB08022661A8462E46A2603C
:104300002060C4F814903246594602F06FF8DAF88B
:104310000810A3682268A3EB08033244491BA3607A
:104320002260CAF8081049B3D7E900B508379846A3
:104330001046002DF8D09D421E46AFD2A8462E460C
:10434000E1E70146019802F0D1FA06460028CFD1F4
:104350000198216901F0ECFF0C21A389019D43F034
:10436000400329600022A3814FF0FF300023CAF8E8
:104370000820CAF8043003B0BDE8F08F0020002305
:10438000CAF8043003B0BDE8F08F00BF2DE9F04F4C
:104390001C468B8989461D06824693469DB003D5EF
:1043A0000B69002B00F0EE80002343F220020993FA
:1043B0009BF8003001277C4E0394ADF82920002B98
:1043C00071D05D4603E015F8013F002B73D0252B1B
:1043D000F9D1B5EB0B0471D12A78002A63D0002300
:1043E0004FF0FF320135CDE90523049307938DF893
:1043F00053301A9306E02546049B801B07FA00F011
:10440000034304932C46052214F8011B304602F0A6
:1044100023FEA3460028EED1049BD90644BF2022E8
:104420008DF853201A0748BF2B22297848BF8DF8F2
:1044300053202A294FD1039A11680432002903928C
:104440007BDB079169782E295BD0584C03222046EC
:1044500002F002FE38B14022049B001B824013434D
:104460000BF1010B04931BF8011B062250488DF839
:10447000281002F0F1FD002865D04E4B002B55D0DE
:1044800003A900914A4650464B4B04A900F010FC8A
:104490008046B8F1FF3F06D0099B434409939BF83F
:1044A0000030002B8DD1B9F80C305B0679D4099817
:1044B0001DB0BDE8F08FB5EB0B04F4D023465A468F
:1044C00049465046FFF77AFE0130ECD0099B2A7826
:1044D0002344099381E7A1F13002092A88BFAB4642
:1044E000B1D8079B00E00134217803EB830302EB92
:1044F0004303A1F13002092AF5D92E29A3460793D7
:10450000A3D19BF801102A2927D1039B0BF10200AC
:104510001A680433002A0393B8BF4FF0FF339BF8A7
:10452000021005928346B8BF05938EE7039B0733BD
:1045300023F0070308330393AEE7494243F0020335
:10454000079104937EE703A900914A4650461A4B0F
:1045500004A902F08FFA80469BE70023A1F1300204
:10456000092A0BF1010B05933FF66FAF1BF8011FF2
:1045700003EB830302EB4303A1F13002092AF5D9CF
:10458000059362E7402100F05BFEC9F80000C9F81E
:10459000100018B14023C9F8143005E70C23CAF8FD
:1045A00000304FF0FF3083E73CA6000844A6000827
:1045B00048A60008B14C0008BD41000870B50F4B7B
:1045C0000F4DAB42A3EB050607D00024B61055F8FB
:1045D000043B01349847A642F9D806F0E1F9094DA9
:1045E000094B5E1BAB424FEAA60606D0002455F8E5
:1045F000043B01349847A642F9D870BD0000000082
:10460000000000000000000000000000036A70B518
:1046100006460D468468002B38D0A3891B0714D5A5
:10462000236993B1013DA36815F8011F013BA36005
:10463000D9B1002B04DAA2699A420FDC0A290DD005
:1046400023685A1C22601970EDE72146304602F0BB
:104650002FF80028E6D04FF0FF3070BD22463046DC
:1046600002F0F2FE0130DED1F5E7002B08DA224637
:104670000A21304602F0E8FE0130ECD00A2070BD7D
:104680000A222368591C21601A70F7E700F0F4F839
:10469000C3E700BF024B01461868FFF7B7BF00BF72
:1046A0001400002000207047024A0349034801F02B
:1046B000DDBF00BF640000207D4A00081800002014
:1046C0000C4B416810B59942044601D000F0D6F970
:1046D000A168094B994202D0204600F0CFF9E16869
:1046E000064B994204D02046BDE8104000F0C6B900
:1046F00010BD00BF68030020D00300203804002054
:10470000002070472DE9F84300250423294C2A494D
:104710000822C4F8381104F15C002946DFF89C90A7
:10472000DFF89C80274F284EC4E90335C4E90055C3
:10473000C4E90555A560656600F0C6F8234B08225C
:10474000294604F1C4006367C4E90849C4E90A873B
:10475000C4E91A55C4E91E5526632567C4F8CC5030
:10476000C4F8805000F0B0F8194B2946C4F8DC308A
:10477000082204F1680304F59670C4F88830C4E98F
:104780002398C4E92576C4E93455C4E93855C4F8FA
:10479000D850C4F83451C4F8E85000F095F804F14A
:1047A000D003C4E93D98C4E93F76C4F8F030BDE8D1
:1047B000F88300BF68030020A94600082580000890
:1047C0004D8000088D800008B180000809000100BC
:1047D00012000200F8B5254B0646D3F83831002BFD
:1047E0003CD0234FD7E90134013B04D51DE05A1CCE
:1047F00004F1680419D0B4F90C50013B002DF6D136
:104800001C4B08222946C4E90155C4E90455E3605C
:1048100065662560A56104F15C0000F055F8C4E907
:104820000D55C4E912552046F8BD3D680DB12F461F
:10483000D8E74FF4D671304600F002FD044680B14F
:1048400004230560294625460C304FF4D072A06041
:10485000636000F039F83C602F46C3E7FFF752FF72
:10486000BFE70C2338603360DDE700BF680300203A
:10487000640000200100FFFF036A03B17047044B8E
:10488000044AD3F838310262002BF7D13AE700BF6F
:1048900068030020C1460008704700BF704700BF92
:1048A0000020024A024901F0E1BE00BF640000207E
:1048B000A54600080020024A024901F0D7BE00BF09
:1048C000640000200147000870B5860747D0541ED9
:1048D000002A3ED00346CAB201E0013C39D303F8B6
:1048E000012B9D07F9D1032C2CD9CDB205EB052561
:1048F0000F2C1A4605EB054534D9A4F1100C2CF009
:104900000F0603F1100EB6444FEA1C1CC2E9005515
:10491000C2E9025510327245F8D10CF1010214F0CF
:104920000C0F03EB021204F00F0C13D0ACF10403D4
:1049300023F003030433134442F8045B9342FBD196
:104940000CF003042CB1C9B21C4403F8011BA342B0
:10495000FBD170BD64461346002CF4D1F9E7034641
:104960001446C0E7A446E1E7F8B5B1F90C300C46AF
:104970001E07074639D44A68002A53DDE56A002D30
:1049800031D000223E683A6013F48052216A55D13A
:1049900001233846A847451C024663D0B4F90C30C1
:1049A000E56A216A580705D56368D21A636B0BB1B3
:1049B000236CD21A00233846A847421C40D000225C
:1049C000236962602360A389DB0400D56065616BA5
:1049D0003E6041B104F14403994202D0384601F0EF
:1049E000A7FC002363630020F8BD0E69002EFAD0F7
:1049F0009B0718BF00230D6808BF4B690E60AD1BF5
:104A00008B600CE02B463246D4F828C03846216A29
:104A1000E047B0F1000CA5EB0C05664406DD002D67
:104A2000F0DCE0E70A6C002AA8DCDCE7B4F90C3023
:104A300043F040034FF0FF30A381F8BD626DB1E752
:104A40003968B4F90C301D29F2D80B4ACA40D50791
:104A5000EED50022626022692260DA04B7D500290F
:104A6000B4D0B4E73B68002B98D01D2B01D0162B97
:104A7000DCD13E60B7E700BF010040200B69B3B155
:104A800010B5044682B008B1036A5BB1B1F90C30CD
:104A900013B9002002B010BD204602B0BDE810409E
:104AA000FFF762BF0191FFF7E7FE0199EEE70020F3
:104AB000704700BFB8B138B50D4A036904461568A0
:104AC0002BB10DB12B6A53B1B4F90C300BB90020E6
:104AD00038BD21462846BDE83840FFF745BF284687
:104AE000FFF7CAFEF0E7034A0349044801F0BEBDE0
:104AF00014000020640000207D4A000818000020F7
:104B00002DE9F04D002B88B014461D46109E1299D9
:104B1000DDF8508041DB0022B8F1650F0A7039D012
:104B200040DCB8F1450F35D0B8F1460F5FD1032313
:104B30000093139B2246CDE9016307AB049306ABB8
:104B400003932B4600F09AFC074628F02003462BDF
:104B500007EB060805D13B78302B3CD0139B1E6831
:104B6000B044204629460022002304F0C5FA00285C
:104B70003BD1079B984506D930215A1C07921970E2
:104B8000079B4345F9D33846159ADB1B136008B0E1
:104B9000BDE8F08D02230136CAE703F1004B2D2258
:104BA0005D46B9E7B8F1660FC1D0139B2246CDE947
:104BB00001630223009307AB049306AB03932B46D8
:104BC00000F05CFCB8F1670F0746BED1119BDB0714
:104BD00021D4079BD7E7002200232046294604F072
:104BE0008BFAD8B1139B1B6898444346CBE7139BC1
:104BF0002246CDE901630223009307AB049306AB81
:104C000003932B4600F03AFCB8F1470F07469CD1BE
:104C1000119BDB07DDD507EB0608A2E7139BC6F166
:104C200001061E609CE700BF0029B4BF2D232B2383
:104C300030B5B8BF4942092983B0027043702CDDFA
:104C40000DF107042346194D8C461A46A5FB01E3D6
:104C5000DB0803EB830EA1EB4E0101F1300EBCF13A
:104C6000630F194602F801EC02F1FF33ECDC30313E
:104C700003F8011C931EA34200F102050AD2411C55
:104C800013F801CBA34201F801CFF9D10DF10903CB
:104C90009B1A1D44281A03B030BD3023051D19444A
:104CA000C1708370281A03B030BD00BFCDCCCCCC0E
:104CB0002DE9F04F91B00C46DDF8688016461F468E
:104CC000054603F003FA036818460A93FFF748FA0B
:104CD00000230E93D8F800300B90073323F007031E
:104CE00003F10802D4F800A094F818B0C8F8002026
:104CF000D3E9008929F000430993CDF820804FF0D3
:104D0000FF32DDE90801C4E91289A04B04F026FA5C
:104D100040B9DDE908014FF0FF329C4B04F000FA86
:104D2000002877D042464B464046494604F016FAE2
:104D3000002840F03B8263684AF480615A1C0BF003
:104D4000DF0A35D0BAF1470F00F0288100932160C7
:104D50000191002106910EA905910DA903910DF174
:104D6000330142464B462846CDF810B00291FFF77A
:104D7000C7FE8046BBF1650F0D993AD9BBF1660FAE
:104D800000F02E810E9B8B4240F335810029CCBF71
:104D90000122C1F10202134423614FF0000AA16510
:104DA0009DF83330002B4DD02D2384F8433049E05B
:104DB000216001910021062006910EA9CDF810B0C6
:104DC000606005910DA903910DF1330142460090F9
:104DD0004B4628460291FFF793FEBAF1470F8046F3
:104DE000C8D10D99C81C80F2F480ABF1020B5FFAB8
:104DF0008BFB5A46013904F150000D91FFF714FF67
:104E00000E9A82461318012A236140F3428101332E
:104E10002361C5E7404649460022002304F076F9A5
:104E200010B12D2384F843302AF0040323600323B8
:104E3000574A2361574B4FF0000ABBF1470F8CBF15
:104E40009046984633462146284600970FAA01F01F
:104E50007FFD013023D0236858052BD442463146CC
:104E600028462369B847013019D022689207E068C4
:104E70000F9B19D5984217DD4FF0000804F119096E
:104E800004E0E0680F9BC21A42450DDD01234A464B
:104E900031462846B847013008F10108F1D14FF0FA
:104EA000FF3011B0BDE8F08F9842B8BF184611B07E
:104EB000BDE8F08FBBF1650F33D9D4E912010022B0
:104EC000002304F019F9002800F09D8001233146E9
:104ED0002846314AB8470130E1D0DDE90D3A534563
:104EE00002DB2268D107C1D5DDE90A233146284615
:104EF000B8470130D3D0BAF1010FB6DD4FF000084A
:104F00000AF1FF3A04F11A0901E0D045ADD00123BE
:104F10004A4631462846B847013008F10108F4D125
:104F2000BDE7DDF83890B9F1010F40F39D80012312
:104F3000424631462846B8470130B0D0DDE90A2361
:104F400031462846B8470130A9D0D4E912010022E1
:104F5000002309F1FF3B04F0CFF8002800F09E8009
:104F6000B9F1010F40F38B804FF0000804F11A09EA
:104F700002E0D84500F0838001234A4631462846A6
:104F8000B847013008F10108F3D188E7FFFFEF7F50
:104F900054A6000850A6000860A600080BB901231B
:104FA0006360009321600191002106910EA9059193
:104FB0000DA903910DF13301424602914B4628465B
:104FC000CDF810B0FFF79CFD0D998046C81CFFF688
:104FD0000CAF636899423FF708AF4FF0670BD1E61B
:104FE000002963685EDD2161002B00F08D800133B4
:104FF0000B442361D1E623682161DB077FF5CDAE49
:105000004B1C2361C9E60D9B002B52DD0E9BD4F88F
:1050100058B099465B45A8BFD946B9F1000F08932F
:1050200009DD4B46424631462846B84701303FF439
:1050300036AFD4F858B029EAE972934571DD4FF0E4
:10504000000A934604F11A0904E0A36DA3EB0B02D6
:10505000524565DD01234A4631462846B8470130AE
:105060000AF1010AF1D11AE7D9073FF560AF4246CC
:10507000012331462846B84701303FF410AF53466C
:105080003146284604F15002B84701307FF4EDAEB6
:1050900005E72268D2077FF583AEB8E65B4608F1E4
:1050A0000102E6E7002B34D12268D20731D4012374
:1050B00072E60123314628464B4AB84701303FF497
:1050C000EEAEDDE90D3A5AEA030324D0DDE90A2306
:1050D00031462846B84701303FF4E1AE0D9B002B26
:1050E00079DA4FF0000B04F11A0903E00D9B5B42E3
:1050F0005B4570DD01234A4631462846B8470130FA
:105100000BF1010BF2D1CAE62268D0077FF545AE5C
:105110006DE7023340E62268D3077FF5A7AED5E7F7
:105120009B460D9B089A9A4202DC2268D00708D55C
:10513000DDE90A2331462846B84701303FF4AFAED7
:105140000D9B089AA2EB0B0AD31A9A45A8BF9A4660
:10515000BAF1000F91460BDD53463146284608EB65
:105160000B02B84701303FF49AAE4A460D9BD31A62
:105170002AEAEA7A53457FF778AE4FF00008DDF867
:1051800020B004F11A0907E00D9BABEB0303A3EB7E
:105190000A0343457FF769AE01234A463146284654
:1051A000B847013008F10108EED178E64B46002BF4
:1051B000BCBF2D2384F843302AF00403236003236B
:1051C0000A4A23610A4B4FF0000ABBF1470F8CBF1C
:1051D0009046984636E65346424631462846B847FA
:1051E00001307FF442AE5AE660A600085CA60008D3
:1051F00058A6000870B5114E054633680C46BBB181
:105200002146284602F0FCFE431C01460CD0C41C7B
:1052100024F00304A04205D02846611A02F0F0FEF3
:10522000013001D0204670BD4FF0FF34204670BDE4
:10523000194602F0E5FE3060E2E700BFA40400205A
:105240002DE9F843CD1C25F0030508350C2D38BF9A
:105250000C25002D064618DBA94216D8DFF8DC80A5
:1052600001F04AFDD8F80420A2B1144603E06368B7
:1052700022467BB11C4623685B1BF8D40B2B1FD83E
:105280009442636854D053600CE00C2333600020D8
:10529000BDE8F88329463046FFF7ACFF431C0446BF
:1052A00019D00560304601F029FD04F10B00231DE3
:1052B00020F00700C21A1CBF1B1AA350BDE8F883D8
:1052C00061199442256014BF5160C8F804106351FD
:1052D00063684B60E6E7D8F804701FB33C467F680C
:1052E000002FFBD123683946304604EB030902F056
:1052F00087FE814516D123683046ED1A2946FFF70F
:1053000079FF01300ED02368D8F804202B442360A5
:10531000536883B1A34203D01A465B689C42FBD119
:105320000023B0E70C233046336001F0E7FCAEE722
:10533000C8F80430B6E7C8F80470B3E7A404002046
:105340002DE9F04F03690C6985B0A342C0F291804A
:105350008146013C01F1140509F1140855F8243087
:1053600058F824C001339C45BCFBF3F64FEA840097
:1053700005EB840708EB840243D34FF0000CAA46E8
:10538000CDE90105C646634665469346CDF80C80D7
:105390005AF8040BDEF800201FFA80FC06FB0C55BF
:1053A0004FEA10484FEA154C06FB08CCADB290B25C
:1053B000401B18441FFA8CF3C3EB204303EB12434A
:1053C00080B240EA034057454EF8040B4FEA1C45B3
:1053D0004FEA2343DCD2DDE90105DDF80C8058F803
:1053E000003073B9ABF10402904504D307E0904557
:1053F00004F1FF3403D252F80439002BF7D0C9F876
:105400001040484602F09AFB00282EDB414600225D
:1054100055F8040BD1F800C01FFA80FE1FFA8CF378
:10542000A3EB0E031344020CC2EB234202EB1C421B
:105430009BB243EA0243AF4241F8043B4FEA2242A7
:10544000E6D258F8242008EB84036AB9043B4345AC
:1054500004D807E0984504F1FF3403D253F8042937
:10546000002AF7D0C9F810400136304605B0BDE833
:10547000F08F002005B0BDE8F08F00BF2DE9F04FA0
:1054800016461F46C5699DB0CDE90667299C039065
:10549000002D00F0B283296851B101236A6893405E
:1054A0004A608B6002F084F80022039BDB691A607B
:1054B000B7F10009B4BF012300232360784BBCBFC0
:1054C00029F00049CDF81C9033EA090300F0AE80C2
:1054D000DDE906341846214600220023CDE9040107
:1054E00003F00AFE804668B10123289A13602A9BC4
:1054F00013B16C4B2A9A13606B4B089308981DB03C
:10550000BDE8F08F1AAB01931BAB00930398DDE964
:10551000042302F071FC5FEA1955824640F09C803A
:10552000DDE91A85454405F23243202B40F3998387
:10553000C3F1400309FA03F905F2124326FA03F313
:1055400049EA030003F0F6FA0123013D1193A1F1AA
:10555000F8710022554B03F0AFF94BA3D3E90023B8
:1055600003F062FB4AA3D3E9002303F0A7F9064640
:1055700028460F4603F0EEFA47A3D3E9002303F0D1
:1055800053FB02460B463046394603F097F9064670
:105590000F4603F0F9FD002204460990002330462F
:1055A000394603F0B3FD002840F03483099CA8EB92
:1055B0000508162C08F1FF3B00F21383DDE9040116
:1055C0003B4B03EBC403D3E9002303F09FFD00280A
:1055D00074D0631E09930023BBF1000F1093C0F237
:1055E000068300230B93099B002B6DDA099B0B9A12
:1055F0000E93D21A5B420F9300230993269B0B92C2
:10560000092B69D8052BC4BF043B2693269BC8BF32
:105610000025A3F10203D8BF0125032B00F24C861D
:10562000DFE813F07A0477046E04500442F20F733B
:10563000289AC9F3130959EA060913601CD12A9B59
:10564000002B00F02F861B4B089308332A9A0898EA
:1056500013601DB0BDE8F08FDDE90412C2F313033F
:10566000084643F07F51CDF84480A5F2FF35DDF8C0
:10567000688041F440116CE72A9B002B40F0FE83C8
:105680000D4B08933AE700BF61436F63A787D23F92
:10569000B3C8608B288AC63FFB799F501344D33F21
:1056A0000000F07F61A6000860A600080000F83F37
:1056B00088A8000864A6000870A60008B8F1000FCA
:1056C00040F3AF8410900B90099B9B440E930023F2
:1056D0000F93269B092B95D9002326934FF0FF3378
:1056E00001250A9300230C9527930021039BDB6976
:1056F00059600A9B1893039801F01AFF089000283C
:1057000000F0E385039B089ADB691A600A9B0E2B65
:1057100000F20D81002D00F00A810E99002940F35E
:105720004E84AE4B01F00F0203EBC2030A46D3E9ED
:105730000067D2054FEA211540F11084DDE904012C
:10574000A74B4FF00309D3E9082303F097FBCDE9FA
:10575000120105F00F058DB1DFF88482EB0709D542
:10576000D8E900233046394603F05EFA06460F4674
:1057700009F101096D1008F10808EFD1DDE9120106
:105780003B46324603F07AFB07468846109B43B1FE
:10579000002238464146934B03F0B8FC002840F005
:1057A0001285484603F0D6F93A46434603F03CFAE0
:1057B0008D4B002203F082F80A9B0446A1F150753C
:1057C000002B00F09D800E9B19930A9B129341467B
:1057D000384603F0D9FC1299804BCDE9144503EB10
:1057E000C10353E902340546CDE9163403F0B2F99A
:1057F0000B4602464146384603F05EF8089F0C9B74
:1058000030357E1CECB2804689463546002B00F0D0
:105810006B84DDE916230020744903F02FFBDDE9DA
:10582000142303F049F83C7042464B4604460D46AB
:1058300003F08AFC002840F0B984CDF858B0CDF8C8
:1058400050A0AB460027A246129D2AE00137AF4286
:1058500080F20185504659460022654B03F0E4F979
:105860000022634B82468B464046494603F0DCF9F2
:105870008946804603F088FC044603F06BF9024633
:105880000B464046494603F017F8303452465B4613
:1058900006F8014B8046894603F038FC002840F0AA
:1058A000D78442464B4600204E4903F005F8524645
:1058B0005B4603F02BFC0028C8D0199B3746DDF867
:1058C00050A0089A03F1010802E0974200F0A18479
:1058D0003E4617F8013D392BF7D00133DBB2454680
:1058E0003B706DE1484603F035F93A46434603F014
:1058F0009BF900223C4B02F0E1FF0446A1F15075F8
:10590000384600223B4B414602F0D6FF22462B464A
:1059100006460F4603F018FC002840F08984304604
:105920003946224605F1004303F0F0FB28BB1B9BE0
:10593000002BC0F291800E9A0E2A00F38D80274B27
:105940000E9A03EBC203D3E90034CDE90634279B5A
:10595000002B19DA0A9B002B16DC0ED1DDE90601BB
:105960000022244B03F060F902460B46DDE90401F6
:1059700003F0D6FB002800F05B8400231F46089E3E
:105980000493279BDD4340E2089B5D1CDDE906781C
:10599000DDE904013A46434603F070FA03F0F4FBF4
:1059A000064603F0D7F83A46434603F03DF902466F
:1059B0000B46DDE9040102F07FFF089A06F130038F
:1059C00013700A9B2F46012B00F036830125CDF87A
:1059D00010A0A846DDE906AB99462BE088A8000890
:1059E00078A900080000F03F00001C400000E03FE4
:1059F000000024400000144052465B4620462946E1
:105A000003F03CFA03F0C0FB064603F0A3F852464D
:105A10005B4603F009F908F101080B4602462946E6
:105A2000204602F049FF06F13003C84507F8013B64
:105A300000F0008300228D4B03F0F6F800220023D3
:105A400004460D4603F058FB0028D5D00E9D3E4677
:105A5000DDF810A00135B3E00C9A002A40F0EE808A
:105A600000231F460F9E0B9D0C9365B1BBF1000FE9
:105A700009DD5D452B46A8BF5B460B9AED1AD21A8D
:105A80000B92ABEB030B0F9B53B10C9B13B1002E8E
:105A900040F00B8351460F9A039801F06BFF82464A
:105AA0000121039801F09EFE099B0490002B40F019
:105AB000D081269B012B40F3E6810120584410F051
:105AC0001F0000F0B480C0F12003042B40F3F581E7
:105AD0000B9BC0F11C0003440B93054483440B9BB8
