:020000040800F2
:1000000000C0002091580008D9580008D9580008AD
:10001000D9580008D9580008D95800080000000035
:10002000000000000000000000000000D958000897
:10003000D958000800000000D9580008B11D000878
:10004000D9580008D9580008D9580008D9580008CC
:10005000D9580008D9580008D9580008D9580008BC
:10006000D9580008D9580008D9580008011E0008BE
:10007000D9580008D9580008D9580008D95800089C
:10008000D9580008D9580008D9580008D95800088C
:10009000D9580008D9580008D9580008D95800087C
:1000A000D9580008D9580008D9580008D95800086C
:1000B000CD1D0008D9580008D9580008D9580008A3
:1000C000D9580008D9580008D9580008D95800084C
:1000D000D9580008D9580008D95800084D3C0008E4
:1000E000D9580008D9580008D9580008D95800082C
:1000F000D9580008D9580008D9580008D95800081C
:10010000D9580008D9580008D9580008D95800080B
:10011000D9580008D9580008D9580008D9580008FB
:10012000D9580008D9580008D9580008D9580008EB
:1001300080B500AF00F02AF80F4805F0DBFE00F0B4
:100140007FFB0E4805F0D6FE06E000F081FA0A209B
:1001500001F018FC05F0E2FA094B1B79002BF4D0F2
:10016000022000F02FFD074B01221A70064805F00F
:10017000C1FE00F05DF8FCE7C4B0000808B100085B
:10018000DC010020EE01002028B1000880B500AF9E
:100190004FF4E13001F0D2FF01F004FB01F046FB27
:1001A00001F06AFB00F004FD03F0D8FD03F0EEFD62
:1001B00001F08EFB01F0A6FB01F0BCFB00F054FE49
:1001C00000F020F80A4805F095FE0A4805F092FE76
:1001D000094805F08FFE4FF47A51084808F0F4FB07
:1001E000034805F087FE064B00221A7000BF80BD51
:1001F0004CB1000870B1000894B10008A4B1000827
:10020000EE01002080B400AF034B00221A7000BF43
:10021000BD4680BC704700BFED01002080B400AF38
:10022000024B1B781846BD4680BC7047ED0100208C
:1002300080B582B000AF01F0BFFB786001F0E8FF4D
:1002400000F010FD394B1B687A68D31A042B69D96A
:10025000364A7B68136000F077F800F035F900F05B
:10026000F7F901F0C7F80346314A936000237B8019
:1002700000233B802E4BB3F900002D4BB3F9021045
:100280003B46BA1C01F0DEF8294B1B79012B14D137
:10029000284B1B78002B10D1B7F90230184600F01C
:1002A00013FEB7F90030184600F02EFE012000F0D2
:1002B0004BFE214B02221A7005E0002000F044FEA4
:1002C0001D4B01221A70B7F90230002BB8BF5B42F8
:1002D0009BB2322B07D8B7F90030002BB8BF5B4276
:1002E0009BB2322B03D9154B00221A6004E0134B4A
:1002F0001B680133114A136000F01EFA104B1A6894
:10030000531C0F490B600F4BA3FB02139B09C82121
:1003100001FB03F3D31A002B01D100F03BFB05F0E6
:10032000FDF900E000BF0837BD4680BDF0010020A8
:10033000DC010020EC010020EE010020E80100209B
:10034000F40100201F85EB5180B582B000AF00237F
:10035000FB71FFF763FF0346002B3FD04A4B9B68BE
:100360004FF07E5118460AF03FFE0346002B19D08D
:10037000454B9B6818460AF05BF802460B4643481B
:1003800008F022FBFB7943F00103FB713E4B9B68B5
:100390003F4918460AF028FE0346002B1ED000F005
:1003A000AFFA1BE0384B9B684FF0804118460AF0CB
:1003B0001BFE0346002B11D0364B1A68531C3549DF
:1003C0000B60354BA3FB02135B09642101FB03F3B4
:1003D000D31A002B02D1032000F0F4FB01F014F833
:1003E00038602E4938680AF01DFE0346002B0BD0FA
:1003F00038680AF01DF802460B46294808F0E4FA6E
:10040000FB7943F00203FB71264B1B780A2B09D9B9
:10041000254805F06FFDFB7943F00803FB71234B82
:1004200003221A70224B1B68224A934204D92248A5
:1004300005F060FD00F064FA204B1B78012B06D11B
:100440001F4805F057FDFB7943F01003FB71FB7962
:10045000002B0FD01B4B1B78FA799A4206D1114B17
:100460001B780133DAB20F4B1A7006E00D4B0122F4
:100470001A7002E00B4B00221A70124AFB791370BB
:1004800000BF0837BD4680BDDC010020BCB10008BC
:10049000000080BFF80100201F85EB510000A04143
:1004A000E4B10008FC01002008B20008EE010020C1
:1004B000E8010020C0D401001CB20008EC010020BB
:1004C00040B20008FD01002090B583B000AF01F0FC
:1004D000ABFC01F035FD0346FB8001F039FD03461E
:1004E000BB8001F03DFD0346FB70524BB3F9003079
:1004F00018460AF087FB03464F4918460AF0D6FB18
:1005000003461C46B7F9063018460AF07BFB034643
:100510004A4918460AF0CAFB0346194620460AF023
:10052000BDFA034618460AF087FD03461AB2414B4E
:100530001A80434BB3F9003018460AF063FB0346B8
:100540003D4918460AF0B2FB03461C46B7F9043091
:1005500018460AF057FB0346384918460AF0A6FB2E
:100560000346194620460AF099FA034618460AF04F
:1005700063FD03461AB2324B1A802E4BB3F900309A
:10058000002BB8BF5B429BB2132B02D8294B002231
:100590001A802B4BB3F90030002BB8BF5B429BB2E3
:1005A000132B02D8264B00221A80224BB3F90030BD
:1005B00013F57A7F09DB1F4BB3F90030B3F57A7F6F
:1005C000A8BF4FF47A731BB200E01E4B1E4A138083
:1005D0001B4BB3F9003013F57A7F09DB184BB3F9E5
:1005E0000030B3F57A7FA8BF4FF47A731BB200E0F6
:1005F000144B154A5380FB78012B02D1124B012278
:100600001A7101F0C1FC0346002B0CBF012300232B
:10061000DBB21A460D4B1A700C4B1B78012B05D11F
:10062000094B00221A80084B00225A8000BF0C3769
:10063000BD4690BDFE010020CDCC4C3FCDCC4C3E04
:100640000002002018FCFFFFDC010020EC0100206C
:1006500080B582B000AF4FF400512F4803F083FC07
:100660000346002B14BF01230023DBB2FB71FB798F
:10067000012B1BD1294B1B78002B07D101F09CF9D2
:100680000346274A1360254B01221A7001F094F9A2
:100690000246234B1B68D31A40F6B832934237D92F
:1006A000204805F027FC00F02BF931E01B4B1B78AC
:1006B000012B2DD101F080F90246194B1B68D31A8A
:1006C0003B603B68B3F57A7F1FD2174B1B79002B39
:1006D0000CBF01230023DBB21A46134B1A71124BD5
:1006E0001B79002B01D0114B00E0114B194611482A
:1006F00008F06AF90C4B1B79002B03D0022000F0A4
:1007000061FA02E0012000F05DFA044B00221A7049
:1007100000BF0837BD4680BD001001400202002026
:100720000402002054B20008DC01002068B2000876
:100730006CB2000870B2000880B500AF3B4B1B786C
:10074000032B6BD801A252F823F000BF5D0700080D
:1007500089070008B7070008C1070008344B1A686A
:10076000344BA3FB02135B09642101FB03F3D31A8F
:10077000312B04D80421304803F0D7FB4EE004218C
:100780002D4803F0E1FB49E0294B1A682B4BA3FBF2
:1007900002135B094FF4FA7101FB03F3D31AF92B2F
:1007A00004D80421244803F0C0FB37E00421224888
:1007B00003F0CAFB32E004211F4803F0B6FB2DE032
:1007C0001B4B1A681B4BA3FB02139B09C82101FB9F
:1007D00003F3D31A312B17D9154B1A68154BA3FB0A
:1007E00002139B09C82101FB03F3D31A632B10D911
:1007F0000F4B1A680F4BA3FB02139B09C82101FB87
:1008000003F3D31A952B04D804210B4803F08DFB76
:1008100003E00421084803F097FB00BF044B1B686A
:100820000133034A136000BF80BD00BFEE0100200A
:10083000080200201F85EB51000C0140D34D6210CF
:1008400080B582B000AF012000F07EFB0023FB7179
:1008500044E0FB7901339BB21A46920013441A46D6
:1008600091001A460B4613449B009BB27B80FB7998
:1008700001339BB21A46920013441A4691001A465D
:100880000B4613445B00BB80BB88B3F5FA7F02D9EB
:100890004FF4FA73BB80B7F90230184600F014FB2E
:1008A000B7F90230184600F02FFB1021134803F06F
:1008B0003CFBBB88184601F065F810210F4803F097
:1008C00043FBBB88B3F57A7F05D2BB88C3F57A7347
:1008D000184601F057F8FB790133FB71FB79092BBE
:1008E000B7D9002000F0F0FA002000F00DFB002046
:1008F00000F02AFB00BF0837BD4680BD000801405C
:1009000080B582B000AF1D4805F0F4FA002000F079
:100910001BFB042000F056F94FF0804003F023FF4A
:10092000174803F020FF174803F01DFF164804F096
:10093000FDFA00237B6010E00421144803F0F5FA6F
:10094000642001F01FF80421104803F0FDFA642030
:1009500001F018F87B6801337B607B68042BEBDDCA
:100960000B4805F0C7FA03F027FA642001F00AF8F3
:100970004FF47A7001F006F8FAE700BF84B200087D
:1009800000080040000C004000240140000C014021
:10099000A4B200082DE9F04792B008AF2E4B1B78A7
:1009A0003B722E4B9B68FB6000F02EFD03463B61C3
:1009B00000F034FD03467B61294B9B783B7600F0C9
:1009C00037FD0346FB61274B9B7887F82030234B8C
:1009D000B3F900307B84214BB3F90230BB84224B46
:1009E0001B68214A12681946204807F0EDFF3B7A40
:1009F0009A46FB68184609F01BFD804689463B690C
:100A0000184609F015FD04460D467B6918460AF0A4
:100A100013FB06463B7E7B60FB6918460AF00CFB25
:100A2000034697F82020B7F92210B7F92400079061
:100A30000691059204937B6803930296CDE90045E5
:100A400042464B4651460A4807F0BEFF00BF2837D2
:100A5000BD46BDE8F08700BFEE010020DC010020AC
:100A60001C0200202802002010000020B4B2000860
:100A7000D4B2000880B582B000AF0346FB71FB79A9
:100A8000012B04D11021064803F04FFA03E0102196
:100A9000034803F059FA00BF0837BD4680BD00BFC8
:100AA0000008014080B500AF0020FFF7E3FF0A4BCC
:100AB00000221A60084B00221A71074B00225A715B
:100AC000054B00229A71044B00229A60024B0022CF
:100AD0001A7300BF80BD00BF0C02002080B582B039
:100AE00000AF78600A4A7B681360094B00221A71D4
:100AF000074B00229A71064B01221A7300F05CFF2B
:100B00000346184600F006F800BF0837BD4680BD12
:100B10000C02002080B584B000AF7860194B1A68D1
:100B2000184B1B7919460B465B000B445B001344C2
:100B3000FB60FB681B88002B0AD1FB685B88002BDD
:100B400006D1FB681B79002B02D1FFF7ABFF16E043
:100B5000FB681B79002B02D0FB681B7900E00123A6
:100B6000084A5371074B01229A710120FFF782FF57
:100B7000FB681B881A467B681344024A936010374F
:100B8000BD4680BD0C02002080B582B000AF786009
:100B9000064B1B790133DAB2044B1A717868FFF700
:100BA000B9FF00BF0837BD4680BD00BF0C02002062
:100BB00080B500AF0020FFF75DFFFFF773FF00BFB8
:100BC00080BD000080B582B000AF0346FB71FB79A9
:100BD000013B092B3ED801A252F823F0050C000876
:100BE0000D0C0008150C00081D0C0008250C000851
:100BF0002D0C0008350C00083D0C0008450C0008C1
:100C00004D0C0008012000F0A7F827E0022000F0BA
:100C1000A3F823E0052000F09FF81FE0062000F075
:100C20009BF81BE0072000F097F817E0082000F081
:100C300093F813E0092000F08FF80FE00A2000F08D
:100C40008BF80BE00B2000F087F807E00C2000F099
:100C500083F803E0002000F07FF800BF00BF0837F2
:100C6000BD4680BD80B582B000AF3A4B1B7B012BE7
:100C700069D1384B1B68002B65D000F09DFE786071
:100C8000344B9B687A68D31A002B5EDB314B1A68B1
:100C9000304B1B7919460B465B000B445B00134439
:100CA0003B602C4B9B79012B2DD10020FFF7E2FEFE
:100CB0003B685B88002B1BD1264B5B79012B13D93A
:100CC000244B5B79013BDAB2224B5A71214B012252
:100CD0009A710120FFF7CEFE3B681B881A467B689D
:100CE00013441C4A936031E07868FFF74DFF2DE014
:100CF000184B02229A713B685B881A467B68134442
:100D0000144A936022E0134B9B79022B1ED1114BA6
:100D10005B79012B13D90F4B5B79013BDAB20D4B99
:100D20005A710C4B01229A710120FFF7A3FE3B6818
:100D30001B881A467B681344064A936006E078686D
:100D4000FFF722FF02E000BF00E000BF0837BD460A
:100D500080BD00BF0C02002080B582B000AF03460A
:100D6000FB71FB790E2B5CD801A252F823F000BF77
:100D7000AD0D0008B30D0008BB0D0008C30D000841
:100D8000CB0D0008D30D0008DB0D0008E30D0008B3
:100D9000EB0D0008F30D0008FB0D0008030E000822
:100DA0000B0E0008130E00081B0E0008FFF77AFE5A
:100DB0003AE01F48FFF792FE36E01E48FFF78EFE2E
:100DC00032E01D48FFF78AFE2EE01C48FFF786FE42
:100DD0002AE01B48FFF782FE26E01A48FFF77EFE56
:100DE00022E01948FFF77AFE1EE01848FFF776FE6A
:100DF0001AE01748FFF772FE16E01648FFF76EFE7E
:100E000012E01548FFF76AFE0EE01448FFF766FE91
:100E10000AE01348FFF762FE06E01248FFF75EFEA5
:100E200002E0FFF73FFE00BF00BF0837BD4680BDB0
:100E3000BCB30008C8B30008D4B30008E0B300088E
:100E4000ECB30008F8B3000864B300087CB30008F2
:100E50001CB3000840B3000890B300089CB300081E
:100E6000A8B3000804B4000880B500AF134B0022FB
:100E70001A80124B00229A70104B0022DA700F4B2E
:100E80004FF000025A600D4B4FF000029A600C4B7D
:100E900000221A800A4B00229A70094B0022DA7055
:100EA000074B4FF000025A60054B4FF000029A606A
:100EB000044805F01FF800BF80BD00BF1C020020E1
:100EC0002802002034B4000880B483B000AF034689
:100ED000FB80B7F9063013F57A7F08DBB7F90630E7
:100EE000B3F57A7FA8BF4FF47A731BB200E0044BCE
:100EF000044A138000BF0C37BD4680BC704700BF5A
:100F000018FCFFFF1C02002080B483B000AF034632
:100F1000FB80B7F9063013F57A7F08DBB7F90630A6
:100F2000B3F57A7FA8BF4FF47A731BB200E0044B8D
:100F3000044A138000BF0C37BD4680BC704700BF19
:100F400018FCFFFF2802002080B582B000AF0346E6
:100F5000FB710D4AFB791370FB79002B05D10B4B0C
:100F600000221A800A4B00221A80FB79002B01D044
:100F7000084B00E0084B1946084807F025FD00BF64
:100F80000837BD4680BD00BF400200201C02002083
:100F90002802002050B4000854B4000858B40008D7
:100FA00080B483B000AF78600B467B807B68002BF9
:100FB00027D0B7F9023013F57A7F08DBB7F9023092
:100FC000B3F57A7FA8BF4FF47A731BB200E00F4BE2
:100FD0007B807B681B784C2B03D07B681B786C2B49
:100FE00003D10B4A7B8813800CE07B681B78522B63
:100FF00003D07B681B78722B04D1064A7B88138050
:1010000000E000BF0C37BD4680BC704718FCFFFFF6
:10101000420200204402002080B588B000AF764B29
:101020001B78012B40F08081744BB3F90030002B0A
:1010300000F0AA80714BB3F90030184609F0E2FDC8
:1010400003466F49184609F031FE03461A466D4BB8
:101050001B681946104609F021FD03461A46694BE4
:101060001A6009E0674B1B686749184609F014FDD0
:1010700003461A46634B1A60624B1B686249184666
:1010800009F0C6FF0346002BECD109E05D4B1B685D
:101090005D49184609F002FD03461A46594B1A608D
:1010A000584B1B684FF00001184609F09DFF03469E
:1010B000002BEBD1534B1B68184609F0E3FF0346A6
:1010C000FB774E4BB3F90030184609F09BFD034601
:1010D0004E49184609F09EFE0346BB61FA7F4C4913
:1010E00013465B0013445B000B44B3F90030184611
:1010F00009F088FD0346B969184609F0D7FD034693
:10110000184609F099FF0346FB82FA7F40491346CF
:101110005B0013445B000B440233B3F90030184604
:1011200009F070FD0346B969184609F0BFFD034692
:10113000184609F081FF0346BB82FA7F3449134603
:101140005B0013445B000B440433B3F900301846D2
:1011500009F058FD0346B969184609F0A7FD034692
:10116000184609F069FF03467B82B7F91220B7F9E8
:101170001410B7F91630184600F0F0F81F4BB3F909
:101180000020244B1A8004E000220021002000F0FF
:10119000E5F8214BB3F90030002B00F0BF801E4B67
:1011A000B3F90030184609F02DFD034614491846DE
:1011B00009F07CFD03461A46184B1B681946104679
:1011C00009F06CFC03461A46144B1A6009E0134BF5
:1011D0001B680D49184609F05FFC03461A460F4B81
:1011E0001A600E4B1B680849184609F011FF0346A8
:1011F000002BECD11EE000BF400200204202002084
:101200006F12033A480200200000C04000007A44F8
:1012100010B400081C020020440200204C020020F0
:10122000484B1B684849184609F038FC03461A46E3
:10123000444B1A60434B1B684FF00001184609F0FD
:10124000D3FE0346002BEBD13E4B1B68184609F03A
:1012500019FF03467B743D4BB3F90030184609F083
:10126000D1FC03463A49184609F0D4FD0346FB6019
:101270007A7C384913465B0013445B000B44B3F996
:101280000030184609F0BEFC0346F968184609F01C
:101290000DFD0346184609F0CFFE03467B817A7C9C
:1012A0002C4913465B0013445B000B440233B3F933
:1012B0000030184609F0A6FC0346F968184609F004
:1012C000F5FC0346184609F0B7FE03463B817A7CDD
:1012D000204913465B0013445B000B440433B3F90D
:1012E0000030184609F08EFC0346F968184609F0EC
:1012F000DDFC0346184609F09FFE0346FB80B7F964
:101300000620B7F90810B7F90A30184600F04CF873
:101310000E4BB3F90020104B1A800FE00022002181
:10132000002000F041F809E000220021002000F038
:1013300015F800220021002000F036F800BF203709
:10134000BD4680BD4C0200200000C0404402002089
:1013500000007A4410B400082802002080B582B052
:1013600000AF0346FB800B46BB8013467B80B7F97A
:1013700006301A4601214FF0804000F077F9B7F9A6
:1013800004301A4602214FF0804000F06FF9B7F99F
:1013900002301A4603214FF0804000F067F900BF89
:1013A0000837BD4680BD000080B582B000AF03465F
:1013B000FB800B46BB8013467B80B7F906301A468C
:1013C00003210A4800F052F9B7F904301A46012106
:1013D000074800F04BF9B7F902301A4603210448D8
:1013E00000F044F900BF0837BD4680BD000800404A
:1013F000000C004080B400AF024B1B681846BD468D
:1014000080BC70470000002080B400AF024B1B6816
:101410001846BD4680BC70473C02002080B400AF37
:10142000024B5B681846BD4680BC70471C0200201A
:1014300080B400AF024B5B681846BD4680BC704765
:101440002802002090B587B000AFBA607B600346E9
:10145000FB810B46BB81B7F90C30184609F0D2FB73
:1014600003465E49184609F0D5FC03467B61FB89BB
:101470007B82B7F91230184609F0C4FB04464FF0DE
:101480007E51786909F00AFB03461946204609F0A7
:101490000DFC03465249184609F0A6FD0346002BF1
:1014A00001D0504B30E0B7F91230184609F0AAFBD2
:1014B00004464FF07E51786909F0F0FA0346194668
:1014C000204609F0F3FB03464449184609F0AAFDFB
:1014D0000346002B02D04FF47A7315E0B7F91230AF
:1014E000184609F08FFB04464FF07E51786909F0E9
:1014F000D5FA03461946204609F0D8FB034618469C
:1015000009F09AFD03461BB2BA681380B7F912308E
:10151000184609F077FB044679694FF07E5009F0D0
:10152000BBFA03461946204609F0C0FB03462C4986
:10153000184609F059FD0346002B01D0294B30E035
:10154000B7F91230184609F05DFB044679694FF08F
:101550007E5009F0A1FA03461946204609F0A6FB81
:1015600003461E49184609F05DFD0346002B02D0D4
:101570004FF47A7315E0B7F91230184609F042FBC0
:10158000044679694FF07E5009F086FA0346194601
:10159000204609F08BFB0346184609F04DFD034633
:1015A0001BB27A681380B7F90E30002BB8BF5B42CC
:1015B0009BB2312B0DD8B7F90C30002BB8BF5B4272
:1015C0009BB2312B05D8BB6800221A807B680022B1
:1015D0001A8000BF1C37BD4690BD00BF00007A4492
:1015E00000007AC418FCFFFF80B586B000AFF86039
:1015F0007A601A460B467B8113463B817B891946EC
:10160000F86802F0B0FC0346002B0CBF0123002356
:10161000DBB2FB753B891946786802F0A4FC0346EF
:10162000002B0CBF01230023DBB2BB75BB8C19461A
:10163000386A02F098FC0346002B0CBF01230023FC
:10164000DBB27B7597F916305B005AB297F9173009
:1016500013435AB297F915309B005BB213435BB248
:10166000DBB218461837BD4680BD000080B485B097
:1016700000AF78600B46FB7013463B80B7F9003033
:1016800040F6CA0202FB03F31F4A82FB0312D21187
:10169000DB17D31A9BB203F265439BB2FB81B7F908
:1016A0000E30092B08DDB7F90E30B3F50C6FA8BF6B
:1016B0004FF40C631BB200E00A23FB81FB78032B81
:1016C00014D0032B19DC012B02D0022B07D014E01D
:1016D0007B6838331A46B7F90E3013600EE07B682A
:1016E0003C331A46B7F90E30136007E07B6840338D
:1016F0001A46B7F90E30136000E000BF00BF143780
:10170000BD4680BC704700BFD34D621080B483B02B
:1017100000AF03463960FB7197F90730002B0BDAF5
:101720003B68DAB20C49FB7903F00F03043B12016A
:10173000D2B20B441A7609E03B68DAB2074997F94E
:1017400007301201D2B20B4483F8002300BF0C37DC
:10175000BD4680BC704700BF00ED00E000E100E046
:1017600080B582B000AF78607B68013BB3F1807FC9
:1017700001D301230FE00A4A7B68013B53600F212C
:101780004FF0FF30FFF7C2FF054B00229A60044B79
:1017900007221A60002318460837BD4680BD00BFE7
:1017A00010E000E080B500AF002002F06FFE00BF47
:1017B000002002F0B7FD0346002BF9D0002002F014
:1017C000E5FC4FF4806002F0F9FC002002F00EFD11
:1017D0001249002002F022FD182002F057FE00BF3F
:1017E000182002F09FFD0346002BF9D0022003F0E1
:1017F000F5FF022002F0A6FC00BF02F0BBFC03468E
:10180000082BFAD1064B074A1A60054B1B6819468C
:10181000054807F0D9F800BF80BD00BF00000408EC
:101820001000002000A24A046CB4000880B500AF8C
:101830000D4B1B680D4AA2FB03239B091846FFF7BB
:101840008FFF0346002B04D0094804F053FB00BF70
:10185000FDE700214FF0FF30FFF758FF054804F087
:1018600049FB00BF80BD00BF10000020D34D6210B7
:1018700090B40008A8B4000880B500AF40F2026040
:1018800002F0F8FB40F2036002F0F4FB40F2046067
:1018900002F0F0FB4FF4C06002F0ECFB01210948BC
:1018A00002F076FB084804F025FB00F08FF800F00A
:1018B000C1F800F0D5F800F0FDF8044804F01AFB78
:1018C00000BF80BD00023000C0B40008D4B40008DE
:1018D00080B500AF4FF4E06002F0CCFB40F2027044
:1018E00002F0C8FB40F2037002F0C4FB00F0FCF809
:1018F00000F07AF9024804F0FDFA00BF80BD00BF95
:10190000E8B4000880B500AF40F2096002F0B2FB15
:101910004FF4A06002F0AEFB022002F09FFC00F04A
:10192000EBF900F00BFA024804F0E4FA00BF80BDC6
:1019300000B5000880B500AF40F61D1002F0C6FCEF
:101940000346002B04D002F0DFFC0B4804F0D2FA6F
:10195000022140F6FF7003F0EDFE0346012B04D098
:10196000064804F0C7FA00BFFDE703F0CBFE0448C9
:1019700004F0C0FA00BF80BD14B500082CB5000803
:1019800044B5000880B485B000AF7860094B1B688F
:10199000FB6001E000BF00BF064B1A68FB68D31A6A
:1019A0007A689A42F6D800BF00BF1437BD4680BCA3
:1019B000704700BF5002002080B400AF024B1B688C
:1019C0001846BD4680BC70475002002080B500AF6D
:1019D0004FF4E07303221821134802F003FA832323
:1019E00003221821114802F0FDF94FF480730322FD
:1019F00018210E4802F0F6F94FF400530322182183
:101A00000B4802F0EFF94FF4C06303221821074896
:101A100002F0E8F94FF4404303221821044802F091
:101A2000E1F900BF80BD00BF001001400008014087
:101A3000000C014080B500AFE023032204210648DA
:101A400002F0D0F94FF4E05303220421034802F0DE
:101A5000C9F900BF80BD00BF000C0140001001406B
:101A600080B500AF4FF40053032210210E4802F05E
:101A7000B9F94FF400510C4802F066FA1023032222
:101A800010210A4802F0AEF91021084802F05CFA71
:101A9000042303221021064802F0A4F9042104487B
:101AA00002F043FA00BF80BD001001400008014071
:101AB000000C014080B500AF042303220021084838
:101AC00002F090F9022303220021064802F08AF96D
:101AD0000C2303220021034802F084F900BF80BDDB
:101AE000001001400008014080B58CB000AF4FF0FD
:101AF000804002F0EDFC00233B8460237B840023C4
:101B0000BB8440F6CA03BB620023BB85002387F871
:101B10002E3007F1200319464FF0804002F070FD8F
:101B20000123BB800423FB8000233B8108237B81AE
:101B30000023BB814FF40073FB813B1D1A4601213A
:101B40004FF0804002F046FE3B1D1A4602214FF046
:101B5000804002F03FFE3B1D1A4603214FF08040BB
:101B600002F038FE702201214FF0804003F020F88F
:101B7000702202214FF0804003F01AF870220321F6
:101B80004FF0804003F014F84FF400633B820023D1
:101B90007B823223BB820023FB824FF480433B8352
:101BA00000237B830023BB8307F1100319464FF00A
:101BB000804002F0E7FD4FF0804002F0C5FD0121BA
:101BC0004FF0804003F0BAF801214FF0804003F05D
:101BD00085F8044B4FF080521A6000BF3037BD4685
:101BE00080BD00BF00E100E080B500AF00F004F868
:101BF00000F03CF800BF80BD80B588B000AF1A4847
:101C000002F066FC00233B8260237B820023BB82C0
:101C100040F6CA03BB610023BB830023BB7707F1F7
:101C200010031946104802F0EBFC0123BB8004238B
:101C3000FB8000233B8108237B810023BB814FF481
:101C40000073FB813B1D1A460321074802F0C2FDC9
:101C500070220321044802F0ABFF034802F074FD38
:101C600000BF2037BD4680BD0008004080B588B069
:101C700000AF204802F02CFC00233B8260237B82D3
:101C80000023BB8240F6CA03BB610023BB83002351
:101C9000BB7707F110031946164802F0B1FC012387
:101CA000BB800423FB8000233B8108237B8100232E
:101CB000BB814FF40073FB813B1D1A4601210D4887
:101CC00002F088FD3B1D1A4603210A4802F082FDFE
:101CD00070220121074802F06BFF702203210548A2
:101CE00002F066FF034802F02FFD00BF2037BD461B
:101CF00080BD00BF000C004080B500AF0E4803F06F
:101D00002DF8002003F066F800210B4803F0D8F806
:101D100001224FF48071084803F074F80022012179
:101D2000054803F04FF9044803F0E8F8024803F0CF
:101D30000EF900BF80BD00BF0024014080B588B00F
:101D400000AF0021164803F0A7F90023BB77154B1D
:101D5000FB6001237B774FF480633B6103237B614E
:101D6000114B7B6000233B774FF48073BB604FF4D3
:101D70000053BB613B1D1A460021094803F0F3F9EB
:101D80000021074803F0EBFA0021054803F012FB9D
:101D9000064803F006F900BF2037BD4680BD00BFEE
:101DA00000000240340200204C2401400024014085
:101DB00080B500AF044B1B680133034A136003F086
:101DC000ADFC00BF80BD00BF5002002080B500AF59
:101DD00001214FF0804002F094FF0346002B0AD00F
:101DE00001214FF0804002F0A9FFFFF715F9012112
:101DF000024803F02CF900BF80BD00BF0024014061
:101E000080B500AF02220021064803F0FEFA034627
:101E1000002B04D002220021024803F063FB00BF24
:101E200080BD00BF0000024080B584B000AFFFF766
:101E3000C3FDB8602D4B1B68BA68D31A092B51D962
:101E40002A4ABB6813602A4B1B78032B4BD1294BC2
:101E50001B88FB80274B5B88BB80B7F90630184690
:101E600000F0DEF803461A46234B1A80B7F9043017
:101E7000184600F0D5F803461A461F4B9A801E4BB1
:101E800000225A801C4B0022DA801B4B4FF47A72DE
:101E90001A81194B00225A81174B00229A81164B46
:101EA0000022DA81154ABB681360144B1B68BA68BC
:101EB000D31AB3F57A7F11D9114B00221A7000237F
:101EC000FB6007E00C4AFB68002122F81310FB6856
:101ED0000133FB60FB68072BF4DD04E0084B0122B3
:101EE0001A7000E000BF1037BD4680BD6C020020B4
:101EF0006902002034020020540200206402002005
:101F00006802002080B483B000AF0346FB71FB7908
:101F1000072B01D9002309E0074B1B78002B01D1C7
:101F2000002303E0FB79054A32F9133018460C37D9
:101F3000BD4680BC704700BF6802002054020020EC
:101F400080B500AF0220FFF7DDFF0346184680BDD5
:101F500080B500AF0020FFF7D5FF0346184680BDCF
:101F600080B582B000AF0420FFF7CCFF0346FB80B2
:101F7000B7F90630B3F5FA7FCCBF01230023DBB2FB
:101F800018460837BD4680BD80B400AF024B1B78B1
:101F90001846BD4680BC70476802002090B482B0ED
:101FA00000AF0446084611461A462346FB80034606
:101FB000BB800B467B8013463B80B7F90620B7F900
:101FC00000309A4215DAB7F90620B7F90430D31A6F
:101FD0004FF47A7203FB02F2B7F90010B7F904303C
:101FE000CB1A92FBF3F39BB2A3F57A739BB21BB2AD
:101FF00010E0B7F90620B7F90030D31A4FF47A721F
:1020000003FB02F2B7F90210B7F90030CB1A92FBCA
:10201000F3F31BB218460837BD4690BC704700006A
:1020200080B582B000AF0346FB80094BB3F90210C4
:10203000074BB3F90420064BB3F90630B7F9060095
:10204000FFF7ACFF034618460837BD4680BD00BF0A
:102050000400002080B400AFBFF34F8F00BF064BD9
:10206000DB6803F4E0620449044B1343CB60BFF325
:102070004F8F00BF00BFFDE700ED00E00400FA0550
:1020800080B584B000AF78600B467B807B68002B06
:1020900047D07B88002B44D072B600BF234B1B88EF
:1020A0009BB2C3F50073BB81BB89002B02D162B622
:1020B00000BF37E0BA897B88934228BF13467B81F3
:1020C0000023FB8122E0FB897A681344184A1288B6
:1020D00092B21978174B9954154B1B889BB2013358
:1020E0009AB2134B1A80124B1B889BB2B3F5007F38
:1020F00002D30F4B00221A800C4B1B889BB201337A
:102100009AB20A4B1A80FB890133FB81FA897B89D9
:102110009A42D8D340F20731074803F069FA62B611
:1021200000E000BF1037BD4680BD00BF7C05002029
:1021300078050020780300200048004080B483B078
:1021400000AF7860144B1B68134A43F00803136018
:10215000124B1B68114A43F480231360104B00227A
:102160001A60104B1B6823F47F0323F47F430D4A4E
:1021700043F4964313600C4B4FF49C721A60084B67
:1021800042F22C021A60094B80225A6000BF0C37C1
:10219000BD4680BC704700BF181002401C100240B2
:1021A0000C480040040C01400848004000E100E0F9
:1021B00080B584B000AF78607B68002B0DD0786864
:1021C00003F0FEFBF860FB68002B07D0FB689BB2B6
:1021D00019467868FFF754FF00E000BF1037BD468E
:1021E00080BD80B582B000AF78600B467B807B6895
:1021F000002B08D07B88002B05D07B881946786897
:10220000FFF73EFF00E000BF0837BD4680BD00007D
:1022100080B5C2B000AF204B1B78002B34D072B613
:1022200000BF1E4B1B88A7F80631B7F80631FF2BFD
:1022300002D9FF23A7F80631B7F806213B1D18493C
:10224000184605F0F3FEB7F8063107F58472A2F5DB
:1022500082720021D154114B00221A800E4B0022B1
:102260001A7062B600BFB7F80631002B0ED0FFF728
:10227000A3FB01463B1D1A460A4800F015F83B1D1A
:10228000184600F0FBFB02E000BF00E000BF07F5CE
:102290008477BD4680BD00BF72030020700300201C
:1022A000700200205CB500080FB480B5A2B000AF8A
:1022B00007F194037B6007F108007B68D7F8902052
:1022C000802103F00BFB07F108031846FFF770FFAE
:1022D00000BF8837BD46BDE8804004B070470000AD
:1022E00080B582B000AF0346FB71FB790D2B02D0A5
:1022F000FB790A2B16D1204B1B88002B36D01F4BA5
:102300001B78002B32D11C4B1B881A461C4B00211A
:1023100099541A4B01221A70FFF74EFB0346194AD3
:10232000136023E0FB79082B02D0FB797F2B0AD1C5
:10233000114B1B88002B1AD00F4B1B88013B9AB204
:102340000D4B1A8013E00C4B1B88FE2B0FD80B4B48
:102350001B78002B0BD1084B1B885A1C91B2064AE4
:1023600011801946064AFB79535400E000BF00BFB4
:102370000837BD4680BD00BF7003002072030020F7
:10238000700200207403002080B584B000AF786034
:10239000786805F005FD0346FB81B7F90E3013F5AB
:1023A0007A7F08DBB7F90E30B3F57A7FA8BF4FF418
:1023B0007A731BB200E0024B18461037BD4680BD51
:1023C00018FCFFFF80B588B000AFF860B9607A6094
:1023D000FB68002B01D1002398E0FB68FB6102E061
:1023E000FB690133FB61FB691B78202BF8D00023CC
:1023F000FB7600237B61FB691B78502B03D0FB69C4
:102400001B78702B11D1FB6901331B78402B0CD941
:10241000FB6901331B787A2B07D8FB6901331B78E2
:10242000FB76FB6902337B6110E0FB691B78402B74
:102430000AD9FB691B787A2B06D8FB691B78FB76D7
:10244000FB6901337B6101E000235FE0FB7E602BD1
:1024500005D9FB7E7A2B02D8FB7E203BFB76FB7EE8
:10246000402B02D9FB7E472B01D900234EE078692F
:1024700005F096FC38613B69002B02DB3B690F2BB2
:1024800001DD002342E0FB7E413B042B34D801A256
:1024900052F823F0A9240008B9240008C924000830
:1024A000D9240008E9240008BB681A4A1A6040F2DF
:1024B000026001F0DFFD21E0BB68174A1A6040F2BC
:1024C000036001F0D7FD19E0BB68144A1A6040F2BE
:1024D000046001F0CFFD11E0BB68114A1A6040F2C0
:1024E000056001F0C7FD09E0BB680E4A1A6040F2C2
:1024F000066001F0BFFD01E0002307E001223B6917
:1025000002FA03F39AB27B681A8001231846203737
:10251000BD4680BD00080140000C01400010014094
:10252000001401400018014080B586B000AF78600B
:1025300007F10E0207F1100319467868FFF742FF12
:102540000346002B03D10A48FFF732FE0DE03B693A
:10255000FA891146184601F006FD0346FB75FA7D1F
:10256000FB8979680348FFF79FFE1837BD4680BD99
:10257000C0B50008E4B5000880B586B000AF78604B
:10258000396007F10E0207F1100319467868FFF76A
:1025900019FF0346002B03D11548FFF709FE24E07D
:1025A000386805F0FDFB78613869FB89032210214A
:1025B00001F018FC7B69002B06D03B69FA891146B3
:1025C000184601F0B2FC05E03B69FA89114618464D
:1025D00001F0BAFC7B69002B14BF01230023DBB29E
:1025E0001A4679680348FFF75FFE1837BD4680BD7D
:1025F00008B6000830B6000880B489B000AFF860B3
:10260000B9607A60FB68002B05DDBB68002B02D047
:102610007B68002B01D100232BE0184BFB61FB688A
:10262000FA69B2FBF3F3BB61BB69002B01D1002354
:102630001FE0BB69013B1B0C7B617B69B3F5803FED
:1026400001D3002315E07B690133BA69B2FBF3F3D0
:102650003B613B69002B03D03B69B3F5803F01D35D
:10266000002306E0BB687A691A607B683A691A60E1
:10267000012318462437BD4680BC704700A24A0497
:1026800080B592B002AF78603960786805F088FB59
:10269000B8633B68002B04D0386805F081FB034623
:1026A00000E032237B63BB6B002B05DD7B6B002BD3
:1026B00002DB7B6B642B03DD8848FFF779FD0AE1C1
:1026C00007F1280207F12C031946B86BFFF794FFB6
:1026D0000346002B04D1B96B8148FFF7E5FDFAE012
:1026E000BB6A01337A6B02FB03F37E4AA2FB03232E
:1026F0005B09FB63BB6AFA6B9A4201D9BB6AFB6355
:102700004FF4806001F0D8FC4FF4806001F0F6FCDB
:102710004FF4E06001F0AEFC40F2026001F0AAFC70
:102720004FF4C06001F0A6FC6F4B3B633B6B1B6832
:1027300023F440723B6B1A604FF0804001F0C8FEFA
:10274000FB6A9BB23B8360237B830023BB83BB6A12
:102750009BB23B620023BB84002387F8263007F13D
:10276000180319464FF0804001F04AFF0123BB8156
:102770000423FB8100233B8208237B820023BB824E
:102780004FF40073FB8207F10C031A4601214FF04E
:10279000804002F01FF807F10C031A4602214FF0A7
:1027A000804002F017F807F10C031A4603214FF09E
:1027B000804002F00FF8702201214FF0804002F0BB
:1027C000F7F9702202214FF0804002F0F1F97022F7
:1027D00003214FF0804002F0EBF9FB6B9BB21A46ED
:1027E00001214FF0804002F045FAFB6B9BB21A4684
:1027F00002214FF0804002F03DFAFB6B9BB21A467B
:1028000003214FF0804002F035FA4FF0804001F094
:102810009BFF364801F05CFEBB6A9BB23B6207F14E
:1028200018031946314801F0EBFE07F10C031A4674
:1028300003212E4801F0CEFF702203212B4802F025
:10284000B7F9FB6B9BB21A460321284802F012FA33
:10285000264801F079FF264801F03AFEBB6A9BB298
:102860003B6207F118031946214801F0C9FE07F140
:102870000C031A4601211E4801F0ACFF07F10C03BE
:102880001A4603211A4801F0A5FF702201211848B9
:1028900002F08EF970220321154802F089F9FB6BD2
:1028A0009BB21A460121124802F0E4F9FB6B9BB27D
:1028B0001A4603210E4802F0DDF90D4801F044FFED
:1028C000F96ABB6AFA6B019200930B467A6BB96B9B
:1028D0000848FFF7E9FC4037BD4680BD44B6000814
:1028E00074B600081F85EB51040001400008004049
:1028F000000C0040A0B6000880B594B002AFF860AC
:10290000B9607A6007F11A0207F11C031946F868EA
:10291000FFF758FD0346002B04D1F9684948FFF73B
:10292000C3FC8BE0FB69484A934202D17B8B082BA6
:1029300003D04648FFF7B8FC80E007F1100207F12A
:1029400014031946B868FFF757FE0346002B04D15D
:10295000B9683F48FFF7A8FC70E03B6901337A682B
:1029600002FB03F33B4AA2FB03235B097B644FF4A6
:10297000806001F0A1FB4FF4806001F0BFFB4FF4D9
:10298000E06001F077FB40F2026001F073FB4FF46E
:10299000C06001F06FFB304B3B643B6C1B6823F461
:1029A00040723B6C1A60082303221821264801F06C
:1029B00019FA4FF08043FB63284BBB63284B7B63C2
:1029C000284B3B63284BFB62284BBB62284B7B6246
:1029D000284B3B62FB6A00221A607A69BB6A1A6064
:1029E0003A697B6A1A603B6A7A6C1A603B6B1B68B7
:1029F00023F0FF0343F068023B6B1A607B6B1B689C
:102A000023F400527B6B1A607B6B1B6843F480528B
:102A10007B6B1A60BB6B01221A60FB6B1B6843F077
:102A20000102FB6B1A6079693B697A6C0192009331
:102A30000B467A68B9681048FFF736FC4837BD4640
:102A400080BD00BFE0B6000800080140F8B60008ED
:102A500074B600081F85EB510400014014000040CB
:102A6000200000401C0000402400004028000040DE
:102A70002C0000404000004020B7000880B5ADF5B4
:102A8000087D02AF07F50673A3F50573186007F517
:102A90000673A3F505731B68002B01F0C38007F5CF
:102AA0000673A3F505731B681B78002B01F0BA8031
:102AB00007F50673A3F5057307F18800FF2219686F
:102AC00005F03AFB07F50673A3F5C873002283F8F7
:102AD000FF200023C7F814322BE007F50673A3F597
:102AE000C872D7F8143213441B78402B1CD907F551
:102AF0000673A3F5C872D7F8143213441B785A2B07
:102B000012D807F50673A3F5C872D7F81432134428
:102B10001B782033D9B207F50673A3F5C872D7F82E
:102B2000143213440A461A70D7F814320133C7F826
:102B3000143207F50673A3F5C872D7F8143213449C
:102B40001B78002BC9D107F18803CB49184605F043
:102B500001FE0346002B08D007F18803C749184639
:102B600005F0F8FD0346002B49D1C548FFF720FBCF
:102B7000C448FFF71DFBC448FFF71AFBC348FFF723
:102B800017FBC348FFF714FBC248FFF711FBC2480D
:102B9000FFF70EFBC148FFF70BFBC148FFF708FB2F
:102BA000C048FFF705FBC048FFF702FBBF48FFF72F
:102BB000FFFABF48FFF7FCFABE48FFF7F9FABE4834
:102BC000FFF7F6FABD48FFF7F3FABD48FFF7F0FA52
:102BD000BC48FFF7EDFABC48FFF7EAFABB48FFF73D
:102BE000E7FABB48FFF7E4FABA48FFF7E1FABA4858
:102BF000FFF7DEFAB948FFF7DBFA01F014B807F186
:102C000088030622B649184605F0D6FC0346002B79
:102C100040F0978007F50673A3F505731B6806332C
:102C2000C7F890310622AF49D7F8900105F0C4FCEF
:102C30000346002B0AD10120FEF786F9AA4B012298
:102C40001A71AA48FFF7B4FA00F0EDBF0722A849AD
:102C5000D7F8900105F0B0FC0346002B0AD1002004
:102C6000FEF772F9A04B00221A71A248FFF7A0FAF2
:102C700000F0D9BF0522A049D7F8900105F09CFCCF
:102C80000346002B15D1D7F8903105331846FFF7CE
:102C90007BFB0346A7F88A31B7F98A311846FEF75D
:102CA00013F9B7F98A3119469448FFF7FDFA00F095
:102CB000BABF06229249D7F8900105F07DFC034681
:102CC000002B15D1D7F8903106331846FFF75CFB7F
:102CD0000346A7F88C31B7F98C311846FEF714F982
:102CE000B7F98C3119468748FFF7DEFA00F09BBF31
:102CF00005228549D7F8900105F05EFC0346002BBC
:102D00001AD1D7F8903105331846FFF73DFB03463B
:102D1000A7F88E31B7F98E311846FEF7D5F8B7F916
:102D20008E311846FEF7F0F8B7F98E31194677481C
:102D3000FFF7BAFA00F077BF7548FFF739FA00F0ED
:102D400072BF07F1880305227249184605F034FC6A
:102D50000346002B40F0E68007F50673A3F50573E4
:102D60001B680533C7F8103204E0D7F8103201337E
:102D7000C7F81032D7F810321B78202BF5D0052277
:102D80006549D7F8100203F0CFF90346002B15D19F
:102D9000D7F810320533C7F80C3204E0D7F80C32FC
:102DA0000133C7F80C32D7F80C321B78202BF5D042
:102DB000D7F80C02FFF7B8FB00F035BF06225749E1
:102DC000D7F8100203F0B0F90346002B4ED1D7F824
:102DD00010320633C7F8083204E0D7F8083201335E
:102DE000C7F80832D7F808321B78202BF5D000231B
:102DF000C7F804320FE0D7F80822531CC7F808328E
:102E0000D7F80432591CC7F80412117807F5067276
:102E1000A2F5D072D154D7F808321B78002B08D015
:102E2000D7F808321B78202B03D0D7F804320E2BAA
:102E3000E1DD07F50673A3F5D072D7F80432134429
:102E400000221A7004E0D7F808320133C7F80832BC
:102E5000D7F808321B78202BF5D007F17803D7F884
:102E600008121846FFF788FB00F0DDBE2C48FFF77C
:102E70009FF900F0D8BE00BF74B700087CB7000807
:102E800080B70008A8B70008BCB70008ECB7000876
:102E90001CB800085CB80008A0B80008E4B8000836
:102EA0002CB9000868B90008A4B90008B8B900082E
:102EB000ECB900081CBA000854BA000888BA000827
:102EC000BCBA0008F4BA000808BB00083CBB000804
:102ED00070BB00087CBB0008ACBB0008DCBB000872
:102EE00000BC000808BC0008DC01002010BC000881
:102EF00024BC00082CBC000840BC000848BC0008EA
:102F000060BC000868BC000880BC000888BC0008E1
:102F1000A0BC0008D0BC0008D8BC0008E0BC000879
:102F2000E8BC000807F50673A3F5C8731B78722B7D
:102F300054D107F50673A3F5C8735B78202B4DD1E8
:102F400007F50673A3F505731B680233C7F8003253
:102F500004E0D7F800320133C7F80032D7F8003266
:102F60001B78202BF5D00023C7F8FC310FE0D7F8F1
:102F70000022531CC7F80032D7F8FC31591CC7F89F
:102F8000FC11117807F50672A2F5D872D154D7F862
:102F900000321B78002B08D0D7F800321B78202B8A
:102FA00003D0D7F8FC310E2BE1DD07F50673A3F54E
:102FB000D872D7F8FC31134400221A70D7F8FC31CC
:102FC000002B04D1BA48FFF7F3F800F02CBE07F14C
:102FD00068031846FFF7A8FA00F025BE07F5067348
:102FE000A3F5C8731B78772B66D107F50673A3F595
:102FF000C8735B78202B5FD107F50673A3F50573C3
:103000001B680233C7F8F83104E0D7F8F831013310
:10301000C7F8F831D7F8F8311B78202BF5D000230A
:10302000C7F8F4310FE0D7F8F821531CC7F8F8318E
:10303000D7F8F431591CC7F8F411117807F5067266
:10304000A2F5E072D154D7F8F8311B78002B08D0E4
:10305000D7F8F8311B78202B03D0D7F8F4310E2B9A
:10306000E1DD07F50673A3F5E072D7F8F4311344F8
:1030700000221A7004E0D7F8F8310133C7F8F831AC
:10308000D7F8F8311B78202BF5D0D7F8F431002B86
:1030900004D0D7F8F8311B78002B04D18548FFF70E
:1030A00087F800F0C0BD07F15803D7F8F8111846AB
:1030B000FFF762FA00F0B7BD07F188037E491846B2
:1030C00005F048FB0346002B54D17C48FFF770F80D
:1030D0007B4B1B7819467B48FFF7E6F87A4B9B68D9
:1030E000184607F0A5F902460B467848FFF7DCF8CA
:1030F000FEF78AF90346184607F09AF902460B468E
:103100007348FFF7D1F8FEF789F90346184607F030
:103110008FF902460B466F49897800916E48FFF798
:10312000C3F8FEF785F90346184607F081F9024611
:103130000B466A49897800916948FFF7B5F8624BF8
:10314000B3F900301946604BB3F902301A466548AE
:10315000FFF7AAF85C4B1B79002B01D0624B00E013
:10316000624B19466248FFF79FF86248FFF720F864
:1031700000F059BD07F188035F49184605F0EAFAE7
:103180000346002B19D15D48FFF712F85C4B1B88F2
:1031900019465C48FFF788F8594B5B8819465A482E
:1031A000FFF782F8564B9B8819465848FFF77CF882
:1031B0005748FEF7FDFF00F036BD07F1880355497B
:1031C000184605F0C7FA0346002B2CD13E4B9B68EE
:1031D000184607F02DF902460B464F48FFF764F8F2
:1031E000394B9B684FF07E51184607F0FDFE0346B1
:1031F000002B04D04948FEF7DBFF00F014BD324B32
:103200009B684FF08041184607F0EEFE0346002B06
:1032100004D04348FEF7CCFF00F005BD4148FEF75F
:10322000C7FF00F000BD07F188033F49184605F0CD
:1032300091FA0346002B1AD1FEF7E6F8C7F894017D
:10324000D7F8940107F0F4F802460B463748FFF729
:103250002BF83749D7F8940107F0E4FE0346002B1A
:1032600000F0E1843348FEF7A3FF00F0DCBC07F177
:1032700088033149184605F06DFA0346002B61D1E9
:10328000FEF7CCF80346184607F0D2F802460B4684
:103290002A48FFF709F8FEF7CBF80346184607F06F
:1032A000C7F802460B462648FEF7FEFF00F0BBBCFF
:1032B00020BD00083CBD000850BD000858BD0008F6
:1032C000EE01002074BD0008DC010020A4BD000850
:1032D000B8BD00081C020020CCBD00082802002058
:1032E000F0BD000814BE000834BE000838BE000857
:1032F0003CBE000854BE00086CBE000870BE00084A
:103300003402002088BE0008A4BE0008C0BE000829
:10331000D8BE0008F0BE0008F8BE000814BF0008C0
:1033200038BF000850BF00086CBF000874BF000819
:103330000000A0418CBF0008B0BF0008B8BF000863
:10334000D8BF000807F188030222BA49184605F0E1
:1033500033F90346002B40F0FF8007F50673A3F511
:10336000C8739B78202B07D007F50673A3F5C873A5
:103370009B78002B40F0F08007F50673A3F50573EA
:103380001B680233C7F8F03104E0D7F8F03101339D
:10339000C7F8F031D7F8F0311B78202BF5D007F5BE
:1033A0000673A3F5E8731A46002313605360936015
:1033B000D3600023C7F8EC31D7F8F031C7F8E83113
:1033C0000FE0D7F8E821531CC7F8E831D7F8EC3103
:1033D000591CC7F8EC11117807F50672A2F5E872CE
:1033E000D154D7F8E8311B78002B08D0D7F8E83152
:1033F0001B78202B03D0D7F8EC310E2BE1DD07F53D
:103400000673A3F5E872D7F8EC31134400221A7062
:10341000894BC7F8E4310023C7F8E03107F506739C
:10342000A3F5E8731B78002B03D18448FEF7C0FE98
:10343000F9E307F50673A3F5E8731B782B2B14D07B
:1034400007F50673A3F5E8731B782D2B0DD007F550
:103450000673A3F5E8731B782F2B12D907F50673B3
:10346000A3F5E8731B78392B0BD807F50673A3F582
:10347000E8731B78002B04D007F14803C7F8E0314C
:1034800053E007F1480304226B49184602F04CFE52
:103490000346002B0DD007F50673A3F5E8731B78E0
:1034A0006C2B06D007F50673A3F5E8731B784C2B3D
:1034B00003D1614BC7F8E4311FE007F1480305224F
:1034C0005F49184602F030FE0346002B0DD007F589
:1034D0000673A3F5E8731B78722B06D007F5067305
:1034E000A3F5E8731B78522B03D1554BC7F8E43191
:1034F00003E05248FEF75CFE95E304E0D7F8E831BC
:103500000133C7F8E831D7F8E8311B78202BF5D024
:10351000D7F8E8311B78002B03D14848FEF748FE66
:1035200081E3D7F8E831C7F8E031D7F8E001FEF7DA
:103530002BFF0346A7F8AE31B7F9AE311946D7F8DD
:10354000E401FDF72DFDB7F9AE311A46D7F8E411C5
:103550003C48FEF7A9FE66E307F1880304223A49D6
:10356000184605F029F80346002B40F04C8107F57A
:103570000673A3F505731B680433C7F8DC3104E058
:10358000D7F8DC310133C7F8DC31D7F8DC311B78F0
:10359000202BF5D004222D49D7F8DC0102F0C4FD20
:1035A0000346002B72D1D7F8DC310433C7F8D83189
:1035B00004E0D7F8D8310133C7F8D831D7F8D8317B
:1035C0001B78202BF5D007F50673A3F5F0731A4688
:1035D0000023136053609360D3600023C7F8D43195
:1035E0000FE0D7F8D821531CC7F8D831D7F8D43119
:1035F000591CC7F8D411117807F50672A2F5F072BC
:10360000D154D7F8D8311B78002B08D0D7F8D8314F
:103610001B78202B03D0D7F8D4310E2BE1DD07F532
:103620000673A3F5F072D7F8D431134400221A7050
:1036300013E000BFF8BF0008FCBF000804C000088A
:1036400028C0000830C0000850C0000858C000085A
:10365000D7F8D8310133C7F8D831D7F8D8311B782B
:10366000202BF5D00023C7F8D031D7F8D8311B78FC
:10367000002B03D0D7F8D831C7F8D03107F1380381
:10368000D7F8D0111846FEF7FBFFCCE207F506731A
:10369000A3F5F8731A460023136053609360D36058
:1036A0000023C7F8CC31D7F8DC31C7F8C8310FE0B8
:1036B000D7F8C821531CC7F8C831D7F8CC31591CEA
:1036C000C7F8CC11117807F50672A2F5F872D1543B
:1036D000D7F8C8311B78002B08D0D7F8C8311B7831
:1036E000202B03D0D7F8CC310E2BE1DD07F5067384
:1036F000A3F5F872D7F8CC31134400221A7004E015
:10370000D7F8C8310133C7F8C831D7F8C8311B78AA
:10371000202BF5D00123C7F8C4313223C7F8C031BC
:10372000D7F8C8311B78002B58D007F50673A3F5DE
:103730000473184620231A46002102F01FFD0023BF
:10374000C7F8BC310FE0D7F8C821531CC7F8C831FF
:10375000D7F8BC31591CC7F8BC11117807F50672AF
:10376000A2F50472D154D7F8C8311B78002B08D0C9
:10377000D7F8C8311B78202B03D0D7F8BC311E2BCB
:10378000E1DD07F50673A3F50472D7F8BC311344E5
:1037900000221A7007F50673A3F504731B78002B3B
:1037A0000CD007F10803184604F0FAFAC7F8C40170
:1037B00004E0D7F8C8310133C7F8C831D7F8C831A9
:1037C0001B78202BF5D0D7F8C8311B78002B05D0FB
:1037D000D7F8C80104F0E4FAC7F8C00107F506738A
:1037E000A3F5F8731B78002B09D007F12803D7F84D
:1037F000C021D7F8C4111846FFF77EF813E2BE487F
:10380000FEF7D6FC0FE207F18803BC49184604F026
:10381000A1FF0346002B40F0248180230193B84B85
:1038200000934023B64A2021B548FDF7DDFE03464C
:1038300087F8A3314FF480530193B24B00934FF4B8
:103840000063B04A4FF48061AE48FDF7CDFE0346F9
:1038500087F8A23197F8A33103F00103002B0CBFC6
:1038600001230023DBB287F8A13197F8A33103F0DD
:103870000203002B0CBF01230023DBB287F8A03129
:1038800097F8A33103F00403002B0CBF012300239E
:10389000DBB287F89F3197F9A0315B005AB297F9F4
:1038A000A13113435AB297F99F319B005BB2134386
:1038B0005BB287F89E3197F8A23103F00103002B29
:1038C0000CBF01230023DBB287F89D3197F8A231AA
:1038D00003F00203002B0CBF01230023DBB287F8A7
:1038E0009C3197F8A23103F00403002B0CBF012395
:1038F0000023DBB287F89B3197F99C315B005AB209
:1039000097F99D3113435AB297F99B319B005BB2F3
:1039100013435BB287F89A317B48FEF749FC7B483A
:10392000FEF746FC97F8A33103F0010397F8A121B5
:1039300019467748FEF7B8FC97F8A3315B08DBB26D
:1039400003F0010397F8A02119467248FEF7ACFC7A
:1039500097F8A3319B08DBB203F0010397F89F218E
:1039600019466D48FEF7A0FC97F8A33197F8A321FC
:1039700019466A48FEF798FC97F89E3197F89E2101
:1039800019466748FEF790FC6648FEF711FC97F869
:103990009E31002B03D097F89E31072B02D162484D
:1039A000FEF706FC614BDB7819466148FEF77CFCAC
:1039B0006048FEF7FDFB97F8A23103F0010397F88A
:1039C0009D2119465C48FEF76FFC97F8A2315B0811
:1039D000DBB203F0010397F89C2119465748FEF724
:1039E00063FC97F8A2319B08DBB203F0010397F860
:1039F0009B2119465248FEF757FC97F8A23197F8D9
:103A0000A22119464F48FEF74FFC97F89A3197F8D4
:103A10009A2119464C48FEF747FC4C48FEF7C8FB74
:103A200097F89A31002B03D097F89A31072B02D1DF
:103A30003D48FEF7BDFB464BDB7819464548FEF78F
:103A400033FC4548FEF7B4FB384B9B781946434896
:103A5000FEF72AFC3E4B9B7819464148FEF724FCB2
:103A6000E1E007F1880304223E49184604F0A4FD72
:103A70000346002B7CD107F50673A3F505731B687D
:103A80000433C7F8B83104E0D7F8B8310133C7F8C8
:103A9000B831D7F8B8311B78202BF5D0D7F8B8015A
:103AA00004F07EF9C7F8A401D7F8A431002B1EDD7D
:103AB000D7F8A4310A2B1ADC0023C7F8B4310AE086
:103AC0000120FDF77FF86420FDF75CFFD7F8B431E3
:103AD0000133C7F8B431D7F8B421D7F8A4319A42EA
:103AE000EEDBD7F8A4112048FEF7DEFB9BE01F4871
:103AF000FEF75EFB97E000BF60C00008B0C00008A2
:103B0000000C014000100140B8C00008D8C00008F7
:103B1000FCC0000830C1000864C1000898C100085A
:103B2000C8C10008F0C100080CC200081C02002037
:103B300060C200087CC20008A4C20008D8C2000805
:103B40000CC3000840C3000874C300089CC30008ED
:103B500028020020BCC30008D8C300080CC4000819
:103B60002CC4000850C4000858C4000864C40008ED
:103B700007F1880306222E49184604F01DFD03466E
:103B8000002B30D107F50673A3F505731B680633C8
:103B9000C7F8B03104E0D7F8B0310133C7F8B0311D
:103BA000D7F8B0311B78202BF5D0D7F8B00104F04E
:103BB000F7F8C7F8A801D7F8A831002B0FDDD7F820
:103BC000A8310A2B0BDCD7F8A831DBB21846FCF77A
:103BD000F9FFD7F8A8111748FEF766FB23E016484F
:103BE000FEF7E6FA1FE007F188031449184604F0CF
:103BF000B1FD0346002B09D11148FEF7D9FA4FF465
:103C00007A70FDF7BFFEFEF725FA0CE007F50673A4
:103C1000A3F5057319680B48FEF746FB0A48FEF743
:103C2000C7FA00E000BF07F50677BD4680BD00BFBC
:103C300078C4000880C4000898C40008B0C4000814
:103C4000B8C40008D8C40008F0C4000880B582B029
:103C500000AF3249324801F00AFD0346002B0CD078
:103C60002F4801F082FC0346FB71FB791846FEF7F2
:103C700037FB2A492A4801F02EFD0321284801F08C
:103C800084FC0346002B03D00321254801F099FC56
:103C90002449234801F0EBFC0346002B2FD0224B94
:103CA0001B889BB2002B20D0204B1B889BB21A464E
:103CB0001F4B9B5C19461A4801F046FC1B4B1B88A6
:103CC0009BB201339AB2194B1A80184B1B889BB2D6
:103CD000B3F5007F02D3154B00221A80124B1B88CC
:103CE0009BB2013B9AB2104B1A800F4B1B889BB2C0
:103CF000002B04D140F20731094801F098FC0D492E
:103D0000074801F0B4FC0346002B03D009490448DE
:103D100001F0E1FC00BF0837BD4680BD050305008A
:103D200000480040070307007C0500207A050020BA
:103D3000780300200603060080B584B000AFF86069
:103D4000B9607A607B689BB21946B868FEF749FA99
:103D50007B6818461037BD4680BD000080B500AFB7
:103D60004FF4006303221021064800F03BF84FF4A3
:103D70000061044800F0E8F8034B00221A7000BF0D
:103D800080BD00BF000801407E05002080B500AF67
:103D90004FF40061054800F0C8F8054B01221A7085
:103DA000044802F0A7F800BF80BD00BF0008014032
:103DB0007E05002018C5000880B500AF4FF40061F3
:103DC000054800F0C1F8054B00221A70044802F0C3
:103DD00091F800BF80BD00BF000801407E050020B3
:103DE0003CC5000880B489B000AFF860B9607A6063
:103DF0003B600023BB6100237B61BB6803F00F03C2
:103E0000BB61BB6803F01003002B03D0BA697B6869
:103E10001343BB610023FB8339E0FB8B01229A40F3
:103E20003B681340002B2FD0FB681B687B61FB8B2A
:103E30009B000F2202FA03F3DB437A6913407B6194
:103E4000FB8B9B00BA6902FA03F37A6913437B6127
:103E5000BB68282B09D1FB8B01229A40FB681433E5
:103E600019463B6813400B600BE0BB68482B08D138
:103E7000FB8B01229A40FB68103319463B681340C4
:103E80000B60FB687A691A60FB8B0133FB83FB8B49
:103E9000072BC2D90823FB833EE0FB8B01229A400B
:103EA0003B681340002B34D0FB6804331B687B61F4
:103EB000FB8B083B9B000F2202FA03F3DB437A697A
:103EC00013407B61FB8B083B9B00BA6902FA03F34A
:103ED0007A6913437B61BB68282B09D1FB8B0122D4
:103EE0009A40FB68143319463B6813400B600BE0A3
:103EF000BB68482B08D1FB8B01229A40FB6810332A
:103F000019463B6813400B60FB6804331A467B6913
:103F10001360FB8B0133FB83FB8B0F2BBDD900BFE1
:103F200000BF2437BD4680BC704780B483B000AF6B
:103F3000786039607B6810331A463B68136000BFB5
:103F40000C37BD4680BC704780B483B000AF78604A
:103F500039607B6814331A463B68136000BF0C3726
:103F6000BD4680BC704780B483B000AF78603960D4
:103F70007B6808331A683B681340002B01D001238B
:103F800000E0002318460C37BD4680BC7047000097
:103F900080B487B000AF78600B46FB7000233B61B4
:103FA0000023FB6000237B610023BB607B68002B48
:103FB00003DA2E4B1B687B6102E02D4B1B687B6193
:103FC0007B681B0C03F00F03BB607B689BB23B61FB
:103FD0007B6803F44013B3F5401F0AD17B6923F0DB
:103FE00070637B61224B1B68214A23F0706313606E
:103FF00021E07B6803F48013002B0ED00322BB6802
:1040000002FA03F3FB60FB68DB437A6913407B61D0
:104010007B6943F070637B610DE07B685B0D1B0186
:104020003A6902FA03F3DB437A6913407B617B69E7
:1040300043F070637B61FB78002B08D07B685B0DDD
:104040001B013A6902FA03F37A6913437B617B68C7
:10405000002B03DA054A7B69136002E0044A7B699E
:10406000136000BF1C37BD4680BC70471C00014078
:104070000400014080B483B000AF0346FB80FB889E
:104080009B099BB203F1804303F504331968FB8855
:1040900003F01F0301229A40FB889B099BB203F1A6
:1040A000804303F50433184641EA0203036000BF6E
:1040B0000C37BD4680BC704780B483B000AF034668
:1040C000FB80FB889B099BB203F1804303F504331B
:1040D0001968FB8803F01F0301229A40FB889B09A3
:1040E0009BB203F1804303F50433184641EA02030F
:1040F000036000BF0C37BD4680BC704780B483B0FE
:1041000000AF0346FB80FB889B099BB203F1804311
:1041100003F504331968FB8803F01F03012202FA38
:1041200003F3DA43FB889B099BB203F1804303F559
:104130000433184601EA0203036000BF0C37BD4692
:1041400080BC704780B485B000AF7860084B1B68B6
:10415000FB60FB6823F00303FB600549FA687B689A
:1041600013430B6000BF1437BD4680BC704700BFCF
:104170000410024080B400AF034B1B6803F00C0333
:104180001846BD4680BC70470410024080B485B01C
:1041900000AF7860084B1B68FB60FB6823F0F003FE
:1041A000FB600549FA687B6813430B6000BF143756
:1041B000BD4680BC704700BF0410024080B485B08B
:1041C00000AF7860084B1B68FB60FB6823F4E0637A
:1041D000FB600549FA687B6813430B6000BF143726
:1041E000BD4680BC704700BF0410024080B485B05B
:1041F00000AF7860084B1B68FB60FB6823F46053DA
:10420000FB600549FA687B6813430B6000BF1437F5
:10421000BD4680BC704700BF0410024080B485B02A
:1042200000AF786039600023FB600B4B1B68FB60BC
:10423000FB6823F0036323F45023FB607A683B6838
:104240001343FA681343FB60034AFB68136000BF23
:104250001437BD4680BC70470410024080B485B05E
:1042600000AF7860184B1B68FB60FB6823F080533D
:1042700023F44043FB607B68072B0FD07B68072B40
:1042800018D87B68032B03D97B68052B06D011E077
:104290007B689B03FA681343FB600CE07B6823F0A8
:1042A00004037B607B689A03FB68134343F08053ED
:1042B000FB6000E000BF044AFB68136000BF1437D6
:1042C000BD4680BC704700BF0410024080B483B07C
:1042D00000AF0346FB80FB889B099BB203F1804340
:1042E00003F504331A68FB8803F01F0322FA03F373
:1042F00003F00103002B01D0012300E00023184646
:104300000C37BD4680BC704780B400AF044B1B68BF
:10431000034A43F08073136000BFBD4680BC704702
:104320002410024080B584B000AF0346FB80002318
:10433000FB600023FB720023BB72FB88B3F5106F98
:1043400069D0B3F5106F00F38F80B3F5006F2FD0F5
:10435000B3F5006F00F38880182B75D0182B00F38D
:104360008380002B3ED0102B7ED107E01120FFF779
:10437000ADFF0346BB72FB680133FB60BB7A002BC9
:1043800004D1FB684FF6FF729342EFD11120FFF783
:104390009DFF0346002B69D00123FB7266E040F6C7
:1043A0000100FFF793FF0346BB72FB680133FB601C
:1043B000BB7A002B04D1FB686FF07C429342EED1B4
:1043C00040F60100FFF782FF0346002B50D0012387
:1043D000FB724DE00120FFF779FF0346BB72FB68DB
:1043E0000133FB60BB7A002B03D1FB68B3F5A06FF0
:1043F000F0D10120FFF76AFF0346002B3AD00123DA
:10440000FB7237E040F60110FFF760FF0346BB7216
:10441000FB680133FB60BB7A002B03D1FB681A4AAF
:104420009342EFD140F60110FFF750FF0346002BF7
:1044300022D00123FB721FE01920FFF747FF03463C
:10444000BB72FB680133FB60BB7A002B03D1FB68B6
:104450000D4A9342F0D11920FFF738FF0346002B95
:104460000CD00123FB7209E000BF08E000BF06E0AA
:1044700000BF04E000BF02E000BF00E000BFFB7A25
:1044800018461037BD4680BDFFFF0F0080B483B0D3
:1044900000AF0346FB80FB889B099BB203F180437E
:1044A00003F504331968FB8803F01F0301229A40C7
:1044B000FB889B099BB203F1804303F50433184644
:1044C00041EA0203036000BF0C37BD4680BC704761
:1044D00080B582B000AF78607B68424A934273D067
:1044E0007B68404A934278D87B683F4A93422CD0FD
:1044F0007B683D4A934270D87B683C4A93425AD0CD
:104500007B683A4A934268D87B68394A934249D0DB
:104510007B68374A934260D87B68364A934238D0EA
:104520007B68344A934258D87B68334A934227D0F9
:104530007B68314A934250D87B68B3F1804F0DD0ED
:104540007B682E4A934212D047E040F20B30FFF7CF
:10455000B3FD40F20B30FFF7D1FD3FE04FF4806038
:10456000FFF7AAFD4FF48060FFF7C8FD36E040F288
:104570000140FFF7A1FD40F20140FFF7BFFD2DE034
:1045800040F20240FFF798FD40F20240FFF7B6FD0F
:1045900024E040F20340FFF78FFD40F20340FFF7B5
:1045A000ADFD1BE040F20440FFF786FD40F2044001
:1045B000FFF7A4FD12E040F20540FFF77DFD40F259
:1045C0000540FFF79BFD09E040F20D30FFF774FD59
:1045D00040F20D30FFF792FD00E000BF00BF08374A
:1045E000BD4680BD00340140002C01400014004055
:1045F00000100040000C0040000800400004004093
:1046000080B483B000AF786039603B681A887B68FB
:1046100028331A607B683F4A93422BD07B68B3F102
:10462000804F27D07B683C4A934223D07B683B4A2B
:1046300093421FD07B683A4A93421BD07B68394A29
:10464000934217D07B68384A934213D07B68374A2D
:1046500093420FD07B68364A93420BD07B68354A31
:10466000934207D07B68344A934203D07B68334A35
:10467000934217D17B681A687B6822F070021A6037
:104680007B6819683B685B8803F060027B680A43BB
:104690001A607B6819683B689B8803F010027B688E
:1046A0000A431A607B682C331A463B689B68136088
:1046B0007B68234A934212D07B68224A93420ED0F1
:1046C0007B681A687B6822F440721A607B681968FC
:1046D0003B689B8903F440727B680A431A607B68DD
:1046E0000C4A934203D07B680E4A934204D13B6844
:1046F0009A7B7B6830331A607B6814331B687A6856
:10470000143243F00103136000BF0C37BD4680BC78
:10471000704700BF002C014000040040000800402A
:10472000000C004000340140004C014000500140AA
:104730000054014000180040001C004000200040D0
:10474000001000400014004080B483B000AF7860D7
:104750007B681A687B6842F001021A6000BF0C3760
:10476000BD4680BC704780B483B000AF78607B6882
:104770001A687B6822F001021A6000BF0C37BD4640
:1047800080BC704780B483B000AF786039603B680C
:104790001A883B685B8813439AB23B689B88134333
:1047A0009AB23B68DB8813439AB23B681B89134378
:1047B0009AB23B685B8913439AB23B689B89134367
:1047C0009AB27B6844331A6000BF0C37BD4680BC88
:1047D0007047000080B485B000AFF8600B467A6087
:1047E0007B817B89032B00F2D08101A252F823F058
:1047F00001480008FD480008014A0008FD4A000879
:10480000FB6820331B68FA68203223F00103136031
:10481000FB6818331B68FA68183223F0030313602F
:10482000FB6820331B687A6812881146FA682032C8
:104830000B431360FB6820331B68FA68203223F0B7
:1048400002031360FB6820331B687A689288114664
:10485000FA6820320B431360FB68674A934204D026
:10486000FB68664A934240F09281FB6820331B68E4
:10487000FA68203223F004031360FB6820331B68BE
:104880007A6852881146FA6820320B431360FB683D
:1048900020331B68FA68203223F008031360FB689A
:1048A00020331B687A68D2881146FA6820320B439D
:1048B0001360FB6804331B68FA68043223F48073C6
:1048C0001360FB6804331B687A6812891146FA6822
:1048D00004320B431360FB6804331B68FA6804322C
:1048E00023F400731360FB6804331B687A685289F1
:1048F0001146FA6804320B43136048E1FB68203329
:104900001B68FA68203223F010031360FB68183329
:104910001B68FA68183223F440731360FB68203375
:104920001A687B681B881B01F968203113430B60F0
:10493000FB6820331B68FA68203223F020031360E1
:10494000FB6820331A687B689B881B01F96820315B
:1049500013430B60FB68284A934204D0FB68274A44
:10496000934240F01681FB6820331B68FA682032BE
:1049700023F040031360FB6820331A687B685B8870
:104980001B01F968203113430B60FB6820331B685F
:10499000FA68203223F080031360FB6820331A6822
:1049A0007B68DB881B01F968203113430B60FB68CF
:1049B00004331B68FA68043223F480631360FB68D5
:1049C00004331A687B681B899B00F9680431134320
:1049D0000B60FB6804331B68FA68043223F400633D
:1049E0001360FB6804331A687B685B899B00F96875
:1049F000043113430B60CCE0002C01400034014033
:104A0000FB6820331B68FA68203223F4807313603C
:104A1000FB681C331B68FA681C3223F00303136025
:104A2000FB6820331A687B681B881B02F9682031F9
:104A300013430B60FB6820331B68FA68203223F4B1
:104A400000731360FB6820331A687B689B881B0225
:104A5000F968203113430B60FB68534A934204D03A
:104A6000FB68524A934240F09680FB6820331B68F3
:104A7000FA68203223F480631360FB6820331A68DD
:104A80007B685B881B02F968203113430B60FB686D
:104A900020331B68FA68203223F400631360FB683C
:104AA00020331A687B68DB881B02F96820311343C6
:104AB0000B60FB6804331B68FA68043223F48053EC
:104AC0001360FB6804331A687B681B891B01F96853
:104AD000043113430B60FB6804331B68FA6804322B
:104AE00023F400531360FB6804331A687B685B8906
:104AF0001B01F968043113430B604CE0FB68203361
:104B00001B68FA68203223F480531360FB681C335F
:104B10001B68FA681C3223F440731360FB6820336F
:104B20001A687B681B881B03F968203113430B60EC
:104B3000FB6820331B68FA68203223F400531360AB
:104B4000FB6820331A687B689B881B03F968203157
:104B500013430B60FB68144A934203D0FB68134A6B
:104B600093421AD1FB6804331B68FA68043223F4B9
:104B700080431360FB6804331A687B681B899B01C0
:104B8000F968043113430B6007E000BF06E000BF83
:104B900004E000BF02E000BF00E000BF00BF143728
:104BA000BD4680BC704700BF002C0140003401406E
:104BB00080B483B000AF78600B467B8013463B80A7
:104BC0007B88032B50D801A252F823F0DD4B00085C
:104BD000FF4B0008234C0008454C00087B68183345
:104BE0001B687A68183223F0700313607B681833EF
:104BF0001A683B887968183113430B6035E07B688D
:104C000018331B687A68183223F4E04313607B681A
:104C100018331A683B881B027968183113430B60FC
:104C200023E07B681C331B687A681C3223F0700316
:104C300013607B681C331A683B8879681C31134306
:104C40000B6012E07B681C331B687A681C3223F40B
:104C5000E04313607B681C331A683B881B02796849
:104C60001C3113430B6000E000BF00BF0C37BD4692
:104C700080BC704780B483B000AF78600B467B8007
:104C800013463B807B88032B22D801A252F823F0E5
:104C9000A14C0008AD4C0008B94C0008C54C0008F8
:104CA0007B6834331A463B88136012E07B683833E4
:104CB0001A463B8813600CE07B683C331A463B88FD
:104CC000136006E07B6840331A463B88136000E0BF
:104CD00000BF00BF0C37BD4680BC704780B483B0B6
:104CE00000AF786039607B680C331A687B680C33DE
:104CF00019463B6813430B6000BF0C37BD4680BCB0
:104D0000704780B485B000AF786039607B680C3341
:104D10001B683A681340FB607B6810331A683B6875
:104D20001340002B04D0FB68002B01D0012300E0CE
:104D3000002318461437BD4680BC704780B483B04A
:104D400000AF786039607B6810331A463B68DB43FC
:104D5000136000BF0C37BD4680BC704780B582B081
:104D600000AF78607B68184A93421ED07B68164A71
:104D7000934223D87B68154A934204D07B68144A37
:104D8000934209D01AE040F20930FFF795F940F25A
:104D90000930FFF7B3F912E040F20A30FFF78CF95F
:104DA00040F20A30FFF7AAF909E040F20F30FFF7AE
:104DB00083F940F20F30FFF7A1F900E000BF00BF18
:104DC0000837BD4680BD00BF003C014000240140C3
:104DD0000028014080B483B000AF7860084B1B68A6
:104DE000074A23F470231360054B1A6804497B6853
:104DF00013430B6000BF0C37BD4680BC704700BF3B
:104E00000424014080B485B000AFF860B960134657
:104E1000FB71FB79002B27D0BB6803F48073002B58
:104E200007D0FB6804331B68FA68043243F48073CC
:104E30001360BB6803F48063002B07D0FB68043366
:104E40001B68FA68043243F480631360BB6803F0A4
:104E50000203002B2FD0FB6808331B68FA68083266
:104E600043F00203136026E0BB6803F48073002B59
:104E700007D0FB6804331B68FA68043223F480739C
:104E80001360BB6803F48063002B07D0FB68043316
:104E90001B68FA68043223F480631360BB6803F074
:104EA0000203002B07D0FB6808331B68FA6808323E
:104EB00023F00203136000BF1437BD4680BC704767
:104EC00080B483B000AF786039603B68002B08D0B5
:104ED0007B6808331B687A68083243F40063136008
:104EE00007E07B6808331B687A68083223F40063A4
:104EF000136000BF0C37BD4680BC704780B483B0E0
:104F000000AF78607B6808331B6803F00103002B57
:104F100007D17B6808331B687A68083243F00103C5
:104F2000136000BF0C37BD4680BC704780B483B0AF
:104F300000AF78607B6808331B687A68083223F01A
:104F40000103136000BF0C37BD4680BC704780B4BE
:104F500083B000AF78607B6808331B687A680832DA
:104F600043F00803136000BF7B6808331B6803F03D
:104F70000803002BF8D17B6808331B687A68083275
:104F800043F00403136000BF7B6808331B6803F021
:104F90000403002BF8D100BF00BF0C37BD4680BC16
:104FA000704780B483B000AF78607B6808331B68BB
:104FB0007A68083243F48073136000BF0C37BD4633
:104FC00080BC704780B483B000AF78600B46FB7044
:104FD0001346BB70BB78002B1AD0FB7803F001039B
:104FE000002B07D07B6808331B687A68083243F4CB
:104FF00080131360FB7803F00203002B22D07B6840
:1050000008331B687A68083243F40043136019E0E0
:10501000FB7803F00103002B07D07B6808331B6883
:105020007A68083223F480131360FB7803F00203DC
:10503000002B07D07B6808331B687A68083223F49A
:105040000043136000BF0C37BD4680BC704780B47E
:1050500083B000AF78600B46FB70FB7803F0010370
:10506000002B07D07B6808331B687A68083243F44A
:1050700080031360FB7803F00203002B07D07B68EA
:1050800008331B687A68083243F40013136000BFCA
:105090000C37BD4680BC704780B582B000AF7860E9
:1050A0000B46FB70FB781946786800F033FA03462C
:1050B000002B01D100BFFDE7FA7813469B00134493
:1050C0009B001A467B68134408331968FA78134624
:1050D0009B0013449B001A467B68134408331A460E
:1050E00021F001031360FA7813469B0013449B00E0
:1050F0001A467B68134408331A4600231360FA7873
:1051000013469B0013449B001A467B6813440C33E0
:105110001A4600231360FA7813469B0013449B0041
:105120001A467B68134410331A4600231360FA783A
:1051300013469B0013449B001A467B6813441433A8
:105140001A46002313607B6804331A68FB789B00BF
:105150000F2101FA03F37968043113430B6000BF98
:105160000837BD4680BD80B586B000AFF8600B46FD
:105170007A60FB72FB7A1946F86800F0CBF90346B7
:10518000002B01D100BFFDE7FA7A13469B001344C0
:105190009B001A46FB68134410331A467B681B6851
:1051A0001360FA7A13469B0013449B001A46FB686F
:1051B000134414331A467B689B6813607B68196933
:1051C000FA7A13469B0013449B001A46FB6813446B
:1051D0000C331A468BB21360FA7A13469B001344C1
:1051E0009B001A46FB68134408331B687B617B698C
:1051F00023F47C537B617B685A687B68DB681A43C5
:105200007B685B6913437A6913437B61FA7A1346BF
:105210009B0013449B001A46FB68134408331A464C
:105220007B6913607B681B7E012B17D1FA7A1346CA
:105230009B0013449B001A46FB681344083319680B
:10524000FA7A13469B0013449B001A46FB681344EA
:1052500008331A4641F04003136016E0FA7A134609
:105260009B0013449B001A46FB68134408331968DB
:10527000FA7A13469B0013449B001A46FB681344BA
:1052800008331A4621F0400313607B685B7E012BD4
:1052900017D1FA7A13469B0013449B001A46FB6809
:1052A000134408331968FA7A13469B0013449B0091
:1052B0001A46FB68134408331A4641F08003136012
:1052C00016E0FA7A13469B0013449B001A46FB68CB
:1052D000134408331968FA7A13469B0013449B0061
:1052E0001A46FB68134408331A4621F08003136002
:1052F0007B689B7E002B17D1FA7A13469B001344E0
:105300009B001A46FB68134408331968FA7A13465F
:105310009B0013449B001A46FB68134408331A464B
:1053200021F01003136016E0FA7A13469B00134431
:105330009B001A46FB68134408331968FA7A13462F
:105340009B0013449B001A46FB68134408331A461B
:1053500041F01003136000BF1837BD4680BD80B513
:1053600082B000AF78600B46FB70FB781946786816
:1053700000F0D0F80346002B01D100BFFDE7FA781A
:1053800013469B0013449B001A467B681344083362
:105390001968FA7813469B0013449B001A467B68F1
:1053A000134408331A4641F02003136000BF083746
:1053B000BD4680BD80B582B000AF78600B46FB7003
:1053C000FB781946786800F0A5F80346002B01D158
:1053D00000BFFDE7FA7813469B0013449B001A4672
:1053E0007B68134408331968FA7813469B0013440A
:1053F0009B001A467B68134408331A4641F00103A8
:10540000136000BF0837BD4680BD80B487B000AFD1
:10541000F8600B467A60FB7200237B6100233B61DE
:105420007B68082B37D07B68082B4CD87B68022B15
:1054300003D07B68042B17D045E0FB681A68FB7A21
:105440009B00796801FA03F313403B61FA7A134633
:105450009B0013449B001A46FB68134408331B68E7
:1054600003F002037B612FE0FB681A68FB7A9B0064
:10547000796801FA03F313403B61FA7A13469B0003
:1054800013449B001A46FB68134408331B6803F05F
:1054900004037B6118E0FB681A68FB7A9B0079685B
:1054A00001FA03F313403B61FA7A13469B0013445D
:1054B0009B001A46FB68134408331B6803F008037B
:1054C0007B6101E0FFE7FDE73B69002B04D07B69CE
:1054D000002B01D0012300E0002318461C37BD46F5
:1054E00080BC704780B485B000AFF8600B467A602E
:1054F000FB72FB6804331A68FB7A9B00796801FA37
:1055000003F3F968043113430B6000BF1437BD4641
:1055100080BC704780B485B000AF78600B46FB70EC
:105520000123FB737B68074A934204D1FB78042B69
:1055300001D90023FB73FB7B18461437BD4680BCA2
:10554000704700BF0004024080B483B000AF7860B1
:105550000B467B807B887A680432C3F308031360B0
:1055600000BF0C37BD4680BC704780B483B000AF2D
:1055700078607B6804331B689BB2C3F308039BB25B
:1055800018460C37BD4680BC704780B483B000AF6E
:1055900078600B46FB70FB789A097B6813441A68A5
:1055A000FB7803F01F0322FA03F303F00103002B3F
:1055B00001D0012300E0002318460C37BD4680BC13
:1055C000704780B483B000AF78600B46FB70FB7807
:1055D00003F01F03012202FA03F3FA7891097A68B3
:1055E0000A44DB43136000BF0C37BD4680BC7047E4
:1055F00080B483B000AF786039603B689B09C3F327
:1056000009027B6813441A683B6803F01F030121F9
:1056100001FA03F339688909C1F309007968014483
:1056200013430B6000BF0C37BD4680BC704780B48D
:1056300083B000AF786039603B689B09C3F309020F
:105640007B6813441A683B6803F01F03012101FAC9
:1056500003F3DB4339688909C1F309007968014420
:1056600013400B6000BF0C37BD4680BC704780B450
:1056700085B000AF786039600023FB600023BB6019
:105680003B689B09C3F309027B6813441A683B68B3
:1056900003F01F03012101FA03F31340FB603B6891
:1056A0009A0D7B6813441A683B681B0C03F01F03B8
:1056B000012101FA03F31340BB60BB68002B04D047
:1056C000FB68002B01D0012300E0002318461437AB
:1056D000BD4680BC704780B483B000AF786039604D
:1056E0003B681B0C03F01F03012202FA03F33A6824
:1056F000910D7A680A44DB43136000BF0C37BD4646
:1057000080BC704780B400AF034B4CF6CC421A60AB
:1057100000BFBD4680BC70470030004080B400AF81
:10572000034B4AF6AA221A6000BFBD4680BC7047F0
:105730000030004080B485B000AF03460A46FB80CD
:1057400013467B71204BFB600023BB601F4B45F26F
:1057500055521A601E4B1B6803F00103BB60FB68C7
:10576000013BFB60FB68002B02D0BB68002BF1D132
:10577000BB68002B01D0002321E0164A7B7913601F
:10578000114BFB60124B1B6803F00203BB60FB680C
:10579000013BFB60FB68002B02D0BB68002BF1D102
:1057A000BB68002B01D0002309E0FB880A4AC3F341
:1057B0000B031360054B4AF6AA221A600123184610
:1057C0001437BD4680BC7047FFFF0F00003000401B
:1057D0000C300040043000400830004080B485B0F8
:1057E00000AF7860084B1B68FB60FB6823F0070381
:1057F000FB600549FA687B6813430B6000BF1437F0
:10580000BD4680BC704700BF0020024080B500AF9D
:105810000020FEF73BFE00BF0020FEF783FD03469D
:10582000002BF9D00020FEF7B1FC4FF48060FEF7AA
:10583000C5FC0020FEF7DAFC0F490020FEF7EEFC65
:105840001820FEF723FE00BF1820FEF76BFD03466D
:10585000002BF9D00220FFF7C1FF0220FEF772FCF7
:1058600000BFFEF787FC0346082BFAD1034B044A1E
:105870001A6000BF80BD00BF0000040810000020B7
:1058800000A24A0480B500AFFFF7C0FF00BF80BD93
:10589000002103E00B4B5B58435004310A480B4B8B
:1058A00042189A42F6D30A4A02E0002313600432F7
:1058B000084B9A42F9D3FFF7E5FF00F0AFFAFAF789
:1058C00037FC7047E0C8000800000020DC01002021
:1058D000DC010020CC060020FEE7000030B51B4CA8
:1058E000002924689BB02BDB4FF00005009004904A
:1058F0004FF402701995ADF80C004FF6FF7511D0FA
:1059000001390291059120466946ADF80E5000F02C
:105910006DF9421C01DA8B2323600022009B1A7070
:105920001BB030BD0291059120466946ADF80E507E
:1059300000F05CF9431C01DA8B2323601BB030BDFF
:105940008B234FF0FF302360F8E700BF14000020E6
:1059500030B51446002C05469BB02CDB1A4600914E
:105960004FF4027304914FF000014FF6FF7C199140
:10597000ADF80C3011D0013C69461E9B0294059491
:10598000ADF80EC000F032F9421C01DA8B232B6017
:105990000022009B1A701BB030BD1E9B694602940A
:1059A0000594ADF80EC000F021F9431C01DA8B23F9
:1059B0002B601BB030BD8B234FF0FF302B60F8E71E
:1059C00020F0030110F00300C0F1000051F8043B87
:1059D00000F1040C4FEACC0C6FF000021CBF22FA5D
:1059E0000CF213434FF0010C4CEA0C2C4CEA0C4C1B
:1059F000A3EB0C0222EA030212EACC1204BF51F814
:105A0000043B0430F4D0C2F1000102EA0102B2FA10
:105A100082F2C2F11F0200EBD20070472DE9F0477D
:105A20001D468F680C46AF4216460B6836D8B1F952
:105A30000CC01CF4906F0ED13D46184631462A46E4
:105A400002F030F90020A368DF1B2368A7602B4415
:105A50002360BDE8F0874A69096902EB42025F1AD8
:105A600002EBD2726B1C52103B44934292BF9146A0
:105A700099461A461CF4806F804611D0114601F0F9
:105A800039F8824600B33A46216902F0CFFAA38979
:105A900023F4906343F08003A38105E02F46CCE715
:105AA00002F080FB824658B10AEB0703A9EB070717
:105AB000A760C4F810A02F46C4F814902360BCE778
:105AC0004046216902F090F80C22A3894FF0FF3084
:105AD00043F04003C8F80020A381BAE72DE9F04F56
