:020000040800F2
:1000000000280020B1010008DF010008DF0100081E
:10001000DF010008DF010008DF0100080000000028
:10002000000000000000000000000000DF010008E8
:10003000DF01000800000000DF0100086103000884
:10004000DF010008DF010008DF010008DF01000810
:10005000DF010008DF010008DF010008DF01000800
:10006000DF010008DF010008DF010008DF010008F0
:10007000DF010008DF010008DF010008DF010008E0
:10008000DF010008DF010008DF010008DF010008D0
:10009000DF010008DF010008DF010008DF010008C0
:1000A000DF010008DF010008DF010008DF010008B0
:1000B000DF010008DF010008DF010008DF010008A0
:1000C000DF010008DF010008DF010008DF01000890
:1000D000DF010008DF010008DF010008DF01000880
:1000E000DF010008DF010008DF010008DF01000870
:1000F000DF010008DF010008DF010008DF01000860
:10010000DF010008DF010008DF010008DF0100084F
:10011000DF010008DF010008DF010008DF0100083F
:10012000DF010008DF010008DF010008DF0100082F
:10013000DF010008DF010008DF010008DF0100081F
:10014000DF010008DF010008DF010008DF0100080F
:10015000DF010008DF010008DF010008DF010008FF
:10016000DF010008DF010008DF010008DF010008EF
:10017000DF010008DF010008DF010008DF010008DF
:10018000DF010008DF010008DF010008DF010008CF
:10019000DF010008DF010008DF010008DF010008BF
:1001A000DF010008DF010008DF010008DF010008AF
:1001B000DFF82CD00B480C490C4A914204DA50F875
:1001C000043B41F8043BF8E709480A490022884209
:1001D00002DA40F8042BFAE700F00EF8FEE7FEE73B
:1001E00000280020701200080000002050000020AD
:1001F000500000209C01002080B58EB000AF00F0C0
:1002000053F800F0BBF800F0D5F800F093F81F4861
:1002100000F012F91E4800F00FF964237B630023FD
:100220003B631C4B1A683B6BD31A7A6B9A4216D805
:10023000194B1B68184A83F400531360154B1B6855
:100240003B637B6B64337B63124B1A683B1D134922
:10025000184600F02FF93B1D184600F0EDF8104B42
:100260001B6803F02003002BDBD00E4B1B6887F8C4
:100270002F3000BF0A4B1B6803F08003002BF9D01E
:10028000084A97F82F301360CBE700BFC811000869
:10029000F0110008500000200C100140141200085A
:1002A000003801400438014080B400AF1E4B1B6889
:1002B0001D4A43F00103136000BF1B4B1B6803F092
:1002C0000203002BF9D0194B1B6823F00703174AD0
:1002D00043F002031360164B1B6823F47413144A93
:1002E00043F460131360104B1B680F4A43F0807394
:1002F000136000BF0C4B1B6803F00073002BF9D098
:100300000B4B1B6823F00303094A43F002031360FD
:1003100000BF074B1B6803F00C03082BF9D100BF8B
:1003200000BFBD4680BC7047001002400020024064
:100330000410024080B400AF064B4FF6FF121A6063
:10034000054B00221A60054B07221A6000BFBD460C
:1003500080BC704714E000E018E000E010E000E02E
:1003600080B400AF044B1B680133034A136000BF25
:10037000BD4680BC704700BF5000002080B400AF75
:100380000A4B1B68094A43F010031360084B1B68B3
:10039000074A23F470031360054B1B68044A43F4B7
:1003A0004013136000BFBD4680BC70471810024068
:1003B0000410014080B400AF0F4B1B680E4A43F499
:1003C000804343F0040313600C4B1B680B4A23F477
:1003D0007F631360094B1B68084A43F496631360FC
:1003E000074B4FF40B721A60064B42F20C021A6074
:1003F00000BFBD4680BC7047181002400408014091
:10040000083801400C38014080B483B000AF034687
:10041000FB7100BF064B1B6803F08003002BF9D073
:10042000044AFB79136000BF0C37BD4680BC70479F
:10043000003801400438014080B582B000AF7860D8
:1004400006E07B685A1C7A601B781846FFF7DCFFD1
:100450007B681B78002BF4D100BF00BF0837BD4676
:1004600080BD80B483B000AF78604FF0FF33184692
:100470000C37BD4680BC70470CB470B50C460025E7
:100480006FF000469CB00A4A20AB059253F8042B4B
:1004900002A9CDE901341B9504960796069400F055
:1004A00013F9029B1D701CB0BDE8704002B070478C
:1004B0000802FFFF0EB470B504466FF00046002539
:1004C0009DB00B4A21AB0B49106853F8042B0591E2
:1004D00002A9CDE90134049607961B95069400F015
:1004E000F3F8029B1D701DB0BDE8704003B070476B
:1004F000000000200802FFFF2DE9F0471D468F682D
:100500000C46AF4216460B6836D8B1F90CC01CF445
:10051000906F0ED13D46184631462A4600F0F0FA5B
:100520000020A368DF1B2368A7602B442360BDE87D
:10053000F0874A69096902EB42025F1A02EBD27244
:100540006B1C52103B44934292BF914699461A4607
:100550001CF4806F804611D0114600F0F3F98246FA
:1005600000B33A46216900F049FBA38923F4906364
:1005700043F08003A38105E02F46CCE700F0B4FBF5
:10058000824658B10AEB0703A9EB0707A760C4F836
:1005900010A02F46C4F814902360BCE740462169A0
:1005A00000F050FA0C22A3894FF0FF3043F04003D3
:1005B000C8F80020A381BAE72DE9F04F936883B013
:1005C000924617680190002B76D04FF0000B0C4636
:1005D0005D468B680A6848E0B4F90CC01CF4906F63
:1005E0002FD0D4E90403A2EB000803EB430202EB93
:1005F000D27208F1010152102944914292BF9146F2
:1006000089460A461CF4806F39D01146019800F0E3
:1006100099F9064600283DD04246216900F0EEFADD
:10062000A28922F4906242F08002A28106EB0800C7
:10063000A9EB08022661A8462E46A2602060C4F8F5
:1006400014903246594600F05BFADAF80810A368B5
:100650002268A3EB08033244491BA3602260CAF856
:10066000081049B3D7E900B5083798461046002D61
:10067000F8D09D421E46AFD2A8462E46E1E701467D
:10068000019800F031FB06460028CFD1019821697E
:1006900000F0D8F90C21A389019D43F040032960A3
:1006A0000022A3814FF0FF300023CAF80820CAF8C7
:1006B000043003B0BDE8F08F00200023CAF80430F6
:1006C00003B0BDE8F08F00BF2DE9F04F1C468B89C9
:1006D00089461D06824693469DB003D50B69002BC3
:1006E00000F0EE80002343F2200209939BF80030D3
:1006F00001277C4E0394ADF82920002B71D05D4674
:1007000003E015F8013F002B73D0252BF9D1B5EB91
:100710000B0471D12A78002A63D000234FF0FF32F6
:100720000135CDE90523049307938DF853301A93CF
:1007300006E02546049B801B07FA00F00343049360
:100740002C46052214F8011B304600F0D7FCA346C6
:100750000028EED1049BD90644BF20228DF85320F7
:100760001A0748BF2B22297848BF8DF853202A2921
:100770004FD1039A11680432002903927BDB079161
:1007800069782E295BD0584C0322204600F0B6FC35
:1007900038B14022049B001B824013430BF1010B34
:1007A00004931BF8011B062250488DF8281000F016
:1007B000A5FC002865D04E4B002B55D003A9009115
:1007C0004A4650464B4B04A9AFF300808046B8F12F
:1007D000FF3F06D0099B434409939BF80030002B50
:1007E0008DD1B9F80C305B0679D409981DB0BDE8FD
:1007F000F08FB5EB0B04F4D023465A4649465046D9
:10080000FFF77AFE0130ECD0099B2A782344099344
:1008100081E7A1F13002092A88BFAB46B1D8079B16
:1008200000E00134217803EB830302EB4303A1F1E1
:100830003002092AF5D92E29A3460793A3D19BF8A4
:1008400001102A2927D1039B0BF102001A680433F7
:10085000002A0393B8BF4FF0FF339BF802100592B4
:100860008346B8BF05938EE7039B073323F0070346
:1008700008330393AEE7494243F002030791049320
:100880007EE703A900914A4650461A4B04A900F09E
:10089000EFFA80469BE70023A1F13002092A0BF111
:1008A000010B05933FF66FAF1BF8011F03EB8303AA
:1008B00002EB4303A1F13002092AF5D9059362E75F
:1008C000402100F03FF8C9F80000C9F8100018B145
:1008D0004023C9F8143005E70C23CAF800304FF064
:1008E000FF3083E7241200082C12000830120008A1
:1008F00000000000F904000870B5114E0546336889
:100900000C46BBB12146284600F044FC431C01467E
:100910000CD0C41C24F00304A04205D02846611A60
:1009200000F038FC013001D0204670BD4FF0FF349C
:10093000204670BD194600F02DFC3060E2E700BF94
:10094000540000202DE9F843CD1C25F0030508359F
:100950000C2D38BF0C25002D064618DBA94216D8F1
:10096000DFF8DC8000F0C6FBD8F80420A2B1144602
:1009700003E0636822467BB11C4623685B1BF8D406
:100980000B2B1FD89442636854D053600CE00C23A7
:1009900033600020BDE8F88329463046FFF7ACFFFE
:1009A000431C044619D00560304600F0A5FB04F155
:1009B0000B00231D20F00700C21A1CBF1B1AA350F6
:1009C000BDE8F88361199442256014BF5160C8F8EE
:1009D0000410635163684B60E6E7D8F804701FB3F6
:1009E0003C467F68002FFBD123683946304604EB34
:1009F000030900F0CFFB814516D123683046ED1A7C
:100A00002946FFF779FF01300ED02368D8F804207B
:100A10002B442360536883B1A34203D01A465B681A
:100A20009C42FBD10023B0E70C233046336000F03A
:100A300063FBAEE7C8F80430B6E7C8F80470B3E764
:100A400054000020002950D038B551F8043C0C1F48
:100A5000002BB8BFE418054600F04CFB274A13688A
:100A60002BB1A3420CD92168601883422CD02846B0
:100A700063601460BDE8384000F03EBBA3420FD86D
:100A80001A465B68002BF9D111685018844217D0C0
:100A90002CD3636054602846BDE8384000F02CBB7E
:100AA00011685018A04214D020D8216860188342E1
:100AB000EFD118685B680844C4E900035460EAE7B2
:100AC00023680B441360E6E718685B6808442060FD
:100AD000CDE720680144501883421160DBD1D3E98F
:100AE00000040144C2E90014D5E770470C232846EE
:100AF0002B60BDE8384000F0FFBA00BF580000206E
:100B000088420ED98B1883420BD900EB020C002AC5
:100B10006DD0624613F801CD994202F801CDF9D1AA
:100B200070470F2A0FD8034602F1FF3C002A5ED01F
:100B30000CF1010C013B8C4411F8012B614503F8C9
:100B4000012FF9D1704740EA01039B0750D1A2F170
:100B5000100370B501F1200C23F00F0501F1100E08
:100B600000F11004AC441B095EF8105C0EF1100E8D
:100B700044F8105C5EF81C5C103444F81C5C5EF8B1
:100B8000185C44F8185C5EF8145CE64544F8145CA4
:100B9000EAD1013312F00C0F01EB031102F00F0444
:100BA00000EB031328D08E46043C24F003064FEAE2
:100BB000940C1E441C1F5EF8045B44F8045FB442AE
:100BC000F9D10CF1010402F0030203EB840301EB01
:100BD000840102F1FF3C4AB10CF1010C013B8C4451
:100BE00011F8012B614503F8012FF9D170BD704751
:100BF000034602F1FF3C9BE72246EAE7844641EACE
:100C0000000313F0030349D1403A23D30B68036078
:100C10004B6843608B688360CB68C3600B6903617A
:100C20004B6943618B698361CB69C3610B6A036262
:100C30004B6A43628B6A8362CB6AC3620B6B03634A
:100C40004B6B43638B6B8363CB6BC363403040312F
:100C5000403ADBD230320BD30B6803604B68436001
:100C60008B688360CB68C36010301031103AF3D2C8
:100C70000C3205D351F8043B40F8043B043AF9D256
:100C8000043208D0D2071CBF11F8013B00F8013B29
:100C900001D30B8803806046704700BF082A13D336
:100CA0008B07B1D010F00303AED0C3F10403D21A06
:100CB000DB071CBF11F8013B00F8013BA4D331F85E
:100CC000023B20F8023B9FE7043AD9D3013A11F8DE
:100CD000013B00F8013BF9D20B7803704B7843706D
:100CE0008B788370604670472DE9F041144641B31C
:100CF0000AB306460D4600F05FFA8442074602D862
:100D0000B4EB500F13D821463046FFF71BFE804648
:100D100050B1BC422246294628BF3A46FFF76EFF33
:100D200029463046FFF78EFE4046BDE8F081A846D2
:100D30004046BDE8F081A046FFF784FE4046BDE88E
:100D4000F0811146BDE8F041FFF7FCBD2DE9F84FF9
:100D500092461F460A698B680C469A42B8BF1A46EB
:100D6000CAF8002091F843300646DDF8289013B108
:100D70000132CAF80020226891065FD5DAF8003007
:100D80000233CAF80030226812F0060F11461DD156
:100D9000E1689942D8BF114618DD4FF0000804F110
:100DA000190B05E0E568DAF80030ED1A45450CDD71
:100DB00001235A4639463046C847013008F1010838
:100DC000F0D14FF0FF30BDE8F88F216894F8433040
:100DD000003B18BF01238A060AD53021E21882F8A9
:100DE000431094F845105A1C2244023382F84310F1
:100DF0003946304604F14302C8470130E1D0D4E916
:100E000002202368DAF8005003F00603042B21695E
:100E10001BD08A4220DD4FF00008521A9044002572
:100E20001A3401E0454517DA012322463946304697
:100E3000C847013005F10105F4D1C2E712F0060FF1
:100E40000DD0003B18BF0123D2E7401B8A4220EAA5
:100E5000E078E2DC0028E2DC0020BDE8F88FE16801
:100E6000DAF800309942D8BF114696DCAEE700BFF1
:100E70002DE9F04717460A7E84B00C460646984690
:100E80000C9D01F1430C002A35D0A2F15803D9B2D0
:100E9000202969D8202B67D8DFE813F0E600660028
:100EA0006600660066006600660066006600660012
:100EB0006600AC00700066006600660066007000A8
:100EC000660066006600660021008300C6006600BA
:100ED0006600B6006600830066006600EC002B68C2
:100EE0002268181D6169286010061B6802D452062A
:100EF00000F1E08019600023E14623613B46214672
:100F00003046CDF8008003AAFFF720FF013020D043
:100F10004A46394630462369C047013019D0236814
:100F2000E0689B07DDF80C9018D5484516DD0025D4
:100F300004F1190A04E0E068A0EB0903AB420DDDFF
:100F40000123524639463046C047013005F10105BC
:100F5000F1D14FF0FF3004B0BDE8F0874845B8BF8D
:100F6000484604B0BDE8F087012084F8422004F12F
:100F700042090023206184F84330BFE72A682368D0
:100F8000111D1806296002D4590600F195801068D9
:100F9000014600286268C0F293804FF00A0E534861
:100FA00015E020682B6810F0800F53F8041B02D165
:100FB000400648BF89B26F2A14BF4FF00A0E4FF0A7
:100FC000080E4A482B600023626884F84330002AE8
:100FD000A26051DB236823F00403236000294BD176
:100FE000002A7BD1E146BEF1080F56D0ACEB0903D5
:100FF000236183E72A680120116804322A6004F122
:10100000420984F84210B4E72B6800211A1D2A60B7
:10101000D3F800906268484600F070F8002863D06A
:10102000A0EB09006060A4E7236843F0200323607D
:1010300078222F4884F845202A6813F0800F52F850
:10104000041B03D113F0400F18BF89B22A60DA07DE
:1010500044BF43F02003236019B9236823F0200321
:1010600023604FF0100EAEE75823204884F8453037
:101070002368E1E72368DBE77546E146B1FBF5F35A
:101080000A4605FB131A194610F80A30AA4209F855
:10109000013DF3D2BEF1080FA8D12368DD07A5D525
:1010A000626823699A42A1DC302309F1FF3989F88B
:1010B00000309BE719801EE7B2F90010084668E788
:1010C0002D20002AA26084F8430002DB23F00403F1
:1010D00023600A250548AE464942CEE7037804F16D
:1010E000420984F842307EE7606842E7381200081F
:1010F0004C120008704700BF704700BF5FFA81FCC8
:10110000810744D00346511E22B909E09A0709D04D
:10111000013905D31846027801336245F6D170478C
:1011200000207047184603290CD80029F8D0034640
:10113000014401E08B42F3D0184613F8012B6245BD
:10114000F8D1704710B50CEB0C24024604EB0444B4
:1011500002E00439032915D9104652F8043B6340D4
:10116000A3F1013E2EEA030313F0803FF1D00346C2
:10117000014401E08B4208D0184613F8012B624568
:10118000F8D110BD10460029F1D1002010BD114644
:10119000C9E700BF002238B5064D044608462A605C
:1011A000FFF75FF9431C00D038BD2B68002BFBD044
:1011B000236038BD9801002051F8043C181F002B13
:1011C000BCBF0B58C01870470D0A3D3D3D2053541D
:1011D0004D333246313033433654362042617265E6
:1011E000204D6574616C203D3D3D0D0A00000000FE
:1011F0004C454420426C696E6B20776974682053BB
:1012000079735469636B2054696D65720D0A0D0A18
:1012100000000000557074696D653A202575206DD9
:10122000730D0A00232D302B20000000686C4C0049
:10123000656667454647000030313233343536370E
:1012400038394142434445460000000030313233D2
:0D12500034353637383961626364656600F5
:04126000F8B500BF1E
:04126400F8B500BF1A
:0812680094F9FF7F0100000072
:1012700004000020000000005C000020C4000020EA
:101280002C01002000000000000000000000000011
:10129000000000000000000000000000000000004E
:1012A000000000000000000000000000000000003E
:1012B000000000000000000000000000000000002E
:04000005080001B03E
:00000001FF
