:020000040800F2
:1000000000C00020159D0008E3840008E584000876
:10001000E7840008E9840008EB8400080000000081
:10002000000000000000000000000000ED84000857
:10003000EF84000800000000F1840008F384000849
:100040005D9D00085D9D00085D9D00085D9D0008A8
:100050005D9D00085D9D00085D9D00085D9D000898
:100060005D9D00085D9D00085D9D0008417B0008C6
:1000700001850008118500085D9D00085D9D000850
:100080005D9D00085D9D00085D9D00085D9D000868
:100090005D9D00085D9D00085D9D00085D9D000858
:1000A0005D9D00085D9D00085D9D00085D9D000848
:1000B0005D9D00085D9D00085D9D00085D9D000838
:1000C0005D9D00085D9D00085D9D00085D9D000828
:1000D0005D9D00085D9D00085D9D0008218500086C
:1000E0005D9D00085D9D00085D9D00085D9D000808
:1000F0005D9D00085D9D00085D9D00085D9D0008F8
:100100005D9D00085D9D00085D9D00085D9D0008E7
:100110005D9D00085D9D00085D9D00085D9D0008D7
:100120005D9D00085D9D00085D9D00085D9D0008C7
:1001300000000000000000000000000000000000BF
:1001400000000000000000000000000000000000AF
:10015000000000000000000000000000000000009F
:10016000000000000000000000000000000000008F
:10017000000000000000000000000000000000007F
:10018000000000000000000000000000000000006F
:10019000000000000000000000000000000000005F
:1001A000000000000000000000000000000000004F
:1001B000000000000000000000000000000000003F
:1001C000000000000000000000000000000000002F
:1001D000000000000000000000000000000000001F
:0401E0005FF8E0F1F3
:1001E4000348044B834202D0034B03B118477047C2
:1001F400E4010020E4010020000000000548064B53
:100204001B1AD90F01EBA301491002D0034B03B110
:1002140018477047E4010020E401002000000000BA
:1002240010B5064C237843B9FFF7DAFF044B13B13A
:100234000448AFF300800123237010BDE8010020BF
:1002440000000000609D000808B5044B1BB1044980
:100254000448AFF30080BDE80840CFE70000000089
:10026400EC010020609D000870B50F4B0F4DAB42B0
:10027400A3EB050607D00024B61055F8043B01345F
:100284009847A642F9D809F069FD094D094B5E1B50
:10029400AB424FEAA60606D0002455F8043B0134CD
:1002A4009847A642F9D870BD5CA800085CA800086D
:1002B4005CA8000860A800080EB44FF40172F0B501
:1002C40000269CB021AD55F8047BADF814201B9694
:1002D4000290069000F05AFC4FF6FF7204460A4B57
:1002E4000A49ADF816200B933A462B46086802A932
:1002F4000F96149601950394079401F08FF81CB09F
:10030400BDE8F04003B07047110C00080000002065
:100314000CB44FF401732DE9F04100269CB022ADDA
:100324000746084655F8048BADF81430029106913F
:100334001B9600F02BFC4FF6FF7304460949ADF8F9
:1003440016300B91424638462B4602A90F96149656
:1003540001950394079401F061F81CB0BDE8F041E5
:1003640002B07047110C000870B5860747D0541EC0
:10037400002A3ED00346CAB201E0013C39D303F857
:10038400012B9D07F9D1032C2CD9CDB205EB052502
:100394000F2C1A4605EB054534D9A4F1100C2CF0AA
:1003A4000F0603F1100EB6444FEA1C1CC2E90055B7
:1003B400C2E9025510327245F8D10CF1010214F071
:1003C4000C0F03EB021204F00F0C13D0ACF1040376
:1003D40023F003030433134442F8045B9342FBD138
:1003E4000CF003042CB1C9B21C4403F8011BA34252
:1003F400FBD170BD64461346002CF4D1F9E70346E3
:100404001446C0E7A446E1E7844641EA000313F03A
:10041400030349D1403A23D30B6803604B6843601C
:100424008B688360CB68C3600B6903614B6943616C
:100434008B698361CB69C3610B6A03624B6A436254
:100444008B6A8362CB6AC3620B6B03634B6B43633C
:100454008B6B8363CB6BC36340304031403ADBD258
:1004640030320BD30B6803604B6843608B68836046
:10047400CB68C36010301031103AF3D20C3205D37C
:1004840051F8043B40F8043B043AF9D2043208D052
:10049400D2071CBF11F8013B00F8013B01D30B88C4
:1004A40003806046704700BF082A13D38B07B1D07E
:1004B40010F00303AED0C3F10403D21ADB071CBF50
:1004C40011F8013B00F8013BA4D331F8023B20F8BA
:1004D400023B9FE7043AD9D3013A11F8013B00F8F3
:1004E400013BF9D20B7803704B7843708B7883709F
:1004F4006046704780EA010C1CF0030F37D110F0FE
:10050400030C20F0030021F0030150F8042B08BF72
:1005140051F8043B0ED08CF0030C6FF07F434FEA8C
:10052400CC0C23FA0CFC51F8043B42EA0C0243EADB
:100534000C0300BFA2F1013C9A4201BF2CEA020C59
:100544001CF0803F50F8042B51F8043BF2D04FEAE2
:1005540002604FEA1222012828BFB0EB036F08BFE4
:100564001B0AF4D003F0FF03000EC01A704710F00A
:10057400030F0AD010F8012B11F8013B012A28BF00
:100584009A42F4D0A2EB030070474DF8045D50F892
:10059400042B01F0030521F0030151F8043B022D63
:1005A40026D04DD822F07F45B5EB132FA2F1013CA4
:1005B4002CEA020C0DD11CF0803C08BF51F8043B1E
:1005C4000AD185EA0205B5EB036F0CD150F8042B70
:1005D400E8E74FEA13235BE03CF07F4C54D10B78FF
:1005E4004FEA126554E04FEA126503F0FF034FE04F
:1005F4004FEA0245A2F1013C4FEA15452CEA020CF0
:10060400B5EB134F18D11CF0803C08BF51F8043BE4
:1006140007D185EA0205B5EB034F09D150F8042B45
:10062400E6E75FEA0C4C2FD10B884FEA12452FE026
:100634004FEA03434FEA12454FEA134328E000BF51
:1006440002F0FF05B5EB136FA2F1013C2CEA020C9A
:100654000DD11CF0803C08BF51F8043B0AD185EA57
:100664000205B5EB032F0AD150F8042BE8E74FEA53
:1006740013630DE012F0FF0F06D051F8043B4FEA6C
:10068400122523F07F4303E04FF0000020BC7047A5
:1006940005F0FF0203F0FF00012828BF904204BFC9
:1006A4002D0A1B0AF4D0A2EB000020BC704700BF47
:1006B40008B410B5002A04469DB034DB4FF4027C24
:1006C4004FF00003ADF814C01B934FF6FF7C02916A
:1006D400069120AB15D0013A0492079202A91F9A01
:1006E4000193ADF816C000F0B1FB421C01DA8B2374
:1006F40023600022029B1A701DB0BDE8104001B0B7
:1007040070470492079202A91F9A0193ADF816C08C
:1007140000F09CFB431C01DA8B2323601DB0BDE871
:10072400104001B070478B234FF0FF302360F5E792
:100734000CB410B5204B00291C689CB036DB4FF07C
:1007440000034FF402721B934FF6FF7C0290069055
:10075400ADF814201FAB16D001391E9A04910791ED
:10076400204602A90193ADF816C000F06FFB421CAD
:1007740001DA8B2323600022029B1A701CB0BDE8AF
:10078400104002B070470491079120461E9A02A9B6
:100794000193ADF816C000F059FB431C01DA8B231A
:1007A40023601CB0BDE8104002B070478B234FF0AB
:1007B400FF302360F5E700BF000000200EB400B551
:1007C40082B003AB53F8042B8168019300F056F810
:1007D40002B05DF804EB03B0704700BF0FB400B57E
:1007E400074A83B004AB106853F8042B8168019363
:1007F40000F044F803B05DF804EB04B0704700BFA8
:10080400000000209368013B002B936005DAD2F8C6
:1008140018C0634507DB0A2905D01368581C10600B
:1008240008461970704700F063B900BF9BB1F8B572
:10083400134406460F46541E5D1E01E0AC4208D028
:100844003A46304614F8011FFFF7DCFF431CF5D18C
:10085400F8BD0020F8BD0020704700BF936810B5B4
:1008640014461BB918460023636010BD00F006FC53
:100874000023A3600023636010BD00BF2DE9F04F87
:10088400A1B08B4691461C46049018B1036A002B14
:1008940000F01381BBF80C30180740F18E80DBF8B0
:1008A4001030002B00F08980002343F220020D93C6
:1008B40099F800300127824E0794ADF83920002BB7
:1008C40073D04D4603E015F8013F002B7FD0252B54
:1008D400F9D1B5EB090A7DD12B78002B65D0002323
:1008E4004FF0FF320135CDE9092308930B938DF8BE
:1008F40063301E9306E02546089B801B07FA00F030
:10090400034308932C46052214F8011B304602F0D9
:1009140023F9A1460028EED1089BD90644BF202222
:100924008DF863201A0748BF2B22297848BF8DF819
:1009340063202A2964D1079A116804320029079296
:10094400C0F296800B9169782E296FD05D4C0322FA
:10095400204602F001F938B14022089B001B824076
:10096400134309F10109089319F8011B062256489B
:100974008DF8381002F0F0F800287FD0534B002B8C
:1009840069D007A900915A460498514B08A9AFF3BE
:1009940000800390039B013307D00D9B039A1344FB
:1009A4000D9399F80030002B8BD1BBF80C305B060B
:1009B4000AD40D9821B0BDE8F08F5946049801F08F
:1009C400B9FC00283FF470AF4FF0FF30F2E7B5EB0D
:1009D400090AEAD009F1FF3805954546DDF810808B
:1009E40001E0A2453ED92C465A46404615F8011F5F
:1009F400FFF708FF02340130A4EB0904F1D1D4E776
:100A0400A1F13002092A88BFA9469DD80B9B00E0BA
:100A14000134217803EB830302EB4303A1F1300299
:100A2400092AF5D92E29A1460B938FD199F80110E3
:100A34002A292DD1079B09F102001A680433002AE0
:100A44000793B8BF4FF0FF3399F80210099281461B
:100A5400B8BF09937AE7079B073323F007030833EA
:100A640007939AE70D99059D51442B780D9134E72E
:100A7400494243F002030B91089364E707A90091EC
:100A84005A460498124B08A901F090FD039081E79F
:100A94000023A1F13002092A09F1010909933FF663
:100AA40055AF19F8011F03EB830302EB4303A1F1D4
:100AB4003002092AF5D9099348E701F0D7F8E9E6A5
:100AC40048A0000850A0000854A00008000000003E
:100AD400310800088C4600B586461346034A714621
:100AE40010685DF804EB6246FFF7C8BE0000002002
:100AF400F8B506460D46144610B1036A002B37D0EC
:100B0400A269A389A2601A0719D52369BBB1226817
:100B14006169D31AEDB299422F4620DD0133A168F1
:100B24000139A160511C2160157062699A420DD08F
:100B3400A389DB0701D50A2D08D03846F8BD214624
:100B4400304601F0F7FB38B92369E0E72146304627
:100B540001F050F90028F0D04FF0FF37EDE72146BF
:100B6400304601F047F90028F6D101232268D6E780
:100B740001F07CF8C4E700BF03460A46024908684E
:100B84001946FFF7B5BF00BF0000002020F00301A5
:100B940010F00300C0F1000051F8043B00F1040C14
:100BA4004FEACC0C6FF000021CBF22FA0CF2134384
:100BB4004FF0010C4CEA0C2C4CEA0C4CA3EB0C024D
:100BC40022EA030212EACC1204BF51F8043B0430B7
:100BD400F4D0C2F1000102EA0102B2FA82F2C2F1D7
:100BE4001F0200EBD200704710B50C46B1F90E108D
:100BF40001F002FC002803DB636D0344636510BD50
:100C0400A38923F48053A38110BD00BF0020704743
:100C14002DE9F0410C46B1F90C101F46CB050546F1
:100C240016460BD421F48051A1813B463246284616
:100C3400B4F90E10BDE8F04101F0DABFB4F90E10BA
:100C44000223002201F0CEFEB4F90C10EAE700BF43
:100C540010B50C46B1F90E1001F0C4FEB4F90C3015
:100C6400421C0EBF23F4805343F480536065A38178
:100C740010BD00BFB1F90E1001F020B82DE9F04706
:100C84001D468F680C46AF4216460B6836D8B1F93C
:100C94000CC01CF4906F0ED13D46184631462A46CE
:100CA40001F0EEF90020A368DF1B2368A7602B4442
:100CB4002360BDE8F0874A69096902EB42025F1AC2
:100CC40002EBD2726B1C52103B44934292BF91468A
:100CD40099461A461CF4806F804611D0114601F0E3
:100CE400F1F8824600B33A462169FFF78DFBA389E8
:100CF40023F4906343F08003A38105E02F46CCE7FF
:100D040001F090FB824658B10AEB0703A9EB0707F1
:100D1400A760C4F810A02F46C4F814902360BCE761
:100D24004046216901F04EF90C22A3894FF0FF30AF
:100D340043F04003C8F80020A381BAE72DE9F04F3F
:100D4400936883B0924617680190002B76D04FF0D9
:100D5400000B0C465D468B680A6848E0B4F90CC089
:100D64001CF4906F2FD0D4E90403A2EB000803EB2A
:100D7400430202EBD27208F101015210294491425C
:100D840092BF914689460A461CF4806F39D01146B9
:100D9400019801F097F8064600283DD042462169A3
:100DA400FFF732FBA28922F4906242F08002A28112
:100DB40006EB0800A9EB08022661A8462E46A260AD
:100DC4002060C4F814903246594601F059F9DAF813
:100DD4000810A3682268A3EB08033244491BA360EC
:100DE4002260CAF8081049B3D7E900B50837984615
:100DF4001046002DF8D09D421E46AFD2A8462E467E
:100E0400E1E70146019801F00DFB06460028CFD129
:100E14000198216901F0D6F80C21A389019D43F0C2
:100E2400400329600022A3814FF0FF300023CAF859
:100E34000820CAF8043003B0BDE8F08F0020002376
:100E4400CAF8043003B0BDE8F08F00BF2DE9F04FBD
:100E54001C468B8989461D06824693469DB003D560
:100E64000B69002B00F0EE80002343F2200209936B
:100E74009BF8003001277C4E0394ADF82920002B09
:100E840071D05D4603E015F8013F002B73D0252B8C
:100E9400F9D1B5EB0B0471D12A78002A63D0002371
:100EA4004FF0FF320135CDE90523049307938DF804
:100EB40053301A9306E02546049B801B07FA00F082
:100EC400034304932C46052214F8011B304601F019
:100ED40043FEA3460028EED1049BD90644BF20223A
:100EE4008DF853201A0748BF2B22297848BF8DF864
:100EF40053202A294FD1039A1168043200290392FE
:100F04007BDB079169782E295BD0584C032220465D
:100F140001F022FE38B14022049B001B824013439F
:100F24000BF1010B04931BF8011B062250488DF8AA
:100F3400281001F011FE002865D04E4B002B55D02F
:100F440003A900914A4650464B4B04A9AFF30080D5
:100F54008046B8F1FF3F06D0099B434409939BF8B0
:100F64000030002B8DD1B9F80C305B0679D4099888
:100F74001DB0BDE8F08FB5EB0B04F4D023465A4600
:100F840049465046FFF77AFE0130ECD0099B2A7897
:100F94002344099381E7A1F13002092A88BFAB46B3
:100FA400B1D8079B00E00134217803EB830302EB03
:100FB4004303A1F13002092AF5D92E29A346079348
:100FC400A3D19BF801102A2927D1039B0BF102001E
:100FD4001A680433002A0393B8BF4FF0FF339BF819
:100FE400021005928346B8BF05938EE7039B07332F
:100FF40023F0070308330393AEE7494243F00203A7
:10100400079104937EE703A900914A4650461A4B80
:1010140004A901F0CBFA80469BE70023A1F130023A
:10102400092A0BF1010B05933FF66FAF1BF8011F63
:1010340003EB830302EB4303A1F13002092AF5D940
:10104400059362E7402100F03DFFC9F80000C9F8AC
:10105400100018B14023C9F8143005E70C23CAF86E
:1010640000304FF0FF3083E748A0000850A000088C
:1010740054A0000800000000810C00089368002BB5
:1010840000F0F0802DE9F04FB1F90CC090461CF04F
:10109400080F81460C4683B02BD00B694BB31CF070
:1010A4000207D8F8006032D04FF0000A5546D4F851
:1010B40028B0216AAB4FC5B1BD422B46524628BF6A
:1010C4003B464846D847002840F3C280D8F8083049
:1010D40082441B1A2D1AC8F80830002B00F0AE8089
:1010E400D4F828B0216A002DE6D1D6E900A5083647
:1010F400E1E72146484601F01DF9002840F0AD80A3
:10110400B4F90CC0D8F800601CF00207CCD11CF074
:10111400010A63D157462368A16818468B46002FFD
:1011240058D01CF4007F00F0B180B9420A4600F2A6
:10113400DD801CF4906F2FD0216962695D1A02EB87
:10114400420202EBD2726B1C52103B44934292BF98
:1011540093469B461A461CF4806F00F0E6801146C5
:10116400484600F0AFFE002800F0F5802A462169C9
:101174000190FFF749F9A289019B22F4906242F0A1
:101184008002A2815819C4F814B0ABEB05053A46A5
:10119400BB462361A56020603D460027514601926D
:1011A40000F06EFFA1682368019AA1EB0B011A44B9
:1011B400A1602260D8F80830AA445B1BC8F8083044
:1011C400002B3BD02368A16818468B46B4F90CC0A9
:1011D400002FA6D1D6E900A708369EE73846BB46BD
:1011E4003D46002D40D0002845D03A46D4E904C3FA
:1011F4002068AA4228BF2A466045A16804D901EBA9
:10120400030A524500F38280934272DC5A464846F0
:10121400216AD4F828C0E047B0F1000A18DDB7EB22
:101224000A070FD00120D8F80830D344A3EB0A03EF
:10123400A5EB0A05C8F80830002BD2D1002003B072
:10124400BDE8F08F2146484600F0D4FD0028EAD0DE
:10125400B4F90C3043F04003A3814FF0FF3003B0E6
:10126400BDE8F08F00207047756833460836002DBE
:10127400FAD0D3F800B02A460A21584601F06CFC93
:10128400002865D00130A0EB0B07AEE722699A4233
:1012940014D36569BD4211D86FF00043BB4228BF27
:1012A4003B4693FBF5F3524605FB03F34846A56A18
:1012B400216AA847051ECBDD7F1B7BE7B94228BF07
:1012C40039460D46184651462A4600F0D9FEA16813
:1012D4002368491B2B44A16023600029ECD12146DB
:1012E400484600F087FD0028E6D0B1E7BB463A4601
:1012F40052E75946019200F0C3FE019AA368924650
:101304009B1AA36023681344236088E75946524616
:1013140000F0B6FE2368214653444846236000F09B
:1013240069FD00283FF47BAF92E7484601F07AF864
:10133400034600287FF426AF4846216900F042FEA8
:101344000C22B4F90C30C9F8002023F0800381E7A3
:101354006A1C17464AE70C22B4F90C30C9F800207D
:1013640078E700BF00FCFF7F4B1C70B51AD0144611
:101374009389526823F02003A381636BCDB2A3B198
:10138400A36B934209DD23685A1E226003F8015CB3
:10139400636801336360284670BD214601F038FB61
:1013A4000028F0D04FF0FF35F5E7236921682BB111
:1013B4008B4203D211F8013CAB420ED023460320EA
:1013C400C4E90F12012204F14406A063666303F822
:1013D400465F2846C4E9003270BD01390132C4E9D0
:1013E4000012D8E710B50C46496B69B104F1440307
:1013F400994201D000F0E6FD0020236C6063636035
:1014040013B1E36B236010BD0021A2894FF0FF30BC
:1014140042F020022369A2816160F3E72DE9F047DD
:1014240092460025884AADF5247DA1929AF8009051
:10143400864A0DF108084595A2924695CDF81C817F
:101444000193B9F1000F13D0814E074616F8093005
:101454000C4613F008030AF101052ED1B9F1250F4A
:1014640044D06368002B08DD23681A784A450FD0FE
:1014740045980DF5247DBDE8F08721463846A29BAA
:101484009847002840F0098123681A784A45EFD12B
:10149400AA46013323606368013B6360469B0133C2
:1014A40046939AF80090B9F1000FE1D016F809308C
:1014B4000AF1010513F00803D0D062680CE0236838
:1014C4001A780133B25C11070ED562684699013A65
:1014D400C4E9003201314691002AF0DC2146384645
:1014E400A29B98470028EAD0AA46DAE7449342939D
:1014F4009AF801102A2905D1102342939AF8021070
:101504000AF10205A1F13003092B0DD8002303EBE6
:10151400830301EB4301A1F13003449315F8011F48
:10152400A1F13002092AF2D9DFF828A1032250469A
:1015340001F012FB38B10123429AA0EB0A00834068
:10154400134301354293AA461AF8013B782B00F263
:101554008380DFE813F0A80081008100810081000E
:10156400810081008100810081008100810081006F
:10157400810081008100810081008100810081005F
:10158400810081008100810081008100810081004F
:10159400810081008100810081008100810081003F
:1015A400110181008100810081008100810081009E
:1015B400810081008100810081008100810081001F
:1015C400810081008100810081008100810081000F
:1015D40081008100810081008100810081008100FF
:1015E400C600C600C6008100810081008100810020
:1015F40081008100810081008100810081008100DF
:10160400810081008100C90081008100FB0081000C
:101614008100810081008100810081000701DD00DB
:10162400C600C600C60081000E0181008100810051
:101634008100DF00EE00F20081008100F9008100EA
:10164400DD0081008100C9006D130008E913000862
:10165400799D000850A00008032348930A2343936C
:101664006368002B4DDD429B580625D5489B022B11
:1016740040F38480042B40F38880474B002B3FF4D5
:1016840010AF2246384601AB42A9AFF300800128CF
:101694003FF4EEAE02287FF404AF459818B1A38955
:1016A4005B067FF5E6AE4FF0FF30E2E621463846B2
:1016B400A29B98470028F0D122681378F35C19079D
:1016C400D4D563684699013B0131002B4691636090
:1016D40002F10102EADD22601378F35C1907C5D533
:1016E400EFE705234893BBE7429A42F40072429223
:1016F40010226E2B43921ED8032348936368002B59
:10170400B1DC21463846A29B98470028ABD0C4E7F9
:101714000A22EEE7429BDA063FF5C3AE019ADB07E5
:1017240002F104000190469913684CBF19801960B6
:10173400B7E6082343930423DFE710234393429B34
:1017440043F408734293F6E70223D6E75146404632
:1017540001F06EF801234893429B824643F0400314
:1017640042937DE700234893429B43F04003429316
:1017740076E700234393BFE7554672E62246384690
:1017840001AB42A900F00AF881E72246384601ABD2
:1017940042A900F069F87AE7000000002DE9F84357
:1017A40014468A6807460D4688692AB9002814BF7A
:1017B4004FF0FF3201228A602A68D20603D41A68E5
:1017C400111D196016684FF00009DFF8988000B306
:1017D400012837D002283BD123681A7818F8022050
:1017E400120735D42A6809F10109D10603D41B78FC
:1017F40006F8013B23686168AA6801390133013A9C
:10180400C4E90031AA606AB1002904DDA86900288E
:10181400DED12368E6E721463846D5F8803198477B
:101824000028F3D02B6813F0100305D1EA680132C5
:10183400EA60AA6902B1337000202B694B442B6122
:10184400BDE8F88323686A691978525C002AC9D113
:10185400B9F1000FE6D10128F2D02B6813F0100380
:10186400EAD1E3E7799D00082DE9F04F0C4687B0F3
:10187400854D0DF10C0A0746164695E80700DFF87A
:101884000CE28AE80700DFF808C2A2690093032A81
:1018940008BFE646A368CDF804E05A1EB2F5AE7F51
:1018A40040F2AB806FF4AE7003EB000940F25D13BD
:1018B400A360A04658F81C2B4FF0000B454642F499
:1018C40050622260336802221978DAF8000001F0CD
:1018D40043F950B3BBF1010F0CD0BBF1020F00F080
:1018E400AD80A3685A1EA260A3B94FF0010B0AF1A0
:1018F400040AE7E7D4E900321AB9082243F4007372
:10190400626023F4A0632360A3685A1EA260002BC4
:1019140000F0848033685A1C32601B7805F8013B60
:101924007368013B002B73606EDD0BF1010BBBF19F
:10193400030FDCD16168002962D0C1F11001554B5D
:101944006069194400F074FFA368002B63D04FF062
:10195400000A06E0336801333360A368013BA360E7
:10196400E3B1326860691178D4F800C0405C2CF4AB
:10197400106E002875D0302953D0C4F800E01378D5
:1019840005F8013B7368013B002B7360E2DC3146D0
:101994003846D4F8803198470028DED02268D10533
:1019A4000CD5454507D915F8011C32463846D4F8FC
:1019B4007C31013D9847454564D0226812F01002FD
:1019C40011D12A70636838464146019EB0472368A6
:1019D4009A0648D500990B681A1D0A601B6818609E
:1019E400E3680133E36000202369A5EB080555444F
:1019F4002B44236107B0BDE8F08F4FF0000958E78E
:101A04000A23062163609AE731463846D4F88031C8
:101A14009847002889D04FF0000ABFE74FF0020B27
:101A240065E71CF4006FA8D001330AF1010AB9F18B
:101A3400000FA7D0A36009F1FF39A3E7236803F4DB
:101A4400C062B2F5007F7FF475AF43F48073236006
:101A540010236360A3685A1EA260002B3FF46AAF90
:101A640058E762469BE7009EDF07326802F10401F3
:101A740003D5316013681880B2E7009B19601368BE
:101A84001860ADE70120B5E77C9E0008AD2D000885
:101A9400B92200085CA0000800207047024A0349EC
:101AA400034800F025BC00BF50000020F91D0008C9
:101AB400040000200C4B416810B59942044601D043
:101AC40000F098F9A168094B994202D0204600F031
:101AD40091F9E168064B994204D02046BDE81040D4
:101AE40000F088B910BD00BF040200206C02002081
:101AF400D4020020002070472DE9F8430025042378
:101B0400294C2A490822C4F8381104F15C002946FA
:101B1400DFF89C90DFF89C80274F284EC4E90335FA
:101B2400C4E90055C4E90555A5606566FEF71CFCCB
:101B3400234B0822294604F1C4006367C4E9084919
:101B4400C4E90A87C4E91A55C4E91E552663256702
:101B5400C4F8CC50C4F88050FEF706FC194B294653
:101B6400C4F8DC30082204F1680304F59670C4F864
:101B74008830C4E92398C4E92576C4E93455C4E916
:101B84003855C4F8D850C4F83451C4F8E850FEF7B6
:101B9400EBFB04F1D003C4E93D98C4E93F76C4F8F3
:101BA400F030BDE8F88300BF04020020A11A000849
:101BB400ED0B0008150C0008550C0008790C000802
:101BC4000900010012000200F8B5254B0646D3F8BF
:101BD4003831002B3CD0234FD7E90134013B04D5E5
:101BE4001DE05A1C04F1680419D0B4F90C50013BEF
:101BF400002DF6D11C4B08222946C4E90155C4E93D
:101C04000455E36065662560A56104F15C00FEF798
:101C1400ABFBC4E90D55C4E912552046F8BD3D6837
:101C24000DB12F46D8E74FF4D671304600F04AF98B
:101C3400044680B104230560294625460C304FF440
:101C4400D072A0606360FEF78FFB3C602F46C3E751
:101C5400FFF752FFBFE70C2338603360DDE700BFB6
:101C640004020020500000200100FFFF036A03B1BA
:101C74007047044B044AD3F838310262002BF7D181
:101C84003AE700BF04020020B91A0008704700BFF9
:101C9400704700BF0020024A024900F029BB00BF80
:101CA400500000209D1A00080020024A024900F05A
:101CB4001FBB00BF50000020F91A0008002238B5ED
:101CC400064D044608462A6001F0A6F8431C00D0DD
:101CD40038BD2B68002BFBD0236038BD480300209F
:101CE400F8B5B1F90C300C461E07074639D44A68DA
:101CF400002A53DDE56A002D31D000223E683A60A7
:101D040013F48052216A55D101233846A847451C53
:101D1400024663D0B4F90C30E56A216A580705D548
:101D24006368D21A636B0BB1236CD21A0023384652
:101D3400A847421C40D00022236962602360A38923
:101D4400DB0400D56065616B3E6041B104F144037E
:101D5400994202D0384600F035F90023636300202D
:101D6400F8BD0E69002EFAD09B0718BF00230D683A
:101D740008BF4B690E60AD1B8B600CE02B463246EE
:101D8400D4F828C03846216AE047B0F1000CA5EB2E
:101D94000C05664406DD002DF0DCE0E70A6C002A41
:101DA400A8DCDCE7B4F90C3043F040034FF0FF301B
:101DB400A381F8BD626DB1E73968B4F90C301D290F
:101DC400F2D80B4ACA40D507EED5002262602269D8
:101DD4002260DA04B7D50029B4D0B4E73B68002BFD
:101DE40098D01D2B01D0162BDCD13E60B7E700BF85
:101DF400010040200B69B3B110B5044682B008B1AC
:101E0400036A5BB1B1F90C3013B9002002B010BD04
:101E1400204602B0BDE81040FFF762BF0191FFF712
:101E240025FF0199EEE70020704700BFB8B138B52F
:101E34000D4A0369044615682BB10DB12B6A53B1E1
:101E4400B4F90C300BB9002038BD21462846BDE852
:101E54003840FFF745BF2846FFF708FFF0E7034A7D
:101E64000349044800F044BA000000205000002058
:101E7400F91D00080400002070B5114E05463368B2
:101E84000C46BBB12146284600F0DAFE431C01464D
:101E94000CD0C41C24F00304A04205D02846611AC7
:101EA40000F0CEFE013001D0204670BD4FF0FF346B
:101EB400204670BD194600F0C3FE3060E2E700BF63
:101EC400400300202DE9F843CD1C25F00305083517
:101ED4000C2D38BF0C25002D064618DBA94216D858
:101EE400DFF8DC8000F0F2FCD8F80420A2B114463C
:101EF40003E0636822467BB11C4623685B1BF8D46D
:101F04000B2B1FD89442636854D053600CE00C230D
:101F140033600020BDE8F88329463046FFF7ACFF64
:101F2400431C044619D00560304600F0D1FC04F18E
:101F34000B00231D20F00700C21A1CBF1B1AA3505C
:101F4400BDE8F88361199442256014BF5160C8F854
:101F54000410635163684B60E6E7D8F804701FB35C
:101F64003C467F68002FFBD123683946304604EB9A
:101F7400030900F065FE814516D123683046ED1A49
:101F84002946FFF779FF01300ED02368D8F80420E2
:101F94002B442360536883B1A34203D01A465B6881
:101FA4009C42FBD10023B0E70C233046336000F0A1
:101FB4008FFCAEE7C8F80430B6E7C8F80470B3E79E
:101FC40040030020002950D038B551F8043C0C1FC0
:101FD400002BB8BFE418054600F078FC274A1368C4
:101FE4002BB1A3420CD92168601883422CD0284617
:101FF40063601460BDE8384000F06ABCA3420FD8A7
:102004001A465B68002BF9D111685018844217D026
:102014002CD3636054602846BDE8384000F058BCB7
:1020240011685018A04214D020D821686018834247
:10203400EFD118685B680844C4E900035460EAE718
:1020440023680B441360E6E718685B680844206063
:10205400CDE720680144501883421160DBD1D3E9F5
:1020640000040144C2E90014D5E770470C23284654
:102074002B60BDE8384000F02BBC00BF44030020B7
:1020840088420ED98B1883420BD900EB020C002A2C
:102094006DD0624613F801CD994202F801CDF9D111
:1020A40070470F2A0FD8034602F1FF3C002A5ED086
:1020B4000CF1010C013B8C4411F8012B614503F830
:1020C400012FF9D1704740EA01039B0750D1A2F1D7
:1020D400100370B501F1200C23F00F0501F1100E6F
:1020E40000F11004AC441B095EF8105C0EF1100EF4
:1020F40044F8105C5EF81C5C103444F81C5C5EF818
:10210400185C44F8185C5EF8145CE64544F8145C0A
:10211400EAD1013312F00C0F01EB031102F00F04AA
:1021240000EB031328D08E46043C24F003064FEA48
:10213400940C1E441C1F5EF8045B44F8045FB44214
:10214400F9D10CF1010402F0030203EB840301EB67
:10215400840102F1FF3C4AB10CF1010C013B8C44B7
:1021640011F8012B614503F8012FF9D170BD7047B7
:10217400034602F1FF3C9BE72246EAE7242B2DE9C4
:10218400F84F42D8012B40D01F468E46804648481F
:1021940075461EF801BB10F80B4014F00804F7D183
:1021A400BBF12D0F6FD06FF00049BBF12B0F04BFB3
:1021B4009EF800B005F1020E7BBBBBF1300F4CD092
:1021C4000A273B460025B9FBF7F6284607FB169A73
:1021D40005E03BD0012507FB00C01EF801BBABF1B5
:1021E400300CBCF1090F06D9ABF1410CBCF1190F4D
:1021F4001AD8ABF1370C63451FDDB5F1FF3FECD0C6
:102204008642E6D24FF0FF35E7E700F0EBFD1622F9
:10221400034600201A60BDE8F88F102BD2D1BBF121
:10222400300F23D01F46CDE7ABF1610CBCF1190F81
:1022340003D8ABF1570C6345DFDC6B1C2BD054B9CE
:10224400002AE8D085BB1160BDE8F88FE245C1DA09
:102254004FF0FF35C1E74042F2E79EF8003003F04B
:10226400DF03582B08D008273B46ABE79EF8000055
:1022740000F0DF005828D5D110279EF801B03B4666
:102284000EF1020E9EE79EF800B04FF000490124C3
:1022940005F1020E90E72223C8F8003032B10EF1A6
:1022A400FF3148461160CFE78146F8E74846B2E778
:1022B400799D000862E700BF8C4600B58646134648
:1022C400034A714610685DF804EB624656E700BFA6
:1022D400000000208C4600B586461346034A71462A
:1022E40010685DF804EB624648E700BF0000002078
:1022F4002DE9F8434FF0000980460F461646D6E90B
:102304000154013D10D4A389012B08D9B4F90E302E
:10231400013304D021464046B84749EA0009013D4B
:102324006B1C04F16804EED13668002EE7D14846F0
:10233400BDE8F88338B52F4B05461B680C4613B12E
:102344001A6A002A4BD0B4F90C3018071CD522693C
:1023540022B313F0010107D000206169A060494253
:10236400A1613AB1002038BD980758BF6169A160E6
:10237400002AF7D1190658BF1046F4D543F040039C
:10238400A3814FF0FF3038BDD9062CD55A0712D49B
:10239400226943F00803A381002ADAD103F42071EF
:1023A400B1F5007FD5D02146284600F093FAB4F960
:1023B4000C302269CDE7616B51B104F144029142C2
:1023C40004D02846FFF7FEFDB4F90C300022626306
:1023D4000021226923F02403C4E90021D9E7184627
:1023E400FFF744FCAFE7092243F040032A60A381CE
:1023F400C7E700BF0000002038B50C461146002294
:102404008446074D20462A601A46644600F024FD9F
:10241400431C00D038BD2B68002BFBD0236038BD93
:10242400480300202DE9F041144641B30AB306469F
:102434000D4600F017FC8442074602D8B4EB500F57
:1024440013D821463046FFF73DFD804650B1BC42CB
:102454002246294628BF3A46FDF7D6FF294630468C
:10246400FFF7B0FD4046BDE8F081A8464046BDE810
:10247400F081A046FFF7A6FD4046BDE8F081114675
:10248400BDE8F041FFF71EBD2DE9F84F92461F4607
:102494000A698B680C469A42B8BF1A46CAF80020EB
:1024A40091F843300646DDF8289013B10132CAF89A
:1024B4000020226891065FD5DAF800300233CAF8AA
:1024C4000030226812F0060F11461DD1E1689942CE
:1024D400D8BF114618DD4FF0000804F1190B05E0D0
:1024E400E568DAF80030ED1A45450CDD01235A465B
:1024F40039463046C847013008F10108F0D14FF0A1
:10250400FF30BDE8F88F216894F84330003B18BFD2
:1025140001238A060AD53021E21882F8431094F880
:1025240045105A1C2244023382F84310394630467F
:1025340004F14302C8470130E1D0D4E90220236802
:10254400DAF8005003F00603042B21691BD08A42F9
:1025540020DD4FF00008521A904400251A3401E09F
:10256400454517DA0123224639463046C84701302B
:1025740005F10105F4D1C2E712F0060F0DD0003BBE
:1025840018BF0123D2E7401B8A4220EAE078E2DC4C
:102594000028E2DC0020BDE8F88FE168DAF80030BA
:1025A4009942D8BF114696DCAEE700BF2DE9F0474B
:1025B40017460A7E84B00C46064698460C9D01F1E7
:1025C400430C002A35D0A2F15803D9B2202969D886
:1025D400202B67D8DFE813F0E6006600660066008B
:1025E4006600660066006600660066006600AC0071
:1025F4007000660066006600660070006600660093
:102604006600660021008300C60066006600B6000E
:102614006600830066006600EC002B682268181DC3
:102624006169286010061B6802D4520600F1E0803C
:1026340019600023E14623613B4621463046CDF82C
:10264400008003AAFFF720FF013020D04A46394614
:1026540030462369C047013019D02368E0689B07DE
:10266400DDF80C9018D5484516DD002504F1190A4B
:1026740004E0E068A0EB0903AB420DDD0123524600
:1026840039463046C047013005F10105F1D14FF01C
:10269400FF3004B0BDE8F0874845B8BF484604B0F1
:1026A400BDE8F087012084F8422004F142090023A8
:1026B400206184F84330BFE72A682368111D180697
:1026C400296002D4590600F195801068014600285B
:1026D4006268C0F293804FF00A0E534815E02068F8
:1026E4002B6810F0800F53F8041B02D1400648BF3A
:1026F40089B26F2A14BF4FF00A0E4FF0080E4A48F1
:102704002B600023626884F84330002AA26051DB06
:10271400236823F00403236000294BD1002A7BD1D2
:10272400E146BEF1080F56D0ACEB0903236183E701
:102734002A680120116804322A6004F1420984F8ED
:102744004210B4E72B6800211A1D2A60D3F80090C8
:102754006268484600F000FA002863D0A0EB090044
:102764006060A4E7236843F02003236078222F48A5
:1027740084F845202A6813F0800F52F8041B03D113
:1027840013F0400F18BF89B22A60DA0744BF43F040
:102794002003236019B9236823F0200323604FF03A
:1027A400100EAEE75823204884F845302368E1E74B
:1027B4002368DBE77546E146B1FBF5F30A4605FB02
:1027C400131A194610F80A30AA4209F8013DF3D247
:1027D400BEF1080FA8D12368DD07A5D56268236977
:1027E4009A42A1DC302309F1FF3989F800309BE7D4
:1027F40019801EE7B2F90010084668E72D20002A68
:10280400A26084F8430002DB23F0040323600A255A
:102814000548AE464942CEE7037804F1420984F8FC
:1028240042307EE7606842E77CA0000890A0000880
:1028340070B50D7804465E2D25D04FF0000EF44699
:10284400481C002223466EF307026EF30F226EF338
:10285400174204F580716EF31F6243F8042B8B4218
:10286400FBD175B18CF00101615500F1010E1EF828
:10287400013C2D2B0FD05D2B0BD01BB11D46704698
:10288400F2E7013870BD4FF0010E4D78F446881C14
:10289400D7E7704670BD90F801C0BCF15D0FEDD074
:1028A4006545EBDC6E1C0230A21902F8011B131BF8
:1028B400013B9C45F9DCACEB0503013B6545A8BF36
:1028C40000230EF1020EF518D1E700BF704700BFD8
:1028D400704700BF70B5B1F90C300C46990796B03B
:1028E40007D5012204F14703C4E90432236016B07A
:1028F40070BDB4F90E100546002929DB6A4600F0C4
:1029040077FA002822DB4FF480612846019EFFF706
:10291400D9FA88B3A38906F4704643F08003A381EF
:102924004FF48063B6F5005FC4E904032060DED190
:102934002846B4F90E1000F071F90028D7D0A38905
:1029440023F0030343F00103A381D0E7B4F90C306F
:1029540013F0800F14BF40264FF48066284631469A
:10296400FFF7B0FA40B1A389C4E9040643F0800339
:102974002060A38116B070BDB4F90C309A05B6D4AA
:10298400012123F0030304F1470243F00203C4E9E5
:102994000421A3812260AAE770B50C46B1F90E1098
:1029A400154600291E4696B00FDB6A4600F020FA51
:1029B40000280ADB019B4FF4806203F47043A3F503
:1029C4000053B3FA83F35B0907E0A289002312F0F2
:1029D400800F14BF40224FF48062002033602A60CD
:1029E40016B070BD38B50C46114600228446074D1A
:1029F40020462A601A46644600F026FA431C00D09A
:102A040038BD2B68002BFBD0236038BD4803002061
:102A14002DE9F0410C46496B04F14403994214D06A
:102A2400A66B77003A46FFF7FDFC054630B300EB92
:102A34000608014632464046FDF7E6FCC4E90D5758
:102A4400C4F800800020BDE8F0814FF48061FFF7F6
:102A540039FA98B14FF4806194F846206063A16319
:102A640080F8FF2394F8452000F2FD3380F8FE231C
:102A740094F8442080F8FD232360E3E74FF0FF300F
:102A8400E1E700BF70B54C1C2BD00E46054614463A
:102A940010B1036A002B4CD0B4F90C3023F020029F
:102AA4005807A28106D4D9061BD51B0734D442F09B
:102AB4000402A281626B6368F6B2AAB1A26B9A4265
:102AC40009DD23685A1E226003F8016C6368013330
:102AD4006360304670BD21462846FFF799FF002801
:102AE400EFD04FF0FF36F4E7226921682AB18A4219
:102AF40003D211F8012CB2421ED022460320C4E9AD
:102B04000F13012304F14405A063656302F8466FC3
:102B14003046C4E9002370BD21462846FFF76AF910
:102B24000028DED1B4F90C20A06022F00802A061D4
:102B3400BDE7FFF79BF8AFE701390133C4E90013A0
:102B4400C7E700BF03460A46024908681946FFF76B
:102B540099BF00BF000000205FFA81FC810744D0C8
:102B64000346511E22B909E09A0709D0013905D359
:102B74001846027801336245F6D170470020704749
:102B8400184603290CD80029F8D00346014401E073
:102B94008B42F3D0184613F8012B6245F8D17047E5
:102BA40010B50CEB0C24024604EB044402E0043997
:102BB400032915D9104652F8043B6340A3F1013EA2
:102BC4002EEA030313F0803FF1D00346014401E0F1
:102BD4008B4208D0184613F8012B6245F8D110BD7A
:102BE40010460029F1D1002010BD1146C9E700BFED
:102BF40038B50C46114600228446074D20462A600B
:102C04001A46644600F03EF9431C00D038BD2B68D8
:102C1400002BFBD0236038BD48030020002238B5C8
:102C2400064D044608462A6000F006F9431C00D00D
:102C340038BD2B68002BFBD0236038BD480300202F
:102C4400002238B5064D044608462A6000F00CF907
:102C5400431C00D038BD2B68002BFBD0236038BD4B
:102C64004803002051F8043C181F002BBCBF0B582C
:102C7400C01870472DE9F04707460E46484C3046C9
:102C840016F801EB14F80EC01CF0080CF7D1BEF1D5
:102C94002D0F5AD0BEF12B0F09BF6446644696F837
:102CA40000E0861C4BB9BEF1300F5CD00A234FF014
:102CB400050A9946DFF8EC800AE0102B4AD04FF061
:102CC400FF38B8FBF3F803FB08FA99466FEA0A0ADF
:102CD4000025284605E02CD0012509FB00C016F884
:102CE40001EBAEF1300CBCF1090F06D9AEF1410C89
:102CF400BCF1190F0BD8AEF1370C634510DDB5F1FB
:102D0400FF3FECD04045E6D94FF0FF35E7E7AEF1A1
:102D1400610CBCF1190F03D8AEF1570C6345EEDC1E
:102D24006B1C0BD004B140420AB165B91160BDE817
:102D3400F087D445D0DD4FF0FF35D0E72223284675
:102D44003B60002AF3D0711EF0E796F800E00124FE
:102D5400861CA7E7BEF1300F11D04FF00F0A6FF0B9
:102D640070489946B4E7337803F0DF03582B0BD04F
:102D740008234FF0070A6FF060489946A8E73078B7
:102D840000F0DF005828E8D14FF0100996F801E070
:102D94004FF00F0A6FF070484B46023698E700BFB9
:102DA400799D00089999991964E700BF8C4600B58C
:102DB40086461346034A714610685DF804EB624682
:102DC40058E700BF000000208C4600B58646134635
:102DD400034A714610685DF804EB62464AE700BF97
:102DE40000000020014B1868704700BF000000205D
:102DF40070B50026074D0446084611462E6000F0C3
:102E040013F8431C00D070BD2B68002BFBD023604B
:102E140070BD00BF480300205822024B4FF0FF3022
:102E24001A607047480300205822024B4FF0FF30CD
:102E34001A607047480300205822024B00201A6091
:102E4400704700BF480300205822024B4FF0FF3068
:102E54001A607047480300205822024B4FF0FF309D
:102E64001A60704748030020044A05491368002B80
:102E740008BF0B4618441060184670474C030020E6
:102E8400A80900205822024B4FF0FF301A60704707
:102E940048030020044B0022DA61044A136943F01A
:102EA4000103136101807047500300200020024099
:102EB400194BDB6813F0100305D0184AD36943F0AB
:102EC4000203D3611023144AD26812F0040F06D00F
:102ED4001249CA6942F00102CA6143F004030E4A6E
:102EE400D26912F0010F09D00C49CA6942F00402F8
:102EF400CA610949CA6922F00102CA6140F2011299
:102F0400934202D0044AD3607047034AD36923F042
:102F14000103D361704700BF00200240500300202A
:102F2400074B1B6913F0800F07D0054B054A5A6005
:102F340002F188325A60002070470120704700BFB8
:102F44000020024023016745034A136943F08003CC
:102F540013610020704700BF0020024038B50446CA
:102F640001F08CF90546164BDB6813F0010F0AD00B
:102F7400B4F1FF3FF7D024B101F080F9401BA04227
:102F8400F1D903201BE00E4BDB6813F0200F02D0B5
:102F94000B4B2022DA600A4BDB6813F0100F0BD1C5
:102FA400074BDB6913F0010F06D1054BDB6813F007
:102FB400040F01D1002002E0FFF77AFF012038BDA1
:102FC400002002402DE9F8431E46244B1B7E012BB2
:102FD40041D004460F469046204B01221A764CF20B
:102FE4005030FFF7BBFF034678BB012C08D0022CFE
:102FF40003D04FF004091C4607E04FF00209FAE73A
:103004004FF00109F7E70134E4B24C451DD2210128
:10301400C1F12002A1F1200328FA01F106FA02F21B
:10302400114326FA03F3194389B207EB4400FFF76F
:1030340031FF4CF25030FFF791FF094B1D6925F029
:1030440001051D6103460028DDD0044A00211176E4
:103054001846BDE8F8830223FAE700BF50030020B6
:103064000020024082B0084B1B68084AA2FB0323DD
:103074005B0A00FB03F3019300BF019B5A1E0192FC
:10308400002BF9D102B070475C000020D34D6210D0
:1030940070B582B00446036813F0010F2CD09A4B2C
:1030A4005B6803F00C03042B1DD0974B5B6803F0A3
:1030B4000C03082B12D06368B3F5803F41D0002B7A
:1030C40055D103F1804303F504331A6822F48032A6
:1030D4001A601A6822F480221A6037E08A4B5B680F
:1030E40013F4803FE7D0884B1B6813F4003F03D0F0
:1030F4006368002B00F0AE81236813F0020F75D0D3
:10310400814B5B6813F00C0F5FD07F4B5B6803F05F
:103114000C03082B54D02369002B00F08A807B4BCE
:1031240001221A6001F0AAF80546774B1B6813F0D8
:10313400020F75D101F0A2F8401B0228F5D9032033
:103144008DE1714A136843F480331360636843B3B9
:1031540001F094F805466C4B1B6813F4003FCBD187
:1031640001F08CF8401B6428F5D9032077E1B3F50E
:10317400A02F09D0644B1A6822F480321A601A68AE
:1031840022F480221A60E1E703F18043A3F53C3383
:103194001A6842F480221A601A6842F480321A6073
:1031A400D4E701F06BF80546574B1B6813F4003F56
:1031B400A2D001F063F8401B6428F5D903204EE146
:1031C400514B5B6813F4803FA5D14F4B1B6813F040
:1031D400020F03D02369012B40F03E814A4A136851
:1031E40023F0F803616943EAC1031360236813F011
:1031F400080F33D0A369002B5CD0444B0122C3F8E1
:10320400802401F03BF805463F4B5B6A13F0020F44
:1032140021D101F033F8401B0228F5D903201EE127
:10322400394A136823F0F803616943EAC103136060
:10323400DCE7364B00221A6001F020F80546324BD9
:103244001B6813F0020FD1D001F018F8401B0228BC
:10325400F5D9032003E10120FFF704FF236813F0ED
:10326400040F00F09780284BDB6913F0805F34D1A2
:10327400254BDA6942F08052DA61DB6903F080534E
:103284000193019B0125224B1B6813F4807F26D0F8
:10329400E368012B3ED0002B54D103F1804303F5A6
:1032A40004331A6A22F001021A621A6A22F0040232
:1032B4001A6234E0154B0022C3F8802400F0DEFFCC
:1032C4000546114B5B6A13F0020FC7D000F0D6FF1E
:1032D400401B0228F5D90320C1E00025D3E70C4A9E
:1032E400136843F48073136000F0C8FF0646084B6C
:1032F4001B6813F4807FCBD100F0C0FF801B6428CF
:10330400F5D90320ABE000BF0010024000004242A8
:1033140000700040544A136A43F001031362E368E7
:1033240033B300F0ABFF06464F4B1B6A13F0020F9A
:103334002FD100F0A3FF801B41F288339842F3D9C8
:1033440003208CE0052B09D0474B1A6A22F00102B6
:103354001A621A6A22F004021A62E0E7424B1A6AFD
:1033640042F004021A621A6A42F001021A62D6E7B3
:1033740000F084FF06463C4B1B6A13F0020F08D092
:1033840000F07CFF801B41F288339842F3D903207C
:1033940065E0E5B9E369002B60D0334A526802F076
:1033A4000C02082A5DD0022B17D0304B00221A667B
:1033B40000F064FF04462C4B1B6813F0007F47D0D9
:1033C40000F05CFF001B0228F5D9032047E0264AE1
:1033D400D36923F08053D361DCE7244B00221A66BF
:1033E40000F04CFF0546204B1B6813F0007F06D00D
:1033F40000F044FF401B0228F5D903202FE0236A84
:10340400B3F5803F1AD018494B6823F47413226A29
:10341400606A024313434B60144B01221A6600F0A6
:103424002DFF0446104B1B6813F0007F0ED100F0F3
:1034340025FF001B0228F5D9032010E00A4A53682F
:1034440023F40033A1680B435360DCE7002006E05B
:10345400002004E0012002E0012000E0002002B08E
:1034640070BD0120FBE700BF001002400000424293
:1034740086B0174B0FCB0DF1180C0CE90F0040F27E
:103484000123ADF80430134B5B6803F00C02082AE7
:1034940002D0114806B07047C3F3834218326A441D
:1034A40012F8100C13F4803F0DD00A4B5B68C3F381
:1034B400404318336B4413F8142C074BB3FBF2F35B
:1034C40003FB00F0E6E7054B03FB00F0E2E700BF77
:1034D400889E00080010024000127A0000093D0096
:1034E40070B504460D46594B1B6803F007038B4225
:1034F4000BD2564A136823F007030B431360136877
:1035040003F007038B4240F09A80236813F0020F04
:1035140006D04F4A536823F0F003A1680B4353606D
:10352400236813F0010F52D06368012B23D0022BC0
:1035340028D0474A126812F0020F00F082804449F2
:103544004A6822F0030213434B6000F097FE0646DC
:103554006368012B1DD0022B2AD03D4B5B6813F00E
:103564000C0F34D000F08AFE831B41F28832934260
:10357400F3D9032062E0364A126812F4003FDED128
:1035840001205BE0324A126812F0007FD7D101209B
:1035940054E02F4B5B6803F00C03042B17D000F0AE
:1035A4006DFE831B41F288329342F2D9032045E039
:1035B400274B5B6803F00C03082B08D000F05EFE79
:1035C400801B41F288339842F2D9032036E01F4B26
:1035D4001B6803F00703AB420AD91C4A136823F0A3
:1035E40007032B431360136803F00703AB422AD18C
:1035F400236813F0040F06D0154A536823F4E063DC
:10360400E1680B435360236813F0080F07D0104A96
:10361400536823F46053216943EAC1035360FFF7FD
:1036240027FF0B4B5B68C3F303130A4AD35CD840F0
:10363400094B1860002000F0F1FD002070BD01204E
:10364400FCE70120FAE70120F8E700BF0020024070
:1036540000100240ACA000085C000020014B186878
:10366400704700BF5C00002008B5FFF7F7FF044B6C
:103674005B68C3F30223034AD35CD84008BD00BF90
:1036840000100240A4A0000808B5FFF7E7FF044BB0
:103694005B68C3F3C223034AD35CD84008BD00BFB0
:1036A40000100240A4A0000830B4036A23F0010310
:1036B4000362036A4268846924F0730C0C6844EA68
:1036C4000C0423F0020C8B6843EA0C03114DA8424E
:1036D40003D005F50065A84205D123F00803CD68A1
:1036E4002B4323F004030B4DA84203D005F50065DA
:1036F400A84207D122F440724D6945EA020C8A6956
:1037040042EA0C02426084614A684263036230BC4C
:10371400704700BF002C014030B4036A23F4807367
:103724000362036A4268C46924F0730C0C6844EAB7
:103734000C0523F400738C6843EA0423114CA04263
:1037440003D004F50064A04206D123F40063CC68DE
:1037540043EA042323F480630A4CA04203D004F513
:103764000064A04207D122F440524C6942EA041298
:103774008C6942EA04124260C5614A68C26303620A
:1037840030BC7047002C014030B4036A23F48053EA
:103794000362036A4468C26922F4E6420D6842EA9D
:1037A400052223F400538D6843EA0533094DA842EA
:1037B40003D005F50065A84204D124F480444D6982
:1037C40044EA85144460C2614A680264036230BCFE
:1037D400704700BF002C014010B4036A046A24F04F
:1037E40001040462846924F0F00C4CEA021223F010
:1037F4000A030B438261036210BC704710B4036A6E
:1038040023F0100303628469036A24F4704C4CEAC5
:10381400023223F0A00343EA01138261036210BC65
:10382400704710B4846824F47F4C42EA03220A43AC
:1038340042EA0C02826010BC704710B50468A268AA
:1038440022F070024B68134323F007030A681A43FB
:10385400A2604B68602B24D009D8402B10D0502B89
:103864000DD10A6989680068FFF7B6FF07E0702B7D
:1038740005D10B698A68C9680068FFF7D2FF10BDDB
:1038840003681C6A1A6A22F001021A6202689369C8
:1038940023F0F003096943EA0113936103681C628E
:1038A400EDE70A6989680068FFF7A8FFE7E7704752
:1038B40038B590F83C30012B18D00446012580F827
:1038C4003C50022380F83D30FFF7B7FF2268D368ED
:1038D40023F04003D3602268D36823F48043D36089
:1038E40084F83D50002084F83C0038BD0220FCE7F9
:1038F4000368244A904212D002F5006290420ED02E
:10390400B0F1804F0BD0A2F59832904207D002F567
:103914008062904203D002F58062904203D123F08A
:1039240070034A681343174A904212D002F50062AA
:1039340090420ED0B0F1804F0BD0A2F59832904255
:1039440007D002F58062904203D002F58062904273
:1039540003D123F44073CA68134323F080034A69F4
:103964001A4302608B68C3620B688362054B9842FA
:1039740003D003F50063984201D10B69036301236B
:1039840043617047002C0140B0B110B5044690F873
:103994003D3063B1022384F83D30214651F8040BD5
:1039A400FFF7A6FF012384F83D30002010BD80F806
:1039B4003C30FFF77CFFEDE70120704730B4036A29
:1039C40023F010030362036A4468826922F4E64226
:1039D4000D6842EA052223F020038D6843EA0513AB
:1039E400114DA84203D005F50065A84206D123F085
:1039F4008003CD6843EA051323F040030A4DA8422F
:103A040003D005F50065A84207D124F440644D694C
:103A140044EA85048D6944EA8504446082614A6805
:103A24008263036230BC7047002C014038B590F8C3
:103A34003C30012B66D004460D46012380F83C300F
:103A4400022380F83D300C2A1AD8DFE802F0071967
:103A54001919201919193419191947000068FFF7A1
:103A640023FE2268936943F00803936122689369F3
:103A740023F0040393612268936929690B439361DA
:103A8400012384F83D30002084F83C0038BD0068F0
:103A9400FFF794FF2268936943F4006393612268FB
:103AA400936923F48063936122689369296943EAE3
:103AB40001239361E4E70068FFF72EFE2268D369CF
:103AC40043F00803D3612268D36923F00403D3616C
:103AD4002268D36929690B43D361D1E70068FFF7F2
:103AE40053FE2268D36943F40063D3612268D36927
:103AF40023F48063D3612268D369296943EA0123EB
:103B0400D361BDE70220C1E74FF0010C0CFA01FCC0
:103B1400036A23EA0C030362036A8A4013430362C1
:103B24007047000010B5044601220068FFF7ECFF5F
:103B34002368094A934203D002F50062934203D1F9
:103B44005A6C42F400425A642268136843F0010339
:103B54001360002010BD00BF002C01404FF0040C86
:103B64000CFA01FC036A23EA0C030362036A8A4029
:103B740013430362704710B5044604220068FFF73C
:103B8400EDFF2268536C43F40043536422681368C6
:103B940043F001031360002010BD024690F83C304E
:103BA400012B21D0012380F83C30CB6823F44073EF
:103BB4008868034323F480634868034323F4006361
:103BC4000868034323F480530869034323F4005330
:103BD40048690343896923F440430B4311684B64E8
:103BE400002082F83C0070470220704790F83C2087
:103BF400012A22D030B40346012083F83C0002227B
:103C040083F83D201C68626822F0700262601C68C0
:103C140062680D682A4362601C68A26822F0800210
:103C2400A2601C68A26849680A43A26083F83D0048
:103C3400002083F83C0030BC70470220704700002D
:103C440090F82420012A25D08CB00346012280F864
:103C54002420114A00920268906810F0010F07D1E5
:103C64000D48806810F0010F02D10C48824209D03F
:103C74009A6A42F020029A620120002283F82420EA
:103C84000CB07047506820F47020096801435160FB
:103C94000020F2E702207047002801400024014080
:103CA400002808DB0901C9B200F1604000F5614059
:103CB40080F80013704700F00F000901C9B2014BEE
:103CC4001954704714ED00E000B500F00700C0F18E
:103CD400070CBCF1040F28BF4FF0040C031D062B86
:103CE4000FD9C31E4FF0FF3E0EFA0CF021EA00017B
:103CF40099400EFA03FE22EA0E0241EA02005DF840
:103D040004FB0023EEE70000074AD36823F4E063D2
:103D14001B041B0C000200F4E060034343F0BF6388
:103D240043F40033D360704700ED00E010B504465F
:103D3400054BD868C0F30220FFF7C6FF01462046B2
:103D4400FFF7AEFF10BD00BF00ED00E000F01F0262
:103D5400400901239340024A42F82030704700BFD3
:103D640000E100E00138B0F1807F0BD24FF0E02396
:103D74005861054AF02182F8231000209861072237
:103D84001A6170470120704700ED00E0042806D056
:103D94004FF0E022136923F00403136170474FF0DE
:103DA400E022136943F0040313617047704708B5B8
:103DB400FFF7FCFF08BD0000064B0022DA61064B4A
:103DC4001A6942F004021A611A6942F040021A6147
:103DD400704700BF5003002000200240064B002221
:103DE400DA61064B1A6942F002021A6158611A69D3
:103DF40042F040021A617047500300200020024044
:103E0400264B1B7E012B46D070B505460E46234B30
:103E140001221A760368022B20D04CF25030FFF7AF
:103E24009DF890BB4FF0FF333360AC680121EA6822
:103E3400AB6803EBC223A34228D92046FFF7CEFF89
:103E44004CF25030FFF78AF8154A136923F0020345
:103E540013610146B8B904F50064E8E74CF2503048
:103E6400FFF77CF808B1012110E00120FFF7A4FF5F
:103E74004CF25030FFF772F80146094A136923F0F7
:103E84000403136102E0346000E00121034B0022CB
:103E94001A76084670BD0221084670475003002078
:103EA4000020024070B582B00024A446ABE0854DEA
:103EB400AA420CD013D8A5F58015AA4207D005F55F
:103EC4007025AA4203D0A5F58015AA4210D18A68AC
:103ED400002A62D0012A5BD04361082408E07A4DAD
:103EE400AA42F4D005F58035AA4201D1EFE7CC68A7
:103EF400BEF1FF0F53D806464FEA8C0233680F25F4
:103F0400954023EA050304FA02F2134333604B6835
:103F140013F0805F75D06D4B9A6942F001029A618B
:103F24009B6903F001030193019B4FEA9C02951CDA
:103F3400674B53F825600CF00305AD000F23AB402D
:103F440026EA0306634B984230D003F58063984217
:103F540000F0968003F58063984200F0938003F5A7
:103F64008063984200F0908003F58063984200F0EB
:103F74008D8003F58063984216D0062317E0CC6841
:103F84000434B5E7CC680834B2E7CC680C34AFE746
:103F940003610824ACE70024AAE70424A8E7061D6B
:103FA400ACF108029200A9E7052300E00023AB402E
:103FB40033430232464D45F822304B6813F4803FB8
:103FC40066D0454A136843EA0E0313604B6813F442
:103FD400003F63D0404A536843EA0E0353604B6882
:103FE40013F4801F60D03C4A936843EA0E03936045
:103FF4004B6813F4001F5DD0374AD36843EA0E03BD
:10400400D3600CF1010CBCF10F0F59D8012303FA52
:104014000CF30A6802EA030E33EA0202F1D14A6899
:10402400122A3FF644AF122A3FF662AF01A555F8B3
:1040340022F000BFD33E0008F33E0008893F000889
:104044009B3F0008F53E0008F53E0008F53E0008D9
:10405400F53E0008F53E0008F53E0008F53E000870
:10406400F53E0008F53E0008F53E0008F53E000860
:10407400F53E0008F53E0008833F00088F3F000826
:10408400012394E7022392E7032390E704238EE7B6
:10409400114A136823EA0E03136097E70E4A536824
:1040A40023EA0E0353609AE70B4A936823EA0E034C
:1040B40093609DE7084AD36823EA0E03D360A0E720
:1040C40002B070BD00002210000031100010024048
:1040D40000000140000801400004014083681942C7
:1040E40001D001207047002070470AB10161704778
:1040F400090401617047C3685940C16070470000FA
:1041040070B582B00446036813F0010F36D03F4BFC
:10411400DB6913F0805F49D13C4BDA6942F080528D
:10412400DA61DB6903F080530193019B0125384B6D
:104134001B6813F4807F3BD0344B1B6A13F4407329
:1041440013D0626802F440729A420ED02F4A136A66
:1041540023F440702F490126C1F840640026C1F8B9
:104164004064106213F0010F36D1284A136A23F415
:10417400407361680B431362002D3ED1236813F032
:10418400020F06D0214A536823F44043A1680B432D
:104194005360236813F0100F34D01C4A536823F47F
:1041A400800361690B43536000202CE00025BEE7C7
:1041B400174A136843F48073136000F05FF80646EF
:1041C400134B1B6813F4807FB6D100F057F8801BA3
:1041D4006428F5D9032016E000F050F806460B4B8E
:1041E4001B6A13F0020FC0D100F048F8801B41F2A3
:1041F40088339842F3D9032005E0D36923F0805330
:10420400D361BBE7002002B070BD00BF00100240C4
:1042140000700040000042427047000010B50446A0
:10422400074B1868074BA3FB00308009FFF79AFD82
:10423400002221464FF0FF30FFF778FD002010BD2B
:104244005C000020D34D621008B5074A136843F0A0
:10425400100313600320FFF757FD0020FFF7DEFF74
:10426400FFF7DAFF002008BD00200240024A13686D
:1042740001331360704700BF70030020014B1868BE
:10428400704700BF7003002030B583B00190FFF782
:10429400F5FF0546019CB4F1FF3F00D00134FFF760
:1042A400EDFF401BA042FAD303B030BD70470000BD
:1042B40030B482B00022019290F82420012A00F048
:1042C4008F800346012280F824204A68062A2DD8CC
:1042D4000468606B02EB8202053A4FF01F0C0CFA83
:1042E40002FC20EA0C000D6805FA02F20243626344
:1042F4000A68092A38D91C68E06802EB42021E3AAF
:104304004FF0070C0CFA02FC20EA0C008D6805FA49
:1043140002F20243E2600A68103A012A34D900200A
:10432400002283F8242002B030BC70470C2A0DD838
:104334000568286B02EB8202233A1F24944020EA8A
:1043440004000C68944020432863D1E70568E86AB8
:1043540002EB8202413A1F24944020EA04000C68D4
:1043640094402043E862C3E71C68206902EB4202E0
:104374004FF0070C0CFA02FC20EA0C008D6805FAD9
:1043840002F202432261C6E71A681648824205D047
:104394009A6A42F020029A620120C1E7906810F400
:1043A400000F1BD1906840F4000090600A68102A46
:1043B40001D00020B4E70C4A12680C49A1FB021298
:1043C400920C02EB82025200019202E0019A013A3D
:1043D4000192019A002AF9D10020A1E700209FE769
:1043E4000220A0E7002401405C00002083DE1B4380
:1043F40030B583B00023019303689A6812F0010F6B
:104404002ED104469A6842F001029A60164B1B684A
:10441400164AA2FB03239B0C019302E0019B013B80
:104424000193019B002BF9D1FFF728FF0546236870
:104434009B6813F0010F11D1FFF720FF431B022BE0
:10444400F5D9A36A43F01003A362E36A43F00103BE
:10445400E362002384F82430012002E0002000E01D
:10446400002003B030BD00BF5C00002083DE1B438E
:1044740090F82430012B68D010B50446012380F84D
:104484002430FFF7B5FF00285BD1A36A23F44073FF
:1044940023F0010343F48073A36223682C4A9342FC
:1044A40027D0A26A22F48012A2625A6812F4806FA2
:1044B40005D0A26A22F4405242F48052A262A26A57
:1044C40012F4805F2BD0E26A22F00602E26200223C
:1044D40084F824206FF002021A6023689A6802F4B8
:1044E4006022B2F5602F1DD09A6842F480129A605F
:1044F4002AE0A2F58062526812F4702FD1D0A26A29
:1045040042F48012A262134A526812F4806FD6D029
:10451400A26A22F4405242F48052A262CFE70022FF
:10452400E262D4E70A4A934204D09A6842F4A002B1
:104534009A6009E0A2F58062526812F4702FD3D118
:10454400F3E7002384F8243010BD0220704700BF35
:10455400002801400024014038B503689A6812F02D
:10456400010F01D1002038BD04469A6822F00102EF
:104574009A60FFF783FE054623689B6813F0010FDA
:104584000ED0FFF77BFE431B022BF5D9A36A43F041
:104594001003A362E36A43F00103E3620120E2E74C
:1045A4000020E0E7002800F08680F8B50446836A1E
:1045B400002B50D02046FFF7CFFFA36A13F010035F
:1045C40073D1002871D1A26A22F4885222F0020227
:1045D40042F00202A2626268266838498E4240D0E4
:1045E400E1690A43E16842EA4102A568B5F5807FC2
:1045F40002D0012D3CD01D466769012F3BD0716864
:1046040021F46941294371602568AE682C49314021
:104614001143A960A168B1F5807F01D0012902D1BD
:104624002369013B1B052568E96A21F470010B43EA
:10463400EB6223689968234B0B409A422CD0A36AFF
:1046440023F0120343F01003A362E36A43F001036F
:10465400E36201202EE0C36280F82430FFF726FED7
:10466400A8E7E169B1F5402FBBD14FF40021B8E7C9
:104674004FF48075C0E731B9A169013945EA413188
:1046840041F40065BBE7A16A41F02001A162E16A3F
:1046940041F00101E162B2E70023E362A36A23F07F
:1046A400030343F00103A36204E0A36A43F010038D
:1046B400A3620120F8BD0120704700BF003C014007
:1046C400FDF7E1FFFE0E1FFF0268D36823F0C0036D
:1046D400D360202380F8393070470268D36823F40C
:1046E4009073D3600268536923F00103536120235C
:1046F40080F83A30704790F83930DBB2212B01D082
:10470400022070478368B3F5805F17D0036A5A1C90
:1047140002621A7803685A60C38C9BB2013B9BB255
:10472400C3844BB90268D36823F08003D360026862
:10473400D36843F04003D36000207047036A1B88AA
:104744000268C3F30803536003691BB9036A0233A5
:104754000362E1E7036A01330362DDE72DE9F04117
:1047640004460268136923F44053C1680B43136180
:10477400836802691343426913430168CA6822F4D7
:10478400B05222F00C021343CB600268536923F445
:10479400407381690B4353610268574B9A4255D069
:1047A400FEF762FF00EB800000EB800063689B0073
:1047B400B0FBF3F5514FA7FB05356D092E01FEF74C
:1047C40053FF00EB800000EB800063689B00B0FBAC
:1047D400F3F5FEF749FF00EB800000EB800063680F
:1047E4009B00B0FBF3F0A7FB003040094FF06408D6
:1047F40008FB10531B013233A7FB03235B0903F0AF
:10480400F003F518FEF730FF00EB800000EB8000AA
:1048140063689B00B0FBF3F6FEF726FF00EB800015
:1048240000EB800063689B00B0FBF3F0A7FB003053
:10483400400908FB10631B013233A7FB0373C3F366
:10484400431322681D449560BDE8F081FEF71CFF08
:1048540000EB800000EB800063689B00B0FBF3F585
:10486400264FA7FB05356D092E01FEF70DFF00EB62
:10487400800000EB800063689B00B0FBF3F5FEF75B
:1048840003FF00EB800000EB800063689B00B0FB3B
:10489400F3F0A7FB003040094FF0640808FB105305
:1048A4001B013233A7FB03235B0903F0F003F51864
:1048B400FEF7EAFE00EB800000EB800063689B00DB
:1048C400B0FBF3F6FEF7E0FE00EB800000EB8000A7
:1048D40063689B00B0FBF3F0A7FB0030400908FBC2
:1048E40010631B013233A7FB0373C3F34313226822
:1048F4001D449560A8E700BF003801401F85EB51B7
:104904002DE9F84305460F4616469946DDF8208002
:104914002B681C6837EA04040CBF01240024B44249
:104924001FD1B8F1FF3FF3D0B8F1000F05D0FFF766
:10493400A5FCA0EB09004045EAD92A68D36823F412
:10494400D073D3602A68536923F001035361202391
:1049540085F8393085F83A30002385F8383003205B
:1049640000E00020BDE8F88358B310B5044690F881
:1049740039300BB3242384F839302268D36823F404
:104984000053D3602046FFF7E9FE2268136923F43D
:10499400904313612268536923F02A035361226808
:1049A400D36843F40053D3600020E063202384F8E9
:1049B400393084F83A3010BD80F8383000F094FD76
:1049C400D8E7012070472DE9F04182B01E4690F8E7
:1049D4003930DBB2202B55D104460D4690460029D0
:1049E40054D0002A54D090F83830012B52D00123EF
:1049F40080F838300023C363212380F83930FFF76F
:104A04003DFC0746A4F82480A4F8268010E0009614
:104A14003B46002280212046FFF772FF00283BD14D
:104A24002B882268C3F3080353602369CBB902358A
:104A3400E38C9BB2BBB1E28C92B2013A92B2E284B3
:104A4400A368B3F5805FE2D000963B460022802144
:104A54002046FFF755FF08BB15F8012B23685A6061
:104A6400E6E70135E4E700963B4600224021204674
:104A7400FFF746FFA0B9202384F83930002384F8D7
:104A8400383000E0022002B0BDE8F0810120FAE7EE
:104A94000120F8E70220F6E70320F4E70320F2E719
:104AA4000320F0E738B5134690F83920D2B2202A13
:104AB40030D1044600292FD0002B2FD090F8382075
:104AC400012A2DD0012280F8382001628384C38416
:104AD4000025C563212280F83920026B11489062B9
:104AE400226B1148D062226B10481063226B55630D
:104AF40022680432206B00F037FA23686FF040021A
:104B04001A6084F838502268536943F08003536173
:104B1400284600E0022038BD0120FCE70120FAE726
:104B24000220F8E7DF4B00082B4C0008214D000859
:104B340030B583B0044690F83A00C0B220283CD186
:104B440000293DD0002A3DD094F83830012B3BD0C9
:104B5400012384F83830A162A2850025E56322236D
:104B640084F83A30636B19489862636B1848D862CA
:104B7400636B18481863636B5D63206813460A46C9
:104B8400011D606B00F0F0F9019523681A68019229
:104B94005A680192019A84F83850DA6842F48072B3
:104BA400DA602268536943F0010353612268536950
:104BB40043F040035361284600E0022003B030BDB7
:104BC4000120FBE70120F9E70220F7E7374C000852
:104BD400154D0008214D0008704708B50346406A8A
:104BE4001B681B6813F0200F0CD10023C3840268D8
:104BF400536923F0800353610268D36843F0400390
:104C0400D36008BDFFF7E8FFFBE708B50168CA6891
:104C140022F04002CA60202280F83920FFF7DCFF2E
:104C2400002008BD704708B5406AFFF7FBFF08BDC8
:104C3400704708B50346406A1B681B6813F0200FD1
:104C440013D10023C3850268D36823F48073D3602F
:104C54000268536923F0010353610268536923F026
:104C640040035361202380F83A30FFF7E1FF08BD89
:104C740008B590F83A30DBB2222B46D18368B3F5FD
:104C8400805F0FD003690BBB03685A68836A591CA1
:104C940081621A70C38D9BB2013B9BB2C385F3B191
:104CA400002008BD826A036943B903685B68C3F3E3
:104CB40008031380836A02338362EBE703685B684B
:104CC400DBB21380836A01338362E3E703685B68C2
:104CD400826A511C816203F07F031370DAE7026871
:104CE400D36823F02003D3600268D36823F480736D
:104CF400D3600268536923F001035361202380F8D1
:104D04003A30FFF795FF0020CBE70220C9E7704750
:104D140008B5406AFFF7FBFF08BD704710B5446A49
:104D240023685A6994F83930DBB2212B10D02368F8
:104D34005A6902F0400294F83A30DBB2222B11D0C7
:104D4400E36B43F01003E3632046FFF7E6FF10BD77
:104D540002F08002002AEAD00023E3842046FFF711
:104D6400B3FCE4E7002AEBD00023E3852046FFF7F9
:104D7400B4FCE5E710B5044602681368D1685269CB
:104D840013F00F0F08D113F0200F0BD011F0200FE8
:104D940008D0FFF76DFF11E012F001020FD111F4FA
:104DA400907F0CD113F0800F02D011F0800F65D1E9
:104DB40013F0400F02D011F0400F63D110BD13F077
:104DC400010F06D011F4807F03D0E06B40F00100A6
:104DD400E06313F0040F04D01AB1E06B40F002005A
:104DE400E06313F0020F04D01AB1E06B40F004004A
:104DF400E06313F0080F04D01AB1E26B42F008022A
:104E0400E263E26B002AD9D013F0200F02D011F034
:104E1400200F21D123685B6903F04003E26B12F099
:104E2400080F00D123B32046FFF757FC23685A69C3
:104E340012F0400F18D05A6922F040025A61636B95
:104E440073B1124A5A63606B00F0C8F80028B5D0F9
:104E5400606B436B9847B1E72046FFF709FFD9E73A
:104E64002046FFF75AFFA9E72046FFF756FFA5E7BC
:104E74002046FFF752FF0023E3639FE72046FFF736
:104E84003AFC9BE72046FFF7C0FE97E7954E0008E3
:104E940008B5406A0023C385C384FFF73EFF08BDFD
:104EA40030B40124056CAC40C56B6C60046863606D
:104EB4004368102B05D0036899600368DA6030BC3E
:104EC400704703689A600368D960F8E700283CD00B
:104ED40010B4034601681E4A91422BD81D4A0A4465
:104EE4001D48A0FB0202120992001A641B4ADA63ED
:104EF400022283F8212008686FF30D105A689C6819
:104F04002243DC6822431C6922435C6922439C6976
:104F14002243DC69224302430A6000209862D8627B
:104F2400186358639863012283F8212083F82000D2
:104F340010BC70470A4A0A440748A0FB020212093F
:104F440092001A64074ADA63D2E70120704700BF6F
:104F540007040240F8FFFDBFCDCCCCCC00000240DA
:104F6400F8FBFDBF0004024038B5044690F8200069
:104F7400012831D0012084F8200094F82100012870
:104F840004D0002384F82030022038BD022084F8A5
:104F940021000020A0632568286820F00100286013
:104FA4002046FFF77DFFE36A5BB12268136843F094
:104FB4000E0313602268136843F00103136000209A
:104FC400E3E72268136823F004031360226813687C
:104FD40043F00A031360EDE70220D6E708B590F822
:104FE4002130022B03D004238363012008BD02680F
:104FF400136823F00E0313600268136823F001039F
:10500400136003684B4A93424ED9783A934224D0B2
:105014001432934230D0143293422FD0143293423C
:105024002FD0143293422FD0143293422FD0143203
:1050340093422FD002F5627293422ED014329342DF
:105044002DD0143293422CD01432934202D04FF418
:10505400803203E04FF4805200E00122364B5A6064
:10506400012380F82130002380F82030436B002B8B
:105074005ED098470020B9E71022EFE74FF4807222
:10508400ECE74FF48052E9E74FF48032E6E74FF45F
:105094008012E3E74FF08072E0E70122DEE710229E
:1050A400DCE74FF48072D9E7244A934224D01432C7
:1050B400934225D01432934224D01432934224D004
:1050C4001432934224D01432934224D014329342A3
:1050D40024D002F56272934223D01432934222D038
:1050E4001432934221D01432934202D04FF48032CE
:1050F40003E04FF4805200E00122114B5A60AFE705
:105104001022FAE74FF48072F7E74FF48052F4E785
:105114004FF48032F1E74FF48012EEE74FF08072E3
:10512400EBE70122E9E71022E7E74FF48072E4E7B6
:1051340000205BE7800002400004024008000240B7
:105144000000024038B5C36B1A6804682568016C16
:1051540004238B40134200F09B8015F0040F00F0F1
:105164009780236813F0200F03D1236823F00403EE
:10517400236003689A4A934246D9783A934224D0EA
:105184001432934228D01432934227D014329342DB
:1051940027D01432934227D01432934227D01432AA
:1051A400934227D002F56272934226D0143293427E
:1051B40025D01432934224D01432934202D04FF4B7
:1051C400802203E04FF4804200E00422854B5A60C1
:1051D400C36A03B1984738BD4022F7E74FF48062B1
:1051E400F4E74FF48042F1E74FF48022EEE74FF406
:1051F4008002EBE74FF08062E8E70422E6E7402212
:10520400E4E74FF48062E1E7774A934224D0143212
:10521400934225D01432934224D01432934224D0A2
:105224001432934224D01432934224D01432934241
:1052340024D002F56272934223D01432934222D0D6
:105244001432934221D01432934202D04FF480227C
:1052540003E04FF4804200E00422644B5A60B7E755
:105264004022FAE74FF48062F7E74FF48042F4E714
:105274004FF48022F1E74FF48002EEE74FF08062B2
:10528400EBE70422E9E74022E7E74FF48062E4E732
:1052940002238B40134200F0AB8015F0020F00F0A4
:1052A400A780236813F0200F06D1236823F00A0394
:1052B4002360012380F821300368494A93424BD983
:1052C400783A934224D0143293422DD0143293422C
:1052D4002CD0143293422CD0143293422CD014325A
:1052E40093422CD0143293422CD002F56272934232
:1052F4002BD0143293422AD01432934229D0143240
:10530400934202D04FF4003203E04FF4005200E025
:105314000222344B5A60002380F82030836A002B29
:105324003FF459AF984756E72022F2E74FF4007252
:10533400EFE74FF40052ECE74FF40032E9E74FF4A3
:105344000012E6E74FF00072E3E70222E1E72022D1
:10535400DFE74FF40072DCE7234A934224D014328F
:10536400934225D01432934224D01432934224D051
:105374001432934224D01432934224D014329342F0
:1053840024D002F56272934223D01432934222D085
:105394001432934221D01432934202D04FF400329B
:1053A40003E04FF4005200E00222104B5A60B2E7CF
:1053B4002022FAE74FF40072F7E74FF40052F4E7C3
:1053C4004FF40032F1E74FF40012EEE74FF00072B1
:1053D400EBE70222E9E72022E7E74FF40072E4E773
:1053E4008000024000040240080002400000024025
:1053F40008238B4013423FF4EEAE15F0080F3FF440
:10540400EAAE236823F00E032360026CC16B012310
:1054140003FA02F24A60836380F82130002380F8A3
:105424002030036B002B3FF4D6AE9847D3E600BF81
:105434000F4B1A6842F001021A6059680D4A0A407B
:105444005A601A6822F0847222F480321A601A6850
:1054540022F480221A605A6822F4FE025A604FF441
:105464001F029A60044B4FF000629A60704700BFBD
:10547400001002400000FFF800ED00E000B583B02A
:10548400164B5A6942F001025A615B6903F0010349
:105494000193019B002201210C20FEF747FC0C2004
:1054A400FEF754FC002201210D20FEF73FFC0D20E5
:1054B400FEF74CFC0A480B4B03604FF4E1334360A6
:1054C40000238360C36003610C2242618361C36172
:1054D400FFF74AFA03B05DF804FB00BF0010024076
:1054E40098040020004800402DE9F04188B00446AB
:1054F4000023049305930693079303685F4A93423A
:1055040005D05F4A93425CD008B0BDE8F0815D4BA2
:10551400DA6942F40032DA61DA6902F400320092A4
:10552400009A9A6942F004029A619B6903F00403A9
:105534000193019B042304930223059303230793FC
:10554400514E04A93046FEF7ADFC08230493002510
:1055540005950127069704A93046FEF7A3FC4B4E98
:105564004B4B33607560B5604FF08008C6F80C8013
:10557400356175612023B361F5613046FFF7A6FC00
:1055840066637462434E444B336010237360B560AA
:10559400C6F80C8035617561B561F5613046FFF779
:1055A40095FC266374622A4639462620FEF7BEFB24
:1055B4002620FEF7CBFB2268D36843F01003D360A8
:1055C400A2E7304BDA6942F48022DA61DA6902F444
:1055D40080220292029A9A6942F008029A619B69B7
:1055E40003F008030393039B4FF4806304930223A3
:1055F400059303230793294E04A93046FEF752FC72
:105604004FF400630493002505950127069704A928
:105614003046FEF747FC224E224B33607560B5607E
:105624004FF08008C6F80C80356175612023B361A2
:10563400F5613046FFF74AFC666374621A4E1B4BF1
:10564400336010237360B560C6F80C8035617561F2
:10565400B561F5613046FFF739FC266374622A466A
:1056640039462720FEF762FB2720FEF76FFB2268EE
:10567400D36843F01003D36046E700BF0044004002
:10568400004800400010024000080140540400207B
:105694006C0002401004002080000240000C014015
:1056A400CC03002030000240880300201C0002408C
:1056B4002DE9F04F89B0864B9A6942F004029A6151
:1056C4009A6902F004020192019A9A6942F008026E
:1056D4009A619A6902F008020292029A9A6942F067
:1056E40010029A619B6903F010030393039B4FF02C
:1056F4000009CDF81490CDF81890022707974FF0C1
:10570400200ACDF810A0734E04A93046FEF7CAFB58
:105714004023049304A93046FEF7C4FB4FF0800BEA
:10572400CDF810B004A93046FEF7BCFB4FF48062FC
:105734000492694C04A92046FEF7B4FB4FF40063BD
:10574400049304A92046FEF7ADFB4FF4805504955D
:1057540004A92046FEF7A6FB4FF00108CDF81880F7
:10576400049505F1804505F5784504A92846FEF71A
:1057740099FBCDF81890049704A92846FEF792FBEC
:10578400CDF814804FF00409CDF8109004A93046E8
:10579400FEF788FB102104910DEB01000146284619
:1057A400FEF780FBCDF810A004A801462846FEF7BA
:1057B40079FB03230593CDF8108004A80146204605
:1057C400FEF770FBCDF8108004A801462846FEF7CA
:1057D40069FB082004900DF1100C61462046FEF789
:1057E40061FB04970DF1100C61462046FEF75AFB4D
:1057F4001021049169442046FEF754FBCDF810A013
:1058040004A92046FEF74EFBCDF8109004A92046CB
:10581400FEF748FB0820049004A92846FEF742FB43
:10582400CDF8109004A92846FEF73CFB05974023C9
:10583400049304A92046FEF735FBCDF810B004A963
:105844002046FEF72FFB4FF48079CDF8109004A981
:105854002046FEF727FBCDF810B004A92846FEF732
:1058640021FBCDF8108004A93046FEF71BFB0497FA
:1058740004A93046FEF716FBCDF8109004A928467B
:10588400FEF710FB4FF40073049304A92846FEF7B7
:1058940009FB4FF48062049204A92846FEF702FB38
:1058A4004FF40053049304A93046FEF7FBFA4FF477
:1058B4008043049304A93046FEF7F4FA4FF40043FE
:1058C400049304A93046FEF7EDFA09B0BDE8F08F61
:1058D40000100240000C0140001001402DE9F04F7F
:1058E40099B07B4B9A6942F400629A619A6902F416
:1058F40000620192019A9A6942F400529A619B698A
:1059040003F400530293029B724EDFF8CC91C6F865
:105914000090002474604FF0200AC6F808A04FF4E9
:10592400FA6BC6F80CB034617461B4613046FEF7AA
:105934002BF810231693179416A93046FEF756F940
:1059440060230F93109411940827129713941494BE
:105954004FF40072159222460FA93046FEF766F8FE
:1059640004220FA93046FEF761F83A460FA93046E3
:10597400FEF75CF84FF4006108914FF480600990E1
:105984000A9430250B950C940D940E940DEB0A0C8F
:1059940061463046FEF701F9504DDFF84481C5F801
:1059A40000806C60C5F808A0C5F80CB02C616C616F
:1059B400AC612846FDF7E8FFCDF858A08023179383
:1059C4000DF1580C61462846FEF710F9049405239E
:1059D400039303A92846FDF76BFF5023C8F824302E
:1059E40060230F93109411941297139414944FF40A
:1059F4000072159222460DF13C0C61462846FEF7D2
:105A040015F804220DF13C0C61462846FEF70EF809
:105A14003A460DF13C0C61462846FEF707F84FF470
:105A2400006108914FF4806009900A9430230B932D
:105A34000C940D940E940DEB0A012846FEF7ADF874
:105A4400D8F8443023F40043C8F84430D9F844303B
:105A540023F40043C9F8443021462846FEF762F88F
:105A640004212846FEF75EF839462846FEF75AF820
:105A740021462846FEF77FF804212846FEF77BF8E6
:105A840039462846FEF777F821463046FEF74AF8AD
:105A940004213046FEF746F839463046FEF742F810
:105AA40021463046FEF767F804213046FEF763F8D6
:105AB40039463046FEF75FF82B6801221A633268D4
:105AC400136843F00103136019B0BDE8F08F00BF01
